{
  "abi": [
    {
      "inputs": [
        {
          "internalType": "address[]",
          "name": "initChildren",
          "type": "address[]"
        }
      ],
      "payable": false,
      "stateMutability": "nonpayable",
      "type": "constructor"
    },
    {
      "anonymous": false,
      "inputs": [
        {
          "indexed": false,
          "internalType": "address",
          "name": "proxy",
          "type": "address"
        }
      ],
      "name": "ProxyCreated",
      "type": "event"
    },
    {
      "constant": true,
      "inputs": [],
      "name": "admin",
      "outputs": [
        {
          "internalType": "address",
          "name": "",
          "type": "address"
        }
      ],
      "payable": false,
      "stateMutability": "view",
      "type": "function"
    },
    {
      "constant": false,
      "inputs": [
        {
          "internalType": "uint256",
          "name": "_salt",
          "type": "uint256"
        },
        {
          "internalType": "address",
          "name": "_logic",
          "type": "address"
        },
        {
          "internalType": "address",
          "name": "_admin",
          "type": "address"
        },
        {
          "internalType": "bytes",
          "name": "_data",
          "type": "bytes"
        }
      ],
      "name": "deploy",
      "outputs": [
        {
          "internalType": "address",
          "name": "proxy",
          "type": "address"
        }
      ],
      "payable": false,
      "stateMutability": "nonpayable",
      "type": "function"
    },
    {
      "constant": false,
      "inputs": [
        {
          "internalType": "uint256",
          "name": "_salt",
          "type": "uint256"
        },
        {
          "internalType": "address",
          "name": "_logic",
          "type": "address"
        },
        {
          "internalType": "address",
          "name": "_admin",
          "type": "address"
        },
        {
          "internalType": "bytes",
          "name": "_data",
          "type": "bytes"
        },
        {
          "internalType": "bytes",
          "name": "_signature",
          "type": "bytes"
        }
      ],
      "name": "deploySigned",
      "outputs": [
        {
          "internalType": "address",
          "name": "proxy",
          "type": "address"
        }
      ],
      "payable": false,
      "stateMutability": "nonpayable",
      "type": "function"
    },
    {
      "constant": true,
      "inputs": [
        {
          "internalType": "uint256",
          "name": "_salt",
          "type": "uint256"
        },
        {
          "internalType": "address",
          "name": "_sender",
          "type": "address"
        }
      ],
      "name": "getDeploymentAddress",
      "outputs": [
        {
          "internalType": "address",
          "name": "",
          "type": "address"
        }
      ],
      "payable": false,
      "stateMutability": "view",
      "type": "function"
    },
    {
      "constant": true,
      "inputs": [
        {
          "internalType": "uint256",
          "name": "_salt",
          "type": "uint256"
        },
        {
          "internalType": "address",
          "name": "_logic",
          "type": "address"
        },
        {
          "internalType": "address",
          "name": "_admin",
          "type": "address"
        },
        {
          "internalType": "bytes",
          "name": "_data",
          "type": "bytes"
        },
        {
          "internalType": "bytes",
          "name": "_signature",
          "type": "bytes"
        }
      ],
      "name": "getSigner",
      "outputs": [
        {
          "internalType": "address",
          "name": "",
          "type": "address"
        }
      ],
      "payable": false,
      "stateMutability": "view",
      "type": "function"
    },
    {
      "constant": true,
      "inputs": [
        {
          "internalType": "address",
          "name": "_addr",
          "type": "address"
        }
      ],
      "name": "isChild",
      "outputs": [
        {
          "internalType": "bool",
          "name": "",
          "type": "bool"
        }
      ],
      "payable": false,
      "stateMutability": "view",
      "type": "function"
    },
    {
      "constant": false,
      "inputs": [
        {
          "internalType": "address",
          "name": "newAdmin",
          "type": "address"
        }
      ],
      "name": "setAdmin",
      "outputs": [],
      "payable": false,
      "stateMutability": "nonpayable",
      "type": "function"
    },
    {
      "constant": false,
      "inputs": [
        {
          "internalType": "address[]",
          "name": "_addrs",
          "type": "address[]"
        },
        {
          "internalType": "bool",
          "name": "flag",
          "type": "bool"
        }
      ],
      "name": "setChildren",
      "outputs": [],
      "payable": false,
      "stateMutability": "nonpayable",
      "type": "function"
    }
  ],
  "bytecode": {
    "object": "0x608060405234801561001057600080fd5b506040516120df3803806120df8339818101604052602081101561003357600080fd5b810190808051604051939291908464010000000082111561005357600080fd5b90830190602082018581111561006857600080fd5b825186602082028301116401000000008211171561008557600080fd5b82525081516020918201928201910280838360005b838110156100b257818101518382015260200161009a565b50505050905001604052505050604051806020016100cf9061015e565b601f1982820381018352601f9091011660405280516020919091012060009081555b815181101561014557600180600084848151811061010b57fe5b6020908102919091018101516001600160a01b03168252810191909152604001600020805460ff19169115159190911790556001016100f1565b5050600280546001600160a01b0319163317905561016b565b61099c8061174383390190565b6115c98061017a6000396000f3fe608060405234801561001057600080fd5b50600436106100885760003560e01c8063704b6c021161005b578063704b6c02146104a457806381ae1f5b146104ca578063f851a440146104f6578063fc91a897146104fe57610088565b8063128e76fa1461008d578063290f8f5614610132578063332d6626146102975780636150864c146103e0575b600080fd5b610130600480360360408110156100a357600080fd5b810190602081018135600160201b8111156100bd57600080fd5b8201836020820111156100cf57600080fd5b803590602001918460208302840111600160201b831117156100f057600080fd5b9190808060200260200160405190810160405280939291908181526020018383602002808284376000920191909152509295505050503515159050610538565b005b61027b600480360360a081101561014857600080fd5b8135916001600160a01b03602082013581169260408301359091169190810190608081016060820135600160201b81111561018257600080fd5b82018360208201111561019457600080fd5b803590602001918460018302840111600160201b831117156101b557600080fd5b91908080601f0160208091040260200160405190810160405280939291908181526020018383808284376000920191909152509295949360208101935035915050600160201b81111561020757600080fd5b82018360208201111561021957600080fd5b803590602001918460018302840111600160201b8311171561023a57600080fd5b91908080601f0160208091040260200160405190810160405280939291908181526020018383808284376000920191909152509295506105e8945050505050565b604080516001600160a01b039092168252519081900360200190f35b61027b600480360360a08110156102ad57600080fd5b8135916001600160a01b03602082013581169260408301359091169190810190608081016060820135600160201b8111156102e757600080fd5b8201836020820111156102f957600080fd5b803590602001918460018302840111600160201b8311171561031a57600080fd5b91908080601f0160208091040260200160405190810160405280939291908181526020018383808284376000920191909152509295949360208101935035915050600160201b81111561036c57600080fd5b82018360208201111561037e57600080fd5b803590602001918460018302840111600160201b8311171561039f57600080fd5b91908080601f0160208091040260200160405190810160405280939291908181526020018383808284376000920191909152509295506106d7945050505050565b61027b600480360360808110156103f657600080fd5b8135916001600160a01b03602082013581169260408301359091169190810190608081016060820135600160201b81111561043057600080fd5b82018360208201111561044257600080fd5b803590602001918460018302840111600160201b8311171561046357600080fd5b91908080601f016020809104026020016040519081016040528093929190818152602001838380828437600092019190915250929550610716945050505050565b610130600480360360208110156104ba57600080fd5b50356001600160a01b0316610753565b61027b600480360360408110156104e057600080fd5b50803590602001356001600160a01b03166107c9565b61027b610830565b6105246004803603602081101561051457600080fd5b50356001600160a01b031661083f565b604080519115158252519081900360200190f35b6002546001600160a01b0316331461058c576040805162461bcd60e51b8152602060048201526012602482015271596f7520617265206e6f742061646d696e2160701b604482015290519081900360640190fd5b60005b82518110156105e35781600160008584815181106105a957fe5b6020908102919091018101516001600160a01b03168252810191909152604001600020805460ff191691151591909117905560010161058f565b505050565b6000806106c0878787873060405160200180868152602001856001600160a01b03166001600160a01b031660601b8152601401846001600160a01b03166001600160a01b031660601b815260140183805190602001908083835b602083106106615780518252601f199092019160209182019101610642565b6001836020036101000a038019825116818451168082178552505050505050905001826001600160a01b03166001600160a01b031660601b8152601401955050505050506040516020818303038152906040528051906020012061085d565b90506106cc81846108ae565b979650505050505050565b60006106e6868686868661099c565b6001600160a01b0381166000908152600160208190526040909120805460ff191690911790559695505050505050565b600061072485858585610a0a565b6001600160a01b0381166000908152600160208190526040909120805460ff1916909117905595945050505050565b6002546001600160a01b031633146107a7576040805162461bcd60e51b8152602060048201526012602482015271596f7520617265206e6f742061646d696e2160701b604482015290519081900360640190fd5b600280546001600160a01b0319166001600160a01b0392909216919091179055565b6000806107d68484610a22565b600054604080516001600160f81b03196020808301919091523060601b6021830152603582019490945260558082019390935281518082039093018352607501905280519101206001600160a01b03169150505b92915050565b6002546001600160a01b031681565b6001600160a01b031660009081526001602052604090205460ff1690565b604080517f19457468657265756d205369676e6564204d6573736167653a0a333200000000602080830191909152603c8083019490945282518083039094018452605c909101909152815191012090565b600081516041146108c15750600061082a565b60208201516040830151606084015160001a7f7fffffffffffffffffffffffffffffff5d576e7357a4501ddfe92f46681b20a0821115610907576000935050505061082a565b8060ff16601b1415801561091f57508060ff16601c14155b15610930576000935050505061082a565b6040805160008152602080820180845289905260ff8416828401526060820186905260808201859052915160019260a0808401939192601f1981019281900390910190855afa158015610987573d6000803e3d6000fd5b5050604051601f190151979650505050505050565b6000806109ac87878787876105e8565b90506001600160a01b0381166109fd576040805162461bcd60e51b8152602060048201526011602482015270496e76616c6964207369676e617475726560781b604482015290519081900360640190fd5b6106cc8787878785610a61565b6000610a198585858533610a61565b95945050505050565b6040805160208082019490945260609290921b6bffffffffffffffffffffffff1916828201528051808303603401815260549092019052805191012090565b600080610a6e8784610b92565b604080516001600160a01b038316815290519192507efffc2da0b561cae30d9826d37709e9421c4725faebc226cbbb7ef5fc5e7349919081900360200190a160405163cf7a1d7760e01b81526001600160a01b038781166004830190815287821660248401526060604484019081528751606485015287519285169363cf7a1d77938b938b938b939192909160840190602085019080838360005b83811015610b21578181015183820152602001610b09565b50505050905090810190601f168015610b4e5780820380516001836020036101000a031916815260200191505b50945050505050600060405180830381600087803b158015610b6f57600080fd5b505af1158015610b83573d6000803e3d6000fd5b50929998505050505050505050565b600080606060405180602001610ba790610beb565b601f1982820381018352601f9091011660405290506000610bc88686610a22565b9050808251602084016000f59250823b610be157600080fd5b5090949350505050565b61099c80610bf98339019056fe608060405234801561001057600080fd5b5061097c806100206000396000f3fe6080604052600436106100705760003560e01c80638f2839701161004e5780638f2839701461015e578063cf7a1d7714610191578063d1f5789414610250578063f851a4401461030657610070565b80633659cfe61461007a5780634f1ef286146100ad5780635c60da1b1461012d575b61007861031b565b005b34801561008657600080fd5b506100786004803603602081101561009d57600080fd5b50356001600160a01b0316610335565b610078600480360360408110156100c357600080fd5b6001600160a01b0382351691908101906040810160208201356401000000008111156100ee57600080fd5b82018360208201111561010057600080fd5b8035906020019184600183028401116401000000008311171561012257600080fd5b50909250905061036f565b34801561013957600080fd5b5061014261041c565b604080516001600160a01b039092168252519081900360200190f35b34801561016a57600080fd5b506100786004803603602081101561018157600080fd5b50356001600160a01b0316610459565b610078600480360360608110156101a757600080fd5b6001600160a01b0382358116926020810135909116918101906060810160408201356401000000008111156101db57600080fd5b8201836020820111156101ed57600080fd5b8035906020019184600183028401116401000000008311171561020f57600080fd5b91908080601f016020809104026020016040519081016040528093929190818152602001838380828437600092019190915250929550610513945050505050565b6100786004803603604081101561026657600080fd5b6001600160a01b03823516919081019060408101602082013564010000000081111561029157600080fd5b8201836020820111156102a357600080fd5b803590602001918460018302840111640100000000831117156102c557600080fd5b91908080601f016020809104026020016040519081016040528093929190818152602001838380828437600092019190915250929550610599945050505050565b34801561031257600080fd5b506101426106d9565b610323610704565b61033361032e610764565b610789565b565b61033d6107ad565b6001600160a01b0316336001600160a01b031614156103645761035f816107d2565b61036c565b61036c61031b565b50565b6103776107ad565b6001600160a01b0316336001600160a01b0316141561040f57610399836107d2565b6000836001600160a01b031683836040518083838082843760405192019450600093509091505080830381855af49150503d80600081146103f6576040519150601f19603f3d011682016040523d82523d6000602084013e6103fb565b606091505b505090508061040957600080fd5b50610417565b61041761031b565b505050565b60006104266107ad565b6001600160a01b0316336001600160a01b0316141561044e57610447610764565b9050610456565b61045661031b565b90565b6104616107ad565b6001600160a01b0316336001600160a01b03161415610364576001600160a01b0381166104bf5760405162461bcd60e51b81526004018080602001828103825260368152602001806108d76036913960400191505060405180910390fd5b7f7e644d79422f17c01e4894b5f4f588d331ebfa28653d42ae832dc59e38c9798f6104e86107ad565b604080516001600160a01b03928316815291841660208301528051918290030190a161035f81610812565b600061051d610764565b6001600160a01b03161461053057600080fd5b61053a8382610599565b604080517232b4b8189c9b1b97383937bc3c9730b236b4b760691b815290519081900360130190207fb53127684a568b3173ae13b9f8a6016e243e63b6e8ee1178d6a717850b5d61036000199091011461059057fe5b61041782610812565b60006105a3610764565b6001600160a01b0316146105b657600080fd5b604080517f656970313936372e70726f78792e696d706c656d656e746174696f6e000000008152905190819003601c0190207f360894a13ba1a3210667c828492db98dca3e2076cc3735a920a3ca505d382bbc6000199091011461061657fe5b61061f82610836565b8051156106d5576000826001600160a01b0316826040518082805190602001908083835b602083106106625780518252601f199092019160209182019101610643565b6001836020036101000a038019825116818451168082178552505050505050905001915050600060405180830381855af49150503d80600081146106c2576040519150601f19603f3d011682016040523d82523d6000602084013e6106c7565b606091505b505090508061041757600080fd5b5050565b60006106e36107ad565b6001600160a01b0316336001600160a01b0316141561044e576104476107ad565b61070c6107ad565b6001600160a01b0316336001600160a01b0316141561075c5760405162461bcd60e51b81526004018080602001828103825260328152602001806108a56032913960400191505060405180910390fd5b610333610333565b7f360894a13ba1a3210667c828492db98dca3e2076cc3735a920a3ca505d382bbc5490565b3660008037600080366000845af43d6000803e8080156107a8573d6000f35b3d6000fd5b7fb53127684a568b3173ae13b9f8a6016e243e63b6e8ee1178d6a717850b5d61035490565b6107db81610836565b6040516001600160a01b038216907fbc7cd75a20ee27fd9adebab32041f755214dbc6bffa90cc0225b39da2e5c2d3b90600090a250565b7fb53127684a568b3173ae13b9f8a6016e243e63b6e8ee1178d6a717850b5d610355565b61083f8161089e565b61087a5760405162461bcd60e51b815260040180806020018281038252603b81526020018061090d603b913960400191505060405180910390fd5b7f360894a13ba1a3210667c828492db98dca3e2076cc3735a920a3ca505d382bbc55565b3b15159056fe43616e6e6f742063616c6c2066616c6c6261636b2066756e6374696f6e2066726f6d207468652070726f78792061646d696e43616e6e6f74206368616e6765207468652061646d696e206f6620612070726f787920746f20746865207a65726f206164647265737343616e6e6f742073657420612070726f787920696d706c656d656e746174696f6e20746f2061206e6f6e2d636f6e74726163742061646472657373a265627a7a723158204929f8bcf3750966cfeec938e935c8689cd7bc4dbc14b50a9e8a4b6dc7d49f2664736f6c63430005110032a265627a7a72315820e6d477f833a0a635e56797e09fefd15cdc3dd524f45d97b9a052a76fd19995a264736f6c63430005110032608060405234801561001057600080fd5b5061097c806100206000396000f3fe6080604052600436106100705760003560e01c80638f2839701161004e5780638f2839701461015e578063cf7a1d7714610191578063d1f5789414610250578063f851a4401461030657610070565b80633659cfe61461007a5780634f1ef286146100ad5780635c60da1b1461012d575b61007861031b565b005b34801561008657600080fd5b506100786004803603602081101561009d57600080fd5b50356001600160a01b0316610335565b610078600480360360408110156100c357600080fd5b6001600160a01b0382351691908101906040810160208201356401000000008111156100ee57600080fd5b82018360208201111561010057600080fd5b8035906020019184600183028401116401000000008311171561012257600080fd5b50909250905061036f565b34801561013957600080fd5b5061014261041c565b604080516001600160a01b039092168252519081900360200190f35b34801561016a57600080fd5b506100786004803603602081101561018157600080fd5b50356001600160a01b0316610459565b610078600480360360608110156101a757600080fd5b6001600160a01b0382358116926020810135909116918101906060810160408201356401000000008111156101db57600080fd5b8201836020820111156101ed57600080fd5b8035906020019184600183028401116401000000008311171561020f57600080fd5b91908080601f016020809104026020016040519081016040528093929190818152602001838380828437600092019190915250929550610513945050505050565b6100786004803603604081101561026657600080fd5b6001600160a01b03823516919081019060408101602082013564010000000081111561029157600080fd5b8201836020820111156102a357600080fd5b803590602001918460018302840111640100000000831117156102c557600080fd5b91908080601f016020809104026020016040519081016040528093929190818152602001838380828437600092019190915250929550610599945050505050565b34801561031257600080fd5b506101426106d9565b610323610704565b61033361032e610764565b610789565b565b61033d6107ad565b6001600160a01b0316336001600160a01b031614156103645761035f816107d2565b61036c565b61036c61031b565b50565b6103776107ad565b6001600160a01b0316336001600160a01b0316141561040f57610399836107d2565b6000836001600160a01b031683836040518083838082843760405192019450600093509091505080830381855af49150503d80600081146103f6576040519150601f19603f3d011682016040523d82523d6000602084013e6103fb565b606091505b505090508061040957600080fd5b50610417565b61041761031b565b505050565b60006104266107ad565b6001600160a01b0316336001600160a01b0316141561044e57610447610764565b9050610456565b61045661031b565b90565b6104616107ad565b6001600160a01b0316336001600160a01b03161415610364576001600160a01b0381166104bf5760405162461bcd60e51b81526004018080602001828103825260368152602001806108d76036913960400191505060405180910390fd5b7f7e644d79422f17c01e4894b5f4f588d331ebfa28653d42ae832dc59e38c9798f6104e86107ad565b604080516001600160a01b03928316815291841660208301528051918290030190a161035f81610812565b600061051d610764565b6001600160a01b03161461053057600080fd5b61053a8382610599565b604080517232b4b8189c9b1b97383937bc3c9730b236b4b760691b815290519081900360130190207fb53127684a568b3173ae13b9f8a6016e243e63b6e8ee1178d6a717850b5d61036000199091011461059057fe5b61041782610812565b60006105a3610764565b6001600160a01b0316146105b657600080fd5b604080517f656970313936372e70726f78792e696d706c656d656e746174696f6e000000008152905190819003601c0190207f360894a13ba1a3210667c828492db98dca3e2076cc3735a920a3ca505d382bbc6000199091011461061657fe5b61061f82610836565b8051156106d5576000826001600160a01b0316826040518082805190602001908083835b602083106106625780518252601f199092019160209182019101610643565b6001836020036101000a038019825116818451168082178552505050505050905001915050600060405180830381855af49150503d80600081146106c2576040519150601f19603f3d011682016040523d82523d6000602084013e6106c7565b606091505b505090508061041757600080fd5b5050565b60006106e36107ad565b6001600160a01b0316336001600160a01b0316141561044e576104476107ad565b61070c6107ad565b6001600160a01b0316336001600160a01b0316141561075c5760405162461bcd60e51b81526004018080602001828103825260328152602001806108a56032913960400191505060405180910390fd5b610333610333565b7f360894a13ba1a3210667c828492db98dca3e2076cc3735a920a3ca505d382bbc5490565b3660008037600080366000845af43d6000803e8080156107a8573d6000f35b3d6000fd5b7fb53127684a568b3173ae13b9f8a6016e243e63b6e8ee1178d6a717850b5d61035490565b6107db81610836565b6040516001600160a01b038216907fbc7cd75a20ee27fd9adebab32041f755214dbc6bffa90cc0225b39da2e5c2d3b90600090a250565b7fb53127684a568b3173ae13b9f8a6016e243e63b6e8ee1178d6a717850b5d610355565b61083f8161089e565b61087a5760405162461bcd60e51b815260040180806020018281038252603b81526020018061090d603b913960400191505060405180910390fd5b7f360894a13ba1a3210667c828492db98dca3e2076cc3735a920a3ca505d382bbc55565b3b15159056fe43616e6e6f742063616c6c2066616c6c6261636b2066756e6374696f6e2066726f6d207468652070726f78792061646d696e43616e6e6f74206368616e6765207468652061646d696e206f6620612070726f787920746f20746865207a65726f206164647265737343616e6e6f742073657420612070726f787920696d706c656d656e746174696f6e20746f2061206e6f6e2d636f6e74726163742061646472657373a265627a7a723158204929f8bcf3750966cfeec938e935c8689cd7bc4dbc14b50a9e8a4b6dc7d49f2664736f6c63430005110032",
    "linkReferences": {}
  },
  "methodIdentifiers": {
    "admin()": "f851a440",
    "deploy(uint256,address,address,bytes)": "6150864c",
    "deploySigned(uint256,address,address,bytes,bytes)": "332d6626",
    "getDeploymentAddress(uint256,address)": "81ae1f5b",
    "getSigner(uint256,address,address,bytes,bytes)": "290f8f56",
    "isChild(address)": "fc91a897",
    "setAdmin(address)": "704b6c02",
    "setChildren(address[],bool)": "128e76fa"
  },
  "id": 1
}