{
  "abi": [
    {
      "inputs": [
        {
          "internalType": "address",
          "name": "_owner",
          "type": "address"
        },
        {
          "internalType": "uint64",
          "name": "_chainId",
          "type": "uint64"
        },
        {
          "internalType": "uint64",
          "name": "_swapChianId",
          "type": "uint64"
        },
        {
          "internalType": "address",
          "name": "_lockProxy",
          "type": "address"
        },
        {
          "internalType": "address",
          "name": "_CCMP",
          "type": "address"
        },
        {
          "internalType": "address",
          "name": "_weth",
          "type": "address"
        },
        {
          "internalType": "bytes",
          "name": "_swapProxyHash",
          "type": "bytes"
        }
      ],
      "payable": false,
      "stateMutability": "nonpayable",
      "type": "constructor"
    },
    {
      "anonymous": false,
      "inputs": [
        {
          "indexed": false,
          "internalType": "address",
          "name": "fromAssetHash",
          "type": "address"
        },
        {
          "indexed": false,
          "internalType": "address",
          "name": "fromAddress",
          "type": "address"
        },
        {
          "indexed": false,
          "internalType": "uint64",
          "name": "toPoolId",
          "type": "uint64"
        },
        {
          "indexed": false,
          "internalType": "uint64",
          "name": "toChainId",
          "type": "uint64"
        },
        {
          "indexed": false,
          "internalType": "bytes",
          "name": "toAssetHash",
          "type": "bytes"
        },
        {
          "indexed": false,
          "internalType": "bytes",
          "name": "toAddress",
          "type": "bytes"
        },
        {
          "indexed": false,
          "internalType": "uint256",
          "name": "amount",
          "type": "uint256"
        },
        {
          "indexed": false,
          "internalType": "uint256",
          "name": "fee",
          "type": "uint256"
        },
        {
          "indexed": false,
          "internalType": "uint256",
          "name": "id",
          "type": "uint256"
        }
      ],
      "name": "AddLiquidityEvent",
      "type": "event"
    },
    {
      "anonymous": false,
      "inputs": [
        {
          "indexed": false,
          "internalType": "address",
          "name": "fromAssetHash",
          "type": "address"
        },
        {
          "indexed": false,
          "internalType": "address",
          "name": "fromAddress",
          "type": "address"
        },
        {
          "indexed": false,
          "internalType": "uint64",
          "name": "toChainId",
          "type": "uint64"
        },
        {
          "indexed": false,
          "internalType": "bytes",
          "name": "toAssetHash",
          "type": "bytes"
        },
        {
          "indexed": false,
          "internalType": "bytes",
          "name": "toAddress",
          "type": "bytes"
        },
        {
          "indexed": false,
          "internalType": "uint256",
          "name": "amount",
          "type": "uint256"
        }
      ],
      "name": "LockEvent",
      "type": "event"
    },
    {
      "anonymous": false,
      "inputs": [
        {
          "indexed": true,
          "internalType": "address",
          "name": "previousOwner",
          "type": "address"
        },
        {
          "indexed": true,
          "internalType": "address",
          "name": "newOwner",
          "type": "address"
        }
      ],
      "name": "OwnershipTransferred",
      "type": "event"
    },
    {
      "anonymous": false,
      "inputs": [
        {
          "indexed": false,
          "internalType": "address",
          "name": "account",
          "type": "address"
        }
      ],
      "name": "Paused",
      "type": "event"
    },
    {
      "anonymous": false,
      "inputs": [
        {
          "indexed": false,
          "internalType": "address",
          "name": "fromAssetHash",
          "type": "address"
        },
        {
          "indexed": false,
          "internalType": "address",
          "name": "fromAddress",
          "type": "address"
        },
        {
          "indexed": false,
          "internalType": "uint64",
          "name": "toPoolId",
          "type": "uint64"
        },
        {
          "indexed": false,
          "internalType": "uint64",
          "name": "toChainId",
          "type": "uint64"
        },
        {
          "indexed": false,
          "internalType": "bytes",
          "name": "toAssetHash",
          "type": "bytes"
        },
        {
          "indexed": false,
          "internalType": "bytes",
          "name": "toAddress",
          "type": "bytes"
        },
        {
          "indexed": false,
          "internalType": "uint256",
          "name": "amount",
          "type": "uint256"
        },
        {
          "indexed": false,
          "internalType": "uint256",
          "name": "fee",
          "type": "uint256"
        },
        {
          "indexed": false,
          "internalType": "uint256",
          "name": "id",
          "type": "uint256"
        }
      ],
      "name": "RemoveLiquidityEvent",
      "type": "event"
    },
    {
      "anonymous": false,
      "inputs": [
        {
          "indexed": false,
          "internalType": "address",
          "name": "fromAssetHash",
          "type": "address"
        },
        {
          "indexed": false,
          "internalType": "address",
          "name": "fromAddress",
          "type": "address"
        },
        {
          "indexed": false,
          "internalType": "uint64",
          "name": "toPoolId",
          "type": "uint64"
        },
        {
          "indexed": false,
          "internalType": "uint64",
          "name": "toChainId",
          "type": "uint64"
        },
        {
          "indexed": false,
          "internalType": "bytes",
          "name": "toAssetHash",
          "type": "bytes"
        },
        {
          "indexed": false,
          "internalType": "bytes",
          "name": "toAddress",
          "type": "bytes"
        },
        {
          "indexed": false,
          "internalType": "uint256",
          "name": "amount",
          "type": "uint256"
        },
        {
          "indexed": false,
          "internalType": "uint256",
          "name": "fee",
          "type": "uint256"
        },
        {
          "indexed": false,
          "internalType": "uint256",
          "name": "id",
          "type": "uint256"
        }
      ],
      "name": "SwapEvent",
      "type": "event"
    },
    {
      "anonymous": false,
      "inputs": [
        {
          "indexed": false,
          "internalType": "address",
          "name": "account",
          "type": "address"
        }
      ],
      "name": "Unpaused",
      "type": "event"
    },
    {
      "constant": true,
      "inputs": [],
      "name": "WETH",
      "outputs": [
        {
          "internalType": "address",
          "name": "",
          "type": "address"
        }
      ],
      "payable": false,
      "stateMutability": "view",
      "type": "function"
    },
    {
      "constant": false,
      "inputs": [
        {
          "internalType": "address",
          "name": "fromAssetHash",
          "type": "address"
        },
        {
          "internalType": "uint64",
          "name": "toPoolId",
          "type": "uint64"
        },
        {
          "internalType": "uint64",
          "name": "toChainId",
          "type": "uint64"
        },
        {
          "internalType": "bytes",
          "name": "toAddress",
          "type": "bytes"
        },
        {
          "internalType": "uint256",
          "name": "amount",
          "type": "uint256"
        },
        {
          "internalType": "uint256",
          "name": "minOutAmount",
          "type": "uint256"
        },
        {
          "internalType": "uint256",
          "name": "fee",
          "type": "uint256"
        },
        {
          "internalType": "uint256",
          "name": "id",
          "type": "uint256"
        }
      ],
      "name": "add_liquidity",
      "outputs": [
        {
          "internalType": "bool",
          "name": "",
          "type": "bool"
        }
      ],
      "payable": true,
      "stateMutability": "payable",
      "type": "function"
    },
    {
      "constant": true,
      "inputs": [
        {
          "internalType": "bytes",
          "name": "",
          "type": "bytes"
        },
        {
          "internalType": "uint64",
          "name": "",
          "type": "uint64"
        }
      ],
      "name": "assetInPool",
      "outputs": [
        {
          "internalType": "bool",
          "name": "",
          "type": "bool"
        }
      ],
      "payable": false,
      "stateMutability": "view",
      "type": "function"
    },
    {
      "constant": false,
      "inputs": [
        {
          "internalType": "bytes",
          "name": "asset1",
          "type": "bytes"
        },
        {
          "internalType": "bytes",
          "name": "asset2",
          "type": "bytes"
        },
        {
          "internalType": "bytes",
          "name": "asset3",
          "type": "bytes"
        },
        {
          "internalType": "uint64",
          "name": "poolId",
          "type": "uint64"
        }
      ],
      "name": "bind3Asset",
      "outputs": [],
      "payable": false,
      "stateMutability": "nonpayable",
      "type": "function"
    },
    {
      "constant": false,
      "inputs": [
        {
          "internalType": "bytes",
          "name": "fromAssetHash",
          "type": "bytes"
        },
        {
          "internalType": "uint64",
          "name": "poolId",
          "type": "uint64"
        }
      ],
      "name": "bindAssetAndPool",
      "outputs": [
        {
          "internalType": "bool",
          "name": "",
          "type": "bool"
        }
      ],
      "payable": false,
      "stateMutability": "nonpayable",
      "type": "function"
    },
    {
      "constant": true,
      "inputs": [],
      "name": "chainId",
      "outputs": [
        {
          "internalType": "uint64",
          "name": "",
          "type": "uint64"
        }
      ],
      "payable": false,
      "stateMutability": "view",
      "type": "function"
    },
    {
      "constant": false,
      "inputs": [
        {
          "internalType": "address",
          "name": "token",
          "type": "address"
        }
      ],
      "name": "extractFee",
      "outputs": [],
      "payable": false,
      "stateMutability": "nonpayable",
      "type": "function"
    },
    {
      "constant": true,
      "inputs": [],
      "name": "feeCollector",
      "outputs": [
        {
          "internalType": "address",
          "name": "",
          "type": "address"
        }
      ],
      "payable": false,
      "stateMutability": "view",
      "type": "function"
    },
    {
      "constant": true,
      "inputs": [
        {
          "internalType": "address",
          "name": "fromAssetHash",
          "type": "address"
        }
      ],
      "name": "getBalanceFor",
      "outputs": [
        {
          "internalType": "uint256",
          "name": "",
          "type": "uint256"
        }
      ],
      "payable": false,
      "stateMutability": "view",
      "type": "function"
    },
    {
      "constant": true,
      "inputs": [],
      "name": "isOwner",
      "outputs": [
        {
          "internalType": "bool",
          "name": "",
          "type": "bool"
        }
      ],
      "payable": false,
      "stateMutability": "view",
      "type": "function"
    },
    {
      "constant": true,
      "inputs": [],
      "name": "lockProxyAddress",
      "outputs": [
        {
          "internalType": "address",
          "name": "",
          "type": "address"
        }
      ],
      "payable": false,
      "stateMutability": "view",
      "type": "function"
    },
    {
      "constant": true,
      "inputs": [],
      "name": "managerProxyContract",
      "outputs": [
        {
          "internalType": "address",
          "name": "",
          "type": "address"
        }
      ],
      "payable": false,
      "stateMutability": "view",
      "type": "function"
    },
    {
      "constant": true,
      "inputs": [],
      "name": "owner",
      "outputs": [
        {
          "internalType": "address",
          "name": "",
          "type": "address"
        }
      ],
      "payable": false,
      "stateMutability": "view",
      "type": "function"
    },
    {
      "constant": false,
      "inputs": [],
      "name": "pause",
      "outputs": [],
      "payable": false,
      "stateMutability": "nonpayable",
      "type": "function"
    },
    {
      "constant": true,
      "inputs": [],
      "name": "paused",
      "outputs": [
        {
          "internalType": "bool",
          "name": "",
          "type": "bool"
        }
      ],
      "payable": false,
      "stateMutability": "view",
      "type": "function"
    },
    {
      "constant": true,
      "inputs": [
        {
          "internalType": "uint64",
          "name": "",
          "type": "uint64"
        }
      ],
      "name": "poolTokenMap",
      "outputs": [
        {
          "internalType": "address",
          "name": "",
          "type": "address"
        }
      ],
      "payable": false,
      "stateMutability": "view",
      "type": "function"
    },
    {
      "constant": false,
      "inputs": [
        {
          "internalType": "uint64",
          "name": "poolId",
          "type": "uint64"
        },
        {
          "internalType": "address",
          "name": "poolTokenAddress",
          "type": "address"
        }
      ],
      "name": "registerPool",
      "outputs": [
        {
          "internalType": "bool",
          "name": "",
          "type": "bool"
        }
      ],
      "payable": false,
      "stateMutability": "nonpayable",
      "type": "function"
    },
    {
      "constant": false,
      "inputs": [
        {
          "internalType": "uint64",
          "name": "poolId",
          "type": "uint64"
        },
        {
          "internalType": "address",
          "name": "poolTokenAddress",
          "type": "address"
        },
        {
          "internalType": "bytes",
          "name": "asset1",
          "type": "bytes"
        },
        {
          "internalType": "bytes",
          "name": "asset2",
          "type": "bytes"
        },
        {
          "internalType": "bytes",
          "name": "asset3",
          "type": "bytes"
        }
      ],
      "name": "registerPoolWith3Assets",
      "outputs": [],
      "payable": false,
      "stateMutability": "nonpayable",
      "type": "function"
    },
    {
      "constant": false,
      "inputs": [
        {
          "internalType": "address",
          "name": "fromAssetHash",
          "type": "address"
        },
        {
          "internalType": "uint64",
          "name": "toPoolId",
          "type": "uint64"
        },
        {
          "internalType": "uint64",
          "name": "toChainId",
          "type": "uint64"
        },
        {
          "internalType": "bytes",
          "name": "toAssetHash",
          "type": "bytes"
        },
        {
          "internalType": "bytes",
          "name": "toAddress",
          "type": "bytes"
        },
        {
          "internalType": "uint256",
          "name": "amount",
          "type": "uint256"
        },
        {
          "internalType": "uint256",
          "name": "minOutAmount",
          "type": "uint256"
        },
        {
          "internalType": "uint256",
          "name": "fee",
          "type": "uint256"
        },
        {
          "internalType": "uint256",
          "name": "id",
          "type": "uint256"
        }
      ],
      "name": "remove_liquidity",
      "outputs": [
        {
          "internalType": "bool",
          "name": "",
          "type": "bool"
        }
      ],
      "payable": true,
      "stateMutability": "payable",
      "type": "function"
    },
    {
      "constant": false,
      "inputs": [],
      "name": "renounceOwnership",
      "outputs": [],
      "payable": false,
      "stateMutability": "nonpayable",
      "type": "function"
    },
    {
      "constant": false,
      "inputs": [
        {
          "internalType": "address",
          "name": "collector",
          "type": "address"
        }
      ],
      "name": "setFeeCollector",
      "outputs": [],
      "payable": false,
      "stateMutability": "nonpayable",
      "type": "function"
    },
    {
      "constant": false,
      "inputs": [
        {
          "internalType": "address",
          "name": "_lockProxy",
          "type": "address"
        }
      ],
      "name": "setLockProxy",
      "outputs": [],
      "payable": false,
      "stateMutability": "nonpayable",
      "type": "function"
    },
    {
      "constant": false,
      "inputs": [
        {
          "internalType": "address",
          "name": "ethCCMProxyAddr",
          "type": "address"
        }
      ],
      "name": "setManagerProxy",
      "outputs": [],
      "payable": false,
      "stateMutability": "nonpayable",
      "type": "function"
    },
    {
      "constant": false,
      "inputs": [
        {
          "internalType": "uint64",
          "name": "_swapChianId",
          "type": "uint64"
        }
      ],
      "name": "setSwapChainId",
      "outputs": [],
      "payable": false,
      "stateMutability": "nonpayable",
      "type": "function"
    },
    {
      "constant": false,
      "inputs": [
        {
          "internalType": "bytes",
          "name": "swapProxyAddr",
          "type": "bytes"
        }
      ],
      "name": "setSwapProxyHash",
      "outputs": [],
      "payable": false,
      "stateMutability": "nonpayable",
      "type": "function"
    },
    {
      "constant": false,
      "inputs": [
        {
          "internalType": "address",
          "name": "_weth",
          "type": "address"
        }
      ],
      "name": "setWETH",
      "outputs": [],
      "payable": false,
      "stateMutability": "nonpayable",
      "type": "function"
    },
    {
      "constant": false,
      "inputs": [
        {
          "internalType": "address",
          "name": "fromAssetHash",
          "type": "address"
        },
        {
          "internalType": "uint64",
          "name": "toPoolId",
          "type": "uint64"
        },
        {
          "internalType": "uint64",
          "name": "toChainId",
          "type": "uint64"
        },
        {
          "internalType": "bytes",
          "name": "toAssetHash",
          "type": "bytes"
        },
        {
          "internalType": "bytes",
          "name": "toAddress",
          "type": "bytes"
        },
        {
          "internalType": "uint256",
          "name": "amount",
          "type": "uint256"
        },
        {
          "internalType": "uint256",
          "name": "minOutAmount",
          "type": "uint256"
        },
        {
          "internalType": "uint256",
          "name": "fee",
          "type": "uint256"
        },
        {
          "internalType": "uint256",
          "name": "id",
          "type": "uint256"
        }
      ],
      "name": "swap",
      "outputs": [
        {
          "internalType": "bool",
          "name": "",
          "type": "bool"
        }
      ],
      "payable": true,
      "stateMutability": "payable",
      "type": "function"
    },
    {
      "constant": true,
      "inputs": [],
      "name": "swapChainId",
      "outputs": [
        {
          "internalType": "uint64",
          "name": "",
          "type": "uint64"
        }
      ],
      "payable": false,
      "stateMutability": "view",
      "type": "function"
    },
    {
      "constant": true,
      "inputs": [],
      "name": "swapProxyHash",
      "outputs": [
        {
          "internalType": "bytes",
          "name": "",
          "type": "bytes"
        }
      ],
      "payable": false,
      "stateMutability": "view",
      "type": "function"
    },
    {
      "constant": false,
      "inputs": [
        {
          "internalType": "address",
          "name": "newOwner",
          "type": "address"
        }
      ],
      "name": "transferOwnership",
      "outputs": [],
      "payable": false,
      "stateMutability": "nonpayable",
      "type": "function"
    },
    {
      "constant": false,
      "inputs": [],
      "name": "unpause",
      "outputs": [],
      "payable": false,
      "stateMutability": "nonpayable",
      "type": "function"
    }
  ],
  "bytecode": {
    "object": "0x60806040523480156200001157600080fd5b5060405162004b6938038062004b69833981810160405260e08110156200003757600080fd5b815160208301516040808501516060860151608087015160a088015160c089018051955197999698949793969295919483019291846401000000008211156200007f57600080fd5b9083019060208201858111156200009557600080fd5b8251640100000000811182820188101715620000b057600080fd5b82525081516020918201929091019080838360005b83811015620000df578181015183820152602001620000c5565b50505050905090810190601f1680156200010d5780820380516001836020036101000a031916815260200191505b506040525050506000620001266200027760201b60201c565b600080546001600160a01b0319166001600160a01b03831690811782556040519293509160008051602062004b49833981519152908290a3506000805461ffff60a01b1916600160a81b1790556001600160401b038616620001b8576040805162461bcd60e51b8152602060048201526006602482015265085b1959d85b60d21b604482015290519081900360640190fd5b620001cc876001600160e01b036200027c16565b60068054600160401b600160801b031916680100000000000000006001600160401b03891602179055600380546001600160a01b03199081166001600160a01b038781169190911790925560048054821686841617905560018054909116918416919091179055805162000248906005906020840190620003b8565b5050600680546001600160401b0319166001600160401b039590951694909417909355506200045a9350505050565b335b90565b6200028f6001600160e01b03620002f816565b620002e1576040805162461bcd60e51b815260206004820181905260248201527f4f776e61626c653a2063616c6c6572206973206e6f7420746865206f776e6572604482015290519081900360640190fd5b620002f5816001600160e01b036200032716565b50565b600080546001600160a01b0316620003186001600160e01b036200027716565b6001600160a01b031614905090565b6001600160a01b0381166200036e5760405162461bcd60e51b815260040180806020018281038252602681526020018062004b236026913960400191505060405180910390fd5b600080546040516001600160a01b038085169392169160008051602062004b4983398151915291a3600080546001600160a01b0319166001600160a01b0392909216919091179055565b828054600181600116156101000203166002900490600052602060002090601f016020900481019282601f10620003fb57805160ff19168380011785556200042b565b828001600101855582156200042b579182015b828111156200042b5782518255916020019190600101906200040e565b50620004399291506200043d565b5090565b6200027991905b8082111562000439576000815560010162000444565b6146b9806200046a6000396000f3fe6080604052600436106101d85760003560e01c80638456cb5911610102578063ad5c464811610095578063d798f88111610064578063d798f88114610cfe578063de77f69b14610d13578063f2fde38b14610ed9578063f916aa8514610f0c576101d8565b8063ad5c464814610c6e578063af24986114610c83578063af9980f014610cb6578063c415b95c14610ce9576101d8565b80639462c985116100d15780639462c98514610b285780639a8a059214610be4578063a3e28eb414610bf9578063a42dce8014610c3b576101d8565b80638456cb5914610a2d57806384eae14e14610a425780638da5cb5b14610afe5780638f32d59b14610b13576101d8565b806359c589a11161017a5780636f2b6ee6116101495780636f2b6ee614610850578063715018a614610883578063773c9d9c1461089857806378b556fa146109fc576101d8565b806359c589a1146107395780635b769f3c1461077e5780635c975abb146107b15780635f56bc53146107c6576101d8565b80633f4ba83a116101b65780633f4ba83a1461049c5780634672b083146104b15780634ad43eda146105a4578063559ebe57146105d5576101d8565b806316675e4f146101dd5780631745399d146103b85780631f237452146103eb575b600080fd5b3480156101e957600080fd5b506103b6600480360360a081101561020057600080fd5b6001600160401b03823516916001600160a01b0360208201351691810190606081016040820135600160201b81111561023857600080fd5b82018360208201111561024a57600080fd5b803590602001918460018302840111600160201b8311171561026b57600080fd5b91908080601f0160208091040260200160405190810160405280939291908181526020018383808284376000920191909152509295949360208101935035915050600160201b8111156102bd57600080fd5b8201836020820111156102cf57600080fd5b803590602001918460018302840111600160201b831117156102f057600080fd5b91908080601f0160208091040260200160405190810160405280939291908181526020018383808284376000920191909152509295949360208101935035915050600160201b81111561034257600080fd5b82018360208201111561035457600080fd5b803590602001918460018302840111600160201b8311171561037557600080fd5b91908080601f016020809104026020016040519081016040528093929190818152602001838380828437600092019190915250929550610f3f945050505050565b005b3480156103c457600080fd5b506103b6600480360360208110156103db57600080fd5b50356001600160a01b031661115a565b3480156103f757600080fd5b506103b66004803603602081101561040e57600080fd5b810190602081018135600160201b81111561042857600080fd5b82018360208201111561043a57600080fd5b803590602001918460018302840111600160201b8311171561045b57600080fd5b91908080601f016020809104026020016040519081016040528093929190818152602001838380828437600092019190915250929550611282945050505050565b3480156104a857600080fd5b506103b66112e0565b61059060048036036101008110156104c857600080fd5b6001600160a01b03823516916001600160401b03602082013581169260408301359091169190810190608081016060820135600160201b81111561050b57600080fd5b82018360208201111561051d57600080fd5b803590602001918460018302840111600160201b8311171561053e57600080fd5b91908080601f0160208091040260200160405190810160405280939291908181526020018383808284376000920191909152509295505082359350505060208101359060408101359060600135611331565b604080519115158252519081900360200190f35b3480156105b057600080fd5b506105b9611c14565b604080516001600160a01b039092168252519081900360200190f35b61059060048036036101208110156105ec57600080fd5b6001600160a01b03823516916001600160401b03602082013581169260408301359091169190810190608081016060820135600160201b81111561062f57600080fd5b82018360208201111561064157600080fd5b803590602001918460018302840111600160201b8311171561066257600080fd5b91908080601f0160208091040260200160405190810160405280939291908181526020018383808284376000920191909152509295949360208101935035915050600160201b8111156106b457600080fd5b8201836020820111156106c657600080fd5b803590602001918460018302840111600160201b831117156106e757600080fd5b91908080601f0160208091040260200160405190810160405280939291908181526020018383808284376000920191909152509295505082359350505060208101359060408101359060600135611c23565b34801561074557600080fd5b5061076c6004803603602081101561075c57600080fd5b50356001600160a01b03166125bf565b60408051918252519081900360200190f35b34801561078a57600080fd5b506103b6600480360360208110156107a157600080fd5b50356001600160a01b031661265a565b3480156107bd57600080fd5b506105906126c3565b3480156107d257600080fd5b506107db6126d4565b6040805160208082528351818301528351919283929083019185019080838360005b838110156108155781810151838201526020016107fd565b50505050905090810190601f1680156108425780820380516001836020036101000a031916815260200191505b509250505060405180910390f35b34801561085c57600080fd5b506103b66004803603602081101561087357600080fd5b50356001600160a01b0316612762565b34801561088f57600080fd5b506103b6612816565b61059060048036036101208110156108af57600080fd5b6001600160a01b03823516916001600160401b03602082013581169260408301359091169190810190608081016060820135600160201b8111156108f257600080fd5b82018360208201111561090457600080fd5b803590602001918460018302840111600160201b8311171561092557600080fd5b91908080601f0160208091040260200160405190810160405280939291908181526020018383808284376000920191909152509295949360208101935035915050600160201b81111561097757600080fd5b82018360208201111561098957600080fd5b803590602001918460018302840111600160201b831117156109aa57600080fd5b91908080601f01602080910402602001604051908101604052809392919081815260200183838082843760009201919091525092955050823593505050602081013590604081013590606001356128a7565b348015610a0857600080fd5b50610a11613066565b604080516001600160401b039092168252519081900360200190f35b348015610a3957600080fd5b506103b6613075565b348015610a4e57600080fd5b5061059060048036036040811015610a6557600080fd5b810190602081018135600160201b811115610a7f57600080fd5b820183602082011115610a9157600080fd5b803590602001918460018302840111600160201b83111715610ab257600080fd5b91908080601f016020809104026020016040519081016040528093929190818152602001838380828437600092019190915250929550505090356001600160401b031691506130c49050565b348015610b0a57600080fd5b506105b96130f4565b348015610b1f57600080fd5b50610590613103565b348015610b3457600080fd5b5061059060048036036040811015610b4b57600080fd5b810190602081018135600160201b811115610b6557600080fd5b820183602082011115610b7757600080fd5b803590602001918460018302840111600160201b83111715610b9857600080fd5b91908080601f016020809104026020016040519081016040528093929190818152602001838380828437600092019190915250929550505090356001600160401b031691506131279050565b348015610bf057600080fd5b50610a11613202565b348015610c0557600080fd5b5061059060048036036040811015610c1c57600080fd5b5080356001600160401b031690602001356001600160a01b031661321d565b348015610c4757600080fd5b506103b660048036036020811015610c5e57600080fd5b50356001600160a01b03166132a2565b348015610c7a57600080fd5b506105b9613356565b348015610c8f57600080fd5b506105b960048036036020811015610ca657600080fd5b50356001600160401b0316613365565b348015610cc257600080fd5b506103b660048036036020811015610cd957600080fd5b50356001600160a01b0316613380565b348015610cf557600080fd5b506105b96133e9565b348015610d0a57600080fd5b506105b96133f8565b348015610d1f57600080fd5b506103b660048036036080811015610d3657600080fd5b810190602081018135600160201b811115610d5057600080fd5b820183602082011115610d6257600080fd5b803590602001918460018302840111600160201b83111715610d8357600080fd5b91908080601f0160208091040260200160405190810160405280939291908181526020018383808284376000920191909152509295949360208101935035915050600160201b811115610dd557600080fd5b820183602082011115610de757600080fd5b803590602001918460018302840111600160201b83111715610e0857600080fd5b91908080601f0160208091040260200160405190810160405280939291908181526020018383808284376000920191909152509295949360208101935035915050600160201b811115610e5a57600080fd5b820183602082011115610e6c57600080fd5b803590602001918460018302840111600160201b83111715610e8d57600080fd5b91908080601f016020809104026020016040519081016040528093929190818152602001838380828437600092019190915250929550505090356001600160401b031691506134079050565b348015610ee557600080fd5b506103b660048036036020811015610efc57600080fd5b50356001600160a01b03166135e8565b348015610f1857600080fd5b506103b660048036036020811015610f2f57600080fd5b50356001600160401b0316613638565b610f47613103565b610f86576040805162461bcd60e51b8152602060048201819052602482015260008051602061460c833981519152604482015290519081900360640190fd5b6001600160401b03851660009081526008602090815260409182902080546001600160a01b0319166001600160a01b03881617905590518451600192600792879290918291908401908083835b60208310610ff25780518252601f199092019160209182019101610fd3565b51815160209384036101000a60001901801990921691161790529201948552506040805194859003820185206001600160401b038c16600090815290835220805460ff19169515159590951790945550508351600192600792869290918291908401908083835b602083106110785780518252601f199092019160209182019101611059565b51815160209384036101000a60001901801990921691161790529201948552506040805194859003820185206001600160401b038c16600090815290835220805460ff19169515159590951790945550508251600192600792859290918291908401908083835b602083106110fe5780518252601f1990920191602091820191016110df565b51815160209384036101000a6000190180199092169116179052920194855250604080519485900382019094206001600160401b039a909a1660009081529990525050909520805460ff19169515159590951790945550505050565b6002546001600160a01b031633146111a9576040805162461bcd60e51b815260206004820152600d60248201526c10b332b2a1b7b63632b1ba37b960991b604482015290519081900360640190fd5b6001600160a01b0381166111e95760405133904780156108fc02916000818181858888f193505050501580156111e3573d6000803e3d6000fd5b5061127f565b600254604080516370a0823160e01b8152306004820152905161127f926001600160a01b0390811692908516916370a0823191602480820192602092909190829003018186803b15801561123c57600080fd5b505afa158015611250573d6000803e3d6000fd5b505050506040513d602081101561126657600080fd5b50516001600160a01b038416919063ffffffff6136a216565b50565b61128a613103565b6112c9576040805162461bcd60e51b8152602060048201819052602482015260008051602061460c833981519152604482015290519081900360640190fd5b80516112dc9060059060208401906144f6565b5050565b6112e8613103565b611327576040805162461bcd60e51b8152602060048201819052602482015260008051602061460c833981519152604482015290519081900360640190fd5b61132f6136f9565b565b60008054600160a81b900460ff16611390576040805162461bcd60e51b815260206004820152601f60248201527f5265656e7472616e637947756172643a207265656e7472616e742063616c6c00604482015290519081900360640190fd5b6000805460ff60a81b191690819055600160a01b900460ff16156113ee576040805162461bcd60e51b815260206004820152601060248201526f14185d5cd8589b194e881c185d5cd95960821b604482015290519081900360640190fd5b6113f889866137a1565b611403898685613818565b945061140f89866138e8565b6001600160a01b038916156114245788611431565b6001546001600160a01b03165b6001600160401b0389166000908152600860205260409020549099506001600160a01b03166114a1576040805162461bcd60e51b815260206004820152601760248201527619da5d995b881c1bdbdb08191bc81b9bdd08195e1cda5d604a1b604482015290519081900360640190fd5b60076114ac8a613a08565b6040518082805190602001908083835b602083106114db5780518252601f1990920191602091820191016114bc565b51815160209384036101000a6000190180199092169116179052920194855250604080519485900382019094206001600160401b038d1660009081529152929092205460ff1691506115769050576040805162461bcd60e51b815260206004820152601d60248201527f696e70757420746f6b656e206e6f7420696e20676976656e20706f6f6c000000604482015290519081900360640190fd5b85516115bb576040805162461bcd60e51b815260206004820152600f60248201526e656d70747920746f4164647265737360881b604482015290519081900360640190fd5b60148601516001600160a01b03811661160c576040805162461bcd60e51b815260206004820152600e60248201526d7a65726f20746f4164647265737360901b604482015290519081900360640190fd5b611614614574565b6040518061010001604052808881526020018781526020018b6001600160401b031681526020018a6001600160401b031681526020016116538d613a08565b8152602001611668611663613a23565b613a08565b81526020016116776000613a08565b81526020018990529050606061168c82613a27565b90506000600460009054906101000a90046001600160a01b03166001600160a01b03166387939a7f6040518163ffffffff1660e01b815260040160206040518083038186803b1580156116de57600080fd5b505afa1580156116f2573d6000803e3d6000fd5b505050506040513d602081101561170857600080fd5b505160065460405163bd5cf62560e01b81526001600160401b039091166004820181815260806024840190815260058054600260001960018316156101000201909116046084860181905295965086956001600160a01b0387169563bd5cf625959492938a939290916044810191606482019160a40190879080156117ce5780601f106117a3576101008083540402835291602001916117ce565b820191906000526020600020905b8154815290600101906020018083116117b157829003601f168201915b5050848103835260038152602001806218591960ea1b815250602001848103825285818151815260200191508051906020019080838360005b8381101561181f578181015183820152602001611807565b50505050905090810190601f16801561184c5780820380516001836020036101000a031916815260200191505b509650505050505050602060405180830381600087803b15801561186f57600080fd5b505af1158015611883573d6000803e3d6000fd5b505050506040513d602081101561189957600080fd5b50516118d65760405162461bcd60e51b815260040180806020018281038252602f81526020018061462c602f913960400191505060405180910390fd5b505050507f8636abd6d0e464fe725a13346c7ac779b73561c705506044a2e6b2cdb1295ea58a611904613a23565b6006546001600160401b031661191a6000613a08565b60058b60405180876001600160a01b03166001600160a01b03168152602001866001600160a01b03166001600160a01b03168152602001856001600160401b03166001600160401b031681526020018060200180602001848152602001838103835286818151815260200191508051906020019080838360005b838110156119ac578181015183820152602001611994565b50505050905090810190601f1680156119d95780820380516001836020036101000a031916815260200191505b50838103825285546002600019610100600184161502019091160480825260209091019086908015611a4c5780601f10611a2157610100808354040283529160200191611a4c565b820191906000526020600020905b815481529060010190602001808311611a2f57829003601f168201915b50509850505050505050505060405180910390a17f7b634860445c375b3604695e3d36b0ca94d7342cacaae46d96b8727e86522d328a611a8a613a23565b8b8b611a966000613a08565b8c8c8b8b604051808a6001600160a01b03166001600160a01b03168152602001896001600160a01b03166001600160a01b03168152602001886001600160401b03166001600160401b03168152602001876001600160401b03166001600160401b031681526020018060200180602001868152602001858152602001848152602001838103835288818151815260200191508051906020019080838360005b83811015611b4d578181015183820152602001611b35565b50505050905090810190601f168015611b7a5780820380516001836020036101000a031916815260200191505b50838103825287518152875160209182019189019080838360005b83811015611bad578181015183820152602001611b95565b50505050905090810190601f168015611bda5780820380516001836020036101000a031916815260200191505b509b50505050505050505050505060405180910390a160019150506000805460ff60a81b1916600160a81b17905598975050505050505050565b6003546001600160a01b031681565b60008054600160a81b900460ff16611c82576040805162461bcd60e51b815260206004820152601f60248201527f5265656e7472616e637947756172643a207265656e7472616e742063616c6c00604482015290519081900360640190fd5b6000805460ff60a81b191690819055600160a01b900460ff1615611ce0576040805162461bcd60e51b815260206004820152601060248201526f14185d5cd8589b194e881c185d5cd95960821b604482015290519081900360640190fd5b611cea8a866137a1565b611cf58a8685613818565b9450611d018a866138e8565b6001600160a01b038a1615611d165789611d23565b6001546001600160a01b03165b6001600160401b038a16600090815260086020526040902054909a506001600160a01b0316611d93576040805162461bcd60e51b815260206004820152601760248201527619da5d995b881c1bdbdb08191bc81b9bdd08195e1cda5d604a1b604482015290519081900360640190fd5b6007611d9e8b613a08565b6040518082805190602001908083835b60208310611dcd5780518252601f199092019160209182019101611dae565b51815160209384036101000a6000190180199092169116179052920194855250604080519485900382019094206001600160401b038e1660009081529152929092205460ff169150611e689050576040805162461bcd60e51b815260206004820152601d60248201527f696e70757420746f6b656e206e6f7420696e20676976656e20706f6f6c000000604482015290519081900360640190fd5b6007876040518082805190602001908083835b60208310611e9a5780518252601f199092019160209182019101611e7b565b51815160209384036101000a6000190180199092169116179052920194855250604080519485900382019094206001600160401b038e1660009081529152929092205460ff169150611f359050576040805162461bcd60e51b815260206004820152601e60248201527f6f757470757420746f6b656e206e6f7420696e20676976656e20706f6f6c0000604482015290519081900360640190fd5b8551611f7a576040805162461bcd60e51b815260206004820152600f60248201526e656d70747920746f4164647265737360881b604482015290519081900360640190fd5b60148601516001600160a01b038116611fcb576040805162461bcd60e51b815260206004820152600e60248201526d7a65726f20746f4164647265737360901b604482015290519081900360640190fd5b611fd3614574565b6040518061010001604052808881526020018781526020018c6001600160401b031681526020018b6001600160401b031681526020016120128e613a08565b8152602001612022611663613a23565b81526020018a8152602001898152509050606061203e82613a27565b90506000600460009054906101000a90046001600160a01b03166001600160a01b03166387939a7f6040518163ffffffff1660e01b815260040160206040518083038186803b15801561209057600080fd5b505afa1580156120a4573d6000803e3d6000fd5b505050506040513d60208110156120ba57600080fd5b505160065460405163bd5cf62560e01b81526001600160401b039091166004820181815260806024840190815260058054600260001960018316156101000201909116046084860181905295965086956001600160a01b0387169563bd5cf625959492938a939290916044810191606482019160a40190879080156121805780601f1061215557610100808354040283529160200191612180565b820191906000526020600020905b81548152906001019060200180831161216357829003601f168201915b505084810383526004815260200180630737761760e41b815250602001848103825285818151815260200191508051906020019080838360005b838110156121d25781810151838201526020016121ba565b50505050905090810190601f1680156121ff5780820380516001836020036101000a031916815260200191505b509650505050505050602060405180830381600087803b15801561222257600080fd5b505af1158015612236573d6000803e3d6000fd5b505050506040513d602081101561224c57600080fd5b50516122895760405162461bcd60e51b815260040180806020018281038252602f81526020018061462c602f913960400191505060405180910390fd5b505050507f8636abd6d0e464fe725a13346c7ac779b73561c705506044a2e6b2cdb1295ea58b6122b7613a23565b6006546001600160401b03166122cd6000613a08565b60058b60405180876001600160a01b03166001600160a01b03168152602001866001600160a01b03166001600160a01b03168152602001856001600160401b03166001600160401b031681526020018060200180602001848152602001838103835286818151815260200191508051906020019080838360005b8381101561235f578181015183820152602001612347565b50505050905090810190601f16801561238c5780820380516001836020036101000a031916815260200191505b508381038252855460026000196101006001841615020190911604808252602090910190869080156123ff5780601f106123d4576101008083540402835291602001916123ff565b820191906000526020600020905b8154815290600101906020018083116123e257829003601f168201915b50509850505050505050505060405180910390a17f9e37e0e96b266241aa70174d3c6d60151148a5b4181a57fb3d9475aa39ed06728b61243d613a23565b8c8c8c8c8c8b8b604051808a6001600160a01b03166001600160a01b03168152602001896001600160a01b03166001600160a01b03168152602001886001600160401b03166001600160401b03168152602001876001600160401b03166001600160401b031681526020018060200180602001868152602001858152602001848152602001838103835288818151815260200191508051906020019080838360005b838110156124f75781810151838201526020016124df565b50505050905090810190601f1680156125245780820380516001836020036101000a031916815260200191505b50838103825287518152875160209182019189019080838360005b8381101561255757818101518382015260200161253f565b50505050905090810190601f1680156125845780820380516001836020036101000a031916815260200191505b509b50505050505050505050505060405180910390a160019150506000805460ff60a81b1916600160a81b1790559998505050505050505050565b60006001600160a01b0382166125d757503031612655565b604080516370a0823160e01b8152306004820152905183916001600160a01b038316916370a0823191602480820192602092909190829003018186803b15801561262057600080fd5b505afa158015612634573d6000803e3d6000fd5b505050506040513d602081101561264a57600080fd5b505191506126559050565b919050565b612662613103565b6126a1576040805162461bcd60e51b8152602060048201819052602482015260008051602061460c833981519152604482015290519081900360640190fd5b600180546001600160a01b0319166001600160a01b0392909216919091179055565b600054600160a01b900460ff165b90565b6005805460408051602060026001851615610100026000190190941693909304601f8101849004840282018401909252818152929183018282801561275a5780601f1061272f5761010080835404028352916020019161275a565b820191906000526020600020905b81548152906001019060200180831161273d57829003601f168201915b505050505081565b61276a613103565b6127a9576040805162461bcd60e51b8152602060048201819052602482015260008051602061460c833981519152604482015290519081900360640190fd5b6001600160a01b0381166127f4576040805162461bcd60e51b815260206004820152600d60248201526c656d747079206164647265737360981b604482015290519081900360640190fd5b600380546001600160a01b0319166001600160a01b0392909216919091179055565b61281e613103565b61285d576040805162461bcd60e51b8152602060048201819052602482015260008051602061460c833981519152604482015290519081900360640190fd5b600080546040516001600160a01b03909116907f8be0079c531659141344cd1fd0a4f28419497f9722a3daafe3b4186f6b6457e0908390a3600080546001600160a01b0319169055565b60008054600160a81b900460ff16612906576040805162461bcd60e51b815260206004820152601f60248201527f5265656e7472616e637947756172643a207265656e7472616e742063616c6c00604482015290519081900360640190fd5b6000805460ff60a81b191690819055600160a01b900460ff1615612964576040805162461bcd60e51b815260206004820152601060248201526f14185d5cd8589b194e881c185d5cd95960821b604482015290519081900360640190fd5b61296e8a866137a1565b6129798a8685613818565b94506129858a866138e8565b6001600160a01b038a161561299a57896129a7565b6001546001600160a01b03165b6001600160401b038a16600090815260086020526040902054909a506001600160a01b0316612a17576040805162461bcd60e51b815260206004820152601760248201527619da5d995b881c1bdbdb08191bc81b9bdd08195e1cda5d604a1b604482015290519081900360640190fd5b6001600160401b0389166000908152600860205260409020546001600160a01b038b8116911614612a8f576040805162461bcd60e51b815260206004820181905260248201527f696e70757420746f6b656e206973206e6f7420706f6f6c204c5020746f6b656e604482015290519081900360640190fd5b6007876040518082805190602001908083835b60208310612ac15780518252601f199092019160209182019101612aa2565b51815160209384036101000a6000190180199092169116179052920194855250604080519485900382019094206001600160401b038e1660009081529152929092205460ff169150612b5c9050576040805162461bcd60e51b815260206004820152601e60248201527f6f757470757420746f6b656e206e6f7420696e20676976656e20706f6f6c0000604482015290519081900360640190fd5b8551612ba1576040805162461bcd60e51b815260206004820152600f60248201526e656d70747920746f4164647265737360881b604482015290519081900360640190fd5b60148601516001600160a01b038116612bf2576040805162461bcd60e51b815260206004820152600e60248201526d7a65726f20746f4164647265737360901b604482015290519081900360640190fd5b612bfa614574565b6040518061010001604052808881526020018781526020018c6001600160401b031681526020018b6001600160401b03168152602001612c398e613a08565b8152602001612c49611663613a23565b81526020018a81526020018981525090506060612c6582613a27565b90506000600460009054906101000a90046001600160a01b03166001600160a01b03166387939a7f6040518163ffffffff1660e01b815260040160206040518083038186803b158015612cb757600080fd5b505afa158015612ccb573d6000803e3d6000fd5b505050506040513d6020811015612ce157600080fd5b505160065460405163bd5cf62560e01b81526001600160401b039091166004820181815260806024840190815260058054600260001960018316156101000201909116046084860181905295965086956001600160a01b0387169563bd5cf625959492938a939290916044810191606482019160a4019087908015612da75780601f10612d7c57610100808354040283529160200191612da7565b820191906000526020600020905b815481529060010190602001808311612d8a57829003601f168201915b5050848103835260068152602001806572656d6f766560d01b815250602001848103825285818151815260200191508051906020019080838360005b83811015612dfb578181015183820152602001612de3565b50505050905090810190601f168015612e285780820380516001836020036101000a031916815260200191505b509650505050505050602060405180830381600087803b158015612e4b57600080fd5b505af1158015612e5f573d6000803e3d6000fd5b505050506040513d6020811015612e7557600080fd5b5051612eb25760405162461bcd60e51b815260040180806020018281038252602f81526020018061462c602f913960400191505060405180910390fd5b505050507f8636abd6d0e464fe725a13346c7ac779b73561c705506044a2e6b2cdb1295ea58b612ee0613a23565b6006546001600160401b0316612ef66000613a08565b60058b60405180876001600160a01b03166001600160a01b03168152602001866001600160a01b03166001600160a01b03168152602001856001600160401b03166001600160401b031681526020018060200180602001848152602001838103835286818151815260200191508051906020019080838360005b83811015612f88578181015183820152602001612f70565b50505050905090810190601f168015612fb55780820380516001836020036101000a031916815260200191505b508381038252855460026000196101006001841615020190911604808252602090910190869080156130285780601f10612ffd57610100808354040283529160200191613028565b820191906000526020600020905b81548152906001019060200180831161300b57829003601f168201915b50509850505050505050505060405180910390a17f7ee445799431a22b707efdb3f751a430c4f01f12d902e952200041d81255a41e8b61243d613a23565b6006546001600160401b031681565b61307d613103565b6130bc576040805162461bcd60e51b8152602060048201819052602482015260008051602061460c833981519152604482015290519081900360640190fd5b61132f613d02565b81516020818401810180516007825292820194820194909420919093529091526000908152604090205460ff1681565b6000546001600160a01b031690565b600080546001600160a01b0316613118613a23565b6001600160a01b031614905090565b6000613131613103565b613170576040805162461bcd60e51b8152602060048201819052602482015260008051602061460c833981519152604482015290519081900360640190fd5b60016007846040518082805190602001908083835b602083106131a45780518252601f199092019160209182019101613185565b51815160209384036101000a6000190180199092169116179052920194855250604080519485900382019094206001600160401b039790971660009081529690525050909220805460ff191692151592909217909155506001919050565b6006546801000000000000000090046001600160401b031681565b6000613227613103565b613266576040805162461bcd60e51b8152602060048201819052602482015260008051602061460c833981519152604482015290519081900360640190fd5b506001600160401b038216600090815260086020526040902080546001600160a01b0383166001600160a01b0319909116179055600192915050565b6132aa613103565b6132e9576040805162461bcd60e51b8152602060048201819052602482015260008051602061460c833981519152604482015290519081900360640190fd5b6001600160a01b038116613334576040805162461bcd60e51b815260206004820152600d60248201526c656d747079206164647265737360981b604482015290519081900360640190fd5b600280546001600160a01b0319166001600160a01b0392909216919091179055565b6001546001600160a01b031681565b6008602052600090815260409020546001600160a01b031681565b613388613103565b6133c7576040805162461bcd60e51b8152602060048201819052602482015260008051602061460c833981519152604482015290519081900360640190fd5b600480546001600160a01b0319166001600160a01b0392909216919091179055565b6002546001600160a01b031681565b6004546001600160a01b031681565b61340f613103565b61344e576040805162461bcd60e51b8152602060048201819052602482015260008051602061460c833981519152604482015290519081900360640190fd5b60016007856040518082805190602001908083835b602083106134825780518252601f199092019160209182019101613463565b51815160209384036101000a60001901801990921691161790529201948552506040805194859003820185206001600160401b038816600090815290835220805460ff19169515159590951790945550508451600192600792879290918291908401908083835b602083106135085780518252601f1990920191602091820191016134e9565b51815160209384036101000a60001901801990921691161790529201948552506040805194859003820185206001600160401b038816600090815290835220805460ff19169515159590951790945550508351600192600792869290918291908401908083835b6020831061358e5780518252601f19909201916020918201910161356f565b51815160209384036101000a6000190180199092169116179052920194855250604080519485900382019094206001600160401b039690961660009081529590525050909120805460ff1916911515919091179055505050565b6135f0613103565b61362f576040805162461bcd60e51b8152602060048201819052602482015260008051602061460c833981519152604482015290519081900360640190fd5b61127f81613d90565b613640613103565b61367f576040805162461bcd60e51b8152602060048201819052602482015260008051602061460c833981519152604482015290519081900360640190fd5b6006805467ffffffffffffffff19166001600160401b0392909216919091179055565b604080516001600160a01b038416602482015260448082018490528251808303909101815260649091019091526020810180516001600160e01b031663a9059cbb60e01b1790526136f4908490613e30565b505050565b600054600160a01b900460ff1661374e576040805162461bcd60e51b815260206004820152601460248201527314185d5cd8589b194e881b9bdd081c185d5cd95960621b604482015290519081900360640190fd5b6000805460ff60a01b191690557f5db9ee0a495bf2e6ff9c91a7834c1ba4fdd244a5e8aa4e537bd38aeae4b073aa613784613a23565b604080516001600160a01b039092168252519081900360200190a1565b6001600160a01b0382166137fd578034146137f8576040805162461bcd60e51b815260206004820152601260248201527134b739bab33334b1b4b2b73a1032ba3432b960711b604482015290519081900360640190fd5b6112dc565b6112dc6001600160a01b03831633308463ffffffff613fe516565b60006001600160a01b03841661388a57818311613873576040805162461bcd60e51b8152602060048201526014602482015273616d6f756e74206c657373207468616e2066656560601b604482015290519081900360640190fd5b613883838363ffffffff61403f16565b90506138e1565b8134146138de576040805162461bcd60e51b815260206004820152601a60248201527f696e73756666696369656e7420657468657220666f7220666565000000000000604482015290519081900360640190fd5b50815b9392505050565b6001600160a01b0382166139e857600160009054906101000a90046001600160a01b03166001600160a01b031663d0e30db0826040518263ffffffff1660e01b81526004016000604051808303818588803b15801561394657600080fd5b505af115801561395a573d6000803e3d6000fd5b50506001546003546040805163a9059cbb60e01b81526001600160a01b03928316600482015260248101889052905191909216945063a9059cbb9350604480830193506020928290030181600087803b1580156139b657600080fd5b505af11580156139ca573d6000803e3d6000fd5b505050506040513d60208110156139e057600080fd5b506112dc9050565b6003546112dc906001600160a01b0384811691168363ffffffff6136a216565b604080516014815260609290921b6020830152818101905290565b3390565b606080613a378360000151614081565b613a448460200151614081565b613a51856040015161411e565b613a5e866060015161411e565b613a6b8760800151614161565b613a788860a00151614161565b613a858960c00151614161565b613a928a60e00151614161565b6040516020018089805190602001908083835b60208310613ac45780518252601f199092019160209182019101613aa5565b51815160209384036101000a60001901801990921691161790528b5191909301928b0191508083835b60208310613b0c5780518252601f199092019160209182019101613aed565b51815160209384036101000a60001901801990921691161790528a5191909301928a0191508083835b60208310613b545780518252601f199092019160209182019101613b35565b51815160209384036101000a600019018019909216911617905289519190930192890191508083835b60208310613b9c5780518252601f199092019160209182019101613b7d565b51815160209384036101000a600019018019909216911617905288519190930192880191508083835b60208310613be45780518252601f199092019160209182019101613bc5565b51815160209384036101000a600019018019909216911617905287519190930192870191508083835b60208310613c2c5780518252601f199092019160209182019101613c0d565b51815160209384036101000a600019018019909216911617905286519190930192860191508083835b60208310613c745780518252601f199092019160209182019101613c55565b51815160209384036101000a600019018019909216911617905285519190930192850191508083835b60208310613cbc5780518252601f199092019160209182019101613c9d565b6001836020036101000a03801982511681845116808217855250505050505090500198505050505050505050604051602081830303815290604052905080915050919050565b600054600160a01b900460ff1615613d54576040805162461bcd60e51b815260206004820152601060248201526f14185d5cd8589b194e881c185d5cd95960821b604482015290519081900360640190fd5b6000805460ff60a01b1916600160a01b1790557f62e78cea01bee320cd4e420270b5ea74000d11b0c9f74754ebdbfc544b05a258613784613a23565b6001600160a01b038116613dd55760405162461bcd60e51b81526004018080602001828103825260268152602001806145e66026913960400191505060405180910390fd5b600080546040516001600160a01b03808516939216917f8be0079c531659141344cd1fd0a4f28419497f9722a3daafe3b4186f6b6457e091a3600080546001600160a01b0319166001600160a01b0392909216919091179055565b613e3982614227565b613e8a576040805162461bcd60e51b815260206004820152601f60248201527f5361666545524332303a2063616c6c20746f206e6f6e2d636f6e747261637400604482015290519081900360640190fd5b60006060836001600160a01b0316836040518082805190602001908083835b60208310613ec85780518252601f199092019160209182019101613ea9565b6001836020036101000a0380198251168184511680821785525050505050509050019150506000604051808303816000865af19150503d8060008114613f2a576040519150601f19603f3d011682016040523d82523d6000602084013e613f2f565b606091505b509150915081613f86576040805162461bcd60e51b815260206004820181905260248201527f5361666545524332303a206c6f772d6c6576656c2063616c6c206661696c6564604482015290519081900360640190fd5b805115613fdf57808060200190516020811015613fa257600080fd5b5051613fdf5760405162461bcd60e51b815260040180806020018281038252602a81526020018061465b602a913960400191505060405180910390fd5b50505050565b604080516001600160a01b0385811660248301528416604482015260648082018490528251808303909101815260849091019091526020810180516001600160e01b03166323b872dd60e01b179052613fdf908590613e30565b60006138e183836040518060400160405280601e81526020017f536166654d6174683a207375627472616374696f6e206f766572666c6f770000815250614263565b60606001600160ff1b038211156140df576040805162461bcd60e51b815260206004820152601b60248201527f56616c756520657863656564732075696e743235352072616e67650000000000604482015290519081900360640190fd5b60405160208082526000601f5b8282101561410e5785811a8260208601015360019190910190600019016140ec565b5050506040818101905292915050565b6040516008808252606091906000601f5b828210156141515785811a82602086010153600191909101906000190161412f565b5050506028810160405292915050565b805160609061416f816142fa565b836040516020018083805190602001908083835b602083106141a25780518252601f199092019160209182019101614183565b51815160209384036101000a600019018019909216911617905285519190930192850191508083835b602083106141ea5780518252601f1990920191602091820191016141cb565b6001836020036101000a03801982511681845116808217855250505050505090500192505050604051602081830303815290604052915050919050565b6000813f7fc5d2460186f7233c927e7db2dcc703c0e500b653ca82273b7bfad8045d85a470811580159061425b5750808214155b949350505050565b600081848411156142f25760405162461bcd60e51b81526004018080602001828103825283818151815260200191508051906020019080838360005b838110156142b757818101518382015260200161429f565b50505050905090810190601f1680156142e45780820380516001836020036101000a031916815260200191505b509250505060405180910390fd5b505050900390565b606060fd826001600160401b0316101561431e5761431782614440565b9050612655565b61ffff826001600160401b0316116143fc5761433d60fd60f81b61445c565b61434683614470565b6040516020018083805190602001908083835b602083106143785780518252601f199092019160209182019101614359565b51815160209384036101000a600019018019909216911617905285519190930192850191508083835b602083106143c05780518252601f1990920191602091820191016143a1565b6001836020036101000a038019825116818451168082178552505050505050905001925050506040516020818303038152906040529050612655565b63ffffffff826001600160401b0316116144265761441d607f60f91b61445c565b614346836144b3565b6144376001600160f81b031961445c565b6143468361411e565b604080516001815260f89290921b602083015260218201905290565b606061446a8260f81c614440565b92915050565b6040516002808252606091906000601f5b828210156144a35785811a826020860101536001919091019060001901614481565b5050506022810160405292915050565b6040516004808252606091906000601f5b828210156144e65785811a8260208601015360019190910190600019016144c4565b5050506024810160405292915050565b828054600181600116156101000203166002900490600052602060002090601f016020900481019282601f1061453757805160ff1916838001178555614564565b82800160010185558215614564579182015b82811115614564578251825591602001919060010190614549565b506145709291506145cb565b5090565b604051806101000160405280600081526020016000815260200160006001600160401b0316815260200160006001600160401b03168152602001606081526020016060815260200160608152602001606081525090565b6126d191905b8082111561457057600081556001016145d156fe4f776e61626c653a206e6577206f776e657220697320746865207a65726f20616464726573734f776e61626c653a2063616c6c6572206973206e6f7420746865206f776e657245746843726f7373436861696e4d616e616765722063726f7373436861696e206578656375746564206572726f72215361666545524332303a204552433230206f7065726174696f6e20646964206e6f742073756363656564a265627a7a72315820a4089cffa6fbbb52d749dc802a8f619cd65cd0e1f7b173339a97a739598f4a1a64736f6c634300051100324f776e61626c653a206e6577206f776e657220697320746865207a65726f20616464726573738be0079c531659141344cd1fd0a4f28419497f9722a3daafe3b4186f6b6457e0",
    "linkReferences": {}
  },
  "methodIdentifiers": {
    "WETH()": "ad5c4648",
    "add_liquidity(address,uint64,uint64,bytes,uint256,uint256,uint256,uint256)": "4672b083",
    "assetInPool(bytes,uint64)": "84eae14e",
    "bind3Asset(bytes,bytes,bytes,uint64)": "de77f69b",
    "bindAssetAndPool(bytes,uint64)": "9462c985",
    "chainId()": "9a8a0592",
    "extractFee(address)": "1745399d",
    "feeCollector()": "c415b95c",
    "getBalanceFor(address)": "59c589a1",
    "isOwner()": "8f32d59b",
    "lockProxyAddress()": "4ad43eda",
    "managerProxyContract()": "d798f881",
    "owner()": "8da5cb5b",
    "pause()": "8456cb59",
    "paused()": "5c975abb",
    "poolTokenMap(uint64)": "af249861",
    "registerPool(uint64,address)": "a3e28eb4",
    "registerPoolWith3Assets(uint64,address,bytes,bytes,bytes)": "16675e4f",
    "remove_liquidity(address,uint64,uint64,bytes,bytes,uint256,uint256,uint256,uint256)": "773c9d9c",
    "renounceOwnership()": "715018a6",
    "setFeeCollector(address)": "a42dce80",
    "setLockProxy(address)": "6f2b6ee6",
    "setManagerProxy(address)": "af9980f0",
    "setSwapChainId(uint64)": "f916aa85",
    "setSwapProxyHash(bytes)": "1f237452",
    "setWETH(address)": "5b769f3c",
    "swap(address,uint64,uint64,bytes,bytes,uint256,uint256,uint256,uint256)": "559ebe57",
    "swapChainId()": "78b556fa",
    "swapProxyHash()": "5f56bc53",
    "transferOwnership(address)": "f2fde38b",
    "unpause()": "3f4ba83a"
  },
  "id": 38
}