{
  "abi": [
    {
      "anonymous": false,
      "inputs": [
        {
          "indexed": true,
          "internalType": "address",
          "name": "previousOwner",
          "type": "address"
        },
        {
          "indexed": true,
          "internalType": "address",
          "name": "newOwner",
          "type": "address"
        }
      ],
      "name": "OwnershipTransferred",
      "type": "event"
    },
    {
      "constant": false,
      "inputs": [
        {
          "internalType": "uint64",
          "name": "toChainId",
          "type": "uint64"
        },
        {
          "internalType": "bytes",
          "name": "targetCallerHash",
          "type": "bytes"
        }
      ],
      "name": "bindCallerHash",
      "outputs": [],
      "payable": false,
      "stateMutability": "nonpayable",
      "type": "function"
    },
    {
      "constant": true,
      "inputs": [
        {
          "internalType": "uint64",
          "name": "",
          "type": "uint64"
        }
      ],
      "name": "callerHashMap",
      "outputs": [
        {
          "internalType": "bytes",
          "name": "",
          "type": "bytes"
        }
      ],
      "payable": false,
      "stateMutability": "view",
      "type": "function"
    },
    {
      "constant": false,
      "inputs": [
        {
          "internalType": "uint64",
          "name": "_toChainId",
          "type": "uint64"
        },
        {
          "internalType": "bytes",
          "name": "_toContract",
          "type": "bytes"
        },
        {
          "internalType": "bytes",
          "name": "_method",
          "type": "bytes"
        },
        {
          "internalType": "bytes",
          "name": "_txData",
          "type": "bytes"
        }
      ],
      "name": "crossChain",
      "outputs": [
        {
          "internalType": "bool",
          "name": "",
          "type": "bool"
        }
      ],
      "payable": false,
      "stateMutability": "nonpayable",
      "type": "function"
    },
    {
      "constant": true,
      "inputs": [],
      "name": "getEthCrossChainManager",
      "outputs": [
        {
          "internalType": "address",
          "name": "",
          "type": "address"
        }
      ],
      "payable": false,
      "stateMutability": "view",
      "type": "function"
    },
    {
      "constant": false,
      "inputs": [
        {
          "internalType": "address",
          "name": "newOwner",
          "type": "address"
        }
      ],
      "name": "initialize",
      "outputs": [],
      "payable": false,
      "stateMutability": "nonpayable",
      "type": "function"
    },
    {
      "constant": true,
      "inputs": [],
      "name": "isOwner",
      "outputs": [
        {
          "internalType": "bool",
          "name": "",
          "type": "bool"
        }
      ],
      "payable": false,
      "stateMutability": "view",
      "type": "function"
    },
    {
      "constant": true,
      "inputs": [],
      "name": "owner",
      "outputs": [
        {
          "internalType": "address",
          "name": "",
          "type": "address"
        }
      ],
      "payable": false,
      "stateMutability": "view",
      "type": "function"
    },
    {
      "constant": true,
      "inputs": [],
      "name": "realCCM",
      "outputs": [
        {
          "internalType": "address",
          "name": "",
          "type": "address"
        }
      ],
      "payable": false,
      "stateMutability": "view",
      "type": "function"
    },
    {
      "constant": false,
      "inputs": [],
      "name": "renounceOwnership",
      "outputs": [],
      "payable": false,
      "stateMutability": "nonpayable",
      "type": "function"
    },
    {
      "constant": false,
      "inputs": [
        {
          "internalType": "address",
          "name": "_ccm",
          "type": "address"
        }
      ],
      "name": "setRealCCM",
      "outputs": [],
      "payable": false,
      "stateMutability": "nonpayable",
      "type": "function"
    },
    {
      "constant": false,
      "inputs": [
        {
          "internalType": "address",
          "name": "newOwner",
          "type": "address"
        }
      ],
      "name": "transferOwnership",
      "outputs": [],
      "payable": false,
      "stateMutability": "nonpayable",
      "type": "function"
    },
    {
      "constant": false,
      "inputs": [
        {
          "internalType": "bytes",
          "name": "args",
          "type": "bytes"
        },
        {
          "internalType": "bytes",
          "name": "fromContractAddr",
          "type": "bytes"
        },
        {
          "internalType": "uint64",
          "name": "fromChainId",
          "type": "uint64"
        }
      ],
      "name": "unwrap",
      "outputs": [
        {
          "internalType": "bool",
          "name": "",
          "type": "bool"
        }
      ],
      "payable": false,
      "stateMutability": "nonpayable",
      "type": "function"
    }
  ],
  "bytecode": {
    "object": "0x608060405234801561001057600080fd5b5061173d806100206000396000f3fe608060405234801561001057600080fd5b50600436106100b45760003560e01c8063bcbe241011610071578063bcbe241014610266578063bd5cf6251461026e578063c4d66de81461038d578063e86022fb146103b3578063f2fde38b1461044f578063f980a9ad14610475576100b4565b806307beb471146100b9578063715018a6146100e157806374186722146100e957806387939a7f146102325780638da5cb5b146102565780638f32d59b1461025e575b600080fd5b6100df600480360360208110156100cf57600080fd5b50356001600160a01b031661052a565b005b6100df610593565b61021e600480360360608110156100ff57600080fd5b810190602081018135600160201b81111561011957600080fd5b82018360208201111561012b57600080fd5b803590602001918460018302840111600160201b8311171561014c57600080fd5b91908080601f0160208091040260200160405190810160405280939291908181526020018383808284376000920191909152509295949360208101935035915050600160201b81111561019e57600080fd5b8201836020820111156101b057600080fd5b803590602001918460018302840111600160201b831117156101d157600080fd5b91908080601f0160208091040260200160405190810160405280939291908181526020018383808284376000920191909152509295505050903567ffffffffffffffff1691506106249050565b604080519115158252519081900360200190f35b61023a610d8a565b604080516001600160a01b039092168252519081900360200190f35b61023a610d8f565b61021e610d9e565b61023a610daf565b61021e6004803603608081101561028457600080fd5b67ffffffffffffffff8235169190810190604081016020820135600160201b8111156102af57600080fd5b8201836020820111156102c157600080fd5b803590602001918460018302840111600160201b831117156102e257600080fd5b919390929091602081019035600160201b8111156102ff57600080fd5b82018360208201111561031157600080fd5b803590602001918460018302840111600160201b8311171561033257600080fd5b919390929091602081019035600160201b81111561034f57600080fd5b82018360208201111561036157600080fd5b803590602001918460018302840111600160201b8311171561038257600080fd5b509092509050610dbe565b6100df600480360360208110156103a357600080fd5b50356001600160a01b0316611171565b6103da600480360360208110156103c957600080fd5b503567ffffffffffffffff166111e7565b6040805160208082528351818301528351919283929083019185019080838360005b838110156104145781810151838201526020016103fc565b50505050905090810190601f1680156104415780820380516001836020036101000a031916815260200191505b509250505060405180910390f35b6100df6004803603602081101561046557600080fd5b50356001600160a01b0316611280565b6100df6004803603604081101561048b57600080fd5b67ffffffffffffffff8235169190810190604081016020820135600160201b8111156104b657600080fd5b8201836020820111156104c857600080fd5b803590602001918460018302840111600160201b831117156104e957600080fd5b91908080601f0160208091040260200160405190810160405280939291908181526020018383808284376000920191909152509295506112d3945050505050565b610532610d9e565b610571576040805162461bcd60e51b8152602060048201819052602482015260008051602061163c833981519152604482015290519081900360640190fd5b600180546001600160a01b0319166001600160a01b0392909216919091179055565b61059b610d9e565b6105da576040805162461bcd60e51b8152602060048201819052602482015260008051602061163c833981519152604482015290519081900360640190fd5b600080546040516001600160a01b03909116907f8be0079c531659141344cd1fd0a4f28419497f9722a3daafe3b4186f6b6457e0908390a3600080546001600160a01b0319169055565b6001546000906001600160a01b031633146106705760405162461bcd60e51b815260040180806020018281038252602d81526020018061160f602d913960400191505060405180910390fd5b82516106ad5760405162461bcd60e51b815260040180806020018281038252602c81526020018061165c602c913960400191505060405180910390fd5b67ffffffffffffffff821660009081526002602052604090206106d09084611349565b61070b5760405162461bcd60e51b81526004018080602001828103825260238152602001806116886023913960400191505060405180910390fd5b60608060608087806020019051608081101561072657600080fd5b8101908080516040519392919084600160201b82111561074557600080fd5b90830190602082018581111561075a57600080fd5b8251600160201b81118282018810171561077357600080fd5b82525081516020918201929091019080838360005b838110156107a0578181015183820152602001610788565b50505050905090810190601f1680156107cd5780820380516001836020036101000a031916815260200191505b5060405260200180516040519392919084600160201b8211156107ef57600080fd5b90830190602082018581111561080457600080fd5b8251600160201b81118282018810171561081d57600080fd5b82525081516020918201929091019080838360005b8381101561084a578181015183820152602001610832565b50505050905090810190601f1680156108775780820380516001836020036101000a031916815260200191505b5060405260200180516040519392919084600160201b82111561089957600080fd5b9083019060208201858111156108ae57600080fd5b8251600160201b8111828201881017156108c757600080fd5b82525081516020918201929091019080838360005b838110156108f45781810151838201526020016108dc565b50505050905090810190601f1680156109215780820380516001836020036101000a031916815260200191505b5060405260200180516040519392919084600160201b82111561094357600080fd5b90830190602082018581111561095857600080fd5b8251600160201b81118282018810171561097157600080fd5b82525081516020918201929091019080838360005b8381101561099e578181015183820152602001610986565b50505050905090810190601f1680156109cb5780820380516001836020036101000a031916815260200191505b506040525050509350935093509350600060606109e7856113fd565b6001600160a01b0316846040516020018082805190602001908083835b60208310610a235780518252601f199092019160209182019101610a04565b6001836020036101000a03801982511681845116808217855250505050505090500180732862797465732c62797465732c75696e7436342960601b8152506014019150506040516020818303038152906040528051906020012084888b6040516020018080602001806020018467ffffffffffffffff1667ffffffffffffffff168152602001838103835286818151815260200191508051906020019080838360005b83811015610ade578181015183820152602001610ac6565b50505050905090810190601f168015610b0b5780820380516001836020036101000a031916815260200191505b50838103825285518152855160209182019187019080838360005b83811015610b3e578181015183820152602001610b26565b50505050905090810190601f168015610b6b5780820380516001836020036101000a031916815260200191505b509550505050505060405160208183030381529060405260405160200180836001600160e01b0319166001600160e01b031916815260040182805190602001908083835b60208310610bce5780518252601f199092019160209182019101610baf565b6001836020036101000a038019825116818451168082178552505050505050905001925050506040516020818303038152906040526040518082805190602001908083835b60208310610c325780518252601f199092019160209182019101610c13565b6001836020036101000a0380198251168184511680821785525050505050509050019150506000604051808303816000865af19150503d8060008114610c94576040519150601f19603f3d011682016040523d82523d6000602084013e610c99565b606091505b509092509050600182151514610ce05760405162461bcd60e51b815260040180806020018281038252602b8152602001806115e4602b913960400191505060405180910390fd5b8051610d1d5760405162461bcd60e51b81526004018080602001828103825260278152602001806116ab6027913960400191505060405180910390fd5b6000818060200190516020811015610d3457600080fd5b50519050600181151514610d795760405162461bcd60e51b81526004018080602001828103825260378152602001806116d26037913960400191505060405180910390fd5b5060019a9950505050505050505050565b305b90565b6000546001600160a01b031690565b6000546001600160a01b0316331490565b6001546001600160a01b031681565b67ffffffffffffffff87166000908152600260208181526040808420805482516001821615610100026000190190911694909404601f810184900484028501840190925281845260609392909190830182828015610e5d5780601f10610e3257610100808354040283529160200191610e5d565b820191906000526020600020905b815481529060010190602001808311610e4057829003601f168201915b50505050509050805160001415610ebb576040805162461bcd60e51b815260206004820152601a60248201527f656d70747920696c6c6567616c20746f43616c6c657248617368000000000000604482015290519081900360640190fd5b6060610ec633611447565b898989898989604051602001808060200180602001806020018060200185810385528c818151815260200191508051906020019080838360005b83811015610f18578181015183820152602001610f00565b50505050905090810190601f168015610f455780820380516001836020036101000a031916815260200191505b5085810384528a81526020018b8b80828437600083820152601f01601f191690910186810384528981526020019050898980828437600083820152601f01601f191690910186810383528781526020019050878780828437600081840152601f19601f8201169050808301925050509b5050505050505050505050506040516020818303038152906040529050600160009054906101000a90046001600160a01b03166001600160a01b031663bd5cf6258b84846040518463ffffffff1660e01b8152600401808467ffffffffffffffff1667ffffffffffffffff168152602001806020018060200180602001848103845286818151815260200191508051906020019080838360005b8381101561106757818101518382015260200161104f565b50505050905090810190601f1680156110945780820380516001836020036101000a031916815260200191505b5084810383526006815260200180650756e777261760d41b815250602001848103825285818151815260200191508051906020019080838360005b838110156110e75781810151838201526020016110cf565b50505050905090810190601f1680156111145780820380516001836020036101000a031916815260200191505b509650505050505050602060405180830381600087803b15801561113757600080fd5b505af115801561114b573d6000803e3d6000fd5b505050506040513d602081101561116157600080fd5b50519a9950505050505050505050565b6000546001600160a01b0316156111c5576040805162461bcd60e51b8152602060048201526013602482015272185b1c9958591e481a5b9a5d1a585b1a5e9959606a1b604482015290519081900360640190fd5b600080546001600160a01b0319166001600160a01b0392909216919091179055565b600260208181526000928352604092839020805484516001821615610100026000190190911693909304601f81018390048302840183019094528383529192908301828280156112785780601f1061124d57610100808354040283529160200191611278565b820191906000526020600020905b81548152906001019060200180831161125b57829003601f168201915b505050505081565b611288610d9e565b6112c7576040805162461bcd60e51b8152602060048201819052602482015260008051602061163c833981519152604482015290519081900360640190fd5b6112d081611462565b50565b6112db610d9e565b61131a576040805162461bcd60e51b8152602060048201819052602482015260008051602061163c833981519152604482015290519081900360640190fd5b67ffffffffffffffff82166000908152600260209081526040909120825161134492840190611502565b505050565b6000806001905083546002600180831615610100020382160484518082146001811461137857600094506113f1565b82156113f15760208310600181146113d657600189600052602060002060208a018581015b6002848284100114156113cd5781518354146113bc5760009950600093505b60018301925060208201915061139d565b505050506113ef565b610100808604029450602088015185146113ef57600095505b505b50929695505050505050565b6000815160141461143f5760405162461bcd60e51b815260040180806020018281038252602381526020018061159b6023913960400191505060405180910390fd5b506014015190565b604080516014815260609290921b6020830152818101905290565b6001600160a01b0381166114a75760405162461bcd60e51b81526004018080602001828103825260268152602001806115be6026913960400191505060405180910390fd5b600080546040516001600160a01b03808516939216917f8be0079c531659141344cd1fd0a4f28419497f9722a3daafe3b4186f6b6457e091a3600080546001600160a01b0319166001600160a01b0392909216919091179055565b828054600181600116156101000203166002900490600052602060002090601f016020900481019282601f1061154357805160ff1916838001178555611570565b82800160010185558215611570579182015b82811115611570578251825591602001919060010190611555565b5061157c929150611580565b5090565b610d8c91905b8082111561157c576000815560010161158656fe6279746573206c656e67746820646f6573206e6f74206d6174636820616464726573734f776e61626c653a206e6577206f776e657220697320746865207a65726f206164647265737345746843726f7373436861696e2063616c6c20627573696e65737320636f6e7472616374206661696c65646d736753656e646572206973206e6f742045746843726f7373436861696e4d616e61676572436f6e74726163744f776e61626c653a2063616c6c6572206973206e6f7420746865206f776e657266726f6d2043616c6c657220636f6e747261637420616464726573732063616e6e6f7420626520656d70747946726f6d2043616c6c657220636f6e74726163742061646472657373206572726f72214e6f2072657475726e2076616c75652066726f6d20627573696e65737320636f6e74726163742145746843726f7373436861696e2063616c6c20627573696e65737320636f6e74726163742072657475726e206973206e6f742074727565a265627a7a72315820574e82508b3a06e102e5bb7e52c324b311a0eb43277eb318574a835db9a53c1264736f6c63430005110032",
    "linkReferences": {}
  },
  "methodIdentifiers": {
    "bindCallerHash(uint64,bytes)": "f980a9ad",
    "callerHashMap(uint64)": "e86022fb",
    "crossChain(uint64,bytes,bytes,bytes)": "bd5cf625",
    "getEthCrossChainManager()": "87939a7f",
    "initialize(address)": "c4d66de8",
    "isOwner()": "8f32d59b",
    "owner()": "8da5cb5b",
    "realCCM()": "bcbe2410",
    "renounceOwnership()": "715018a6",
    "setRealCCM(address)": "07beb471",
    "transferOwnership(address)": "f2fde38b",
    "unwrap(bytes,bytes,uint64)": "74186722"
  },
  "id": 25
}