{
  "abi": [
    {
      "constant": true,
      "inputs": [],
      "name": "A",
      "outputs": [
        {
          "internalType": "uint256",
          "name": "",
          "type": "uint256"
        }
      ],
      "payable": false,
      "stateMutability": "view",
      "type": "function"
    },
    {
      "constant": true,
      "inputs": [],
      "name": "A_precise",
      "outputs": [
        {
          "internalType": "uint256",
          "name": "",
          "type": "uint256"
        }
      ],
      "payable": false,
      "stateMutability": "view",
      "type": "function"
    },
    {
      "constant": false,
      "inputs": [
        {
          "internalType": "uint256[3]",
          "name": "_amounts",
          "type": "uint256[3]"
        },
        {
          "internalType": "uint256",
          "name": "_min_mint_amount",
          "type": "uint256"
        }
      ],
      "name": "add_liquidity",
      "outputs": [
        {
          "internalType": "uint256",
          "name": "",
          "type": "uint256"
        }
      ],
      "payable": false,
      "stateMutability": "nonpayable",
      "type": "function"
    },
    {
      "constant": false,
      "inputs": [
        {
          "internalType": "uint256",
          "name": "_token_amount",
          "type": "uint256"
        },
        {
          "internalType": "address",
          "name": "_coin",
          "type": "address"
        },
        {
          "internalType": "uint256",
          "name": "_min_mint_amount",
          "type": "uint256"
        }
      ],
      "name": "add_liquidity_one_coin",
      "outputs": [
        {
          "internalType": "uint256",
          "name": "",
          "type": "uint256"
        }
      ],
      "payable": false,
      "stateMutability": "nonpayable",
      "type": "function"
    },
    {
      "constant": true,
      "inputs": [
        {
          "internalType": "uint256",
          "name": "",
          "type": "uint256"
        }
      ],
      "name": "balances",
      "outputs": [
        {
          "internalType": "uint256",
          "name": "",
          "type": "uint256"
        }
      ],
      "payable": false,
      "stateMutability": "view",
      "type": "function"
    },
    {
      "constant": true,
      "inputs": [
        {
          "internalType": "uint256[3]",
          "name": "_amounts",
          "type": "uint256[3]"
        },
        {
          "internalType": "bool",
          "name": "_is_deposit",
          "type": "bool"
        }
      ],
      "name": "calc_token_amount",
      "outputs": [
        {
          "internalType": "uint256",
          "name": "",
          "type": "uint256"
        }
      ],
      "payable": false,
      "stateMutability": "view",
      "type": "function"
    },
    {
      "constant": true,
      "inputs": [
        {
          "internalType": "uint256",
          "name": "_token_amount",
          "type": "uint256"
        },
        {
          "internalType": "int128",
          "name": "i",
          "type": "int128"
        }
      ],
      "name": "calc_withdraw_one_coin",
      "outputs": [
        {
          "internalType": "uint256",
          "name": "",
          "type": "uint256"
        }
      ],
      "payable": false,
      "stateMutability": "view",
      "type": "function"
    },
    {
      "constant": true,
      "inputs": [
        {
          "internalType": "uint256",
          "name": "",
          "type": "uint256"
        }
      ],
      "name": "coins",
      "outputs": [
        {
          "internalType": "address",
          "name": "",
          "type": "address"
        }
      ],
      "payable": false,
      "stateMutability": "view",
      "type": "function"
    },
    {
      "constant": false,
      "inputs": [
        {
          "internalType": "address",
          "name": "xxx",
          "type": "address"
        },
        {
          "internalType": "address",
          "name": "yyy",
          "type": "address"
        },
        {
          "internalType": "uint256",
          "name": "_dx",
          "type": "uint256"
        },
        {
          "internalType": "uint256",
          "name": "_min_dy",
          "type": "uint256"
        }
      ],
      "name": "exchange",
      "outputs": [
        {
          "internalType": "uint256",
          "name": "",
          "type": "uint256"
        }
      ],
      "payable": false,
      "stateMutability": "nonpayable",
      "type": "function"
    },
    {
      "constant": true,
      "inputs": [
        {
          "internalType": "int128",
          "name": "i",
          "type": "int128"
        },
        {
          "internalType": "int128",
          "name": "j",
          "type": "int128"
        },
        {
          "internalType": "uint256",
          "name": "_dx",
          "type": "uint256"
        }
      ],
      "name": "get_dy",
      "outputs": [
        {
          "internalType": "uint256",
          "name": "",
          "type": "uint256"
        }
      ],
      "payable": false,
      "stateMutability": "view",
      "type": "function"
    },
    {
      "constant": true,
      "inputs": [],
      "name": "get_virtual_price",
      "outputs": [
        {
          "internalType": "uint256",
          "name": "",
          "type": "uint256"
        }
      ],
      "payable": false,
      "stateMutability": "view",
      "type": "function"
    },
    {
      "constant": true,
      "inputs": [],
      "name": "lp_token",
      "outputs": [
        {
          "internalType": "address",
          "name": "",
          "type": "address"
        }
      ],
      "payable": false,
      "stateMutability": "view",
      "type": "function"
    },
    {
      "constant": true,
      "inputs": [],
      "name": "owner",
      "outputs": [
        {
          "internalType": "address",
          "name": "",
          "type": "address"
        }
      ],
      "payable": false,
      "stateMutability": "view",
      "type": "function"
    },
    {
      "constant": false,
      "inputs": [
        {
          "internalType": "uint256",
          "name": "_amount",
          "type": "uint256"
        },
        {
          "internalType": "uint256[3]",
          "name": "_min_amounts",
          "type": "uint256[3]"
        }
      ],
      "name": "remove_liquidity",
      "outputs": [
        {
          "internalType": "uint256[3]",
          "name": "",
          "type": "uint256[3]"
        }
      ],
      "payable": false,
      "stateMutability": "nonpayable",
      "type": "function"
    },
    {
      "constant": false,
      "inputs": [
        {
          "internalType": "uint256[3]",
          "name": "_amounts",
          "type": "uint256[3]"
        },
        {
          "internalType": "uint256",
          "name": "_max_burn_amount",
          "type": "uint256"
        }
      ],
      "name": "remove_liquidity_imbalance",
      "outputs": [
        {
          "internalType": "uint256",
          "name": "",
          "type": "uint256"
        }
      ],
      "payable": false,
      "stateMutability": "nonpayable",
      "type": "function"
    },
    {
      "constant": false,
      "inputs": [
        {
          "internalType": "uint256",
          "name": "_token_amount",
          "type": "uint256"
        },
        {
          "internalType": "address",
          "name": "_coin",
          "type": "address"
        },
        {
          "internalType": "uint256",
          "name": "_min_amount",
          "type": "uint256"
        }
      ],
      "name": "remove_liquidity_one_coin",
      "outputs": [
        {
          "internalType": "uint256",
          "name": "",
          "type": "uint256"
        }
      ],
      "payable": false,
      "stateMutability": "nonpayable",
      "type": "function"
    }
  ],
  "bytecode": {
    "object": "0x608060405234801561001057600080fd5b506103b8806100206000396000f3fe608060405234801561001057600080fd5b50600436106101005760003560e01c806382c6306611610097578063c661065711610066578063c66106571461024b578063cc2b27d714610268578063ecb586a51461028e578063f446c1d01461021757610100565b806382c630661461021f5780638da5cb5b146102435780639fdaea0c14610176578063bb7b8b801461021757610100565b8063503a1fc5116100d3578063503a1fc5146101b457806353834304146101b45780635e0d443f146101e657806376a2f0f01461021757610100565b80630ed2fc95146101055780633883e119146101535780634515cef3146101765780634903b0d114610197575b600080fd5b6101416004803603608081101561011b57600080fd5b506001600160a01b038135811691602081013590911690604081013590606001356102e8565b60408051918252519081900360200190f35b6101416004803603608081101561016957600080fd5b50606081013515156102f2565b6101416004803603608081101561018c57600080fd5b5060608101356102f2565b610141600480360360208110156101ad57600080fd5b50356102fa565b610141600480360360608110156101ca57600080fd5b508035906001600160a01b03602082013516906040013561030e565b610141600480360360608110156101fc57600080fd5b508035600f90810b91602081013590910b906040013561030e565b610141610317565b61022761031c565b604080516001600160a01b039092168252519081900360200190f35b61022761032b565b6102276004803603602081101561026157600080fd5b503561033a565b6101416004803603604081101561027e57600080fd5b5080359060200135600f0b6102f2565b6102b0600480360360808110156102a457600080fd5b50803590602001610357565b6040518082606080838360005b838110156102d55781810151838201526020016102bd565b5050505090500191505060405180910390f35b6000949350505050565b600092915050565b6003816003811061030757fe5b0154905081565b60009392505050565b600090565b6007546001600160a01b031681565b6006546001600160a01b031681565b6000816003811061034757fe5b01546001600160a01b0316905081565b61035f610365565b92915050565b6040518060600160405280600390602082028038833950919291505056fea265627a7a72315820a2791fd736e190ca71081d25141d4acb133fd6e2edb0dc54934c5f972841ef6864736f6c63430005110032",
    "linkReferences": {}
  },
  "methodIdentifiers": {
    "A()": "f446c1d0",
    "A_precise()": "76a2f0f0",
    "add_liquidity(uint256[3],uint256)": "4515cef3",
    "add_liquidity_one_coin(uint256,address,uint256)": "503a1fc5",
    "balances(uint256)": "4903b0d1",
    "calc_token_amount(uint256[3],bool)": "3883e119",
    "calc_withdraw_one_coin(uint256,int128)": "cc2b27d7",
    "coins(uint256)": "c6610657",
    "exchange(address,address,uint256,uint256)": "0ed2fc95",
    "get_dy(int128,int128,uint256)": "5e0d443f",
    "get_virtual_price()": "bb7b8b80",
    "lp_token()": "82c63066",
    "owner()": "8da5cb5b",
    "remove_liquidity(uint256,uint256[3])": "ecb586a5",
    "remove_liquidity_imbalance(uint256[3],uint256)": "9fdaea0c",
    "remove_liquidity_one_coin(uint256,address,uint256)": "53834304"
  },
  "id": 28
}