{
  "abi": [
    {
      "constant": true,
      "inputs": [
        {
          "internalType": "address",
          "name": "_addr",
          "type": "address"
        }
      ],
      "name": "addressToBytes",
      "outputs": [
        {
          "internalType": "bytes",
          "name": "bs",
          "type": "bytes"
        }
      ],
      "payable": false,
      "stateMutability": "pure",
      "type": "function"
    },
    {
      "constant": true,
      "inputs": [
        {
          "internalType": "bytes32",
          "name": "raw",
          "type": "bytes32"
        }
      ],
      "name": "bytes32ToBytes",
      "outputs": [
        {
          "internalType": "bytes",
          "name": "res",
          "type": "bytes"
        }
      ],
      "payable": false,
      "stateMutability": "pure",
      "type": "function"
    },
    {
      "constant": true,
      "inputs": [
        {
          "internalType": "bytes",
          "name": "_bs",
          "type": "bytes"
        }
      ],
      "name": "bytesToAddress",
      "outputs": [
        {
          "internalType": "address",
          "name": "addr",
          "type": "address"
        }
      ],
      "payable": false,
      "stateMutability": "pure",
      "type": "function"
    },
    {
      "constant": true,
      "inputs": [
        {
          "internalType": "bytes",
          "name": "_bs",
          "type": "bytes"
        }
      ],
      "name": "bytesToBytes32",
      "outputs": [
        {
          "internalType": "bytes32",
          "name": "value",
          "type": "bytes32"
        }
      ],
      "payable": false,
      "stateMutability": "pure",
      "type": "function"
    },
    {
      "constant": true,
      "inputs": [
        {
          "internalType": "bytes",
          "name": "keyBytes",
          "type": "bytes"
        }
      ],
      "name": "bytesToHex",
      "outputs": [
        {
          "internalType": "bytes",
          "name": "keyHex",
          "type": "bytes"
        }
      ],
      "payable": false,
      "stateMutability": "pure",
      "type": "function"
    },
    {
      "constant": true,
      "inputs": [
        {
          "internalType": "bytes",
          "name": "_bs",
          "type": "bytes"
        }
      ],
      "name": "bytesToUint256",
      "outputs": [
        {
          "internalType": "uint256",
          "name": "value",
          "type": "uint256"
        }
      ],
      "payable": false,
      "stateMutability": "pure",
      "type": "function"
    },
    {
      "constant": true,
      "inputs": [
        {
          "internalType": "bytes",
          "name": "raw",
          "type": "bytes"
        },
        {
          "internalType": "uint256",
          "name": "offset",
          "type": "uint256"
        },
        {
          "internalType": "bytes",
          "name": "hash",
          "type": "bytes"
        }
      ],
      "name": "checkNodeHash",
      "outputs": [
        {
          "internalType": "bool",
          "name": "flag",
          "type": "bool"
        }
      ],
      "payable": false,
      "stateMutability": "pure",
      "type": "function"
    },
    {
      "constant": true,
      "inputs": [
        {
          "internalType": "bytes",
          "name": "keyCompact",
          "type": "bytes"
        }
      ],
      "name": "compactToHex",
      "outputs": [
        {
          "internalType": "bytes",
          "name": "keyHex",
          "type": "bytes"
        }
      ],
      "payable": false,
      "stateMutability": "pure",
      "type": "function"
    },
    {
      "constant": true,
      "inputs": [
        {
          "internalType": "bytes",
          "name": "key",
          "type": "bytes"
        },
        {
          "internalType": "bytes",
          "name": "element",
          "type": "bytes"
        }
      ],
      "name": "compareKey",
      "outputs": [
        {
          "internalType": "bytes",
          "name": "keySlice",
          "type": "bytes"
        },
        {
          "internalType": "bool",
          "name": "isIn",
          "type": "bool"
        }
      ],
      "payable": false,
      "stateMutability": "pure",
      "type": "function"
    },
    {
      "constant": true,
      "inputs": [
        {
          "internalType": "bytes",
          "name": "rawTx",
          "type": "bytes"
        }
      ],
      "name": "decodeCrossTx",
      "outputs": [
        {
          "internalType": "bytes",
          "name": "zionTxHash",
          "type": "bytes"
        },
        {
          "internalType": "uint64",
          "name": "fromChainID",
          "type": "uint64"
        },
        {
          "internalType": "bytes",
          "name": "sourceTxHash",
          "type": "bytes"
        },
        {
          "internalType": "bytes",
          "name": "crossChainId",
          "type": "bytes"
        },
        {
          "internalType": "bytes",
          "name": "fromContract",
          "type": "bytes"
        },
        {
          "internalType": "uint64",
          "name": "toChainId",
          "type": "uint64"
        },
        {
          "internalType": "bytes",
          "name": "toContract",
          "type": "bytes"
        },
        {
          "internalType": "bytes",
          "name": "method",
          "type": "bytes"
        },
        {
          "internalType": "bytes",
          "name": "args",
          "type": "bytes"
        }
      ],
      "payable": false,
      "stateMutability": "view",
      "type": "function"
    },
    {
      "constant": true,
      "inputs": [
        {
          "internalType": "bytes",
          "name": "rawHeader",
          "type": "bytes"
        }
      ],
      "name": "decodeHeader",
      "outputs": [
        {
          "internalType": "bytes",
          "name": "root",
          "type": "bytes"
        },
        {
          "internalType": "uint256",
          "name": "number",
          "type": "uint256"
        }
      ],
      "payable": false,
      "stateMutability": "view",
      "type": "function"
    },
    {
      "constant": true,
      "inputs": [
        {
          "internalType": "bytes",
          "name": "rawParam",
          "type": "bytes"
        }
      ],
      "name": "decodeTxParam",
      "outputs": [
        {
          "internalType": "bytes",
          "name": "sourceTxHash",
          "type": "bytes"
        },
        {
          "internalType": "bytes",
          "name": "crossChainId",
          "type": "bytes"
        },
        {
          "internalType": "bytes",
          "name": "fromContract",
          "type": "bytes"
        },
        {
          "internalType": "uint64",
          "name": "toChainId",
          "type": "uint64"
        },
        {
          "internalType": "bytes",
          "name": "toContract",
          "type": "bytes"
        },
        {
          "internalType": "bytes",
          "name": "method",
          "type": "bytes"
        },
        {
          "internalType": "bytes",
          "name": "args",
          "type": "bytes"
        }
      ],
      "payable": false,
      "stateMutability": "view",
      "type": "function"
    },
    {
      "constant": true,
      "inputs": [
        {
          "internalType": "bytes",
          "name": "validatorBytes",
          "type": "bytes"
        }
      ],
      "name": "decodeValidators",
      "outputs": [
        {
          "internalType": "address[]",
          "name": "validators",
          "type": "address[]"
        }
      ],
      "payable": false,
      "stateMutability": "pure",
      "type": "function"
    },
    {
      "constant": true,
      "inputs": [
        {
          "internalType": "bytes",
          "name": "txHash",
          "type": "bytes"
        },
        {
          "internalType": "bytes",
          "name": "crossChainId",
          "type": "bytes"
        },
        {
          "internalType": "bytes",
          "name": "fromContract",
          "type": "bytes"
        },
        {
          "internalType": "uint64",
          "name": "toChainId",
          "type": "uint64"
        },
        {
          "internalType": "bytes",
          "name": "toContract",
          "type": "bytes"
        },
        {
          "internalType": "bytes",
          "name": "method",
          "type": "bytes"
        },
        {
          "internalType": "bytes",
          "name": "args",
          "type": "bytes"
        }
      ],
      "name": "encodeTxParam",
      "outputs": [
        {
          "internalType": "bytes",
          "name": "rawParam",
          "type": "bytes"
        }
      ],
      "payable": false,
      "stateMutability": "pure",
      "type": "function"
    },
    {
      "constant": true,
      "inputs": [
        {
          "internalType": "address[]",
          "name": "validators",
          "type": "address[]"
        }
      ],
      "name": "encodeValidators",
      "outputs": [
        {
          "internalType": "bytes",
          "name": "validatorBytes",
          "type": "bytes"
        }
      ],
      "payable": false,
      "stateMutability": "pure",
      "type": "function"
    },
    {
      "constant": true,
      "inputs": [
        {
          "internalType": "bytes",
          "name": "ziontxHash",
          "type": "bytes"
        },
        {
          "internalType": "uint64",
          "name": "toChainId",
          "type": "uint64"
        }
      ],
      "name": "getCrossTxStorageSlot",
      "outputs": [
        {
          "internalType": "bytes",
          "name": "slotIndex",
          "type": "bytes"
        }
      ],
      "payable": false,
      "stateMutability": "pure",
      "type": "function"
    },
    {
      "constant": true,
      "inputs": [
        {
          "internalType": "bytes",
          "name": "rawHeader",
          "type": "bytes"
        }
      ],
      "name": "getHeaderValidatorsAndEpochEndHeight",
      "outputs": [
        {
          "internalType": "uint64",
          "name": "endHeight",
          "type": "uint64"
        },
        {
          "internalType": "address[]",
          "name": "validators",
          "type": "address[]"
        }
      ],
      "payable": false,
      "stateMutability": "view",
      "type": "function"
    },
    {
      "constant": true,
      "inputs": [
        {
          "internalType": "uint64",
          "name": "num",
          "type": "uint64"
        }
      ],
      "name": "getUint64Bytes",
      "outputs": [
        {
          "internalType": "bytes8",
          "name": "res",
          "type": "bytes8"
        }
      ],
      "payable": false,
      "stateMutability": "pure",
      "type": "function"
    },
    {
      "constant": true,
      "inputs": [
        {
          "internalType": "address[]",
          "name": "_validators",
          "type": "address[]"
        },
        {
          "internalType": "address[]",
          "name": "_signers",
          "type": "address[]"
        }
      ],
      "name": "hasEnoughSigners",
      "outputs": [
        {
          "internalType": "bool",
          "name": "",
          "type": "bool"
        }
      ],
      "payable": false,
      "stateMutability": "pure",
      "type": "function"
    },
    {
      "constant": true,
      "inputs": [
        {
          "internalType": "bytes",
          "name": "keyHex",
          "type": "bytes"
        }
      ],
      "name": "hexToCompact",
      "outputs": [
        {
          "internalType": "bytes",
          "name": "keyCompact",
          "type": "bytes"
        }
      ],
      "payable": false,
      "stateMutability": "pure",
      "type": "function"
    },
    {
      "constant": true,
      "inputs": [
        {
          "internalType": "bytes",
          "name": "raw",
          "type": "bytes"
        }
      ],
      "name": "k256",
      "outputs": [
        {
          "internalType": "bytes32",
          "name": "",
          "type": "bytes32"
        }
      ],
      "payable": false,
      "stateMutability": "pure",
      "type": "function"
    },
    {
      "constant": true,
      "inputs": [
        {
          "internalType": "bytes",
          "name": "raw",
          "type": "bytes"
        },
        {
          "internalType": "uint256",
          "name": "offset",
          "type": "uint256"
        }
      ],
      "name": "rlpGetNextAddress",
      "outputs": [
        {
          "internalType": "address",
          "name": "res",
          "type": "address"
        },
        {
          "internalType": "uint256",
          "name": "_offset",
          "type": "uint256"
        },
        {
          "internalType": "bytes",
          "name": "_raw",
          "type": "bytes"
        }
      ],
      "payable": false,
      "stateMutability": "pure",
      "type": "function"
    },
    {
      "constant": true,
      "inputs": [
        {
          "internalType": "bytes",
          "name": "raw",
          "type": "bytes"
        },
        {
          "internalType": "uint256",
          "name": "offset",
          "type": "uint256"
        }
      ],
      "name": "rlpGetNextBytes",
      "outputs": [
        {
          "internalType": "bytes",
          "name": "res",
          "type": "bytes"
        },
        {
          "internalType": "uint256",
          "name": "_offset",
          "type": "uint256"
        },
        {
          "internalType": "bytes",
          "name": "_raw",
          "type": "bytes"
        }
      ],
      "payable": false,
      "stateMutability": "view",
      "type": "function"
    },
    {
      "constant": true,
      "inputs": [
        {
          "internalType": "bytes",
          "name": "raw",
          "type": "bytes"
        },
        {
          "internalType": "uint256",
          "name": "offset",
          "type": "uint256"
        }
      ],
      "name": "rlpGetNextBytes32",
      "outputs": [
        {
          "internalType": "bytes32",
          "name": "res",
          "type": "bytes32"
        },
        {
          "internalType": "uint256",
          "name": "_offset",
          "type": "uint256"
        },
        {
          "internalType": "bytes",
          "name": "_raw",
          "type": "bytes"
        }
      ],
      "payable": false,
      "stateMutability": "pure",
      "type": "function"
    },
    {
      "constant": true,
      "inputs": [
        {
          "internalType": "bytes",
          "name": "raw",
          "type": "bytes"
        },
        {
          "internalType": "uint256",
          "name": "offset",
          "type": "uint256"
        }
      ],
      "name": "rlpGetNextUint256",
      "outputs": [
        {
          "internalType": "uint256",
          "name": "res",
          "type": "uint256"
        },
        {
          "internalType": "uint256",
          "name": "_offset",
          "type": "uint256"
        },
        {
          "internalType": "bytes",
          "name": "_raw",
          "type": "bytes"
        }
      ],
      "payable": false,
      "stateMutability": "pure",
      "type": "function"
    },
    {
      "constant": true,
      "inputs": [
        {
          "internalType": "bytes",
          "name": "raw",
          "type": "bytes"
        },
        {
          "internalType": "uint256",
          "name": "offset",
          "type": "uint256"
        }
      ],
      "name": "rlpGetNextUint64",
      "outputs": [
        {
          "internalType": "uint64",
          "name": "res",
          "type": "uint64"
        },
        {
          "internalType": "uint256",
          "name": "_offset",
          "type": "uint256"
        },
        {
          "internalType": "bytes",
          "name": "_raw",
          "type": "bytes"
        }
      ],
      "payable": false,
      "stateMutability": "pure",
      "type": "function"
    },
    {
      "constant": true,
      "inputs": [
        {
          "internalType": "bytes",
          "name": "raw",
          "type": "bytes"
        },
        {
          "internalType": "uint256",
          "name": "offset",
          "type": "uint256"
        }
      ],
      "name": "rlpReadKind",
      "outputs": [
        {
          "internalType": "uint256",
          "name": "size",
          "type": "uint256"
        },
        {
          "internalType": "uint256",
          "name": "offset_",
          "type": "uint256"
        }
      ],
      "payable": false,
      "stateMutability": "pure",
      "type": "function"
    },
    {
      "constant": true,
      "inputs": [
        {
          "internalType": "bytes",
          "name": "raw",
          "type": "bytes"
        },
        {
          "internalType": "uint256",
          "name": "offset",
          "type": "uint256"
        }
      ],
      "name": "rlpSplit",
      "outputs": [
        {
          "internalType": "bytes",
          "name": "res",
          "type": "bytes"
        },
        {
          "internalType": "uint256",
          "name": "offset_",
          "type": "uint256"
        }
      ],
      "payable": false,
      "stateMutability": "pure",
      "type": "function"
    },
    {
      "constant": true,
      "inputs": [
        {
          "internalType": "bytes",
          "name": "_buf",
          "type": "bytes"
        }
      ],
      "name": "takeOneByte",
      "outputs": [
        {
          "internalType": "bytes",
          "name": "buf",
          "type": "bytes"
        },
        {
          "internalType": "uint256",
          "name": "i",
          "type": "uint256"
        }
      ],
      "payable": false,
      "stateMutability": "pure",
      "type": "function"
    },
    {
      "constant": true,
      "inputs": [
        {
          "internalType": "uint256",
          "name": "_value",
          "type": "uint256"
        }
      ],
      "name": "uint256ToBytes",
      "outputs": [
        {
          "internalType": "bytes",
          "name": "bs",
          "type": "bytes"
        }
      ],
      "payable": false,
      "stateMutability": "pure",
      "type": "function"
    },
    {
      "constant": true,
      "inputs": [
        {
          "internalType": "bytes",
          "name": "_accountProof",
          "type": "bytes"
        },
        {
          "internalType": "bytes",
          "name": "_headerRoot",
          "type": "bytes"
        },
        {
          "internalType": "bytes",
          "name": "_address",
          "type": "bytes"
        },
        {
          "internalType": "bytes",
          "name": "_storageProof",
          "type": "bytes"
        },
        {
          "internalType": "bytes",
          "name": "_storageIndex",
          "type": "bytes"
        }
      ],
      "name": "verifyAccountProof",
      "outputs": [
        {
          "internalType": "bytes",
          "name": "value",
          "type": "bytes"
        }
      ],
      "payable": false,
      "stateMutability": "pure",
      "type": "function"
    },
    {
      "constant": true,
      "inputs": [
        {
          "internalType": "bytes32",
          "name": "headerHash",
          "type": "bytes32"
        },
        {
          "internalType": "bytes",
          "name": "rawSeals",
          "type": "bytes"
        },
        {
          "internalType": "address[]",
          "name": "validators",
          "type": "address[]"
        }
      ],
      "name": "verifyHeader",
      "outputs": [
        {
          "internalType": "bool",
          "name": "",
          "type": "bool"
        }
      ],
      "payable": false,
      "stateMutability": "pure",
      "type": "function"
    },
    {
      "constant": true,
      "inputs": [
        {
          "internalType": "bytes",
          "name": "_proof",
          "type": "bytes"
        },
        {
          "internalType": "bytes",
          "name": "_key",
          "type": "bytes"
        },
        {
          "internalType": "bytes",
          "name": "_root",
          "type": "bytes"
        }
      ],
      "name": "verifyProof",
      "outputs": [
        {
          "internalType": "bytes",
          "name": "value",
          "type": "bytes"
        }
      ],
      "payable": false,
      "stateMutability": "pure",
      "type": "function"
    },
    {
      "constant": true,
      "inputs": [
        {
          "internalType": "bytes32",
          "name": "headerHash",
          "type": "bytes32"
        },
        {
          "internalType": "bytes",
          "name": "seal",
          "type": "bytes"
        }
      ],
      "name": "verifySeal",
      "outputs": [
        {
          "internalType": "address",
          "name": "signer",
          "type": "address"
        }
      ],
      "payable": false,
      "stateMutability": "pure",
      "type": "function"
    }
  ],
  "bytecode": {
    "object": "0x608060405234801561001057600080fd5b50612c8b806100206000396000f3fe608060405234801561001057600080fd5b50600436106102065760003560e01c80638e91a6f21161011a578063cc9de25d116100ad578063df5a09441161007c578063df5a094414610517578063e219b42f1461052a578063e96708601461054b578063f8bebaae1461055e578063fee20e0e1461057157610206565b8063cc9de25d146104cb578063da81ebd2146104de578063dbc9845f146104f1578063ded8454a1461050457610206565b8063c59b47bf116100e9578063c59b47bf14610470578063c7559da414610483578063c768bb9f14610496578063c9a9c89e146104a957610206565b80638e91a6f2146103ed578063a873a8941461040f578063b53a28e01461042f578063bfe370d91461045057610206565b8063451d89fa1161019d57806351ea2c611161016c57806351ea2c611461036457806364daf9d6146103865780636538bf7c1461039957806365a95ef7146103b95780638b3543db146103da57610206565b8063451d89fa1461030a5780634c0999c71461031d5780634ca66fc8146103305780634ee649781461035157610206565b806322eb8e30116101d957806322eb8e301461029e5780633076ce20146102b1578063334aa7bc146102d157806342526e4e146102f757610206565b806305773f981461020b578063078a880c1461023457806313735fb81461025457806320a882651461027c575b600080fd5b61021e610219366004611fc5565b610584565b60405161022b9190612841565b60405180910390f35b610247610242366004611d8e565b61059f565b60405161022b91906127d4565b610267610262366004611ed5565b6105b4565b60405161022b99989796959493929190612941565b61028f61028a3660046121d1565b610632565b60405161022b939291906127f0565b61021e6102ac366004611ed5565b61064d565b6102c46102bf366004611e13565b610660565b60405161022b9190612788565b6102e46102df366004611ed5565b61066c565b60405161022b9796959493929190612872565b6102c4610305366004611ed5565b6106c1565b61021e610318366004611ed5565b6106cc565b61021e61032b366004611df5565b6106d7565b61034361033e366004611ed5565b6106e2565b60405161022b929190612901565b61028f61035f3660046121d1565b6106f8565b6103776103723660046121d1565b610707565b60405161022b93929190612b00565b610343610394366004611ed5565b610716565b6103ac6103a7366004611ed5565b61073e565b60405161022b91906127c3565b6103cc6103c7366004611f09565b610749565b60405161022b929190612852565b61021e6103e8366004611ed5565b610763565b6104006103fb3660046121d1565b61076e565b60405161022b93929190612796565b61042261041d3660046122a5565b61077d565b60405161022b9190612833565b61044261043d366004611ed5565b610788565b60405161022b929190612ae0565b61046361045e366004611ed5565b610795565b60405161022b91906127e2565b61024761047e366004612217565b6107a0565b61021e610491366004611df5565b6107b7565b61021e6104a436600461225f565b6107c2565b6104bc6104b73660046121d1565b6107f6565b60405161022b93929190612921565b6104636104d9366004611ed5565b610806565b6103436104ec3660046121d1565b610811565b6102476104ff366004611e5a565b61081f565b61021e610512366004611d00565b61082c565b61021e6105253660046120ac565b610837565b61053d6105383660046121d1565b610854565b60405161022b929190612ac5565b61021e610559366004611f3e565b610861565b61021e61056c366004611d5a565b61086e565b61046361057f366004611ed5565b610879565b60606105938686868686610884565b90505b95945050505050565b60006105ab8383610917565b90505b92915050565b606060006060806060600060608060606105cc611b12565b6105d58b610a43565b80516020820151909b50995090506105eb611b36565b8160400151905080600001519850806020015197508060400151965080606001519550806080015194508060a0015193508060c00151925050509193959799909294969850565b60008060606106418585610aac565b90969095945092505050565b606061065882610b08565b90505b919050565b60006105ab8383610ca7565b606080606060006060806060610680611b36565b61068989610d34565b8051602082015160408301516060840151608085015160a086015160c090960151949f939e50919c509a509850919650945092505050565b600061065882610dcf565b606061065882610dfa565b606061065882610ef2565b606060006106ef83610f0a565b91509150915091565b60008060606106418585610f49565b60008060606106418585610fa1565b60606000610722611b7c565b61072b84610fd5565b8051602090910151909350915050915091565b60606106588261102b565b606060006107578484611041565b915091505b9250929050565b6060610658826110e5565b60008060606106418585611263565b600061065882611297565b600060606106ef8361130c565b600061065882611479565b60006107ad8484846114a4565b90505b9392505050565b60606106588261150d565b60606107cc611b36565b6107d4611b12565b6001600160401b03841660608301528481526040810182905261059681611551565b60606000606061064185856115a1565b6000610658826115ef565b60606000610757848461163f565b60006107ad848484611663565b606061065882611785565b6060610848888888888888886117a0565b98975050505050505050565b60008061075784846117db565b60606107ad848484611879565b606061065882611a11565b805160209091012090565b825160208085019182209091528352606083816108a2888389611879565b90506108af81602061163f565b50905060006108bf82602061163f565b9150506108cc828261163f565b9150606090506108dc838361163f565b508651602080890191822090915287529050856108fa888284611879565b955061090786602061163f565b509b9a5050505050505050505050565b6000806109516001610945600361093960028951611a3a90919063ffffffff16565b9063ffffffff611a7416565b9063ffffffff611ab616565b905060608451604051908082528060200260200182016040528015610980578160200160208202803883390190505b5090506000805b8551811015610a355760005b8751811015610a2c578381815181106109a857fe5b60200260200101511580156109f457508781815181106109c457fe5b60200260200101516001600160a01b03168783815181106109e157fe5b60200260200101516001600160a01b0316145b15610a245782806001019350506001848281518110610a0f57fe5b91151560209283029190910190910152610a2c565b600101610993565b50600101610987565b509190911015949350505050565b610a4b611b12565b6020610a5783826117db565b915060609050610a6784836115a1565b9084529150610a768483610fa1565b6001600160401b0390911660208501529150610a9284836115a1565b92509050610a9f81610d34565b6040840152509092915050565b6000806000610abb85856117db565b945090506020811115610ae95760405162461bcd60e51b8152600401610ae090612a75565b60405180910390fd5b838101915080602003808503860151600882021b935050509250929050565b60606000600483600081518110610b1b57fe5b602001015160f81c60f81b6001600160f81b031916901c9050600083519050600080600060028560f81c06905060028560f81c04915080826002808702030101925060405195506020838701016040528286528060011415610bb75786600081518110610b8457fe5b01602001518651600f60f81b909116908790600090610b9f57fe5b60200101906001600160f81b031916908160001a9053505b8160011415610bec57601060f81b866001850381518110610bd457fe5b60200101906001600160f81b031916908160001a9053505b60005b60018503811015610c9c576004888260010181518110610c0b57fe5b602001015160f81c60f81b6001600160f81b031916901c8783836002020181518110610c3357fe5b60200101906001600160f81b031916908160001a905350878160010181518110610c5957fe5b01602001518751600f60f81b909116908890600284028501600101908110610c7d57fe5b60200101906001600160f81b031916908160001a905350600101610bef565b505050505050919050565b60008151604114610cba575060006105ae565b60008060006020850151925060408501519150606085015160001a601b01905060018682858560405160008152602001604052604051610cfd94939291906127fe565b6020604051602081039080840390855afa158015610d1f573d6000803e3d6000fd5b5050604051601f190151979650505050505050565b610d3c611b36565b6020610d4883826115a1565b9083529050610d5783826115a1565b60208401919091529050610d6b83826115a1565b60408401919091529050610d7f8382610fa1565b6001600160401b0390911660608401529050610d9b83826115a1565b60808401919091529050610daf83826115a1565b60a08401919091529050610dc383826115a1565b5060c083015250919050565b60008151601414610df25760405162461bcd60e51b8152600401610ae0906129f5565b506014015190565b6060600082516002026001019050604051915060208183010160405280825260008090505b8351811015610ec0576004848281518110610e3657fe5b602001015160f81c60f81b6001600160f81b031916901c838260020281518110610e5c57fe5b60200101906001600160f81b031916908160001a905350838181518110610e7f57fe5b01602001518351600f60f81b90911690849060016002850201908110610ea157fe5b60200101906001600160f81b031916908160001a905350600101610e1f565b50601060f81b826001830381518110610ed557fe5b60200101906001600160f81b031916908160001a90535050919050565b60408051808201909152602080825281019190915290565b60606000825160001415610f305760405162461bcd60e51b8152600401610ae090612a35565b505060018101805191516000190181529160ff90911690565b6000806000610f5885856117db565b945090506020811115610f7d5760405162461bcd60e51b8152600401610ae090612ab5565b838101915080602003808503860151600882021b600882021c935050509250929050565b6000806000610fb085856117db565b945090506008811115610f7d5760405162461bcd60e51b8152600401610ae090612a95565b610fdd611b7c565b600080610feb8460206117db565b915050610ffb84826057016115a1565b50835261100c846101bd83016117db565b909250905061101d84838301610f49565b506020840152509092915050565b6060818060200190516106589190810190611d26565b6060600082518451101561105a5750829050600061075c565b6000602084518161106757fe5b6001935004905060005b8181101561109957602081810286810182015190880190910151149290921691600101611071565b5060208102602001600019855182036008021b81860151828801511816158316925050816110ce57846000925092505061075c565b508251845181900390850152915190920192909150565b606081516000141561110c575060408051808201909152600181526000602082015261065b565b8151600160028204810190600090831685600019850185811061112b57fe5b6020910101516001600160f81b031916600160fc1b1415611156576002915081600185010492506001035b8082019150604051945060208386010160405282855260008160011415611196578660008151811061118457fe5b01602001516001600160f81b03191690505b6000818460fc1b01905080876000815181106111ae57fe5b60200101906001600160f81b031916908160001a90535060009150505b6001840381101561125957600087838360020201815181106111e957fe5b602001015160f81c60f81b90506000888484600202600101018151811061120c57fe5b602001015160f81c60f81b90506000818360041b0190508089856001018151811061123357fe5b60200101906001600160f81b031916908160001a90535050600190920191506111cb9050565b5050505050919050565b600080600061127285856117db565b945090506014811115610f7d5760405162461bcd60e51b8152600401610ae090612a05565b600060ff821660381b905061ff00821660281b8101905062ff0000821660181b8101905063ff000000821660081b8101905064ff00000000821660081c8101905065ff0000000000821660181c8101905066ff000000000000821660281c810190508160381c810190508060c01b9050919050565b6000606060008061131e8560206117db565b91505061132f85826101bd016117db565b9092509050611340858383016117db565b9092509050611351858383016117db565b9092509050611362858383016117db565b9092509050611373858383016117db565b9092509050611384858383016117db565b909250905061139685602083016117db565b90925090506113a585826117db565b90925090506113b48582610fa1565b909450905060606113c7868484016115a1565b5080519350905060158306156113ef5760405162461bcd60e51b8152600401610ae090612a25565b6015830460405190808252806020026020018201604052801561141c578160200160208202803883390190505b50935060005b8360158202101561147057600061143f8360158402602001611263565b5090508086838151811061144f57fe5b6001600160a01b039092166020928302919091019091015250600101611422565b50505050915091565b6000815160201461149c5760405162461bcd60e51b8152600401610ae090612aa5565b506020015190565b60008060006114b386866117db565b91509150848103820160208110600181146114d35780156114f457611502565b60208601518789015118826020036008021c15865183148116955050611502565b602086015182888a01201494505b505050509392505050565b60606001600160ff1b038211156115365760405162461bcd60e51b8152600401610ae090612a55565b60405190506020815281602082015260408101604052919050565b6060610658667265717565737460c81b611572846040015160600151611297565b84516040516115869392919060200161275c565b60405160208183030381529060405280519060200120610ef2565b60606000806115b085856117db565b8095508192505050838101915060405192506020601f82010460200260200180840160405281845281602085018387890160045afa5050509250929050565b600081516020146116125760405162461bcd60e51b8152600401610ae090612aa5565b5060208101516001600160ff1b0381111561065b5760405162461bcd60e51b8152600401610ae090612a55565b606060008061164e85856117db565b958601601f1901818152969501949350505050565b600060206060611673858361163f565b50805190955060009061168d90604363ffffffff611a7416565b90506060816040519080825280602002602001820160405280156116bb578160200160208202803883390190505b50905060005b8281101561177a576116d3888661163f565b60405190965090945061170a906116ee908b90602001612747565b6040516020818303038152906040528051906020012085610ca7565b82828151811061171657fe5b60200260200101906001600160a01b031690816001600160a01b03168152505060006001600160a01b031682828151811061174d57fe5b60200260200101516001600160a01b03161415611772576000955050505050506107b0565b6001016116c1565b506108488682610917565b604080516014815260609290921b6020830152818101905290565b6060878787878787876040516020016117bf9796959493929190612872565b6040516020818303038152906040529050979650505050505050565b81810151600090819060f81c60808110156117fd57506001915082905061075c565b60b781101561181657607f19019150506001820161075c565b60c081101561183e5784840160010151600860d7839003021c9250830160b51901905061075c565b60f78110156118575760bf19019150506001820161075c565b848401600101516008610117839003021c9250830160f5190190509250929050565b606061188483610dfa565b925061189184602061163f565b5080519094508291506020905b806020018210156119e95760606118b68784866114a4565b6118d25760405162461bcd60e51b8152600401610ae090612a85565b6118dc878461163f565b935090506000806118ee8360206117db565b915091506118fe838383016117db565b845191935083019150602001811415611976576060600061192085602061163f565b915091506000606061193184610b08565b905061193d8c82611041565b909c5091508161195f5760405162461bcd60e51b8152600401610ae090612a65565b611969878461163f565b5099506119e19350505050565b600088516000141561198a57506011611999565b61199389610f0a565b90995090505b602060005b60118110156119dd57808314156119c1576119b9868361163f565b5098506119dd565b6119cb86836117db565b9095509350848401915060010161199e565b5050505b50505061189e565b845115611a085760405162461bcd60e51b8152600401610ae090612a65565b50509392505050565b606081604051602001611a2491906127c3565b6040516020818303038152906040529050919050565b600082611a49575060006105ae565b82820282848281611a5657fe5b04146105ab5760405162461bcd60e51b8152600401610ae090612a45565b60006105ab83836040518060400160405280601a81526020017f536166654d6174683a206469766973696f6e206279207a65726f000000000000815250611adb565b6000828201838110156105ab5760405162461bcd60e51b8152600401610ae090612a15565b60008183611afc5760405162461bcd60e51b8152600401610ae09190612841565b506000838581611b0857fe5b0495945050505050565b6040805160608082018352815260006020820152908101611b31611b36565b905290565b6040518060e0016040528060608152602001606081526020016060815260200160006001600160401b031681526020016060815260200160608152602001606081525090565b604051806040016040528060608152602001600081525090565b80356105ae81612c1f565b80516105ae81612c1f565b600082601f830112611bbd57600080fd5b8151611bd0611bcb82612b34565b612b0e565b91508181835260208401935060208101905083856020840282011115611bf557600080fd5b60005b83811015611c215781611c0b8882611ba1565b8452506020928301929190910190600101611bf8565b5050505092915050565b600082601f830112611c3c57600080fd5b8135611c4a611bcb82612b34565b91508181835260208401935060208101905083856020840282011115611c6f57600080fd5b60005b83811015611c215781611c858882611b96565b8452506020928301929190910190600101611c72565b80356105ae81612c36565b600082601f830112611cb757600080fd5b8135611cc5611bcb82612b54565b91508082526020830160208301858383011115611ce157600080fd5b611cec838284612bd9565b50505092915050565b80356105ae81612c3f565b600060208284031215611d1257600080fd5b6000611d1e8484611b96565b949350505050565b600060208284031215611d3857600080fd5b81516001600160401b03811115611d4e57600080fd5b611d1e84828501611bac565b600060208284031215611d6c57600080fd5b81356001600160401b03811115611d8257600080fd5b611d1e84828501611c2b565b60008060408385031215611da157600080fd5b82356001600160401b03811115611db757600080fd5b611dc385828601611c2b565b92505060208301356001600160401b03811115611ddf57600080fd5b611deb85828601611c2b565b9150509250929050565b600060208284031215611e0757600080fd5b6000611d1e8484611c9b565b60008060408385031215611e2657600080fd5b6000611e328585611c9b565b92505060208301356001600160401b03811115611e4e57600080fd5b611deb85828601611ca6565b600080600060608486031215611e6f57600080fd5b6000611e7b8686611c9b565b93505060208401356001600160401b03811115611e9757600080fd5b611ea386828701611ca6565b92505060408401356001600160401b03811115611ebf57600080fd5b611ecb86828701611c2b565b9150509250925092565b600060208284031215611ee757600080fd5b81356001600160401b03811115611efd57600080fd5b611d1e84828501611ca6565b60008060408385031215611f1c57600080fd5b82356001600160401b03811115611f3257600080fd5b611e3285828601611ca6565b600080600060608486031215611f5357600080fd5b83356001600160401b03811115611f6957600080fd5b611f7586828701611ca6565b93505060208401356001600160401b03811115611f9157600080fd5b611f9d86828701611ca6565b92505060408401356001600160401b03811115611fb957600080fd5b611ecb86828701611ca6565b600080600080600060a08688031215611fdd57600080fd5b85356001600160401b03811115611ff357600080fd5b611fff88828901611ca6565b95505060208601356001600160401b0381111561201b57600080fd5b61202788828901611ca6565b94505060408601356001600160401b0381111561204357600080fd5b61204f88828901611ca6565b93505060608601356001600160401b0381111561206b57600080fd5b61207788828901611ca6565b92505060808601356001600160401b0381111561209357600080fd5b61209f88828901611ca6565b9150509295509295909350565b600080600080600080600060e0888a0312156120c757600080fd5b87356001600160401b038111156120dd57600080fd5b6120e98a828b01611ca6565b97505060208801356001600160401b0381111561210557600080fd5b6121118a828b01611ca6565b96505060408801356001600160401b0381111561212d57600080fd5b6121398a828b01611ca6565b955050606061214a8a828b01611cf5565b94505060808801356001600160401b0381111561216657600080fd5b6121728a828b01611ca6565b93505060a08801356001600160401b0381111561218e57600080fd5b61219a8a828b01611ca6565b92505060c08801356001600160401b038111156121b657600080fd5b6121c28a828b01611ca6565b91505092959891949750929550565b600080604083850312156121e457600080fd5b82356001600160401b038111156121fa57600080fd5b61220685828601611ca6565b9250506020611deb85828601611c9b565b60008060006060848603121561222c57600080fd5b83356001600160401b0381111561224257600080fd5b61224e86828701611ca6565b9350506020611f9d86828701611c9b565b6000806040838503121561227257600080fd5b82356001600160401b0381111561228857600080fd5b61229485828601611ca6565b9250506020611deb85828601611cf5565b6000602082840312156122b757600080fd5b6000611d1e8484611cf5565b60006122cf83836122d7565b505060200190565b6122e081612b8e565b82525050565b60006122f182612b81565b6122fb8185612b85565b935061230683612b7b565b8060005b8381101561233457815161231e88826122c3565b975061232983612b7b565b92505060010161230a565b509495945050505050565b6122e081612b99565b6122e081612b9e565b6122e061235d82612b9e565b612b9e565b6122e061235d82612ba1565b6122e081612bae565b6122e061235d82612bae565b600061238e82612b81565b6123988185612b85565b93506123a8818560208601612be5565b6123b181612c15565b9093019392505050565b60006123c682612b81565b6123d0818561065b565b93506123e0818560208601612be5565b9290920192915050565b60006123f7602383612b85565b7f6279746573206c656e67746820646f6573206e6f74206d61746368206164647281526265737360e81b602082015260400192915050565b600061243c602c83612b85565b7f726c704765744e657874416464726573733a2064617461206c6f6e676572207481526b68616e20323020627974657360a01b602082015260400192915050565b600061248a601b83612b85565b7f536166654d6174683a206164646974696f6e206f766572666c6f770000000000815260200192915050565b60006124c3602183612b85565b7f696e76616c6964206865616465722065787472612076616c696461746f7253658152601d60fa1b602082015260400192915050565b6000612506601883612b85565b7f74616b654f6e65427974653a20656d70747920696e7075740000000000000000815260200192915050565b600061253f602183612b85565b7f536166654d6174683a206d756c7469706c69636174696f6e206f766572666c6f8152607760f81b602082015260400192915050565b6000612582601783612b85565b7f56616c75652065786365656473207468652072616e6765000000000000000000815260200192915050565b60006125bb601183612b85565b7070726f6f663a696e76616c6964206b657960781b815260200192915050565b60006125e8602c83612b85565b7f726c704765744e657874427974657333323a2064617461206c6f6e676572207481526b68616e20333220627974657360a01b602082015260400192915050565b6000612636601783612b85565b7f70726f6f663a756e657175616c206e6f64652068617368000000000000000000815260200192915050565b600061266f602a83612b85565b7f726c704765744e65787455696e7436343a2064617461206c6f6e676572207468815269616e203820627974657360b01b602082015260400192915050565b60006126bb601783612b85565b7f6279746573206c656e677468206973206e6f742033322e000000000000000000815260200192915050565b60006126f4602c83612b85565b7f726c704765744e65787455696e743235363a2064617461206c6f6e676572207481526b68616e20333220627974657360a01b602082015260400192915050565b6122e081612bc7565b6122e081612bd3565b60006127538284612351565b50602001919050565b60006127688286612362565b6007820191506127788285612377565b60088201915061059682846123bb565b602081016105ae82846122d7565b606081016127a482866122d7565b6127b16020830185612348565b81810360408301526105968184612383565b602080825281016105ab81846122e6565b602081016105ae828461233f565b602081016105ae8284612348565b606081016127a48286612348565b6080810161280c8287612348565b612819602083018661273e565b6128266040830185612348565b6105966060830184612348565b602081016105ae828461236e565b602080825281016105ab8184612383565b604080825281016128638185612383565b90506107b0602083018461233f565b60e08082528101612883818a612383565b905081810360208301526128978189612383565b905081810360408301526128ab8188612383565b90506128ba6060830187612735565b81810360808301526128cc8186612383565b905081810360a08301526128e08185612383565b905081810360c08301526128f48184612383565b9998505050505050505050565b604080825281016129128185612383565b90506107b06020830184612348565b606080825281016129328186612383565b90506127b16020830185612348565b6101208082528101612953818c612383565b9050612962602083018b612735565b8181036040830152612974818a612383565b905081810360608301526129888189612383565b9050818103608083015261299c8188612383565b90506129ab60a0830187612735565b81810360c08301526129bd8186612383565b905081810360e08301526129d18185612383565b90508181036101008301526129e68184612383565b9b9a5050505050505050505050565b60208082528101610658816123ea565b602080825281016106588161242f565b602080825281016106588161247d565b60208082528101610658816124b6565b60208082528101610658816124f9565b6020808252810161065881612532565b6020808252810161065881612575565b60208082528101610658816125ae565b60208082528101610658816125db565b6020808252810161065881612629565b6020808252810161065881612662565b60208082528101610658816126ae565b60208082528101610658816126e7565b60408101612ad38285612348565b6107b06020830184612348565b60408101612aee8285612735565b81810360208301526107ad81846122e6565b606081016127a48286612735565b6040518181016001600160401b0381118282101715612b2c57600080fd5b604052919050565b60006001600160401b03821115612b4a57600080fd5b5060209081020190565b60006001600160401b03821115612b6a57600080fd5b506020601f91909101601f19160190565b60200190565b5190565b90815260200190565b600061065882612bbb565b151590565b90565b6001600160c81b03191690565b6001600160c01b03191690565b6001600160a01b031690565b6001600160401b031690565b60ff1690565b82818337506000910152565b60005b83811015612c00578181015183820152602001612be8565b83811115612c0f576000848401525b50505050565b601f01601f191690565b612c2881612b8e565b8114612c3357600080fd5b50565b612c2881612b9e565b612c2881612bc756fea365627a7a72315820ccd629f7ccf3eec61b79382e8b550e9d6c63849438ae7264db0b3f8aba0ffa706c6578706572696d656e74616cf564736f6c63430005110040",
    "linkReferences": {}
  },
  "methodIdentifiers": {
    "addressToBytes(address)": "ded8454a",
    "bytes32ToBytes(bytes32)": "4c0999c7",
    "bytesToAddress(bytes)": "42526e4e",
    "bytesToBytes32(bytes)": "bfe370d9",
    "bytesToHex(bytes)": "451d89fa",
    "bytesToUint256(bytes)": "cc9de25d",
    "checkNodeHash(bytes,uint256,bytes)": "c59b47bf",
    "compactToHex(bytes)": "22eb8e30",
    "compareKey(bytes,bytes)": "65a95ef7",
    "decodeCrossTx(bytes)": "13735fb8",
    "decodeHeader(bytes)": "64daf9d6",
    "decodeTxParam(bytes)": "334aa7bc",
    "decodeValidators(bytes)": "6538bf7c",
    "encodeTxParam(bytes,bytes,bytes,uint64,bytes,bytes,bytes)": "df5a0944",
    "encodeValidators(address[])": "f8bebaae",
    "getCrossTxStorageSlot(bytes,uint64)": "c768bb9f",
    "getHeaderValidatorsAndEpochEndHeight(bytes)": "b53a28e0",
    "getUint64Bytes(uint64)": "a873a894",
    "hasEnoughSigners(address[],address[])": "078a880c",
    "hexToCompact(bytes)": "8b3543db",
    "k256(bytes)": "fee20e0e",
    "rlpGetNextAddress(bytes,uint256)": "8e91a6f2",
    "rlpGetNextBytes(bytes,uint256)": "c9a9c89e",
    "rlpGetNextBytes32(bytes,uint256)": "20a88265",
    "rlpGetNextUint256(bytes,uint256)": "4ee64978",
    "rlpGetNextUint64(bytes,uint256)": "51ea2c61",
    "rlpReadKind(bytes,uint256)": "e219b42f",
    "rlpSplit(bytes,uint256)": "da81ebd2",
    "takeOneByte(bytes)": "4ca66fc8",
    "uint256ToBytes(uint256)": "c7559da4",
    "verifyAccountProof(bytes,bytes,bytes,bytes,bytes)": "05773f98",
    "verifyHeader(bytes32,bytes,address[])": "dbc9845f",
    "verifyProof(bytes,bytes,bytes)": "e9670860",
    "verifySeal(bytes32,bytes)": "3076ce20"
  },
  "id": 57
}