{
  "abi": [
    {
      "anonymous": false,
      "inputs": [
        {
          "indexed": false,
          "internalType": "uint256",
          "name": "height",
          "type": "uint256"
        },
        {
          "indexed": false,
          "internalType": "bytes",
          "name": "rawHeader",
          "type": "bytes"
        },
        {
          "indexed": false,
          "internalType": "address[]",
          "name": "oldValidators",
          "type": "address[]"
        },
        {
          "indexed": false,
          "internalType": "address[]",
          "name": "newValidators",
          "type": "address[]"
        }
      ],
      "name": "ChangeEpochEvent",
      "type": "event"
    },
    {
      "anonymous": false,
      "inputs": [
        {
          "indexed": true,
          "internalType": "address",
          "name": "sender",
          "type": "address"
        },
        {
          "indexed": false,
          "internalType": "bytes",
          "name": "txId",
          "type": "bytes"
        },
        {
          "indexed": false,
          "internalType": "address",
          "name": "proxyOrAssetContract",
          "type": "address"
        },
        {
          "indexed": false,
          "internalType": "uint64",
          "name": "toChainId",
          "type": "uint64"
        },
        {
          "indexed": false,
          "internalType": "bytes",
          "name": "toContract",
          "type": "bytes"
        },
        {
          "indexed": false,
          "internalType": "bytes",
          "name": "rawdata",
          "type": "bytes"
        }
      ],
      "name": "CrossChainEvent",
      "type": "event"
    },
    {
      "anonymous": false,
      "inputs": [
        {
          "indexed": false,
          "internalType": "uint256",
          "name": "height",
          "type": "uint256"
        },
        {
          "indexed": false,
          "internalType": "bytes",
          "name": "rawHeader",
          "type": "bytes"
        }
      ],
      "name": "InitGenesisBlockEvent",
      "type": "event"
    },
    {
      "anonymous": false,
      "inputs": [
        {
          "indexed": false,
          "internalType": "uint64",
          "name": "fromChainID",
          "type": "uint64"
        },
        {
          "indexed": false,
          "internalType": "bytes",
          "name": "toContract",
          "type": "bytes"
        },
        {
          "indexed": false,
          "internalType": "bytes",
          "name": "crossChainTxHash",
          "type": "bytes"
        },
        {
          "indexed": false,
          "internalType": "bytes",
          "name": "fromChainTxHash",
          "type": "bytes"
        }
      ],
      "name": "VerifyHeaderAndExecuteTxEvent",
      "type": "event"
    },
    {
      "constant": false,
      "inputs": [
        {
          "internalType": "bytes",
          "name": "rawHeader",
          "type": "bytes"
        },
        {
          "internalType": "bytes",
          "name": "rawSeals",
          "type": "bytes"
        }
      ],
      "name": "changeEpoch",
      "outputs": [
        {
          "internalType": "bool",
          "name": "",
          "type": "bool"
        }
      ],
      "payable": false,
      "stateMutability": "nonpayable",
      "type": "function"
    },
    {
      "constant": false,
      "inputs": [
        {
          "internalType": "uint64",
          "name": "toChainId",
          "type": "uint64"
        },
        {
          "internalType": "bytes",
          "name": "toContract",
          "type": "bytes"
        },
        {
          "internalType": "bytes",
          "name": "method",
          "type": "bytes"
        },
        {
          "internalType": "bytes",
          "name": "txData",
          "type": "bytes"
        }
      ],
      "name": "crossChain",
      "outputs": [
        {
          "internalType": "bool",
          "name": "",
          "type": "bool"
        }
      ],
      "payable": false,
      "stateMutability": "nonpayable",
      "type": "function"
    },
    {
      "constant": false,
      "inputs": [],
      "name": "fallback",
      "outputs": [],
      "payable": true,
      "stateMutability": "payable",
      "type": "function"
    },
    {
      "constant": true,
      "inputs": [],
      "name": "getEthCrossChainCallerFactoryAddress",
      "outputs": [
        {
          "internalType": "address",
          "name": "",
          "type": "address"
        }
      ],
      "payable": false,
      "stateMutability": "pure",
      "type": "function"
    },
    {
      "constant": true,
      "inputs": [],
      "name": "getEthCrossChainDataAddress",
      "outputs": [
        {
          "internalType": "address",
          "name": "",
          "type": "address"
        }
      ],
      "payable": false,
      "stateMutability": "pure",
      "type": "function"
    },
    {
      "constant": true,
      "inputs": [],
      "name": "getEthCrossChainManager",
      "outputs": [
        {
          "internalType": "address",
          "name": "",
          "type": "address"
        }
      ],
      "payable": false,
      "stateMutability": "view",
      "type": "function"
    },
    {
      "constant": true,
      "inputs": [],
      "name": "getZionChainId",
      "outputs": [
        {
          "internalType": "uint256",
          "name": "",
          "type": "uint256"
        }
      ],
      "payable": false,
      "stateMutability": "pure",
      "type": "function"
    },
    {
      "constant": false,
      "inputs": [
        {
          "internalType": "bytes",
          "name": "rawHeader",
          "type": "bytes"
        }
      ],
      "name": "initGenesisBlock",
      "outputs": [
        {
          "internalType": "bool",
          "name": "",
          "type": "bool"
        }
      ],
      "payable": false,
      "stateMutability": "nonpayable",
      "type": "function"
    },
    {
      "constant": false,
      "inputs": [
        {
          "internalType": "bytes",
          "name": "rawHeader",
          "type": "bytes"
        },
        {
          "internalType": "bytes",
          "name": "rawSeals",
          "type": "bytes"
        },
        {
          "internalType": "bytes",
          "name": "accountProof",
          "type": "bytes"
        },
        {
          "internalType": "bytes",
          "name": "storageProof",
          "type": "bytes"
        },
        {
          "internalType": "bytes",
          "name": "rawCrossTx",
          "type": "bytes"
        }
      ],
      "name": "verifyHeaderAndExecuteTx",
      "outputs": [
        {
          "internalType": "bool",
          "name": "",
          "type": "bool"
        }
      ],
      "payable": false,
      "stateMutability": "nonpayable",
      "type": "function"
    }
  ],
  "bytecode": {
    "object": "0x608060405234801561001057600080fd5b5061417c806100206000396000f3fe6080604052600436106100865760003560e01c8063711ccc1311610059578063711ccc13146101a057806387939a7f146101c7578063bd5cf625146101dc578063d450e04c14610307578063e15d450d146105cc57610086565b80631786794b1461008b5780632de23f6b146100bc5780633cc22d01146100d1578063552079dc14610196575b600080fd5b34801561009757600080fd5b506100a0610702565b604080516001600160a01b039092168252519081900360200190f35b3480156100c857600080fd5b506100a061071a565b3480156100dd57600080fd5b50610182600480360360208110156100f457600080fd5b810190602081018135600160201b81111561010e57600080fd5b82018360208201111561012057600080fd5b803590602001918460018302840111600160201b8311171561014157600080fd5b91908080601f016020809104026020016040519081016040528093929190818152602001838380828437600092019190915250929550610732945050505050565b604080519115158252519081900360200190f35b61019e610c5b565b005b3480156101ac57600080fd5b506101b5610c9f565b60408051918252519081900360200190f35b3480156101d357600080fd5b506100a0610ca4565b3480156101e857600080fd5b50610182600480360360808110156101ff57600080fd5b6001600160401b038235169190810190604081016020820135600160201b81111561022957600080fd5b82018360208201111561023b57600080fd5b803590602001918460018302840111600160201b8311171561025c57600080fd5b919390929091602081019035600160201b81111561027957600080fd5b82018360208201111561028b57600080fd5b803590602001918460018302840111600160201b831117156102ac57600080fd5b919390929091602081019035600160201b8111156102c957600080fd5b8201836020820111156102db57600080fd5b803590602001918460018302840111600160201b831117156102fc57600080fd5b509092509050610ca8565b34801561031357600080fd5b50610182600480360360a081101561032a57600080fd5b810190602081018135600160201b81111561034457600080fd5b82018360208201111561035657600080fd5b803590602001918460018302840111600160201b8311171561037757600080fd5b91908080601f0160208091040260200160405190810160405280939291908181526020018383808284376000920191909152509295949360208101935035915050600160201b8111156103c957600080fd5b8201836020820111156103db57600080fd5b803590602001918460018302840111600160201b831117156103fc57600080fd5b91908080601f0160208091040260200160405190810160405280939291908181526020018383808284376000920191909152509295949360208101935035915050600160201b81111561044e57600080fd5b82018360208201111561046057600080fd5b803590602001918460018302840111600160201b8311171561048157600080fd5b91908080601f0160208091040260200160405190810160405280939291908181526020018383808284376000920191909152509295949360208101935035915050600160201b8111156104d357600080fd5b8201836020820111156104e557600080fd5b803590602001918460018302840111600160201b8311171561050657600080fd5b91908080601f0160208091040260200160405190810160405280939291908181526020018383808284376000920191909152509295949360208101935035915050600160201b81111561055857600080fd5b82018360208201111561056a57600080fd5b803590602001918460018302840111600160201b8311171561058b57600080fd5b91908080601f01602080910402602001604051908101604052809392919081815260200183838082843760009201919091525092955061123b945050505050565b3480156105d857600080fd5b50610182600480360360408110156105ef57600080fd5b810190602081018135600160201b81111561060957600080fd5b82018360208201111561061b57600080fd5b803590602001918460018302840111600160201b8311171561063c57600080fd5b91908080601f0160208091040260200160405190810160405280939291908181526020018383808284376000920191909152509295949360208101935035915050600160201b81111561068e57600080fd5b8201836020820111156106a057600080fd5b803590602001918460018302840111600160201b831117156106c157600080fd5b91908080601f016020809104026020016040519081016040528093929190818152602001838380828437600092019190915250929550611a4d945050505050565b73ded94feafaaca7064ce45ff875695f5ad3dec3e890565b73d2bfdba1ab74f287c856df3a550ff6067a302a7890565b600061073c613c63565b610745836120e1565b9050600073d2bfdba1ab74f287c856df3a550ff6067a302a789050806001600160a01b031663cd62908f6040518163ffffffff1660e01b815260040160006040518083038186803b15801561079957600080fd5b505afa1580156107ad573d6000803e3d6000fd5b505050506040513d6000823e601f3d908101601f1916820160405260208110156107d657600080fd5b8101908080516040519392919084600160201b8211156107f557600080fd5b90830190602082018581111561080a57600080fd5b8251600160201b81118282018810171561082357600080fd5b82525081516020918201929091019080838360005b83811015610850578181015183820152602001610838565b50505050905090810190601f16801561087d5780820380516001836020036101000a031916815260200191505b50604052505050516000146108c35760405162461bcd60e51b815260040180806020018281038252603881526020018061405e6038913960400191505060405180910390fd5b600060606108d086612137565b915091508051600014156109155760405162461bcd60e51b8152600401808060200182810382526031815260200180613ce86031913960400191505060405180910390fd5b6040805163353b9cb160e11b81526001600160401b038416600482015290516001600160a01b03851691636a7739629160248083019260209291908290030181600087803b15801561096657600080fd5b505af115801561097a573d6000803e3d6000fd5b505050506040513d602081101561099057600080fd5b50516109cd5760405162461bcd60e51b815260040180806020018281038252603b815260200180613eb6603b913960400191505060405180910390fd5b826001600160a01b031663512feecc85602001516001016040518263ffffffff1660e01b815260040180826001600160401b03166001600160401b03168152602001915050602060405180830381600087803b158015610a2c57600080fd5b505af1158015610a40573d6000803e3d6000fd5b505050506040513d6020811015610a5657600080fd5b5051610a935760405162461bcd60e51b815260040180806020018281038252603d815260200180613d68603d913960400191505060405180910390fd5b826001600160a01b0316631dc544bf610aab836122c3565b6040518263ffffffff1660e01b81526004018080602001828103825283818151815260200191508051906020019080838360005b83811015610af7578181015183820152602001610adf565b50505050905090810190601f168015610b245780820380516001836020036101000a031916815260200191505b5092505050602060405180830381600087803b158015610b4357600080fd5b505af1158015610b57573d6000803e3d6000fd5b505050506040513d6020811015610b6d57600080fd5b5051610baa5760405162461bcd60e51b815260040180806020018281038252603b815260200180613da5603b913960400191505060405180910390fd5b7ff01968fc3a2655cf1b5144cb32de6dc898f91b9239c103744e8457152ab2fbde8460200151876040518083815260200180602001828103825283818151815260200191508051906020019080838360005b83811015610c14578181015183820152602001610bfc565b50505050905090810190601f168015610c415780820380516001836020036101000a031916815260200191505b50935050505060405180910390a150600195945050505050565b6040805162461bcd60e51b81526020600482015260146024820152732ab739bab83837b93a32b210333ab731ba34b7b760611b604482015290519081900360640190fd5b604f90565b3090565b6040805163fc91a89760e01b8152336004820152905160009173ded94feafaaca7064ce45ff875695f5ad3dec3e89163fc91a89791602480820192602092909190829003018186803b158015610cfd57600080fd5b505afa158015610d11573d6000803e3d6000fd5b505050506040513d6020811015610d2757600080fd5b5051610d645760405162461bcd60e51b815260040180806020018281038252602a815260200180613e45602a913960400191505060405180910390fd5b600073d2bfdba1ab74f287c856df3a550ff6067a302a786001600160a01b031663ff3d24a16040518163ffffffff1660e01b815260040160206040518083038186803b158015610db357600080fd5b505afa158015610dc7573d6000803e3d6000fd5b505050506040513d6020811015610ddd57600080fd5b505190506060610dec8261232a565b905060606002308360405160200180836001600160a01b03166001600160a01b031660601b815260140182805190602001908083835b60208310610e415780518252601f199092019160209182019101610e22565b6001836020036101000a038019825116818451168082178552505050505050905001925050506040516020818303038152906040526040518082805190602001908083835b60208310610ea55780518252601f199092019160209182019101610e86565b51815160209384036101000a60001901801990921691161790526040519190930194509192505080830381855afa158015610ee4573d6000803e3d6000fd5b5050506040513d6020811015610ef957600080fd5b505160408051602081810193909352815180820390930183528101905290506060610fef8383610f28336123a3565b8f8f8f8080601f016020809104026020016040519081016040528093929190818152602001838380828437600081840152601f19601f820116905080830192505050505050508e8e8080601f016020809104026020016040519081016040528093929190818152602001838380828437600081840152601f19601f820116905080830192505050505050508d8d8080601f0160208091040260200160405190810160405280939291908181526020018383808284376000920191909152506123be92505050565b905073d2bfdba1ab74f287c856df3a550ff6067a302a786001600160a01b0316634c3ccf6482805190602001206040518263ffffffff1660e01b815260040180828152602001915050602060405180830381600087803b15801561105257600080fd5b505af1158015611066573d6000803e3d6000fd5b505050506040513d602081101561107c57600080fd5b50516110b95760405162461bcd60e51b81526004018080602001828103825260308152602001806140b86030913960400191505060405180910390fd5b326001600160a01b03167f6ad3bf15c1988bc04bc153490cab16db8efb9a3990215bf1c64ea6e28be8848384338f8f8f876040518080602001876001600160a01b03166001600160a01b03168152602001866001600160401b03166001600160401b03168152602001806020018060200184810384528a818151815260200191508051906020019080838360005b8381101561115f578181015183820152602001611147565b50505050905090810190601f16801561118c5780820380516001836020036101000a031916815260200191505b5084810383528681526020018787808284376000838201819052601f909101601f191690920186810384528751815287516020918201939189019250908190849084905b838110156111e85781810151838201526020016111d0565b50505050905090810190601f1680156112155780820380516001836020036101000a031916815260200191505b50995050505050505050505060405180910390a25060019b9a5050505050505050505050565b6000611245613c63565b61124e876120e1565b9050611258613c7d565b6112618461266c565b9050600073d2bfdba1ab74f287c856df3a550ff6067a302a78905060606113aa826001600160a01b031663cd62908f6040518163ffffffff1660e01b815260040160006040518083038186803b1580156112ba57600080fd5b505afa1580156112ce573d6000803e3d6000fd5b505050506040513d6000823e601f3d908101601f1916820160405260208110156112f757600080fd5b8101908080516040519392919084600160201b82111561131657600080fd5b90830190602082018581111561132b57600080fd5b8251600160201b81118282018810171561134457600080fd5b82525081516020918201929091019080838360005b83811015611371578181015183820152602001611359565b50505050905090810190601f16801561139e5780820380516001836020036101000a031916815260200191505b506040525050506126d5565b9050816001600160a01b0316635ac407906040518163ffffffff1660e01b815260040160206040518083038186803b1580156113e557600080fd5b505afa1580156113f9573d6000803e3d6000fd5b505050506040513d602081101561140f57600080fd5b505160208501516001600160401b03909116111561145e5760405162461bcd60e51b8152600401808060200182810382526030815260200180613ef16030913960400191505060405180910390fd5b816001600160a01b0316634e4af8ce6040518163ffffffff1660e01b815260040160206040518083038186803b15801561149757600080fd5b505afa1580156114ab573d6000803e3d6000fd5b505050506040513d60208110156114c157600080fd5b505160208501516001600160401b0390911610156115105760405162461bcd60e51b815260040180806020018281038252602d815260200180613e18602d913960400191505060405180910390fd5b6115228a805190602001208a8361277d565b61156a576040805162461bcd60e51b815260206004820152601460248201527315995c9a599e481a195859195c8819985a5b195960621b604482015290519081900360640190fd5b6060611575846128a6565b905060606115a48a876000015160405180604001604052806014815260200161100360601b8152508c86612960565b905087805190602001206115b7826129f3565b146115ff576040805162461bcd60e51b815260206004820152601360248201527215995c9a599e481c1c9bdbd98819985a5b1959606a1b604482015290519081900360640190fd5b836001600160a01b0316630586763c866020015161162088600001516129f3565b6040518363ffffffff1660e01b815260040180836001600160401b03166001600160401b031681526020018281526020019250505060206040518083038186803b15801561166d57600080fd5b505afa158015611681573d6000803e3d6000fd5b505050506040513d602081101561169757600080fd5b5051156116d55760405162461bcd60e51b81526004018080602001828103825260228152602001806140966022913960400191505060405180910390fd5b836001600160a01b031663e90bfdcf86602001516116f688600001516129f3565b6040518363ffffffff1660e01b815260040180836001600160401b03166001600160401b0316815260200182815260200192505050602060405180830381600087803b15801561174557600080fd5b505af1158015611759573d6000803e3d6000fd5b505050506040513d602081101561176f57600080fd5b50516117c2576040805162461bcd60e51b815260206004820181905260248201527f536176652063726f7373636861696e207478206578697374206661696c656421604482015290519081900360640190fd5b604f8560400151606001516001600160401b0316146118125760405162461bcd60e51b8152600401808060200182810382526026815260200180613e6f6026913960400191505060405180910390fd5b6000611825866040015160800151612a53565b905061185081876040015160a00151886040015160c001518960400151604001518a60200151612a9d565b6118a1576040805162461bcd60e51b815260206004820152601d60248201527f457865637574652043726f7373436861696e205478206661696c656421000000604482015290519081900360640190fd5b7f8a4a2663ce60ce4955c595da2894de0415240f1ace024cfbff85f513b656bdae8660200151876040015160800151886000015189604001516000015160405180856001600160401b03166001600160401b03168152602001806020018060200180602001848103845287818151815260200191508051906020019080838360005b8381101561193b578181015183820152602001611923565b50505050905090810190601f1680156119685780820380516001836020036101000a031916815260200191505b50848103835286518152865160209182019188019080838360005b8381101561199b578181015183820152602001611983565b50505050905090810190601f1680156119c85780820380516001836020036101000a031916815260200191505b50848103825285518152855160209182019187019080838360005b838110156119fb5781810151838201526020016119e3565b50505050905090810190601f168015611a285780820380516001836020036101000a031916815260200191505b5097505050505050505060405180910390a15060019c9b505050505050505050505050565b6000611a57613c63565b611a60846120e1565b9050600073d2bfdba1ab74f287c856df3a550ff6067a302a789050806001600160a01b0316635ac407906040518163ffffffff1660e01b815260040160206040518083038186803b158015611ab457600080fd5b505afa158015611ac8573d6000803e3d6000fd5b505050506040513d6020811015611ade57600080fd5b505160208301516001600160401b039091161115611b2d5760405162461bcd60e51b815260040180806020018281038252603b815260200180613f9b603b913960400191505060405180910390fd5b6060816001600160a01b031663cd62908f6040518163ffffffff1660e01b815260040160006040518083038186803b158015611b6857600080fd5b505afa158015611b7c573d6000803e3d6000fd5b505050506040513d6000823e601f3d908101601f191682016040526020811015611ba557600080fd5b8101908080516040519392919084600160201b821115611bc457600080fd5b908301906020820185811115611bd957600080fd5b8251600160201b811182820188101715611bf257600080fd5b82525081516020918201929091019080838360005b83811015611c1f578181015183820152602001611c07565b50505050905090810190601f168015611c4c5780820380516001836020036101000a031916815260200191505b5060405250505090506060611c60826126d5565b905060006060611c6f89612137565b91509150805160001415611cb45760405162461bcd60e51b8152600401808060200182810382526031815260200180613ce86031913960400191505060405180910390fd5b611cc68980519060200120898561277d565b611d0e576040805162461bcd60e51b815260206004820152601460248201527315995c9a599e481a195859195c8819985a5b195960621b604482015290519081900360640190fd5b6040805163353b9cb160e11b81526001600160401b038416600482015290516001600160a01b03871691636a7739629160248083019260209291908290030181600087803b158015611d5f57600080fd5b505af1158015611d73573d6000803e3d6000fd5b505050506040513d6020811015611d8957600080fd5b5051611dc65760405162461bcd60e51b815260040180806020018281038252603b815260200180613eb6603b913960400191505060405180910390fd5b846001600160a01b031663512feecc87602001516001016040518263ffffffff1660e01b815260040180826001600160401b03166001600160401b03168152602001915050602060405180830381600087803b158015611e2557600080fd5b505af1158015611e39573d6000803e3d6000fd5b505050506040513d6020811015611e4f57600080fd5b5051611e8c5760405162461bcd60e51b81526004018080602001828103825260348152602001806140e86034913960400191505060405180910390fd5b846001600160a01b0316631dc544bf611ea4836122c3565b6040518263ffffffff1660e01b81526004018080602001828103825283818151815260200191508051906020019080838360005b83811015611ef0578181015183820152602001611ed8565b50505050905090810190601f168015611f1d5780820380516001836020036101000a031916815260200191505b5092505050602060405180830381600087803b158015611f3c57600080fd5b505af1158015611f50573d6000803e3d6000fd5b505050506040513d6020811015611f6657600080fd5b5051611fa35760405162461bcd60e51b8152600401808060200182810382526038815260200180613de06038913960400191505060405180910390fd5b7f353f5ab7dd2715c6a221c2e7ff95ca17e68d962ffd1bb9b97b8f283d3659896386602001518a858460405180858152602001806020018060200180602001848103845287818151815260200191508051906020019080838360005b83811015612017578181015183820152602001611fff565b50505050905090810190601f1680156120445780820380516001836020036101000a031916815260200191505b508481038352865181528651602091820191808901910280838360005b83811015612079578181015183820152602001612061565b50505050905001848103825285818151815260200191508051906020019060200280838360005b838110156120b85781810151838201526020016120a0565b5050505090500197505050505050505060405180910390a1600196505050505050505b92915050565b6120e9613c63565b6000806120f7846020612f6e565b915050612107848260570161300d565b508352612118846101bd8301612f6e565b90925090506121298483830161305b565b506020840152509092915050565b60006060600080612149856020612f6e565b91505061215a85826101bd01612f6e565b909250905061216b85838301612f6e565b909250905061217c85838301612f6e565b909250905061218d85838301612f6e565b909250905061219e85838301612f6e565b90925090506121af85838301612f6e565b90925090506121c18560208301612f6e565b90925090506121d08582612f6e565b90925090506121df85826130d2565b909450905060606121f28684840161300d565b5080519350905060158306156122395760405162461bcd60e51b8152600401808060200182810382526021815260200180613e956021913960400191505060405180910390fd5b60158304604051908082528060200260200182016040528015612266578160200160208202803883390190505b50935060005b836015820210156122ba5760006122898360158402602001613125565b5090508086838151811061229957fe5b6001600160a01b03909216602092830291909101909101525060010161226c565b50505050915091565b6060816040516020018080602001828103825283818151815260200191508051906020019060200280838360005b838110156123095781810151838201526020016122f1565b50505050905001925050506040516020818303038152906040529050919050565b60606001600160ff1b03821115612388576040805162461bcd60e51b815260206004820152601760248201527f56616c75652065786365656473207468652072616e6765000000000000000000604482015290519081900360640190fd5b60405190506020815281602082015260408101604052919050565b604080516014815260609290921b6020830152818101905290565b60608787878787878760405160200180806020018060200180602001886001600160401b03166001600160401b0316815260200180602001806020018060200187810387528e818151815260200191508051906020019080838360005b8381101561243357818101518382015260200161241b565b50505050905090810190601f1680156124605780820380516001836020036101000a031916815260200191505b5087810386528d5181528d516020918201918f019080838360005b8381101561249357818101518382015260200161247b565b50505050905090810190601f1680156124c05780820380516001836020036101000a031916815260200191505b5087810385528c5181528c516020918201918e019080838360005b838110156124f35781810151838201526020016124db565b50505050905090810190601f1680156125205780820380516001836020036101000a031916815260200191505b5087810384528a5181528a516020918201918c019080838360005b8381101561255357818101518382015260200161253b565b50505050905090810190601f1680156125805780820380516001836020036101000a031916815260200191505b5087810383528951815289516020918201918b019080838360005b838110156125b357818101518382015260200161259b565b50505050905090810190601f1680156125e05780820380516001836020036101000a031916815260200191505b5087810382528851815288516020918201918a019080838360005b838110156126135781810151838201526020016125fb565b50505050905090810190601f1680156126405780820380516001836020036101000a031916815260200191505b509d50505050505050505050505050506040516020818303038152906040529050979650505050505050565b612674613c7d565b60206126808382612f6e565b915060609050612690848361300d565b908452915061269f84836130d2565b6001600160401b03909116602085015291506126bb848361300d565b925090506126c881613178565b6040840152509092915050565b60608180602001905160208110156126ec57600080fd5b8101908080516040519392919084600160201b82111561270b57600080fd5b90830190602082018581111561272057600080fd5b82518660208202830111600160201b8211171561273c57600080fd5b82525081516020918201928201910280838360005b83811015612769578181015183820152602001612751565b505050509050016040525050509050919050565b60006020606061278d8583613213565b5080519095506000906127a790604363ffffffff61323716565b90506060816040519080825280602002602001820160405280156127d5578160200160208202803883390190505b50905060005b8281101561288d576127ed8886613213565b6040805160208082018e9052825180830382018152918301909252805191012090965090945061281d9085613279565b82828151811061282957fe5b60200260200101906001600160a01b031690816001600160a01b03168152505060006001600160a01b031682828151811061286057fe5b60200260200101516001600160a01b031614156128855760009550505050505061289f565b6001016127db565b50612898868261331e565b9450505050505b9392505050565b60606120db667265717565737460c81b6128c784604001516060015161344a565b84516040516001600160c81b0319841660208083019182526001600160c01b03198516602784015283519192602f0191908401908083835b6020831061291e5780518252601f1990920191602091820191016128ff565b6001836020036101000a0380198251168184511680821785525050505050509050019350505050604051602081830303815290604052805190602001206134bf565b8251602080850191822090915283526060838161297e8883896134d7565b905061298b816020613213565b509050600061299b826020613213565b9150506129a88282613213565b9150606090506129b88383613213565b508651602080890191822090915287529050856129d68882846134d7565b95506129e3866020613213565b509b9a5050505050505050505050565b60008151602014612a4b576040805162461bcd60e51b815260206004820152601760248201527f6279746573206c656e677468206973206e6f742033322e000000000000000000604482015290519081900360640190fd5b506020015190565b60008151601414612a955760405162461bcd60e51b8152600401808060200182810382526023815260200180613d196023913960400191505060405180910390fd5b506014015190565b6040805163fc91a89760e01b81526001600160a01b0387166004820152905160009173ded94feafaaca7064ce45ff875695f5ad3dec3e89163fc91a89791602480820192602092909190829003018186803b158015612afb57600080fd5b505afa158015612b0f573d6000803e3d6000fd5b505050506040513d6020811015612b2557600080fd5b5051612b625760405162461bcd60e51b815260040180806020018281038252602e815260200180613f6d602e913960400191505060405180910390fd5b6001600160a01b03861673d2bfdba1ab74f287c856df3a550ff6067a302a781415612bd4576040805162461bcd60e51b815260206004820152601760248201527f446f6e27742074727920746f2063616c6c206563636421000000000000000000604482015290519081900360640190fd5b60006060876001600160a01b0316876040516020018082805190602001908083835b60208310612c155780518252601f199092019160209182019101612bf6565b51815160001960209485036101000a01908116901991909116179052732862797465732c62797465732c75696e7436342960601b9390910192835260408051600b19818603018152601485019091528051908201206001600160401b038b1660748501526060603485019081528d5160948601528d519196508d95508c948c945090928392605483019260b4019188019080838360005b83811015612cc4578181015183820152602001612cac565b50505050905090810190601f168015612cf15780820380516001836020036101000a031916815260200191505b50838103825285518152855160209182019187019080838360005b83811015612d24578181015183820152602001612d0c565b50505050905090810190601f168015612d515780820380516001836020036101000a031916815260200191505b509550505050505060405160208183030381529060405260405160200180836001600160e01b0319166001600160e01b031916815260040182805190602001908083835b60208310612db45780518252601f199092019160209182019101612d95565b6001836020036101000a038019825116818451168082178552505050505050905001925050506040516020818303038152906040526040518082805190602001908083835b60208310612e185780518252601f199092019160209182019101612df9565b6001836020036101000a0380198251168184511680821785525050505050509050019150506000604051808303816000865af19150503d8060008114612e7a576040519150601f19603f3d011682016040523d82523d6000602084013e612e7f565b606091505b509092509050600182151514612ec65760405162461bcd60e51b815260040180806020018281038252602b815260200180613f21602b913960400191505060405180910390fd5b8051612f035760405162461bcd60e51b8152600401808060200182810382526027815260200180613fd66027913960400191505060405180910390fd5b6000818060200190516020811015612f1a57600080fd5b50519050600181151514612f5f5760405162461bcd60e51b81526004018080602001828103825260378152602001806140276037913960400191505060405180910390fd5b50600198975050505050505050565b81810151600090819060f81c6080811015612f90575060019150829050613006565b60b7811015612fa957607f190191505060018201613006565b60c0811015612fd15784840160010151600860d7839003021c9250830160b519019050613006565b60f7811015612fea5760bf190191505060018201613006565b848401600101516008610117839003021c9250830160f5190190505b9250929050565b606060008061301c8585612f6e565b8095508192505050838101915060405192506020601f82010460200260200180840160405281845281602085018387890160045afa5050509250929050565b600080600061306a8585612f6e565b9450905060208111156130ae5760405162461bcd60e51b815260040180806020018281038252602c81526020018061411c602c913960400191505060405180910390fd5b838101915080602003808503860151600882021b600882021c935050509250929050565b60008060006130e18585612f6e565b9450905060088111156130ae5760405162461bcd60e51b815260040180806020018281038252602a815260200180613ffd602a913960400191505060405180910390fd5b60008060006131348585612f6e565b9450905060148111156130ae5760405162461bcd60e51b815260040180806020018281038252602c815260200180613d3c602c913960400191505060405180910390fd5b613180613ca1565b602061318c838261300d565b908352905061319b838261300d565b602084019190915290506131af838261300d565b604084019190915290506131c383826130d2565b6001600160401b03909116606084015290506131df838261300d565b608084019190915290506131f3838261300d565b60a08401919091529050613207838261300d565b5060c083015250919050565b60606000806132228585612f6e565b958601601f1901818152969501949350505050565b600061289f83836040518060400160405280601a81526020017f536166654d6174683a206469766973696f6e206279207a65726f0000000000008152506136f6565b6000815160411461328c575060006120db565b60008060006020850151925060408501519150606085015160001a601b01905060018682858560405160008152602001604052604051808581526020018460ff1660ff1681526020018381526020018281526020019450505050506020604051602081039080840390855afa158015613309573d6000803e3d6000fd5b5050604051601f190151979650505050505050565b600080613358600161334c60036133406002895161379890919063ffffffff16565b9063ffffffff61323716565b9063ffffffff6137f116565b905060608451604051908082528060200260200182016040528015613387578160200160208202803883390190505b5090506000805b855181101561343c5760005b8751811015613433578381815181106133af57fe5b60200260200101511580156133fb57508781815181106133cb57fe5b60200260200101516001600160a01b03168783815181106133e857fe5b60200260200101516001600160a01b0316145b1561342b578280600101935050600184828151811061341657fe5b91151560209283029190910190910152613433565b60010161339a565b5060010161338e565b509190911015949350505050565b600060ff821660381b905061ff00821660281b8101905062ff0000821660181b8101905063ff000000821660081b8101905064ff00000000821660081c8101905065ff0000000000821660181c8101905066ff000000000000821660281c810190508160381c810190508060c01b9050919050565b60408051808201909152602080825281019190915290565b60606134e28361384b565b92506134ef846020613213565b5080519094508291506020905b806020018210156136a5576060613514878486613943565b613565576040805162461bcd60e51b815260206004820152601760248201527f70726f6f663a756e657175616c206e6f64652068617368000000000000000000604482015290519081900360640190fd5b61356f8784613213565b93509050600080613581836020612f6e565b9150915061359183838301612f6e565b84519193508301915060200181141561363257606060006135b3856020613213565b91509150600060606135c4846139ac565b90506135d08c82613b4b565b909c5091508161361b576040805162461bcd60e51b815260206004820152601160248201527070726f6f663a696e76616c6964206b657960781b604482015290519081900360640190fd5b6136258784613213565b50995061369d9350505050565b600088516000141561364657506011613655565b61364f89613bef565b90995090505b602060005b6011811015613699578083141561367d576136758683613213565b509850613699565b6136878683612f6e565b9095509350848401915060010161365a565b5050505b5050506134fc565b8451156136ed576040805162461bcd60e51b815260206004820152601160248201527070726f6f663a696e76616c6964206b657960781b604482015290519081900360640190fd5b50509392505050565b600081836137825760405162461bcd60e51b81526004018080602001828103825283818151815260200191508051906020019080838360005b8381101561374757818101518382015260200161372f565b50505050905090810190601f1680156137745780820380516001836020036101000a031916815260200191505b509250505060405180910390fd5b50600083858161378e57fe5b0495945050505050565b6000826137a7575060006120db565b828202828482816137b457fe5b041461289f5760405162461bcd60e51b8152600401808060200182810382526021815260200180613f4c6021913960400191505060405180910390fd5b60008282018381101561289f576040805162461bcd60e51b815260206004820152601b60248201527f536166654d6174683a206164646974696f6e206f766572666c6f770000000000604482015290519081900360640190fd5b6060600082516002026001019050604051915060208183010160405280825260008090505b835181101561391157600484828151811061388757fe5b602001015160f81c60f81b6001600160f81b031916901c8382600202815181106138ad57fe5b60200101906001600160f81b031916908160001a9053508381815181106138d057fe5b01602001518351600f60f81b909116908490600160028502019081106138f257fe5b60200101906001600160f81b031916908160001a905350600101613870565b50601060f81b82600183038151811061392657fe5b60200101906001600160f81b031916908160001a90535050919050565b60008060006139528686612f6e565b9150915084810382016020811060018114613972578015613993576139a1565b60208601518789015118826020036008021c158651831481169550506139a1565b602086015182888a01201494505b505050509392505050565b606060006004836000815181106139bf57fe5b602001015160f81c60f81b6001600160f81b031916901c9050600083519050600080600060028560f81c06905060028560f81c04915080826002808702030101925060405195506020838701016040528286528060011415613a5b5786600081518110613a2857fe5b01602001518651600f60f81b909116908790600090613a4357fe5b60200101906001600160f81b031916908160001a9053505b8160011415613a9057601060f81b866001850381518110613a7857fe5b60200101906001600160f81b031916908160001a9053505b60005b60018503811015613b40576004888260010181518110613aaf57fe5b602001015160f81c60f81b6001600160f81b031916901c8783836002020181518110613ad757fe5b60200101906001600160f81b031916908160001a905350878160010181518110613afd57fe5b01602001518751600f60f81b909116908890600284028501600101908110613b2157fe5b60200101906001600160f81b031916908160001a905350600101613a93565b505050505050919050565b60606000825184511015613b6457508290506000613006565b60006020845181613b7157fe5b6001935004905060005b81811015613ba357602081810286810182015190880190910151149290921691600101613b7b565b5060208102602001600019855182036008021b8186015182880151181615831692505081613bd8578460009250925050613006565b508251845181900390850152915190920192909150565b60606000825160001415613c4a576040805162461bcd60e51b815260206004820152601860248201527f74616b654f6e65427974653a20656d70747920696e7075740000000000000000604482015290519081900360640190fd5b505060018101805191516000190181529160ff90911690565b604051806040016040528060608152602001600081525090565b6040805160608082018352815260006020820152908101613c9c613ca1565b905290565b6040518060e0016040528060608152602001606081526020016060815260200160006001600160401b03168152602001606081526020016060815260200160608152509056fe476976656e20626c6f636b2068656164657220646f6573206e6f7420636f6e7461696e20616e792076616c696461746f726279746573206c656e67746820646f6573206e6f74206d617463682061646472657373726c704765744e657874416464726573733a2064617461206c6f6e676572207468616e20323020627974657353617665205a696f6e2063757272656e742065706f63682073746172742068656967687420746f204461746120636f6e7472616374206661696c65642153617665205a696f6e2063757272656e742065706f63682076616c696461746f727320746f204461746120636f6e7472616374206661696c65642153617665205a696f6e206e6578742065706f63682076616c696461746f727320746f204461746120636f6e7472616374206661696c656421496e76616c696420626c6f636b206865696768742c2061667465722043757245706f6368456e644865696768745468652063616c6c6572206973206368696c64206f66207468652063616c6c657220666163746f72792154686973205478206973206e6f742061696d696e672061742074686973206e6574776f726b21696e76616c6964206865616465722065787472612076616c696461746f7253657453617665205a696f6e2063757272656e742065706f636820656e642068656967687420746f204461746120636f6e7472616374206661696c656421496e76616c696420626c6f636b206865696768742c206265666f72652043757245706f6368537461727448656967687445746843726f7373436861696e2063616c6c20627573696e65737320636f6e7472616374206661696c6564536166654d6174683a206d756c7469706c69636174696f6e206f766572666c6f775468652070617373656420696e2061646472657373206973206e6f742066726f6d2074686520666163746f727921476976656e20626c6f636b20686569676874206973206c6f776572207468616e2063757272656e742065706f6368207374617274206865696768744e6f2072657475726e2076616c75652066726f6d20627573696e65737320636f6e747261637421726c704765744e65787455696e7436343a2064617461206c6f6e676572207468616e203820627974657345746843726f7373436861696e2063616c6c20627573696e65737320636f6e74726163742072657475726e206973206e6f74207472756545746843726f7373436861696e4461746120636f6e74726163742068617320616c7265616479206265656e20696e697469616c697a656421746865207472616e73616374696f6e20686173206265656e20657865637574656421536176652065746854784861736820627920696e64657820746f204461746120636f6e7472616374206661696c65642153617665205a696f6e206e6578742065706f63682068656967687420746f204461746120636f6e7472616374206661696c656421726c704765744e65787455696e743235363a2064617461206c6f6e676572207468616e203332206279746573a265627a7a72315820aad25bf73625d67137cf8dbc286b49080cca503d5b2d4e080df2c00b8a5f71cb64736f6c63430005110032",
    "linkReferences": {}
  },
  "methodIdentifiers": {
    "changeEpoch(bytes,bytes)": "e15d450d",
    "crossChain(uint64,bytes,bytes,bytes)": "bd5cf625",
    "fallback()": "552079dc",
    "getEthCrossChainCallerFactoryAddress()": "1786794b",
    "getEthCrossChainDataAddress()": "2de23f6b",
    "getEthCrossChainManager()": "87939a7f",
    "getZionChainId()": "711ccc13",
    "initGenesisBlock(bytes)": "3cc22d01",
    "verifyHeaderAndExecuteTx(bytes,bytes,bytes,bytes,bytes)": "d450e04c"
  },
  "id": 20
}