{
  "abi": [
    {
      "inputs": [
        {
          "internalType": "address",
          "name": "swapProxyAddr",
          "type": "address"
        }
      ],
      "payable": false,
      "stateMutability": "nonpayable",
      "type": "constructor"
    },
    {
      "anonymous": false,
      "inputs": [
        {
          "indexed": true,
          "internalType": "address",
          "name": "previousOwner",
          "type": "address"
        },
        {
          "indexed": true,
          "internalType": "address",
          "name": "newOwner",
          "type": "address"
        }
      ],
      "name": "OwnershipTransferred",
      "type": "event"
    },
    {
      "constant": true,
      "inputs": [],
      "name": "isOwner",
      "outputs": [
        {
          "internalType": "bool",
          "name": "",
          "type": "bool"
        }
      ],
      "payable": false,
      "stateMutability": "view",
      "type": "function"
    },
    {
      "constant": true,
      "inputs": [],
      "name": "owner",
      "outputs": [
        {
          "internalType": "address",
          "name": "",
          "type": "address"
        }
      ],
      "payable": false,
      "stateMutability": "view",
      "type": "function"
    },
    {
      "constant": false,
      "inputs": [],
      "name": "renounceOwnership",
      "outputs": [],
      "payable": false,
      "stateMutability": "nonpayable",
      "type": "function"
    },
    {
      "constant": false,
      "inputs": [
        {
          "internalType": "uint64",
          "name": "poolId",
          "type": "uint64"
        },
        {
          "internalType": "address",
          "name": "poolAddress",
          "type": "address"
        },
        {
          "internalType": "uint64[2]",
          "name": "chainIds",
          "type": "uint64[2]"
        },
        {
          "internalType": "address[2]",
          "name": "assets",
          "type": "address[2]"
        },
        {
          "internalType": "bytes[2]",
          "name": "rawAssets",
          "type": "bytes[2]"
        },
        {
          "internalType": "bytes[2]",
          "name": "rawLps",
          "type": "bytes[2]"
        }
      ],
      "name": "set2Pool",
      "outputs": [],
      "payable": false,
      "stateMutability": "nonpayable",
      "type": "function"
    },
    {
      "constant": false,
      "inputs": [
        {
          "internalType": "uint64",
          "name": "poolId",
          "type": "uint64"
        },
        {
          "internalType": "address",
          "name": "poolAddress",
          "type": "address"
        },
        {
          "internalType": "uint64[3]",
          "name": "chainIds",
          "type": "uint64[3]"
        },
        {
          "internalType": "address[3]",
          "name": "assets",
          "type": "address[3]"
        },
        {
          "internalType": "bytes[3]",
          "name": "rawAssets",
          "type": "bytes[3]"
        },
        {
          "internalType": "bytes[3]",
          "name": "rawLps",
          "type": "bytes[3]"
        }
      ],
      "name": "set3Pool",
      "outputs": [],
      "payable": false,
      "stateMutability": "nonpayable",
      "type": "function"
    },
    {
      "constant": false,
      "inputs": [
        {
          "internalType": "uint64",
          "name": "poolId",
          "type": "uint64"
        },
        {
          "internalType": "address",
          "name": "poolAddress",
          "type": "address"
        },
        {
          "internalType": "uint64[4]",
          "name": "chainIds",
          "type": "uint64[4]"
        },
        {
          "internalType": "address[4]",
          "name": "assets",
          "type": "address[4]"
        },
        {
          "internalType": "bytes[4]",
          "name": "rawAssets",
          "type": "bytes[4]"
        },
        {
          "internalType": "bytes[4]",
          "name": "rawLps",
          "type": "bytes[4]"
        }
      ],
      "name": "set4Pool",
      "outputs": [],
      "payable": false,
      "stateMutability": "nonpayable",
      "type": "function"
    },
    {
      "constant": false,
      "inputs": [
        {
          "internalType": "address",
          "name": "swapProxyAddr",
          "type": "address"
        }
      ],
      "name": "setSwapProxyAddr",
      "outputs": [],
      "payable": false,
      "stateMutability": "nonpayable",
      "type": "function"
    },
    {
      "constant": true,
      "inputs": [],
      "name": "sp",
      "outputs": [
        {
          "internalType": "contract ISwapProxy",
          "name": "",
          "type": "address"
        }
      ],
      "payable": false,
      "stateMutability": "view",
      "type": "function"
    },
    {
      "constant": false,
      "inputs": [
        {
          "internalType": "address",
          "name": "newOwner",
          "type": "address"
        }
      ],
      "name": "transferOwnership",
      "outputs": [],
      "payable": false,
      "stateMutability": "nonpayable",
      "type": "function"
    },
    {
      "constant": false,
      "inputs": [
        {
          "internalType": "address",
          "name": "new_Owner",
          "type": "address"
        }
      ],
      "name": "transferSwapProxyOwner",
      "outputs": [],
      "payable": false,
      "stateMutability": "nonpayable",
      "type": "function"
    }
  ],
  "bytecode": {
    "object": "0x60806040523480156200001157600080fd5b50604051620023bd380380620023bd8339810160408190526200003491620000d0565b6000620000496001600160e01b03620000b916565b600080546001600160a01b0319166001600160a01b0383169081178255604051929350917f8be0079c531659141344cd1fd0a4f28419497f9722a3daafe3b4186f6b6457e0908290a350600180546001600160a01b0319166001600160a01b039290921691909117905562000125565b3390565b8051620000ca816200010b565b92915050565b600060208284031215620000e357600080fd5b6000620000f18484620000bd565b949350505050565b60006001600160a01b038216620000ca565b6200011681620000f9565b81146200012257600080fd5b50565b61228880620001356000396000f3fe608060405234801561001057600080fd5b506004361061009e5760003560e01c80638f32d59b116100665780638f32d59b14610104578063912f8aef146101195780639bb39b251461012c578063e1dadf3b1461013f578063f2fde38b146101545761009e565b80636934a936146100a3578063715018a6146100b85780637868e3d1146100c05780638da5cb5b146100d35780638ec6f968146100f1575b600080fd5b6100b66100b1366004611c66565b610167565b005b6100b66102af565b6100b66100ce366004611c66565b61031d565b6100db610363565b6040516100e89190612025565b60405180910390f35b6100b66100ff366004611cc8565b610372565b61010c6108d4565b6040516100e89190612069565b6100b6610127366004611e2d565b6108f8565b6100b661013a366004611d80565b611141565b6101476117d6565b6040516100e89190612077565b6100b6610162366004611c66565b6117e5565b61016f6108d4565b6101945760405162461bcd60e51b815260040161018b906120a5565b60405180910390fd5b600160009054906101000a90046001600160a01b03166001600160a01b0316638da5cb5b6040518163ffffffff1660e01b815260040160206040518083038186803b1580156101e257600080fd5b505afa1580156101f6573d6000803e3d6000fd5b505050506040513d601f19601f8201168201806040525061021a9190810190611c8c565b6001600160a01b0316306001600160a01b03161461024a5760405162461bcd60e51b815260040161018b90612095565b60015460405163f2fde38b60e01b81526001600160a01b039091169063f2fde38b9061027a908490600401612025565b600060405180830381600087803b15801561029457600080fd5b505af11580156102a8573d6000803e3d6000fd5b5050505050565b6102b76108d4565b6102d35760405162461bcd60e51b815260040161018b906120a5565b600080546040516001600160a01b03909116907f8be0079c531659141344cd1fd0a4f28419497f9722a3daafe3b4186f6b6457e0908390a3600080546001600160a01b0319169055565b6103256108d4565b6103415760405162461bcd60e51b815260040161018b906120a5565b600180546001600160a01b0319166001600160a01b0392909216919091179055565b6000546001600160a01b031690565b61037a6108d4565b6103965760405162461bcd60e51b815260040161018b906120a5565b600160009054906101000a90046001600160a01b03166001600160a01b0316638da5cb5b6040518163ffffffff1660e01b815260040160206040518083038186803b1580156103e457600080fd5b505afa1580156103f8573d6000803e3d6000fd5b505050506040513d601f19601f8201168201806040525061041c9190810190611c8c565b6001600160a01b0316306001600160a01b03161461044c5760405162461bcd60e51b815260040161018b90612095565b6000856001600160a01b03166382c630666040518163ffffffff1660e01b815260040160206040518083038186803b15801561048757600080fd5b505afa15801561049b573d6000803e3d6000fd5b505050506040513d601f19601f820116820180604052506104bf9190810190611c8c565b90506001600160a01b0381166104e75760405162461bcd60e51b815260040161018b906120b5565b600154604051631342463960e31b81526001600160a01b0390911690639a1231c890610519908a908a906004016120c5565b602060405180830381600087803b15801561053357600080fd5b505af1158015610547573d6000803e3d6000fd5b505050506040513d601f19601f8201168201806040525061056b9190810190611caa565b5060015485518351604051633348f63b60e01b81526001600160a01b0390931692633348f63b926105a0928692600401612033565b602060405180830381600087803b1580156105ba57600080fd5b505af11580156105ce573d6000803e3d6000fd5b505050506040513d601f19601f820116820180604052506105f29190810190611caa565b5060015460208087015190840151604051633348f63b60e01b81526001600160a01b0390931692633348f63b9261062d928692600401612033565b602060405180830381600087803b15801561064757600080fd5b505af115801561065b573d6000803e3d6000fd5b505050506040513d601f19601f8201168201806040525061067f9190810190611caa565b50600154845186518551604051633348f63b60e01b81526001600160a01b0390941693633348f63b936106b89390929091600401612033565b602060405180830381600087803b1580156106d257600080fd5b505af11580156106e6573d6000803e3d6000fd5b505050506040513d601f19601f8201168201806040525061070a9190810190611caa565b50600154855185518551604051633c480bcb60e11b81526001600160a01b0390941693637890179693610746938d9391929091906004016120e7565b602060405180830381600087803b15801561076057600080fd5b505af1158015610774573d6000803e3d6000fd5b505050506040513d601f19601f820116820180604052506107989190810190611caa565b506001546020808601518782015191860151604051633348f63b60e01b81526001600160a01b0390941693633348f63b936107d893929091600401612033565b602060405180830381600087803b1580156107f257600080fd5b505af1158015610806573d6000803e3d6000fd5b505050506040513d601f19601f8201168201806040525061082a9190810190611caa565b50600180546001600160a01b03169063789017969089908890602002015187600160200201518760015b60200201516040518563ffffffff1660e01b815260040161087894939291906120e7565b602060405180830381600087803b15801561089257600080fd5b505af11580156108a6573d6000803e3d6000fd5b505050506040513d601f19601f820116820180604052506108ca9190810190611caa565b5050505050505050565b600080546001600160a01b03166108e9611815565b6001600160a01b031614905090565b6109006108d4565b61091c5760405162461bcd60e51b815260040161018b906120a5565b600160009054906101000a90046001600160a01b03166001600160a01b0316638da5cb5b6040518163ffffffff1660e01b815260040160206040518083038186803b15801561096a57600080fd5b505afa15801561097e573d6000803e3d6000fd5b505050506040513d601f19601f820116820180604052506109a29190810190611c8c565b6001600160a01b0316306001600160a01b0316146109d25760405162461bcd60e51b815260040161018b90612095565b6000856001600160a01b03166382c630666040518163ffffffff1660e01b815260040160206040518083038186803b158015610a0d57600080fd5b505afa158015610a21573d6000803e3d6000fd5b505050506040513d601f19601f82011682018060405250610a459190810190611c8c565b90506001600160a01b038116610a6d5760405162461bcd60e51b815260040161018b906120b5565b600154604051631342463960e31b81526001600160a01b0390911690639a1231c890610a9f908a908a906004016120c5565b602060405180830381600087803b158015610ab957600080fd5b505af1158015610acd573d6000803e3d6000fd5b505050506040513d601f19601f82011682018060405250610af19190810190611caa565b5060015485518351604051633348f63b60e01b81526001600160a01b0390931692633348f63b92610b26928692600401612033565b602060405180830381600087803b158015610b4057600080fd5b505af1158015610b54573d6000803e3d6000fd5b505050506040513d601f19601f82011682018060405250610b789190810190611caa565b5060015460208087015190840151604051633348f63b60e01b81526001600160a01b0390931692633348f63b92610bb3928692600401612033565b602060405180830381600087803b158015610bcd57600080fd5b505af1158015610be1573d6000803e3d6000fd5b505050506040513d601f19601f82011682018060405250610c059190810190611caa565b50600154604080870151848201519151633348f63b60e01b81526001600160a01b0390931692633348f63b92610c42928692909190600401612033565b602060405180830381600087803b158015610c5c57600080fd5b505af1158015610c70573d6000803e3d6000fd5b505050506040513d601f19601f82011682018060405250610c949190810190611caa565b5060015460608087015190840151604051633348f63b60e01b81526001600160a01b0390931692633348f63b92610ccf928692600401612033565b602060405180830381600087803b158015610ce957600080fd5b505af1158015610cfd573d6000803e3d6000fd5b505050506040513d601f19601f82011682018060405250610d219190810190611caa565b50600154845186518551604051633348f63b60e01b81526001600160a01b0390941693633348f63b93610d5a9390929091600401612033565b602060405180830381600087803b158015610d7457600080fd5b505af1158015610d88573d6000803e3d6000fd5b505050506040513d601f19601f82011682018060405250610dac9190810190611caa565b50600154855185518551604051633c480bcb60e11b81526001600160a01b0390941693637890179693610de8938d9391929091906004016120e7565b602060405180830381600087803b158015610e0257600080fd5b505af1158015610e16573d6000803e3d6000fd5b505050506040513d601f19601f82011682018060405250610e3a9190810190611caa565b506001546020808601518782015191860151604051633348f63b60e01b81526001600160a01b0390941693633348f63b93610e7a93929091600401612033565b602060405180830381600087803b158015610e9457600080fd5b505af1158015610ea8573d6000803e3d6000fd5b505050506040513d601f19601f82011682018060405250610ecc9190810190611caa565b506001546020808701518682015191860151604051633c480bcb60e11b81526001600160a01b0390941693637890179693610f0d938d9390926004016120e7565b602060405180830381600087803b158015610f2757600080fd5b505af1158015610f3b573d6000803e3d6000fd5b505050506040513d601f19601f82011682018060405250610f5f9190810190611caa565b5060015460408086015187820151868301519251633348f63b60e01b81526001600160a01b0390941693633348f63b93610f9d939291600401612033565b602060405180830381600087803b158015610fb757600080fd5b505af1158015610fcb573d6000803e3d6000fd5b505050506040513d601f19601f82011682018060405250610fef9190810190611caa565b5060015460408087015186820151868301519251633c480bcb60e11b81526001600160a01b0390941693637890179693611032938d9390929091906004016120e7565b602060405180830381600087803b15801561104c57600080fd5b505af1158015611060573d6000803e3d6000fd5b505050506040513d601f19601f820116820180604052506110849190810190611caa565b506001546060808601518782015191860151604051633348f63b60e01b81526001600160a01b0390941693633348f63b936110c493929091600401612033565b602060405180830381600087803b1580156110de57600080fd5b505af11580156110f2573d6000803e3d6000fd5b505050506040513d601f19601f820116820180604052506111169190810190611caa565b506001546001600160a01b031663789017968887600360200201518760036020020151876003610854565b6111496108d4565b6111655760405162461bcd60e51b815260040161018b906120a5565b600160009054906101000a90046001600160a01b03166001600160a01b0316638da5cb5b6040518163ffffffff1660e01b815260040160206040518083038186803b1580156111b357600080fd5b505afa1580156111c7573d6000803e3d6000fd5b505050506040513d601f19601f820116820180604052506111eb9190810190611c8c565b6001600160a01b0316306001600160a01b03161461121b5760405162461bcd60e51b815260040161018b90612095565b6000856001600160a01b03166382c630666040518163ffffffff1660e01b815260040160206040518083038186803b15801561125657600080fd5b505afa15801561126a573d6000803e3d6000fd5b505050506040513d601f19601f8201168201806040525061128e9190810190611c8c565b90506001600160a01b0381166112b65760405162461bcd60e51b815260040161018b906120b5565b600154604051631342463960e31b81526001600160a01b0390911690639a1231c8906112e8908a908a906004016120c5565b602060405180830381600087803b15801561130257600080fd5b505af1158015611316573d6000803e3d6000fd5b505050506040513d601f19601f8201168201806040525061133a9190810190611caa565b5060015485518351604051633348f63b60e01b81526001600160a01b0390931692633348f63b9261136f928692600401612033565b602060405180830381600087803b15801561138957600080fd5b505af115801561139d573d6000803e3d6000fd5b505050506040513d601f19601f820116820180604052506113c19190810190611caa565b5060015460208087015190840151604051633348f63b60e01b81526001600160a01b0390931692633348f63b926113fc928692600401612033565b602060405180830381600087803b15801561141657600080fd5b505af115801561142a573d6000803e3d6000fd5b505050506040513d601f19601f8201168201806040525061144e9190810190611caa565b50600154604080870151848201519151633348f63b60e01b81526001600160a01b0390931692633348f63b9261148b928692909190600401612033565b602060405180830381600087803b1580156114a557600080fd5b505af11580156114b9573d6000803e3d6000fd5b505050506040513d601f19601f820116820180604052506114dd9190810190611caa565b50600154845186518551604051633348f63b60e01b81526001600160a01b0390941693633348f63b936115169390929091600401612033565b602060405180830381600087803b15801561153057600080fd5b505af1158015611544573d6000803e3d6000fd5b505050506040513d601f19601f820116820180604052506115689190810190611caa565b50600154855185518551604051633c480bcb60e11b81526001600160a01b03909416936378901796936115a4938d9391929091906004016120e7565b602060405180830381600087803b1580156115be57600080fd5b505af11580156115d2573d6000803e3d6000fd5b505050506040513d601f19601f820116820180604052506115f69190810190611caa565b506001546020808601518782015191860151604051633348f63b60e01b81526001600160a01b0390941693633348f63b9361163693929091600401612033565b602060405180830381600087803b15801561165057600080fd5b505af1158015611664573d6000803e3d6000fd5b505050506040513d601f19601f820116820180604052506116889190810190611caa565b506001546020808701518682015191860151604051633c480bcb60e11b81526001600160a01b03909416936378901796936116c9938d9390926004016120e7565b602060405180830381600087803b1580156116e357600080fd5b505af11580156116f7573d6000803e3d6000fd5b505050506040513d601f19601f8201168201806040525061171b9190810190611caa565b5060015460408086015187820151868301519251633348f63b60e01b81526001600160a01b0390941693633348f63b93611759939291600401612033565b602060405180830381600087803b15801561177357600080fd5b505af1158015611787573d6000803e3d6000fd5b505050506040513d601f19601f820116820180604052506117ab9190810190611caa565b506001546001600160a01b031663789017968887600260200201518760026020020151876002610854565b6001546001600160a01b031681565b6117ed6108d4565b6118095760405162461bcd60e51b815260040161018b906120a5565b61181281611819565b50565b3390565b6001600160a01b03811661183f5760405162461bcd60e51b815260040161018b90612085565b600080546040516001600160a01b03808516939216917f8be0079c531659141344cd1fd0a4f28419497f9722a3daafe3b4186f6b6457e091a3600080546001600160a01b0319166001600160a01b0392909216919091179055565b80356118a58161221f565b92915050565b80516118a58161221f565b600082601f8301126118c757600080fd5b60026118da6118d582612152565b61212b565b915081838560208402820111156118f057600080fd5b60005b8381101561191c5781611906888261189a565b84525060209283019291909101906001016118f3565b5050505092915050565b600082601f83011261193757600080fd5b60036119456118d582612152565b9150818385602084028201111561195b57600080fd5b60005b8381101561191c5781611971888261189a565b845250602092830192919091019060010161195e565b600082601f83011261199857600080fd5b60046119a66118d582612152565b915081838560208402820111156119bc57600080fd5b60005b8381101561191c57816119d2888261189a565b84525060209283019291909101906001016119bf565b600082601f8301126119f957600080fd5b6002611a076118d582612152565b9150818360005b8381101561191c5781358601611a248882611c0c565b8452506020928301929190910190600101611a0e565b600082601f830112611a4b57600080fd5b6003611a596118d582612152565b9150818360005b8381101561191c5781358601611a768882611c0c565b8452506020928301929190910190600101611a60565b600082601f830112611a9d57600080fd5b6004611aab6118d582612152565b9150818360005b8381101561191c5781358601611ac88882611c0c565b8452506020928301929190910190600101611ab2565b600082601f830112611aef57600080fd5b6002611afd6118d582612152565b91508183856020840282011115611b1357600080fd5b60005b8381101561191c5781611b298882611c5b565b8452506020928301929190910190600101611b16565b600082601f830112611b5057600080fd5b6003611b5e6118d582612152565b91508183856020840282011115611b7457600080fd5b60005b8381101561191c5781611b8a8882611c5b565b8452506020928301929190910190600101611b77565b600082601f830112611bb157600080fd5b6004611bbf6118d582612152565b91508183856020840282011115611bd557600080fd5b60005b8381101561191c5781611beb8882611c5b565b8452506020928301929190910190600101611bd8565b80516118a581612233565b600082601f830112611c1d57600080fd5b8135611c2b6118d582612170565b91508082526020830160208301858383011115611c4757600080fd5b611c528382846121d9565b50505092915050565b80356118a58161223c565b600060208284031215611c7857600080fd5b6000611c84848461189a565b949350505050565b600060208284031215611c9e57600080fd5b6000611c8484846118ab565b600060208284031215611cbc57600080fd5b6000611c848484611c01565b6000806000806000806101008789031215611ce257600080fd5b6000611cee8989611c5b565b9650506020611cff89828a0161189a565b9550506040611d1089828a01611ade565b9450506080611d2189828a016118b6565b93505060c087013567ffffffffffffffff811115611d3e57600080fd5b611d4a89828a016119e8565b92505060e087013567ffffffffffffffff811115611d6757600080fd5b611d7389828a016119e8565b9150509295509295509295565b6000806000806000806101408789031215611d9a57600080fd5b6000611da68989611c5b565b9650506020611db789828a0161189a565b9550506040611dc889828a01611b3f565b94505060a0611dd989828a01611926565b93505061010087013567ffffffffffffffff811115611df757600080fd5b611e0389828a01611a3a565b92505061012087013567ffffffffffffffff811115611e2157600080fd5b611d7389828a01611a3a565b6000806000806000806101808789031215611e4757600080fd5b6000611e538989611c5b565b9650506020611e6489828a0161189a565b9550506040611e7589828a01611ba0565b94505060c0611e8689828a01611987565b93505061014087013567ffffffffffffffff811115611ea457600080fd5b611eb089828a01611a8c565b92505061016087013567ffffffffffffffff811115611ece57600080fd5b611d7389828a01611a8c565b611ee3816121a5565b82525050565b611ee3816121b0565b6000611efd82612198565b611f07818561219c565b9350611f178185602086016121e5565b611f2081612215565b9093019392505050565b611ee3816121ce565b6000611f4060268361219c565b7f4f776e61626c653a206e6577206f776e657220697320746865207a65726f206181526564647265737360d01b602082015260400192915050565b6000611f8860138361219c565b723737ba1029bbb0b8283937bc3c9037bbb732b960691b815260200192915050565b6000611fb760208361219c565b7f4f776e61626c653a2063616c6c6572206973206e6f7420746865206f776e6572815260200192915050565b6000611ff0601f8361219c565b7f676976656e20706f6f6c41646472657373206973206e6f74206120706f6f6c00815260200192915050565b611ee3816121c1565b602081016118a58284611eda565b606081016120418286611eda565b61204e602083018561201c565b81810360408301526120608184611ef2565b95945050505050565b602081016118a58284611ee9565b602081016118a58284611f2a565b602080825281016118a581611f33565b602080825281016118a581611f7b565b602080825281016118a581611faa565b602080825281016118a581611fe3565b604081016120d3828561201c565b6120e06020830184611eda565b9392505050565b608081016120f5828761201c565b612102602083018661201c565b61210f6040830185611eda565b81810360608301526121218184611ef2565b9695505050505050565b60405181810167ffffffffffffffff8111828210171561214a57600080fd5b604052919050565b600067ffffffffffffffff82111561216957600080fd5b5060200290565b600067ffffffffffffffff82111561218757600080fd5b506020601f91909101601f19160190565b5190565b90815260200190565b60006118a5826121b5565b151590565b6001600160a01b031690565b67ffffffffffffffff1690565b60006118a5826121a5565b82818337506000910152565b60005b838110156122005781810151838201526020016121e8565b8381111561220f576000848401525b50505050565b601f01601f191690565b612228816121a5565b811461181257600080fd5b612228816121b0565b612228816121c156fea365627a7a72315820e7dbbe82ce9751b810ce5d92726792ce25bc632f276b96d66a63f2d9a5b02f376c6578706572696d656e74616cf564736f6c63430005110040",
    "linkReferences": {}
  },
  "methodIdentifiers": {
    "isOwner()": "8f32d59b",
    "owner()": "8da5cb5b",
    "renounceOwnership()": "715018a6",
    "set2Pool(uint64,address,uint64[2],address[2],bytes[2],bytes[2])": "8ec6f968",
    "set3Pool(uint64,address,uint64[3],address[3],bytes[3],bytes[3])": "9bb39b25",
    "set4Pool(uint64,address,uint64[4],address[4],bytes[4],bytes[4])": "912f8aef",
    "setSwapProxyAddr(address)": "7868e3d1",
    "sp()": "e1dadf3b",
    "transferOwnership(address)": "f2fde38b",
    "transferSwapProxyOwner(address)": "6934a936"
  },
  "id": 29
}