{
  "abi": [
    {
      "anonymous": false,
      "inputs": [
        {
          "indexed": true,
          "internalType": "address",
          "name": "previousOwner",
          "type": "address"
        },
        {
          "indexed": true,
          "internalType": "address",
          "name": "newOwner",
          "type": "address"
        }
      ],
      "name": "OwnershipTransferred",
      "type": "event"
    },
    {
      "constant": true,
      "inputs": [
        {
          "internalType": "address",
          "name": "",
          "type": "address"
        },
        {
          "internalType": "uint64",
          "name": "",
          "type": "uint64"
        }
      ],
      "name": "assetHashMap",
      "outputs": [
        {
          "internalType": "bytes",
          "name": "",
          "type": "bytes"
        }
      ],
      "payable": false,
      "stateMutability": "view",
      "type": "function"
    },
    {
      "constant": true,
      "inputs": [
        {
          "internalType": "uint64",
          "name": "",
          "type": "uint64"
        },
        {
          "internalType": "uint64",
          "name": "",
          "type": "uint64"
        },
        {
          "internalType": "bytes",
          "name": "",
          "type": "bytes"
        }
      ],
      "name": "assetPoolMap",
      "outputs": [
        {
          "internalType": "address",
          "name": "",
          "type": "address"
        }
      ],
      "payable": false,
      "stateMutability": "view",
      "type": "function"
    },
    {
      "constant": false,
      "inputs": [
        {
          "internalType": "address",
          "name": "fromAssetHash",
          "type": "address"
        },
        {
          "internalType": "uint64",
          "name": "toChainId",
          "type": "uint64"
        },
        {
          "internalType": "bytes",
          "name": "toAssetHash",
          "type": "bytes"
        }
      ],
      "name": "bindAssetHash",
      "outputs": [
        {
          "internalType": "bool",
          "name": "",
          "type": "bool"
        }
      ],
      "payable": false,
      "stateMutability": "nonpayable",
      "type": "function"
    },
    {
      "constant": false,
      "inputs": [
        {
          "internalType": "uint64",
          "name": "poolId",
          "type": "uint64"
        },
        {
          "internalType": "address",
          "name": "poolAddress",
          "type": "address"
        }
      ],
      "name": "bindPoolAddress",
      "outputs": [
        {
          "internalType": "bool",
          "name": "",
          "type": "bool"
        }
      ],
      "payable": false,
      "stateMutability": "nonpayable",
      "type": "function"
    },
    {
      "constant": false,
      "inputs": [
        {
          "internalType": "uint64",
          "name": "poolId",
          "type": "uint64"
        },
        {
          "internalType": "uint64",
          "name": "chainId",
          "type": "uint64"
        },
        {
          "internalType": "address",
          "name": "assetAddress",
          "type": "address"
        },
        {
          "internalType": "bytes",
          "name": "rawAssetHash",
          "type": "bytes"
        }
      ],
      "name": "bindPoolAssetAddress",
      "outputs": [
        {
          "internalType": "bool",
          "name": "",
          "type": "bool"
        }
      ],
      "payable": false,
      "stateMutability": "nonpayable",
      "type": "function"
    },
    {
      "constant": false,
      "inputs": [
        {
          "internalType": "uint64",
          "name": "toChainId",
          "type": "uint64"
        },
        {
          "internalType": "bytes",
          "name": "targetProxyHash",
          "type": "bytes"
        }
      ],
      "name": "bindProxyHash",
      "outputs": [
        {
          "internalType": "bool",
          "name": "",
          "type": "bool"
        }
      ],
      "payable": false,
      "stateMutability": "nonpayable",
      "type": "function"
    },
    {
      "constant": false,
      "inputs": [
        {
          "internalType": "uint64",
          "name": "toChainId",
          "type": "uint64"
        },
        {
          "internalType": "bytes",
          "name": "targetSwapperHash",
          "type": "bytes"
        }
      ],
      "name": "bindSwapperHash",
      "outputs": [
        {
          "internalType": "bool",
          "name": "",
          "type": "bool"
        }
      ],
      "payable": false,
      "stateMutability": "nonpayable",
      "type": "function"
    },
    {
      "constant": true,
      "inputs": [],
      "name": "isOwner",
      "outputs": [
        {
          "internalType": "bool",
          "name": "",
          "type": "bool"
        }
      ],
      "payable": false,
      "stateMutability": "view",
      "type": "function"
    },
    {
      "constant": true,
      "inputs": [],
      "name": "managerProxyContract",
      "outputs": [
        {
          "internalType": "address",
          "name": "",
          "type": "address"
        }
      ],
      "payable": false,
      "stateMutability": "view",
      "type": "function"
    },
    {
      "constant": true,
      "inputs": [],
      "name": "owner",
      "outputs": [
        {
          "internalType": "address",
          "name": "",
          "type": "address"
        }
      ],
      "payable": false,
      "stateMutability": "view",
      "type": "function"
    },
    {
      "constant": true,
      "inputs": [
        {
          "internalType": "uint64",
          "name": "",
          "type": "uint64"
        }
      ],
      "name": "poolAddressMap",
      "outputs": [
        {
          "internalType": "address",
          "name": "",
          "type": "address"
        }
      ],
      "payable": false,
      "stateMutability": "view",
      "type": "function"
    },
    {
      "constant": true,
      "inputs": [
        {
          "internalType": "uint64",
          "name": "",
          "type": "uint64"
        }
      ],
      "name": "proxyHashMap",
      "outputs": [
        {
          "internalType": "bytes",
          "name": "",
          "type": "bytes"
        }
      ],
      "payable": false,
      "stateMutability": "view",
      "type": "function"
    },
    {
      "constant": false,
      "inputs": [],
      "name": "renounceOwnership",
      "outputs": [],
      "payable": false,
      "stateMutability": "nonpayable",
      "type": "function"
    },
    {
      "constant": false,
      "inputs": [
        {
          "internalType": "address",
          "name": "ethCCMProxyAddr",
          "type": "address"
        }
      ],
      "name": "setManagerProxy",
      "outputs": [],
      "payable": false,
      "stateMutability": "nonpayable",
      "type": "function"
    },
    {
      "constant": true,
      "inputs": [
        {
          "internalType": "uint64",
          "name": "",
          "type": "uint64"
        }
      ],
      "name": "swapperHashMap",
      "outputs": [
        {
          "internalType": "bytes",
          "name": "",
          "type": "bytes"
        }
      ],
      "payable": false,
      "stateMutability": "view",
      "type": "function"
    },
    {
      "constant": false,
      "inputs": [
        {
          "internalType": "address",
          "name": "newOwner",
          "type": "address"
        }
      ],
      "name": "transferOwnership",
      "outputs": [],
      "payable": false,
      "stateMutability": "nonpayable",
      "type": "function"
    }
  ],
  "bytecode": {
    "object": "0x608060405260006100176001600160e01b0361006616565b600080546001600160a01b0319166001600160a01b0383169081178255604051929350917f8be0079c531659141344cd1fd0a4f28419497f9722a3daafe3b4186f6b6457e0908290a35061006a565b3390565b610ea8806100796000396000f3fe608060405234801561001057600080fd5b50600436106101005760003560e01c80639866947411610097578063af9980f011610066578063af9980f0146101fa578063d798f8811461020d578063db3e29f114610215578063f2fde38b1461022857610100565b806398669474146101ae5780639a1231c8146101c15780639ad24ba5146101d45780639e5767aa146101e757610100565b806378901796116100d3578063789017961461016b57806385dbc8661461017e5780638da5cb5b1461019e5780638f32d59b146101a657610100565b80633348f63b14610105578063379b98f61461012e5780634f7d980814610141578063715018a614610161575b600080fd5b610118610113366004610a3a565b61023b565b6040516101259190610d29565b60405180910390f35b61011861013c366004610aed565b6102b0565b61015461014f366004610a00565b61030c565b6040516101259190610d37565b6101696103b0565b005b610118610179366004610b35565b61041e565b61019161018c366004610bae565b610509565b6040516101259190610d1b565b61019161054a565b61011861055a565b6101916101bc366004610a9f565b61057e565b6101186101cf366004610abd565b610599565b6101186101e2366004610aed565b6105fc565b6101546101f5366004610a9f565b61064c565b6101696102083660046109da565b6106b2565b6101916106f8565b610154610223366004610a9f565b610707565b6101696102363660046109da565b61076f565b600061024561055a565b61026a5760405162461bcd60e51b815260040161026190610d68565b60405180910390fd5b6001600160a01b038416600090815260066020908152604080832067ffffffffffffffff87168452825290912083516102a5928501906108d8565b506001949350505050565b60006102ba61055a565b6102d65760405162461bcd60e51b815260040161026190610d68565b67ffffffffffffffff831660009081526002602090815260409091208351610300928501906108d8565b50600190505b92915050565b60066020908152600092835260408084208252918352918190208054825160026001831615610100026000190190921691909104601f8101859004850282018501909352828152929091908301828280156103a85780601f1061037d576101008083540402835291602001916103a8565b820191906000526020600020905b81548152906001019060200180831161038b57829003601f168201915b505050505081565b6103b861055a565b6103d45760405162461bcd60e51b815260040161026190610d68565b600080546040516001600160a01b03909116907f8be0079c531659141344cd1fd0a4f28419497f9722a3daafe3b4186f6b6457e0908390a3600080546001600160a01b0319169055565b600061042861055a565b6104445760405162461bcd60e51b815260040161026190610d68565b6001600160a01b038316600090815260066020908152604080832067ffffffffffffffff88168452909152902061047b908361079f565b6104975760405162461bcd60e51b815260040161026190610d48565b67ffffffffffffffff8086166000908152600560209081526040808320938816835292905281902090518491906104cf908590610d08565b90815260405190819003602001902080546001600160a01b03929092166001600160a01b0319909216919091179055506001949350505050565b60056020908152600093845260408085208252928452919092208251808401830180519281529083019390920192909220919052546001600160a01b031681565b6000546001600160a01b03165b90565b600080546001600160a01b031661056f610853565b6001600160a01b031614905090565b6004602052600090815260409020546001600160a01b031681565b60006105a361055a565b6105bf5760405162461bcd60e51b815260040161026190610d68565b5067ffffffffffffffff8216600090815260046020526040902080546001600160a01b0383166001600160a01b0319909116179055600192915050565b600061060661055a565b6106225760405162461bcd60e51b815260040161026190610d68565b67ffffffffffffffff831660009081526003602090815260409091208351610300928501906108d8565b600260208181526000928352604092839020805484516001821615610100026000190190911693909304601f81018390048302840183019094528383529192908301828280156103a85780601f1061037d576101008083540402835291602001916103a8565b6106ba61055a565b6106d65760405162461bcd60e51b815260040161026190610d68565b600180546001600160a01b0319166001600160a01b0392909216919091179055565b6001546001600160a01b031681565b60036020908152600091825260409182902080548351601f6002600019610100600186161502019093169290920491820184900484028101840190945280845290918301828280156103a85780601f1061037d576101008083540402835291602001916103a8565b61077761055a565b6107935760405162461bcd60e51b815260040161026190610d68565b61079c81610857565b50565b600080600190508354600260018083161561010002038216048451808214600181146107ce5760009450610847565b821561084757602083106001811461082c57600189600052602060002060208a018581015b6002848284100114156108235781518354146108125760009950600093505b6001830192506020820191506107f3565b50505050610845565b6101008086040294506020880151851461084557600095505b505b50929695505050505050565b3390565b6001600160a01b03811661087d5760405162461bcd60e51b815260040161026190610d58565b600080546040516001600160a01b03808516939216917f8be0079c531659141344cd1fd0a4f28419497f9722a3daafe3b4186f6b6457e091a3600080546001600160a01b0319166001600160a01b0392909216919091179055565b828054600181600116156101000203166002900490600052602060002090601f016020900481019282601f1061091957805160ff1916838001178555610946565b82800160010185558215610946579182015b8281111561094657825182559160200191906001019061092b565b50610952929150610956565b5090565b61055791905b80821115610952576000815560010161095c565b803561030681610e48565b600082601f83011261098c57600080fd5b813561099f61099a82610d9f565b610d78565b915080825260208301602083018583830111156109bb57600080fd5b6109c6838284610e02565b50505092915050565b803561030681610e5c565b6000602082840312156109ec57600080fd5b60006109f88484610970565b949350505050565b60008060408385031215610a1357600080fd5b6000610a1f8585610970565b9250506020610a30858286016109cf565b9150509250929050565b600080600060608486031215610a4f57600080fd5b6000610a5b8686610970565b9350506020610a6c868287016109cf565b925050604084013567ffffffffffffffff811115610a8957600080fd5b610a958682870161097b565b9150509250925092565b600060208284031215610ab157600080fd5b60006109f884846109cf565b60008060408385031215610ad057600080fd5b6000610adc85856109cf565b9250506020610a3085828601610970565b60008060408385031215610b0057600080fd5b6000610b0c85856109cf565b925050602083013567ffffffffffffffff811115610b2957600080fd5b610a308582860161097b565b60008060008060808587031215610b4b57600080fd5b6000610b5787876109cf565b9450506020610b68878288016109cf565b9350506040610b7987828801610970565b925050606085013567ffffffffffffffff811115610b9657600080fd5b610ba28782880161097b565b91505092959194509250565b600080600060608486031215610bc357600080fd5b6000610a5b86866109cf565b610bd881610dd9565b82525050565b610bd881610de4565b6000610bf282610dc7565b610bfc8185610dd4565b9350610c0c818560208601610e0e565b9290920192915050565b6000610c2182610dc7565b610c2b8185610dcb565b9350610c3b818560208601610e0e565b610c4481610e3e565b9093019392505050565b6000610c5b601883610dcb565b7f696e76616c696420636861696e2d617373657420706169720000000000000000815260200192915050565b6000610c94602683610dcb565b7f4f776e61626c653a206e6577206f776e657220697320746865207a65726f206181526564647265737360d01b602082015260400192915050565b6000610cdc602083610dcb565b7f4f776e61626c653a2063616c6c6572206973206e6f7420746865206f776e6572815260200192915050565b6000610d148284610be7565b9392505050565b602081016103068284610bcf565b602081016103068284610bde565b60208082528101610d148184610c16565b6020808252810161030681610c4e565b6020808252810161030681610c87565b6020808252810161030681610ccf565b60405181810167ffffffffffffffff81118282101715610d9757600080fd5b604052919050565b600067ffffffffffffffff821115610db657600080fd5b506020601f91909101601f19160190565b5190565b90815260200190565b919050565b600061030682610de9565b151590565b6001600160a01b031690565b67ffffffffffffffff1690565b82818337506000910152565b60005b83811015610e29578181015183820152602001610e11565b83811115610e38576000848401525b50505050565b601f01601f191690565b610e5181610dd9565b811461079c57600080fd5b610e5181610df556fea365627a7a7231582068a7c05343d8df6daf9c2a32552dba438df5b0a1865f314ac49a7017d0302dc66c6578706572696d656e74616cf564736f6c63430005110040",
    "linkReferences": {}
  },
  "methodIdentifiers": {
    "assetHashMap(address,uint64)": "4f7d9808",
    "assetPoolMap(uint64,uint64,bytes)": "85dbc866",
    "bindAssetHash(address,uint64,bytes)": "3348f63b",
    "bindPoolAddress(uint64,address)": "9a1231c8",
    "bindPoolAssetAddress(uint64,uint64,address,bytes)": "78901796",
    "bindProxyHash(uint64,bytes)": "379b98f6",
    "bindSwapperHash(uint64,bytes)": "9ad24ba5",
    "isOwner()": "8f32d59b",
    "managerProxyContract()": "d798f881",
    "owner()": "8da5cb5b",
    "poolAddressMap(uint64)": "98669474",
    "proxyHashMap(uint64)": "9e5767aa",
    "renounceOwnership()": "715018a6",
    "setManagerProxy(address)": "af9980f0",
    "swapperHashMap(uint64)": "db3e29f1",
    "transferOwnership(address)": "f2fde38b"
  },
  "id": 29
}