{
  "abi": [
    {
      "constant": true,
      "inputs": [],
      "name": "whoAmI",
      "outputs": [
        {
          "internalType": "uint256",
          "name": "",
          "type": "uint256"
        }
      ],
      "payable": false,
      "stateMutability": "pure",
      "type": "function"
    }
  ],
  "bytecode": {
    "object": "0x6080604052348015600f57600080fd5b50607f8061001e6000396000f3fe6080604052348015600f57600080fd5b506004361060285760003560e01c8063da91254c14602d575b600080fd5b60336045565b60408051918252519081900360200190f35b60029056fea265627a7a723158200c77adf59c1f058dd0660c32ef1008ae726ee2188060d632597ff151804a1f5264736f6c63430005110032",
    "linkReferences": {}
  },
  "methodIdentifiers": {
    "whoAmI()": "da91254c"
  },
  "id": 58
}