{
  "abi": [
    {
      "anonymous": false,
      "inputs": [
        {
          "indexed": false,
          "internalType": "address",
          "name": "ccm",
          "type": "address"
        },
        {
          "indexed": false,
          "internalType": "bytes",
          "name": "args",
          "type": "bytes"
        },
        {
          "indexed": false,
          "internalType": "bytes",
          "name": "fromContract",
          "type": "bytes"
        },
        {
          "indexed": false,
          "internalType": "uint64",
          "name": "fromChainId",
          "type": "uint64"
        }
      ],
      "name": "Unlock",
      "type": "event"
    },
    {
      "constant": true,
      "inputs": [],
      "name": "ccm",
      "outputs": [
        {
          "internalType": "address",
          "name": "",
          "type": "address"
        }
      ],
      "payable": false,
      "stateMutability": "view",
      "type": "function"
    },
    {
      "constant": false,
      "inputs": [],
      "name": "fallback",
      "outputs": [],
      "payable": true,
      "stateMutability": "payable",
      "type": "function"
    },
    {
      "constant": false,
      "inputs": [
        {
          "internalType": "address",
          "name": "_ccm",
          "type": "address"
        }
      ],
      "name": "initialize",
      "outputs": [],
      "payable": false,
      "stateMutability": "nonpayable",
      "type": "function"
    },
    {
      "constant": false,
      "inputs": [
        {
          "internalType": "bytes",
          "name": "args",
          "type": "bytes"
        }
      ],
      "name": "lock",
      "outputs": [],
      "payable": false,
      "stateMutability": "nonpayable",
      "type": "function"
    },
    {
      "constant": false,
      "inputs": [
        {
          "internalType": "bytes",
          "name": "args",
          "type": "bytes"
        },
        {
          "internalType": "bytes",
          "name": "fromContract",
          "type": "bytes"
        },
        {
          "internalType": "uint64",
          "name": "fromChainId",
          "type": "uint64"
        }
      ],
      "name": "unlock",
      "outputs": [
        {
          "internalType": "bool",
          "name": "",
          "type": "bool"
        }
      ],
      "payable": false,
      "stateMutability": "nonpayable",
      "type": "function"
    },
    {
      "constant": true,
      "inputs": [],
      "name": "whoAmI",
      "outputs": [
        {
          "internalType": "uint256",
          "name": "",
          "type": "uint256"
        }
      ],
      "payable": false,
      "stateMutability": "pure",
      "type": "function"
    }
  ],
  "bytecode": {
    "object": "0x608060405234801561001057600080fd5b506107e7806100206000396000f3fe6080604052600436106100555760003560e01c806306af4b9f1461005a5780633a16e5cf146101b4578063552079dc146101e557806381548319146101ef578063c4d66de8146102a2578063da91254c146102d5575b600080fd5b34801561006657600080fd5b506101a06004803603606081101561007d57600080fd5b81019060208101813564010000000081111561009857600080fd5b8201836020820111156100aa57600080fd5b803590602001918460018302840111640100000000831117156100cc57600080fd5b91908080601f016020809104026020016040519081016040528093929190818152602001838380828437600092019190915250929594936020810193503591505064010000000081111561011f57600080fd5b82018360208201111561013157600080fd5b8035906020019184600183028401116401000000008311171561015357600080fd5b91908080601f0160208091040260200160405190810160405280939291908181526020018383808284376000920191909152509295505050903567ffffffffffffffff1691506102fc9050565b604080519115158252519081900360200190f35b3480156101c057600080fd5b506101c9610490565b604080516001600160a01b039092168252519081900360200190f35b6101ed61049f565b005b3480156101fb57600080fd5b506101ed6004803603602081101561021257600080fd5b81019060208101813564010000000081111561022d57600080fd5b82018360208201111561023f57600080fd5b8035906020019184600183028401116401000000008311171561026157600080fd5b91908080601f0160208091040260200160405190810160405280939291908181526020018383808284376000920191909152509295506104df945050505050565b3480156102ae57600080fd5b506101ed600480360360208110156102c557600080fd5b50356001600160a01b031661071c565b3480156102e157600080fd5b506102ea610792565b60408051918252519081900360200190f35b600080546001600160a01b03163314610354576040805162461bcd60e51b8152602060048201526015602482015274756e6c6f636b2063616c6c6572206e6f7420636d6d60581b604482015290519081900360640190fd5b7e85e92ac42b1aa15a289bd7b8c3312a46326b1a4d4ecffd038104913ca149d93385858560405180856001600160a01b03166001600160a01b0316815260200180602001806020018467ffffffffffffffff1667ffffffffffffffff168152602001838103835286818151815260200191508051906020019080838360005b838110156103eb5781810151838201526020016103d3565b50505050905090810190601f1680156104185780820380516001836020036101000a031916815260200191505b50838103825285518152855160209182019187019080838360005b8381101561044b578181015183820152602001610433565b50505050905090810190601f1680156104785780820380516001836020036101000a031916815260200191505b50965050505050505060405180910390a19392505050565b6000546001600160a01b031681565b6040805162461bcd60e51b815260206004820152601060248201526f3ab735b737bbb710333ab731ba34b7b760811b604482015290519081900360640190fd5b600080546001600160a01b031663bd5cf62560e01b60026104ff30610797565b85604051602401808460ff168152602001806020018060200180602001848103845286818151815260200191508051906020019080838360005b83811015610551578181015183820152602001610539565b50505050905090810190601f16801561057e5780820380516001836020036101000a031916815260200191505b508481038352600681526020018065756e6c6f636b60d01b815250602001848103825285818151815260200191508051906020019080838360005b838110156105d15781810151838201526020016105b9565b50505050905090810190601f1680156105fe5780820380516001836020036101000a031916815260200191505b509650505050505050604051602081830303815290604052906001600160e01b0319166020820180516001600160e01b0383818316178352505050506040518082805190602001908083835b602083106106695780518252601f19909201916020918201910161064a565b6001836020036101000a0380198251168184511680821785525050505050509050019150506000604051808303816000865af19150503d80600081146106cb576040519150601f19603f3d011682016040523d82523d6000602084013e6106d0565b606091505b5050905080610718576040805162461bcd60e51b815260206004820152600f60248201526e18d85b1b0818d8db4819985a5b1959608a1b604482015290519081900360640190fd5b5050565b6000546001600160a01b031615610770576040805162461bcd60e51b8152602060048201526013602482015272185b1c9958591e481a5b9a5d1a585b1a5e9959606a1b604482015290519081900360640190fd5b600080546001600160a01b0319166001600160a01b0392909216919091179055565b600190565b604080516014815260609290921b602083015281810190529056fea265627a7a72315820e2e24bfa04d01bd022dd175f1e2d41f9d0c1b541232a1275fd270f6d88d0cbb064736f6c63430005110032",
    "linkReferences": {}
  },
  "methodIdentifiers": {
    "ccm()": "3a16e5cf",
    "fallback()": "552079dc",
    "initialize(address)": "c4d66de8",
    "lock(bytes)": "81548319",
    "unlock(bytes,bytes,uint64)": "06af4b9f",
    "whoAmI()": "da91254c"
  },
  "id": 58
}