{
  "abi": [
    {
      "anonymous": false,
      "inputs": [
        {
          "indexed": false,
          "internalType": "uint256",
          "name": "height",
          "type": "uint256"
        },
        {
          "indexed": false,
          "internalType": "bytes",
          "name": "rawHeader",
          "type": "bytes"
        },
        {
          "indexed": false,
          "internalType": "address[]",
          "name": "oldValidators",
          "type": "address[]"
        },
        {
          "indexed": false,
          "internalType": "address[]",
          "name": "newValidators",
          "type": "address[]"
        }
      ],
      "name": "ChangeEpochEvent",
      "type": "event"
    },
    {
      "anonymous": false,
      "inputs": [
        {
          "indexed": true,
          "internalType": "address",
          "name": "sender",
          "type": "address"
        },
        {
          "indexed": false,
          "internalType": "bytes",
          "name": "txId",
          "type": "bytes"
        },
        {
          "indexed": false,
          "internalType": "address",
          "name": "proxyOrAssetContract",
          "type": "address"
        },
        {
          "indexed": false,
          "internalType": "uint64",
          "name": "toChainId",
          "type": "uint64"
        },
        {
          "indexed": false,
          "internalType": "bytes",
          "name": "toContract",
          "type": "bytes"
        },
        {
          "indexed": false,
          "internalType": "bytes",
          "name": "rawdata",
          "type": "bytes"
        }
      ],
      "name": "CrossChainEvent",
      "type": "event"
    },
    {
      "anonymous": false,
      "inputs": [
        {
          "indexed": false,
          "internalType": "uint256",
          "name": "height",
          "type": "uint256"
        },
        {
          "indexed": false,
          "internalType": "bytes",
          "name": "rawHeader",
          "type": "bytes"
        }
      ],
      "name": "InitGenesisBlockEvent",
      "type": "event"
    },
    {
      "anonymous": false,
      "inputs": [
        {
          "indexed": false,
          "internalType": "uint64",
          "name": "fromChainID",
          "type": "uint64"
        },
        {
          "indexed": false,
          "internalType": "bytes",
          "name": "toContract",
          "type": "bytes"
        },
        {
          "indexed": false,
          "internalType": "bytes",
          "name": "crossChainTxHash",
          "type": "bytes"
        },
        {
          "indexed": false,
          "internalType": "bytes",
          "name": "fromChainTxHash",
          "type": "bytes"
        }
      ],
      "name": "VerifyHeaderAndExecuteTxEvent",
      "type": "event"
    },
    {
      "constant": false,
      "inputs": [
        {
          "internalType": "bytes",
          "name": "rawHeader",
          "type": "bytes"
        },
        {
          "internalType": "bytes",
          "name": "rawSeals",
          "type": "bytes"
        }
      ],
      "name": "changeEpoch",
      "outputs": [
        {
          "internalType": "bool",
          "name": "",
          "type": "bool"
        }
      ],
      "payable": false,
      "stateMutability": "nonpayable",
      "type": "function"
    },
    {
      "constant": false,
      "inputs": [
        {
          "internalType": "uint64",
          "name": "toChainId",
          "type": "uint64"
        },
        {
          "internalType": "bytes",
          "name": "toContract",
          "type": "bytes"
        },
        {
          "internalType": "bytes",
          "name": "method",
          "type": "bytes"
        },
        {
          "internalType": "bytes",
          "name": "txData",
          "type": "bytes"
        }
      ],
      "name": "crossChain",
      "outputs": [
        {
          "internalType": "bool",
          "name": "",
          "type": "bool"
        }
      ],
      "payable": false,
      "stateMutability": "nonpayable",
      "type": "function"
    },
    {
      "constant": false,
      "inputs": [],
      "name": "fallback",
      "outputs": [],
      "payable": true,
      "stateMutability": "payable",
      "type": "function"
    },
    {
      "constant": true,
      "inputs": [],
      "name": "getEthCrossChainCallerFactoryAddress",
      "outputs": [
        {
          "internalType": "address",
          "name": "",
          "type": "address"
        }
      ],
      "payable": false,
      "stateMutability": "pure",
      "type": "function"
    },
    {
      "constant": true,
      "inputs": [],
      "name": "getEthCrossChainDataAddress",
      "outputs": [
        {
          "internalType": "address",
          "name": "",
          "type": "address"
        }
      ],
      "payable": false,
      "stateMutability": "pure",
      "type": "function"
    },
    {
      "constant": true,
      "inputs": [],
      "name": "getEthCrossChainManager",
      "outputs": [
        {
          "internalType": "address",
          "name": "",
          "type": "address"
        }
      ],
      "payable": false,
      "stateMutability": "view",
      "type": "function"
    },
    {
      "constant": true,
      "inputs": [],
      "name": "getZionChainId",
      "outputs": [
        {
          "internalType": "uint256",
          "name": "",
          "type": "uint256"
        }
      ],
      "payable": false,
      "stateMutability": "pure",
      "type": "function"
    },
    {
      "constant": false,
      "inputs": [
        {
          "internalType": "bytes",
          "name": "rawHeader",
          "type": "bytes"
        }
      ],
      "name": "initGenesisBlock",
      "outputs": [
        {
          "internalType": "bool",
          "name": "",
          "type": "bool"
        }
      ],
      "payable": false,
      "stateMutability": "nonpayable",
      "type": "function"
    },
    {
      "constant": false,
      "inputs": [
        {
          "internalType": "bytes",
          "name": "rawHeader",
          "type": "bytes"
        },
        {
          "internalType": "bytes",
          "name": "rawSeals",
          "type": "bytes"
        },
        {
          "internalType": "bytes",
          "name": "accountProof",
          "type": "bytes"
        },
        {
          "internalType": "bytes",
          "name": "storageProof",
          "type": "bytes"
        },
        {
          "internalType": "bytes",
          "name": "rawCrossTx",
          "type": "bytes"
        }
      ],
      "name": "verifyHeaderAndExecuteTx",
      "outputs": [
        {
          "internalType": "bool",
          "name": "",
          "type": "bool"
        }
      ],
      "payable": false,
      "stateMutability": "nonpayable",
      "type": "function"
    }
  ],
  "bytecode": {
    "object": "0x608060405234801561001057600080fd5b50614225806100206000396000f3fe6080604052600436106100865760003560e01c8063711ccc1311610059578063711ccc13146101a057806387939a7f146101c7578063bd5cf625146101dc578063d450e04c14610307578063e15d450d146105cc57610086565b80631786794b1461008b5780632de23f6b146100bc5780633cc22d01146100d1578063552079dc14610196575b600080fd5b34801561009757600080fd5b506100a0610702565b604080516001600160a01b039092168252519081900360200190f35b3480156100c857600080fd5b506100a061071a565b3480156100dd57600080fd5b50610182600480360360208110156100f457600080fd5b810190602081018135600160201b81111561010e57600080fd5b82018360208201111561012057600080fd5b803590602001918460018302840111600160201b8311171561014157600080fd5b91908080601f016020809104026020016040519081016040528093929190818152602001838380828437600092019190915250929550610732945050505050565b604080519115158252519081900360200190f35b61019e610c5b565b005b3480156101ac57600080fd5b506101b5610c9f565b60408051918252519081900360200190f35b3480156101d357600080fd5b506100a0610ca4565b3480156101e857600080fd5b50610182600480360360808110156101ff57600080fd5b6001600160401b038235169190810190604081016020820135600160201b81111561022957600080fd5b82018360208201111561023b57600080fd5b803590602001918460018302840111600160201b8311171561025c57600080fd5b919390929091602081019035600160201b81111561027957600080fd5b82018360208201111561028b57600080fd5b803590602001918460018302840111600160201b831117156102ac57600080fd5b919390929091602081019035600160201b8111156102c957600080fd5b8201836020820111156102db57600080fd5b803590602001918460018302840111600160201b831117156102fc57600080fd5b509092509050610ca8565b34801561031357600080fd5b50610182600480360360a081101561032a57600080fd5b810190602081018135600160201b81111561034457600080fd5b82018360208201111561035657600080fd5b803590602001918460018302840111600160201b8311171561037757600080fd5b91908080601f0160208091040260200160405190810160405280939291908181526020018383808284376000920191909152509295949360208101935035915050600160201b8111156103c957600080fd5b8201836020820111156103db57600080fd5b803590602001918460018302840111600160201b831117156103fc57600080fd5b91908080601f0160208091040260200160405190810160405280939291908181526020018383808284376000920191909152509295949360208101935035915050600160201b81111561044e57600080fd5b82018360208201111561046057600080fd5b803590602001918460018302840111600160201b8311171561048157600080fd5b91908080601f0160208091040260200160405190810160405280939291908181526020018383808284376000920191909152509295949360208101935035915050600160201b8111156104d357600080fd5b8201836020820111156104e557600080fd5b803590602001918460018302840111600160201b8311171561050657600080fd5b91908080601f0160208091040260200160405190810160405280939291908181526020018383808284376000920191909152509295949360208101935035915050600160201b81111561055857600080fd5b82018360208201111561056a57600080fd5b803590602001918460018302840111600160201b8311171561058b57600080fd5b91908080601f016020809104026020016040519081016040528093929190818152602001838380828437600092019190915250929550611304945050505050565b3480156105d857600080fd5b50610182600480360360408110156105ef57600080fd5b810190602081018135600160201b81111561060957600080fd5b82018360208201111561061b57600080fd5b803590602001918460018302840111600160201b8311171561063c57600080fd5b91908080601f0160208091040260200160405190810160405280939291908181526020018383808284376000920191909152509295949360208101935035915050600160201b81111561068e57600080fd5b8201836020820111156106a057600080fd5b803590602001918460018302840111600160201b831117156106c157600080fd5b91908080601f016020809104026020016040519081016040528093929190818152602001838380828437600092019190915250929550611b23945050505050565b73ded94feafaaca7064ce45ff875695f5ad3dec3e890565b73d2bfdba1ab74f287c856df3a550ff6067a302a7890565b600061073c613d39565b610745836121b7565b9050600073d2bfdba1ab74f287c856df3a550ff6067a302a789050806001600160a01b031663cd62908f6040518163ffffffff1660e01b815260040160006040518083038186803b15801561079957600080fd5b505afa1580156107ad573d6000803e3d6000fd5b505050506040513d6000823e601f3d908101601f1916820160405260208110156107d657600080fd5b8101908080516040519392919084600160201b8211156107f557600080fd5b90830190602082018581111561080a57600080fd5b8251600160201b81118282018810171561082357600080fd5b82525081516020918201929091019080838360005b83811015610850578181015183820152602001610838565b50505050905090810190601f16801561087d5780820380516001836020036101000a031916815260200191505b50604052505050516000146108c35760405162461bcd60e51b81526004018080602001828103825260388152602001806141076038913960400191505060405180910390fd5b600060606108d08661220d565b915091508051600014156109155760405162461bcd60e51b8152600401808060200182810382526031815260200180613dbe6031913960400191505060405180910390fd5b6040805163353b9cb160e11b81526001600160401b038416600482015290516001600160a01b03851691636a7739629160248083019260209291908290030181600087803b15801561096657600080fd5b505af115801561097a573d6000803e3d6000fd5b505050506040513d602081101561099057600080fd5b50516109cd5760405162461bcd60e51b815260040180806020018281038252603b815260200180613f5f603b913960400191505060405180910390fd5b826001600160a01b031663512feecc85602001516001016040518263ffffffff1660e01b815260040180826001600160401b03166001600160401b03168152602001915050602060405180830381600087803b158015610a2c57600080fd5b505af1158015610a40573d6000803e3d6000fd5b505050506040513d6020811015610a5657600080fd5b5051610a935760405162461bcd60e51b815260040180806020018281038252603d815260200180613e3e603d913960400191505060405180910390fd5b826001600160a01b0316631dc544bf610aab83612399565b6040518263ffffffff1660e01b81526004018080602001828103825283818151815260200191508051906020019080838360005b83811015610af7578181015183820152602001610adf565b50505050905090810190601f168015610b245780820380516001836020036101000a031916815260200191505b5092505050602060405180830381600087803b158015610b4357600080fd5b505af1158015610b57573d6000803e3d6000fd5b505050506040513d6020811015610b6d57600080fd5b5051610baa5760405162461bcd60e51b815260040180806020018281038252603b815260200180613e7b603b913960400191505060405180910390fd5b7ff01968fc3a2655cf1b5144cb32de6dc898f91b9239c103744e8457152ab2fbde8460200151876040518083815260200180602001828103825283818151815260200191508051906020019080838360005b83811015610c14578181015183820152602001610bfc565b50505050905090810190601f168015610c415780820380516001836020036101000a031916815260200191505b50935050505060405180910390a150600195945050505050565b6040805162461bcd60e51b81526020600482015260146024820152732ab739bab83837b93a32b210333ab731ba34b7b760611b604482015290519081900360640190fd5b604f90565b3090565b6040805163fc91a89760e01b8152336004820152905160009173ded94feafaaca7064ce45ff875695f5ad3dec3e89163fc91a89791602480820192602092909190829003018186803b158015610cfd57600080fd5b505afa158015610d11573d6000803e3d6000fd5b505050506040513d6020811015610d2757600080fd5b5051610d645760405162461bcd60e51b815260040180806020018281038252602a815260200180613eee602a913960400191505060405180910390fd5b600073d2bfdba1ab74f287c856df3a550ff6067a302a786001600160a01b031663ff3d24a16040518163ffffffff1660e01b815260040160206040518083038186803b158015610db357600080fd5b505afa158015610dc7573d6000803e3d6000fd5b505050506040513d6020811015610ddd57600080fd5b505190506060610dec82612400565b905060606002308360405160200180836001600160a01b03166001600160a01b031660601b815260140182805190602001908083835b60208310610e415780518252601f199092019160209182019101610e22565b6001836020036101000a038019825116818451168082178552505050505050905001925050506040516020818303038152906040526040518082805190602001908083835b60208310610ea55780518252601f199092019160209182019101610e86565b51815160209384036101000a60001901801990921691161790526040519190930194509192505080830381855afa158015610ee4573d6000803e3d6000fd5b5050506040513d6020811015610ef957600080fd5b505160408051602081810193909352815180820390930183528101905290506060610fef8383610f2833612479565b8f8f8f8080601f016020809104026020016040519081016040528093929190818152602001838380828437600081840152601f19601f820116905080830192505050505050508e8e8080601f016020809104026020016040519081016040528093929190818152602001838380828437600081840152601f19601f820116905080830192505050505050508d8d8080601f01602080910402602001604051908101604052809392919081815260200183838082843760009201919091525061249492505050565b905073d2bfdba1ab74f287c856df3a550ff6067a302a786001600160a01b0316634c3ccf6482805190602001206040518263ffffffff1660e01b815260040180828152602001915050602060405180830381600087803b15801561105257600080fd5b505af1158015611066573d6000803e3d6000fd5b505050506040513d602081101561107c57600080fd5b50516110b95760405162461bcd60e51b81526004018080602001828103825260308152602001806141616030913960400191505060405180910390fd5b326001600160a01b03167f6ad3bf15c1988bc04bc153490cab16db8efb9a3990215bf1c64ea6e28be8848384338f8f8f876040518080602001876001600160a01b03166001600160a01b03168152602001866001600160401b03166001600160401b03168152602001806020018060200184810384528a818151815260200191508051906020019080838360005b8381101561115f578181015183820152602001611147565b50505050905090810190601f16801561118c5780820380516001836020036101000a031916815260200191505b5084810383528681526020018787808284376000838201819052601f909101601f191690920186810384528751815287516020918201939189019250908190849084905b838110156111e85781810151838201526020016111d0565b50505050905090810190601f1680156112155780820380516001836020036101000a031916815260200191505b50995050505050505050505060405180910390a26040516301520d3760e01b815260206004820181815283516024840152835173a8a1c2e2739725a14072b0bb1c6fab0b36c15952936301520d379386939283926044019185019080838360005b8381101561128e578181015183820152602001611276565b50505050905090810190601f1680156112bb5780820380516001836020036101000a031916815260200191505b5092505050600060405180830381600087803b1580156112da57600080fd5b505af11580156112ee573d6000803e3d6000fd5b5060019f9e505050505050505050505050505050565b600061130e613d39565b611317876121b7565b9050611321613d53565b61132a84612742565b9050600073d2bfdba1ab74f287c856df3a550ff6067a302a7890506060611473826001600160a01b031663cd62908f6040518163ffffffff1660e01b815260040160006040518083038186803b15801561138357600080fd5b505afa158015611397573d6000803e3d6000fd5b505050506040513d6000823e601f3d908101601f1916820160405260208110156113c057600080fd5b8101908080516040519392919084600160201b8211156113df57600080fd5b9083019060208201858111156113f457600080fd5b8251600160201b81118282018810171561140d57600080fd5b82525081516020918201929091019080838360005b8381101561143a578181015183820152602001611422565b50505050905090810190601f1680156114675780820380516001836020036101000a031916815260200191505b506040525050506127ab565b9050816001600160a01b0316635ac407906040518163ffffffff1660e01b815260040160206040518083038186803b1580156114ae57600080fd5b505afa1580156114c2573d6000803e3d6000fd5b505050506040513d60208110156114d857600080fd5b505160208501516001600160401b0390911611156115275760405162461bcd60e51b8152600401808060200182810382526030815260200180613f9a6030913960400191505060405180910390fd5b816001600160a01b0316635ac407906040518163ffffffff1660e01b815260040160206040518083038186803b15801561156057600080fd5b505afa158015611574573d6000803e3d6000fd5b505050506040513d602081101561158a57600080fd5b505160208501516001600160401b0390911611156115e6576040805162461bcd60e51b8152602060048201526014602482015273125b9d985b1a5908189b1bd8dac81a195a59da1d60621b604482015290519081900360640190fd5b6115f88a805190602001208a83612853565b611640576040805162461bcd60e51b815260206004820152601460248201527315995c9a599e481a195859195c8819985a5b195960621b604482015290519081900360640190fd5b606061164b8461297c565b9050606061167a8a876000015160405180604001604052806014815260200161100360601b8152508c86612a36565b9050878051906020012061168d82612ac9565b146116d5576040805162461bcd60e51b815260206004820152601360248201527215995c9a599e481c1c9bdbd98819985a5b1959606a1b604482015290519081900360640190fd5b836001600160a01b0316630586763c86602001516116f68860000151612ac9565b6040518363ffffffff1660e01b815260040180836001600160401b03166001600160401b031681526020018281526020019250505060206040518083038186803b15801561174357600080fd5b505afa158015611757573d6000803e3d6000fd5b505050506040513d602081101561176d57600080fd5b5051156117ab5760405162461bcd60e51b815260040180806020018281038252602281526020018061413f6022913960400191505060405180910390fd5b836001600160a01b031663e90bfdcf86602001516117cc8860000151612ac9565b6040518363ffffffff1660e01b815260040180836001600160401b03166001600160401b0316815260200182815260200192505050602060405180830381600087803b15801561181b57600080fd5b505af115801561182f573d6000803e3d6000fd5b505050506040513d602081101561184557600080fd5b5051611898576040805162461bcd60e51b815260206004820181905260248201527f536176652063726f7373636861696e207478206578697374206661696c656421604482015290519081900360640190fd5b604f8560400151606001516001600160401b0316146118e85760405162461bcd60e51b8152600401808060200182810382526026815260200180613f186026913960400191505060405180910390fd5b60006118fb866040015160800151612b29565b905061192681876040015160a00151886040015160c001518960400151604001518a60200151612b73565b611977576040805162461bcd60e51b815260206004820152601d60248201527f457865637574652043726f7373436861696e205478206661696c656421000000604482015290519081900360640190fd5b7f8a4a2663ce60ce4955c595da2894de0415240f1ace024cfbff85f513b656bdae8660200151876040015160800151886000015189604001516000015160405180856001600160401b03166001600160401b03168152602001806020018060200180602001848103845287818151815260200191508051906020019080838360005b83811015611a115781810151838201526020016119f9565b50505050905090810190601f168015611a3e5780820380516001836020036101000a031916815260200191505b50848103835286518152865160209182019188019080838360005b83811015611a71578181015183820152602001611a59565b50505050905090810190601f168015611a9e5780820380516001836020036101000a031916815260200191505b50848103825285518152855160209182019187019080838360005b83811015611ad1578181015183820152602001611ab9565b50505050905090810190601f168015611afe5780820380516001836020036101000a031916815260200191505b5097505050505050505060405180910390a15060019c9b505050505050505050505050565b6000611b2d613d39565b611b36846121b7565b9050600073d2bfdba1ab74f287c856df3a550ff6067a302a789050806001600160a01b0316635ac407906040518163ffffffff1660e01b815260040160206040518083038186803b158015611b8a57600080fd5b505afa158015611b9e573d6000803e3d6000fd5b505050506040513d6020811015611bb457600080fd5b505160208301516001600160401b039091161115611c035760405162461bcd60e51b815260040180806020018281038252603b815260200180614044603b913960400191505060405180910390fd5b6060816001600160a01b031663cd62908f6040518163ffffffff1660e01b815260040160006040518083038186803b158015611c3e57600080fd5b505afa158015611c52573d6000803e3d6000fd5b505050506040513d6000823e601f3d908101601f191682016040526020811015611c7b57600080fd5b8101908080516040519392919084600160201b821115611c9a57600080fd5b908301906020820185811115611caf57600080fd5b8251600160201b811182820188101715611cc857600080fd5b82525081516020918201929091019080838360005b83811015611cf5578181015183820152602001611cdd565b50505050905090810190601f168015611d225780820380516001836020036101000a031916815260200191505b5060405250505090506060611d36826127ab565b905060006060611d458961220d565b91509150805160001415611d8a5760405162461bcd60e51b8152600401808060200182810382526031815260200180613dbe6031913960400191505060405180910390fd5b611d9c89805190602001208985612853565b611de4576040805162461bcd60e51b815260206004820152601460248201527315995c9a599e481a195859195c8819985a5b195960621b604482015290519081900360640190fd5b6040805163353b9cb160e11b81526001600160401b038416600482015290516001600160a01b03871691636a7739629160248083019260209291908290030181600087803b158015611e3557600080fd5b505af1158015611e49573d6000803e3d6000fd5b505050506040513d6020811015611e5f57600080fd5b5051611e9c5760405162461bcd60e51b815260040180806020018281038252603b815260200180613f5f603b913960400191505060405180910390fd5b846001600160a01b031663512feecc87602001516001016040518263ffffffff1660e01b815260040180826001600160401b03166001600160401b03168152602001915050602060405180830381600087803b158015611efb57600080fd5b505af1158015611f0f573d6000803e3d6000fd5b505050506040513d6020811015611f2557600080fd5b5051611f625760405162461bcd60e51b81526004018080602001828103825260348152602001806141916034913960400191505060405180910390fd5b846001600160a01b0316631dc544bf611f7a83612399565b6040518263ffffffff1660e01b81526004018080602001828103825283818151815260200191508051906020019080838360005b83811015611fc6578181015183820152602001611fae565b50505050905090810190601f168015611ff35780820380516001836020036101000a031916815260200191505b5092505050602060405180830381600087803b15801561201257600080fd5b505af1158015612026573d6000803e3d6000fd5b505050506040513d602081101561203c57600080fd5b50516120795760405162461bcd60e51b8152600401808060200182810382526038815260200180613eb66038913960400191505060405180910390fd5b7f353f5ab7dd2715c6a221c2e7ff95ca17e68d962ffd1bb9b97b8f283d3659896386602001518a858460405180858152602001806020018060200180602001848103845287818151815260200191508051906020019080838360005b838110156120ed5781810151838201526020016120d5565b50505050905090810190601f16801561211a5780820380516001836020036101000a031916815260200191505b508481038352865181528651602091820191808901910280838360005b8381101561214f578181015183820152602001612137565b50505050905001848103825285818151815260200191508051906020019060200280838360005b8381101561218e578181015183820152602001612176565b5050505090500197505050505050505060405180910390a1600196505050505050505b92915050565b6121bf613d39565b6000806121cd846020613044565b9150506121dd84826057016130e3565b5083526121ee846101bd8301613044565b90925090506121ff84838301613131565b506020840152509092915050565b6000606060008061221f856020613044565b91505061223085826101bd01613044565b909250905061224185838301613044565b909250905061225285838301613044565b909250905061226385838301613044565b909250905061227485838301613044565b909250905061228585838301613044565b90925090506122978560208301613044565b90925090506122a68582613044565b90925090506122b585826131a8565b909450905060606122c8868484016130e3565b50805193509050601583061561230f5760405162461bcd60e51b8152600401808060200182810382526021815260200180613f3e6021913960400191505060405180910390fd5b6015830460405190808252806020026020018201604052801561233c578160200160208202803883390190505b50935060005b8360158202101561239057600061235f83601584026020016131fb565b5090508086838151811061236f57fe5b6001600160a01b039092166020928302919091019091015250600101612342565b50505050915091565b6060816040516020018080602001828103825283818151815260200191508051906020019060200280838360005b838110156123df5781810151838201526020016123c7565b50505050905001925050506040516020818303038152906040529050919050565b60606001600160ff1b0382111561245e576040805162461bcd60e51b815260206004820152601760248201527f56616c75652065786365656473207468652072616e6765000000000000000000604482015290519081900360640190fd5b60405190506020815281602082015260408101604052919050565b604080516014815260609290921b6020830152818101905290565b60608787878787878760405160200180806020018060200180602001886001600160401b03166001600160401b0316815260200180602001806020018060200187810387528e818151815260200191508051906020019080838360005b838110156125095781810151838201526020016124f1565b50505050905090810190601f1680156125365780820380516001836020036101000a031916815260200191505b5087810386528d5181528d516020918201918f019080838360005b83811015612569578181015183820152602001612551565b50505050905090810190601f1680156125965780820380516001836020036101000a031916815260200191505b5087810385528c5181528c516020918201918e019080838360005b838110156125c95781810151838201526020016125b1565b50505050905090810190601f1680156125f65780820380516001836020036101000a031916815260200191505b5087810384528a5181528a516020918201918c019080838360005b83811015612629578181015183820152602001612611565b50505050905090810190601f1680156126565780820380516001836020036101000a031916815260200191505b5087810383528951815289516020918201918b019080838360005b83811015612689578181015183820152602001612671565b50505050905090810190601f1680156126b65780820380516001836020036101000a031916815260200191505b5087810382528851815288516020918201918a019080838360005b838110156126e95781810151838201526020016126d1565b50505050905090810190601f1680156127165780820380516001836020036101000a031916815260200191505b509d50505050505050505050505050506040516020818303038152906040529050979650505050505050565b61274a613d53565b60206127568382613044565b91506060905061276684836130e3565b908452915061277584836131a8565b6001600160401b039091166020850152915061279184836130e3565b9250905061279e8161324e565b6040840152509092915050565b60608180602001905160208110156127c257600080fd5b8101908080516040519392919084600160201b8211156127e157600080fd5b9083019060208201858111156127f657600080fd5b82518660208202830111600160201b8211171561281257600080fd5b82525081516020918201928201910280838360005b8381101561283f578181015183820152602001612827565b505050509050016040525050509050919050565b60006020606061286385836132e9565b50805190955060009061287d90604363ffffffff61330d16565b90506060816040519080825280602002602001820160405280156128ab578160200160208202803883390190505b50905060005b82811015612963576128c388866132e9565b6040805160208082018e905282518083038201815291830190925280519101209096509094506128f3908561334f565b8282815181106128ff57fe5b60200260200101906001600160a01b031690816001600160a01b03168152505060006001600160a01b031682828151811061293657fe5b60200260200101516001600160a01b0316141561295b57600095505050505050612975565b6001016128b1565b5061296e86826133f4565b9450505050505b9392505050565b60606121b1667265717565737460c81b61299d846040015160600151613520565b84516040516001600160c81b0319841660208083019182526001600160c01b03198516602784015283519192602f0191908401908083835b602083106129f45780518252601f1990920191602091820191016129d5565b6001836020036101000a038019825116818451168082178552505050505050905001935050505060405160208183030381529060405280519060200120613595565b82516020808501918220909152835260608381612a548883896135ad565b9050612a618160206132e9565b5090506000612a718260206132e9565b915050612a7e82826132e9565b915060609050612a8e83836132e9565b50865160208089019182209091528752905085612aac8882846135ad565b9550612ab98660206132e9565b509b9a5050505050505050505050565b60008151602014612b21576040805162461bcd60e51b815260206004820152601760248201527f6279746573206c656e677468206973206e6f742033322e000000000000000000604482015290519081900360640190fd5b506020015190565b60008151601414612b6b5760405162461bcd60e51b8152600401808060200182810382526023815260200180613def6023913960400191505060405180910390fd5b506014015190565b6040805163fc91a89760e01b81526001600160a01b0387166004820152905160009173ded94feafaaca7064ce45ff875695f5ad3dec3e89163fc91a89791602480820192602092909190829003018186803b158015612bd157600080fd5b505afa158015612be5573d6000803e3d6000fd5b505050506040513d6020811015612bfb57600080fd5b5051612c385760405162461bcd60e51b815260040180806020018281038252602e815260200180614016602e913960400191505060405180910390fd5b6001600160a01b03861673d2bfdba1ab74f287c856df3a550ff6067a302a781415612caa576040805162461bcd60e51b815260206004820152601760248201527f446f6e27742074727920746f2063616c6c206563636421000000000000000000604482015290519081900360640190fd5b60006060876001600160a01b0316876040516020018082805190602001908083835b60208310612ceb5780518252601f199092019160209182019101612ccc565b51815160001960209485036101000a01908116901991909116179052732862797465732c62797465732c75696e7436342960601b9390910192835260408051600b19818603018152601485019091528051908201206001600160401b038b1660748501526060603485019081528d5160948601528d519196508d95508c948c945090928392605483019260b4019188019080838360005b83811015612d9a578181015183820152602001612d82565b50505050905090810190601f168015612dc75780820380516001836020036101000a031916815260200191505b50838103825285518152855160209182019187019080838360005b83811015612dfa578181015183820152602001612de2565b50505050905090810190601f168015612e275780820380516001836020036101000a031916815260200191505b509550505050505060405160208183030381529060405260405160200180836001600160e01b0319166001600160e01b031916815260040182805190602001908083835b60208310612e8a5780518252601f199092019160209182019101612e6b565b6001836020036101000a038019825116818451168082178552505050505050905001925050506040516020818303038152906040526040518082805190602001908083835b60208310612eee5780518252601f199092019160209182019101612ecf565b6001836020036101000a0380198251168184511680821785525050505050509050019150506000604051808303816000865af19150503d8060008114612f50576040519150601f19603f3d011682016040523d82523d6000602084013e612f55565b606091505b509092509050600182151514612f9c5760405162461bcd60e51b815260040180806020018281038252602b815260200180613fca602b913960400191505060405180910390fd5b8051612fd95760405162461bcd60e51b815260040180806020018281038252602781526020018061407f6027913960400191505060405180910390fd5b6000818060200190516020811015612ff057600080fd5b505190506001811515146130355760405162461bcd60e51b81526004018080602001828103825260378152602001806140d06037913960400191505060405180910390fd5b50600198975050505050505050565b81810151600090819060f81c60808110156130665750600191508290506130dc565b60b781101561307f57607f1901915050600182016130dc565b60c08110156130a75784840160010151600860d7839003021c9250830160b5190190506130dc565b60f78110156130c05760bf1901915050600182016130dc565b848401600101516008610117839003021c9250830160f5190190505b9250929050565b60606000806130f28585613044565b8095508192505050838101915060405192506020601f82010460200260200180840160405281845281602085018387890160045afa5050509250929050565b60008060006131408585613044565b9450905060208111156131845760405162461bcd60e51b815260040180806020018281038252602c8152602001806141c5602c913960400191505060405180910390fd5b838101915080602003808503860151600882021b600882021c935050509250929050565b60008060006131b78585613044565b9450905060088111156131845760405162461bcd60e51b815260040180806020018281038252602a8152602001806140a6602a913960400191505060405180910390fd5b600080600061320a8585613044565b9450905060148111156131845760405162461bcd60e51b815260040180806020018281038252602c815260200180613e12602c913960400191505060405180910390fd5b613256613d77565b602061326283826130e3565b908352905061327183826130e3565b6020840191909152905061328583826130e3565b6040840191909152905061329983826131a8565b6001600160401b03909116606084015290506132b583826130e3565b608084019190915290506132c983826130e3565b60a084019190915290506132dd83826130e3565b5060c083015250919050565b60606000806132f88585613044565b958601601f1901818152969501949350505050565b600061297583836040518060400160405280601a81526020017f536166654d6174683a206469766973696f6e206279207a65726f0000000000008152506137cc565b60008151604114613362575060006121b1565b60008060006020850151925060408501519150606085015160001a601b01905060018682858560405160008152602001604052604051808581526020018460ff1660ff1681526020018381526020018281526020019450505050506020604051602081039080840390855afa1580156133df573d6000803e3d6000fd5b5050604051601f190151979650505050505050565b60008061342e600161342260036134166002895161386e90919063ffffffff16565b9063ffffffff61330d16565b9063ffffffff6138c716565b90506060845160405190808252806020026020018201604052801561345d578160200160208202803883390190505b5090506000805b85518110156135125760005b87518110156135095783818151811061348557fe5b60200260200101511580156134d157508781815181106134a157fe5b60200260200101516001600160a01b03168783815181106134be57fe5b60200260200101516001600160a01b0316145b1561350157828060010193505060018482815181106134ec57fe5b91151560209283029190910190910152613509565b600101613470565b50600101613464565b509190911015949350505050565b600060ff821660381b905061ff00821660281b8101905062ff0000821660181b8101905063ff000000821660081b8101905064ff00000000821660081c8101905065ff0000000000821660181c8101905066ff000000000000821660281c810190508160381c810190508060c01b9050919050565b60408051808201909152602080825281019190915290565b60606135b883613921565b92506135c58460206132e9565b5080519094508291506020905b8060200182101561377b5760606135ea878486613a19565b61363b576040805162461bcd60e51b815260206004820152601760248201527f70726f6f663a756e657175616c206e6f64652068617368000000000000000000604482015290519081900360640190fd5b61364587846132e9565b93509050600080613657836020613044565b9150915061366783838301613044565b84519193508301915060200181141561370857606060006136898560206132e9565b915091506000606061369a84613a82565b90506136a68c82613c21565b909c509150816136f1576040805162461bcd60e51b815260206004820152601160248201527070726f6f663a696e76616c6964206b657960781b604482015290519081900360640190fd5b6136fb87846132e9565b5099506137739350505050565b600088516000141561371c5750601161372b565b61372589613cc5565b90995090505b602060005b601181101561376f57808314156137535761374b86836132e9565b50985061376f565b61375d8683613044565b90955093508484019150600101613730565b5050505b5050506135d2565b8451156137c3576040805162461bcd60e51b815260206004820152601160248201527070726f6f663a696e76616c6964206b657960781b604482015290519081900360640190fd5b50509392505050565b600081836138585760405162461bcd60e51b81526004018080602001828103825283818151815260200191508051906020019080838360005b8381101561381d578181015183820152602001613805565b50505050905090810190601f16801561384a5780820380516001836020036101000a031916815260200191505b509250505060405180910390fd5b50600083858161386457fe5b0495945050505050565b60008261387d575060006121b1565b8282028284828161388a57fe5b04146129755760405162461bcd60e51b8152600401808060200182810382526021815260200180613ff56021913960400191505060405180910390fd5b600082820183811015612975576040805162461bcd60e51b815260206004820152601b60248201527f536166654d6174683a206164646974696f6e206f766572666c6f770000000000604482015290519081900360640190fd5b6060600082516002026001019050604051915060208183010160405280825260008090505b83518110156139e757600484828151811061395d57fe5b602001015160f81c60f81b6001600160f81b031916901c83826002028151811061398357fe5b60200101906001600160f81b031916908160001a9053508381815181106139a657fe5b01602001518351600f60f81b909116908490600160028502019081106139c857fe5b60200101906001600160f81b031916908160001a905350600101613946565b50601060f81b8260018303815181106139fc57fe5b60200101906001600160f81b031916908160001a90535050919050565b6000806000613a288686613044565b9150915084810382016020811060018114613a48578015613a6957613a77565b60208601518789015118826020036008021c15865183148116955050613a77565b602086015182888a01201494505b505050509392505050565b60606000600483600081518110613a9557fe5b602001015160f81c60f81b6001600160f81b031916901c9050600083519050600080600060028560f81c06905060028560f81c04915080826002808702030101925060405195506020838701016040528286528060011415613b315786600081518110613afe57fe5b01602001518651600f60f81b909116908790600090613b1957fe5b60200101906001600160f81b031916908160001a9053505b8160011415613b6657601060f81b866001850381518110613b4e57fe5b60200101906001600160f81b031916908160001a9053505b60005b60018503811015613c16576004888260010181518110613b8557fe5b602001015160f81c60f81b6001600160f81b031916901c8783836002020181518110613bad57fe5b60200101906001600160f81b031916908160001a905350878160010181518110613bd357fe5b01602001518751600f60f81b909116908890600284028501600101908110613bf757fe5b60200101906001600160f81b031916908160001a905350600101613b69565b505050505050919050565b60606000825184511015613c3a575082905060006130dc565b60006020845181613c4757fe5b6001935004905060005b81811015613c7957602081810286810182015190880190910151149290921691600101613c51565b5060208102602001600019855182036008021b8186015182880151181615831692505081613cae5784600092509250506130dc565b508251845181900390850152915190920192909150565b60606000825160001415613d20576040805162461bcd60e51b815260206004820152601860248201527f74616b654f6e65427974653a20656d70747920696e7075740000000000000000604482015290519081900360640190fd5b505060018101805191516000190181529160ff90911690565b604051806040016040528060608152602001600081525090565b6040805160608082018352815260006020820152908101613d72613d77565b905290565b6040518060e0016040528060608152602001606081526020016060815260200160006001600160401b03168152602001606081526020016060815260200160608152509056fe476976656e20626c6f636b2068656164657220646f6573206e6f7420636f6e7461696e20616e792076616c696461746f726279746573206c656e67746820646f6573206e6f74206d617463682061646472657373726c704765744e657874416464726573733a2064617461206c6f6e676572207468616e20323020627974657353617665205a696f6e2063757272656e742065706f63682073746172742068656967687420746f204461746120636f6e7472616374206661696c65642153617665205a696f6e2063757272656e742065706f63682076616c696461746f727320746f204461746120636f6e7472616374206661696c65642153617665205a696f6e206e6578742065706f63682076616c696461746f727320746f204461746120636f6e7472616374206661696c6564215468652063616c6c6572206973206368696c64206f66207468652063616c6c657220666163746f72792154686973205478206973206e6f742061696d696e672061742074686973206e6574776f726b21696e76616c6964206865616465722065787472612076616c696461746f7253657453617665205a696f6e2063757272656e742065706f636820656e642068656967687420746f204461746120636f6e7472616374206661696c656421496e76616c696420626c6f636b206865696768742c206265666f72652043757245706f6368537461727448656967687445746843726f7373436861696e2063616c6c20627573696e65737320636f6e7472616374206661696c6564536166654d6174683a206d756c7469706c69636174696f6e206f766572666c6f775468652070617373656420696e2061646472657373206973206e6f742066726f6d2074686520666163746f727921476976656e20626c6f636b20686569676874206973206c6f776572207468616e2063757272656e742065706f6368207374617274206865696768744e6f2072657475726e2076616c75652066726f6d20627573696e65737320636f6e747261637421726c704765744e65787455696e7436343a2064617461206c6f6e676572207468616e203820627974657345746843726f7373436861696e2063616c6c20627573696e65737320636f6e74726163742072657475726e206973206e6f74207472756545746843726f7373436861696e4461746120636f6e74726163742068617320616c7265616479206265656e20696e697469616c697a656421746865207472616e73616374696f6e20686173206265656e20657865637574656421536176652065746854784861736820627920696e64657820746f204461746120636f6e7472616374206661696c65642153617665205a696f6e206e6578742065706f63682068656967687420746f204461746120636f6e7472616374206661696c656421726c704765744e65787455696e743235363a2064617461206c6f6e676572207468616e203332206279746573a265627a7a723158207fa6b1441cc907e4e9ce3472c56818823bdc850f8b1c79b1329fcf33fd58a72d64736f6c63430005110032",
    "linkReferences": {}
  },
  "methodIdentifiers": {
    "changeEpoch(bytes,bytes)": "e15d450d",
    "crossChain(uint64,bytes,bytes,bytes)": "bd5cf625",
    "fallback()": "552079dc",
    "getEthCrossChainCallerFactoryAddress()": "1786794b",
    "getEthCrossChainDataAddress()": "2de23f6b",
    "getEthCrossChainManager()": "87939a7f",
    "getZionChainId()": "711ccc13",
    "initGenesisBlock(bytes)": "3cc22d01",
    "verifyHeaderAndExecuteTx(bytes,bytes,bytes,bytes,bytes)": "d450e04c"
  },
  "id": 22
}