{
  "abi": [
    {
      "constant": true,
      "inputs": [
        {
          "internalType": "uint256",
          "name": "a",
          "type": "uint256"
        },
        {
          "internalType": "uint256",
          "name": "b",
          "type": "uint256"
        }
      ],
      "name": "add",
      "outputs": [
        {
          "internalType": "uint256",
          "name": "",
          "type": "uint256"
        }
      ],
      "payable": false,
      "stateMutability": "pure",
      "type": "function"
    },
    {
      "constant": true,
      "inputs": [
        {
          "internalType": "uint256",
          "name": "a",
          "type": "uint256"
        },
        {
          "internalType": "uint256",
          "name": "b",
          "type": "uint256"
        }
      ],
      "name": "div",
      "outputs": [
        {
          "internalType": "uint256",
          "name": "",
          "type": "uint256"
        }
      ],
      "payable": false,
      "stateMutability": "pure",
      "type": "function"
    },
    {
      "constant": true,
      "inputs": [
        {
          "internalType": "uint256",
          "name": "a",
          "type": "uint256"
        },
        {
          "internalType": "uint256",
          "name": "b",
          "type": "uint256"
        }
      ],
      "name": "mod",
      "outputs": [
        {
          "internalType": "uint256",
          "name": "",
          "type": "uint256"
        }
      ],
      "payable": false,
      "stateMutability": "pure",
      "type": "function"
    },
    {
      "constant": true,
      "inputs": [
        {
          "internalType": "uint256",
          "name": "a",
          "type": "uint256"
        },
        {
          "internalType": "uint256",
          "name": "b",
          "type": "uint256"
        }
      ],
      "name": "mul",
      "outputs": [
        {
          "internalType": "uint256",
          "name": "",
          "type": "uint256"
        }
      ],
      "payable": false,
      "stateMutability": "pure",
      "type": "function"
    },
    {
      "constant": true,
      "inputs": [
        {
          "internalType": "uint256",
          "name": "a",
          "type": "uint256"
        },
        {
          "internalType": "uint256",
          "name": "b",
          "type": "uint256"
        }
      ],
      "name": "sub",
      "outputs": [
        {
          "internalType": "uint256",
          "name": "",
          "type": "uint256"
        }
      ],
      "payable": false,
      "stateMutability": "pure",
      "type": "function"
    }
  ],
  "bytecode": {
    "object": "0x608060405234801561001057600080fd5b5061048f806100206000396000f3fe608060405234801561001057600080fd5b50600436106100575760003560e01c8063771602f71461005c578063a391c15b14610091578063b67d77c5146100b4578063c8a4ac9c146100d7578063f43f523a146100fa575b600080fd5b61007f6004803603604081101561007257600080fd5b508035906020013561011d565b60408051918252519081900360200190f35b61007f600480360360408110156100a757600080fd5b5080359060200135610132565b61007f600480360360408110156100ca57600080fd5b508035906020013561013e565b61007f600480360360408110156100ed57600080fd5b508035906020013561014a565b61007f6004803603604081101561011057600080fd5b5080359060200135610156565b60006101298383610162565b90505b92915050565b600061012983836101bc565b600061012983836101fe565b60006101298383610240565b60006101298383610299565b600082820183811015610129576040805162461bcd60e51b815260206004820152601b60248201527f536166654d6174683a206164646974696f6e206f766572666c6f770000000000604482015290519081900360640190fd5b600061012983836040518060400160405280601a81526020017f536166654d6174683a206469766973696f6e206279207a65726f0000000000008152506102db565b600061012983836040518060400160405280601e81526020017f536166654d6174683a207375627472616374696f6e206f766572666c6f77000081525061037d565b60008261024f5750600061012c565b8282028284828161025c57fe5b04146101295760405162461bcd60e51b815260040180806020018281038252602181526020018061043a6021913960400191505060405180910390fd5b600061012983836040518060400160405280601881526020017f536166654d6174683a206d6f64756c6f206279207a65726f00000000000000008152506103d7565b600081836103675760405162461bcd60e51b81526004018080602001828103825283818151815260200191508051906020019080838360005b8381101561032c578181015183820152602001610314565b50505050905090810190601f1680156103595780820380516001836020036101000a031916815260200191505b509250505060405180910390fd5b50600083858161037357fe5b0495945050505050565b600081848411156103cf5760405162461bcd60e51b815260206004820181815283516024840152835190928392604490910191908501908083836000831561032c578181015183820152602001610314565b505050900390565b600081836104265760405162461bcd60e51b815260206004820181815283516024840152835190928392604490910191908501908083836000831561032c578181015183820152602001610314565b5082848161043057fe5b0694935050505056fe536166654d6174683a206d756c7469706c69636174696f6e206f766572666c6f77a265627a7a72315820dd5dd0dd2bdff5bff3a906d65a45746fcca5ae59ab558e19df623bf60317120b64736f6c63430005110032",
    "linkReferences": {}
  },
  "methodIdentifiers": {
    "add(uint256,uint256)": "771602f7",
    "div(uint256,uint256)": "a391c15b",
    "mod(uint256,uint256)": "f43f523a",
    "mul(uint256,uint256)": "c8a4ac9c",
    "sub(uint256,uint256)": "b67d77c5"
  },
  "id": 59
}