{
  "abi": [
    {
      "anonymous": false,
      "inputs": [
        {
          "indexed": true,
          "internalType": "address",
          "name": "previousOwner",
          "type": "address"
        },
        {
          "indexed": true,
          "internalType": "address",
          "name": "newOwner",
          "type": "address"
        }
      ],
      "name": "OwnershipTransferred",
      "type": "event"
    },
    {
      "anonymous": false,
      "inputs": [
        {
          "indexed": false,
          "internalType": "address",
          "name": "account",
          "type": "address"
        }
      ],
      "name": "Paused",
      "type": "event"
    },
    {
      "anonymous": false,
      "inputs": [
        {
          "indexed": false,
          "internalType": "address",
          "name": "account",
          "type": "address"
        }
      ],
      "name": "Unpaused",
      "type": "event"
    },
    {
      "constant": true,
      "inputs": [],
      "name": "CurEpochEndHeight",
      "outputs": [
        {
          "internalType": "uint64",
          "name": "",
          "type": "uint64"
        }
      ],
      "payable": false,
      "stateMutability": "view",
      "type": "function"
    },
    {
      "constant": true,
      "inputs": [],
      "name": "CurEpochId",
      "outputs": [
        {
          "internalType": "uint64",
          "name": "",
          "type": "uint64"
        }
      ],
      "payable": false,
      "stateMutability": "view",
      "type": "function"
    },
    {
      "constant": true,
      "inputs": [],
      "name": "CurEpochStartHeight",
      "outputs": [
        {
          "internalType": "uint64",
          "name": "",
          "type": "uint64"
        }
      ],
      "payable": false,
      "stateMutability": "view",
      "type": "function"
    },
    {
      "constant": true,
      "inputs": [],
      "name": "CurValidatorPkBytes",
      "outputs": [
        {
          "internalType": "bytes",
          "name": "",
          "type": "bytes"
        }
      ],
      "payable": false,
      "stateMutability": "view",
      "type": "function"
    },
    {
      "constant": true,
      "inputs": [],
      "name": "EthToPolyTxHashIndex",
      "outputs": [
        {
          "internalType": "uint256",
          "name": "",
          "type": "uint256"
        }
      ],
      "payable": false,
      "stateMutability": "view",
      "type": "function"
    },
    {
      "constant": true,
      "inputs": [
        {
          "internalType": "uint256",
          "name": "",
          "type": "uint256"
        }
      ],
      "name": "EthToPolyTxHashMap",
      "outputs": [
        {
          "internalType": "bytes32",
          "name": "",
          "type": "bytes32"
        }
      ],
      "payable": false,
      "stateMutability": "view",
      "type": "function"
    },
    {
      "constant": true,
      "inputs": [
        {
          "internalType": "bytes32",
          "name": "",
          "type": "bytes32"
        },
        {
          "internalType": "bytes32",
          "name": "",
          "type": "bytes32"
        }
      ],
      "name": "ExtraData",
      "outputs": [
        {
          "internalType": "bytes",
          "name": "",
          "type": "bytes"
        }
      ],
      "payable": false,
      "stateMutability": "view",
      "type": "function"
    },
    {
      "constant": true,
      "inputs": [
        {
          "internalType": "uint64",
          "name": "fromChainId",
          "type": "uint64"
        },
        {
          "internalType": "bytes32",
          "name": "fromChainTx",
          "type": "bytes32"
        }
      ],
      "name": "checkIfFromChainTxExist",
      "outputs": [
        {
          "internalType": "bool",
          "name": "",
          "type": "bool"
        }
      ],
      "payable": false,
      "stateMutability": "view",
      "type": "function"
    },
    {
      "constant": true,
      "inputs": [],
      "name": "getCurEpochEndHeight",
      "outputs": [
        {
          "internalType": "uint64",
          "name": "",
          "type": "uint64"
        }
      ],
      "payable": false,
      "stateMutability": "view",
      "type": "function"
    },
    {
      "constant": true,
      "inputs": [],
      "name": "getCurEpochId",
      "outputs": [
        {
          "internalType": "uint64",
          "name": "",
          "type": "uint64"
        }
      ],
      "payable": false,
      "stateMutability": "view",
      "type": "function"
    },
    {
      "constant": true,
      "inputs": [],
      "name": "getCurEpochStartHeight",
      "outputs": [
        {
          "internalType": "uint64",
          "name": "",
          "type": "uint64"
        }
      ],
      "payable": false,
      "stateMutability": "view",
      "type": "function"
    },
    {
      "constant": true,
      "inputs": [],
      "name": "getCurEpochValidatorPkBytes",
      "outputs": [
        {
          "internalType": "bytes",
          "name": "",
          "type": "bytes"
        }
      ],
      "payable": false,
      "stateMutability": "view",
      "type": "function"
    },
    {
      "constant": true,
      "inputs": [
        {
          "internalType": "uint256",
          "name": "ethTxHashIndex",
          "type": "uint256"
        }
      ],
      "name": "getEthTxHash",
      "outputs": [
        {
          "internalType": "bytes32",
          "name": "",
          "type": "bytes32"
        }
      ],
      "payable": false,
      "stateMutability": "view",
      "type": "function"
    },
    {
      "constant": true,
      "inputs": [],
      "name": "getEthTxHashIndex",
      "outputs": [
        {
          "internalType": "uint256",
          "name": "",
          "type": "uint256"
        }
      ],
      "payable": false,
      "stateMutability": "view",
      "type": "function"
    },
    {
      "constant": true,
      "inputs": [
        {
          "internalType": "bytes32",
          "name": "key1",
          "type": "bytes32"
        },
        {
          "internalType": "bytes32",
          "name": "key2",
          "type": "bytes32"
        }
      ],
      "name": "getExtraData",
      "outputs": [
        {
          "internalType": "bytes",
          "name": "",
          "type": "bytes"
        }
      ],
      "payable": false,
      "stateMutability": "view",
      "type": "function"
    },
    {
      "constant": true,
      "inputs": [],
      "name": "isOwner",
      "outputs": [
        {
          "internalType": "bool",
          "name": "",
          "type": "bool"
        }
      ],
      "payable": false,
      "stateMutability": "view",
      "type": "function"
    },
    {
      "constant": false,
      "inputs": [
        {
          "internalType": "uint64",
          "name": "fromChainId",
          "type": "uint64"
        },
        {
          "internalType": "bytes32",
          "name": "fromChainTx",
          "type": "bytes32"
        }
      ],
      "name": "markFromChainTxExist",
      "outputs": [
        {
          "internalType": "bool",
          "name": "",
          "type": "bool"
        }
      ],
      "payable": false,
      "stateMutability": "nonpayable",
      "type": "function"
    },
    {
      "constant": true,
      "inputs": [],
      "name": "owner",
      "outputs": [
        {
          "internalType": "address",
          "name": "",
          "type": "address"
        }
      ],
      "payable": false,
      "stateMutability": "view",
      "type": "function"
    },
    {
      "constant": false,
      "inputs": [],
      "name": "pause",
      "outputs": [
        {
          "internalType": "bool",
          "name": "",
          "type": "bool"
        }
      ],
      "payable": false,
      "stateMutability": "nonpayable",
      "type": "function"
    },
    {
      "constant": true,
      "inputs": [],
      "name": "paused",
      "outputs": [
        {
          "internalType": "bool",
          "name": "",
          "type": "bool"
        }
      ],
      "payable": false,
      "stateMutability": "view",
      "type": "function"
    },
    {
      "constant": false,
      "inputs": [
        {
          "internalType": "uint64",
          "name": "endHeight",
          "type": "uint64"
        }
      ],
      "name": "putCurEpochEndHeight",
      "outputs": [
        {
          "internalType": "bool",
          "name": "",
          "type": "bool"
        }
      ],
      "payable": false,
      "stateMutability": "nonpayable",
      "type": "function"
    },
    {
      "constant": false,
      "inputs": [
        {
          "internalType": "uint64",
          "name": "epochId",
          "type": "uint64"
        }
      ],
      "name": "putCurEpochId",
      "outputs": [
        {
          "internalType": "bool",
          "name": "",
          "type": "bool"
        }
      ],
      "payable": false,
      "stateMutability": "nonpayable",
      "type": "function"
    },
    {
      "constant": false,
      "inputs": [
        {
          "internalType": "uint64",
          "name": "startHeight",
          "type": "uint64"
        }
      ],
      "name": "putCurEpochStartHeight",
      "outputs": [
        {
          "internalType": "bool",
          "name": "",
          "type": "bool"
        }
      ],
      "payable": false,
      "stateMutability": "nonpayable",
      "type": "function"
    },
    {
      "constant": false,
      "inputs": [
        {
          "internalType": "bytes",
          "name": "curEpochPkBytes",
          "type": "bytes"
        }
      ],
      "name": "putCurEpochValidatorPkBytes",
      "outputs": [
        {
          "internalType": "bool",
          "name": "",
          "type": "bool"
        }
      ],
      "payable": false,
      "stateMutability": "nonpayable",
      "type": "function"
    },
    {
      "constant": false,
      "inputs": [
        {
          "internalType": "bytes32",
          "name": "ethTxHash",
          "type": "bytes32"
        }
      ],
      "name": "putEthTxHash",
      "outputs": [
        {
          "internalType": "bool",
          "name": "",
          "type": "bool"
        }
      ],
      "payable": false,
      "stateMutability": "nonpayable",
      "type": "function"
    },
    {
      "constant": false,
      "inputs": [
        {
          "internalType": "bytes32",
          "name": "key1",
          "type": "bytes32"
        },
        {
          "internalType": "bytes32",
          "name": "key2",
          "type": "bytes32"
        },
        {
          "internalType": "bytes",
          "name": "value",
          "type": "bytes"
        }
      ],
      "name": "putExtraData",
      "outputs": [
        {
          "internalType": "bool",
          "name": "",
          "type": "bool"
        }
      ],
      "payable": false,
      "stateMutability": "nonpayable",
      "type": "function"
    },
    {
      "constant": false,
      "inputs": [],
      "name": "renounceOwnership",
      "outputs": [],
      "payable": false,
      "stateMutability": "nonpayable",
      "type": "function"
    },
    {
      "constant": false,
      "inputs": [
        {
          "internalType": "address",
          "name": "newOwner",
          "type": "address"
        }
      ],
      "name": "transferOwnership",
      "outputs": [],
      "payable": false,
      "stateMutability": "nonpayable",
      "type": "function"
    },
    {
      "constant": false,
      "inputs": [],
      "name": "unpause",
      "outputs": [
        {
          "internalType": "bool",
          "name": "",
          "type": "bool"
        }
      ],
      "payable": false,
      "stateMutability": "nonpayable",
      "type": "function"
    }
  ],
  "bytecode": {
    "object": "0x608060405260006100176001600160e01b0361007316565b600080546001600160a01b0319166001600160a01b0383169081178255604051929350917f8be0079c531659141344cd1fd0a4f28419497f9722a3daafe3b4186f6b6457e0908290a3506000805460ff60a01b19169055610077565b3390565b6113e3806100866000396000f3fe608060405234801561001057600080fd5b50600436106101ce5760003560e01c80635c975abb116101045780638f32d59b116100a2578063f2fde38b11610071578063f2fde38b146105cf578063f881afd2146105f5578063fd4b67cf146105fd578063ff3d24a114610605576101ce565b80638f32d59b1461058b578063ab9844ab14610593578063cd62908f1461059b578063e90bfdcf146105a3576101ce565b8063715018a6116100de578063715018a61461052f578063738b5ae4146105395780638456cb591461055f5780638da5cb5b14610567576101ce565b80635c975abb146104f957806367e31a74146105015780636a77396214610509576101ce565b80633f4ba83a116101715780634e4af8ce1161014b5780634e4af8ce1461048a578063512feecc146104ae578063529caad8146104d45780635ac40790146104f1576101ce565b80633f4ba83a1461044257806340602bb51461044a5780634c3ccf641461046d576101ce565b80631afe374e116101ad5780631afe374e146102aa5780631dc544bf1461035c57806320bbde38146104025780632992787514610425576101ce565b8062c5fff8146101d35780630586763c146101ed57806306bfb1b61461022d575b600080fd5b6101db61060d565b60408051918252519081900360200190f35b6102196004803603604081101561020357600080fd5b506001600160401b038135169060200135610613565b604080519115158252519081900360200190f35b61023561063e565b6040805160208082528351818301528351919283929083019185019080838360005b8381101561026f578181015183820152602001610257565b50505050905090810190601f16801561029c5780820380516001836020036101000a031916815260200191505b509250505060405180910390f35b610219600480360360608110156102c057600080fd5b8135916020810135918101906060810160408201356401000000008111156102e757600080fd5b8201836020820111156102f957600080fd5b8035906020019184600183028401116401000000008311171561031b57600080fd5b91908080601f0160208091040260200160405190810160405280939291908181526020018383808284376000920191909152509295506106cc945050505050565b6102196004803603602081101561037257600080fd5b81019060208101813564010000000081111561038d57600080fd5b82018360208201111561039f57600080fd5b803590602001918460018302840111640100000000831117156103c157600080fd5b91908080601f016020809104026020016040519081016040528093929190818152602001838380828437600092019190915250929550610798945050505050565b6102356004803603604081101561041857600080fd5b508035906020013561084e565b6101db6004803603602081101561043b57600080fd5b50356108bf565b6102196108d1565b6102356004803603604081101561046057600080fd5b508035906020013561097e565b6102196004803603602081101561048357600080fd5b5035610a28565b610492610ae5565b604080516001600160401b039092168252519081900360200190f35b610219600480360360208110156104c457600080fd5b50356001600160401b0316610afb565b6101db600480360360208110156104ea57600080fd5b5035610bbb565b610492610bcd565b610219610bdc565b610492610bec565b6102196004803603602081101561051f57600080fd5b50356001600160401b0316610bfb565b610537610cc9565b005b6102196004803603602081101561054f57600080fd5b50356001600160401b0316610d5a565b610219610e23565b61056f610ec6565b604080516001600160a01b039092168252519081900360200190f35b610219610ed5565b610492610ef9565b610235610f0f565b610219600480360360408110156105b957600080fd5b506001600160401b038135169060200135610fa5565b610537600480360360208110156105e557600080fd5b50356001600160a01b0316611075565b6104926110c8565b6104926110de565b6101db6110f4565b60025481565b6001600160401b03919091166000908152600560209081526040808320938352929052205460ff1690565b6003805460408051602060026001851615610100026000190190941693909304601f810184900484028201840190925281815292918301828280156106c45780601f10610699576101008083540402835291602001916106c4565b820191906000526020600020905b8154815290600101906020018083116106a757829003601f168201915b505050505081565b60008054600160a01b900460ff161561071f576040805162461bcd60e51b815260206004820152601060248201526f14185d5cd8589b194e881c185d5cd95960821b604482015290519081900360640190fd5b610727610ed5565b610766576040805162461bcd60e51b8152602060048201819052602482015260008051602061138f833981519152604482015290519081900360640190fd5b60008481526006602090815260408083208684528252909120835161078d928501906112d0565b506001949350505050565b60008054600160a01b900460ff16156107eb576040805162461bcd60e51b815260206004820152601060248201526f14185d5cd8589b194e881c185d5cd95960821b604482015290519081900360640190fd5b6107f3610ed5565b610832576040805162461bcd60e51b8152602060048201819052602482015260008051602061138f833981519152604482015290519081900360640190fd5b81516108459060039060208501906112d0565b50600192915050565b60066020908152600092835260408084208252918352918190208054825160026001831615610100026000190190921691909104601f8101859004850282018501909352828152929091908301828280156106c45780601f10610699576101008083540402835291602001916106c4565b60009081526001602052604090205490565b60006108db610ed5565b61091a576040805162461bcd60e51b8152602060048201819052602482015260008051602061138f833981519152604482015290519081900360640190fd5b600054600160a01b900460ff1661096f576040805162461bcd60e51b815260206004820152601460248201527314185d5cd8589b194e881b9bdd081c185d5cd95960621b604482015290519081900360640190fd5b6109776110fa565b5060015b90565b600082815260066020908152604080832084845282529182902080548351601f6002600019610100600186161502019093169290920491820184900484028101840190945280845260609392830182828015610a1b5780601f106109f057610100808354040283529160200191610a1b565b820191906000526020600020905b8154815290600101906020018083116109fe57829003601f168201915b5050505050905092915050565b60008054600160a01b900460ff1615610a7b576040805162461bcd60e51b815260206004820152601060248201526f14185d5cd8589b194e881c185d5cd95960821b604482015290519081900360640190fd5b610a83610ed5565b610ac2576040805162461bcd60e51b8152602060048201819052602482015260008051602061138f833981519152604482015290519081900360640190fd5b506002805460009081526001602081905260409091209290925580548201905590565b600454600160401b90046001600160401b031690565b60008054600160a01b900460ff1615610b4e576040805162461bcd60e51b815260206004820152601060248201526f14185d5cd8589b194e881c185d5cd95960821b604482015290519081900360640190fd5b610b56610ed5565b610b95576040805162461bcd60e51b8152602060048201819052602482015260008051602061138f833981519152604482015290519081900360640190fd5b50600480546001600160401b03831667ffffffffffffffff199091161790556001919050565b60016020526000908152604090205481565b6004546001600160401b031690565b600054600160a01b900460ff1690565b6004546001600160401b031681565b60008054600160a01b900460ff1615610c4e576040805162461bcd60e51b815260206004820152601060248201526f14185d5cd8589b194e881c185d5cd95960821b604482015290519081900360640190fd5b610c56610ed5565b610c95576040805162461bcd60e51b8152602060048201819052602482015260008051602061138f833981519152604482015290519081900360640190fd5b50600480546001600160401b038316600160401b026fffffffffffffffff0000000000000000199091161790556001919050565b610cd1610ed5565b610d10576040805162461bcd60e51b8152602060048201819052602482015260008051602061138f833981519152604482015290519081900360640190fd5b600080546040516001600160a01b03909116907f8be0079c531659141344cd1fd0a4f28419497f9722a3daafe3b4186f6b6457e0908390a3600080546001600160a01b0319169055565b60008054600160a01b900460ff1615610dad576040805162461bcd60e51b815260206004820152601060248201526f14185d5cd8589b194e881c185d5cd95960821b604482015290519081900360640190fd5b610db5610ed5565b610df4576040805162461bcd60e51b8152602060048201819052602482015260008051602061138f833981519152604482015290519081900360640190fd5b50600480546001600160401b038316600160801b0267ffffffffffffffff60801b199091161790556001919050565b6000610e2d610ed5565b610e6c576040805162461bcd60e51b8152602060048201819052602482015260008051602061138f833981519152604482015290519081900360640190fd5b600054600160a01b900460ff1615610ebe576040805162461bcd60e51b815260206004820152601060248201526f14185d5cd8589b194e881c185d5cd95960821b604482015290519081900360640190fd5b6109776111a2565b6000546001600160a01b031690565b600080546001600160a01b0316610eea61122c565b6001600160a01b031614905090565b600454600160401b90046001600160401b031681565b60038054604080516020601f6002600019610100600188161502019095169490940493840181900481028201810190925282815260609390929091830182828015610f9b5780601f10610f7057610100808354040283529160200191610f9b565b820191906000526020600020905b815481529060010190602001808311610f7e57829003601f168201915b5050505050905090565b60008054600160a01b900460ff1615610ff8576040805162461bcd60e51b815260206004820152601060248201526f14185d5cd8589b194e881c185d5cd95960821b604482015290519081900360640190fd5b611000610ed5565b61103f576040805162461bcd60e51b8152602060048201819052602482015260008051602061138f833981519152604482015290519081900360640190fd5b506001600160401b0391909116600090815260056020908152604080832093835292905220805460ff1916600190811790915590565b61107d610ed5565b6110bc576040805162461bcd60e51b8152602060048201819052602482015260008051602061138f833981519152604482015290519081900360640190fd5b6110c581611230565b50565b600454600160801b90046001600160401b031690565b600454600160801b90046001600160401b031681565b60025490565b600054600160a01b900460ff1661114f576040805162461bcd60e51b815260206004820152601460248201527314185d5cd8589b194e881b9bdd081c185d5cd95960621b604482015290519081900360640190fd5b6000805460ff60a01b191690557f5db9ee0a495bf2e6ff9c91a7834c1ba4fdd244a5e8aa4e537bd38aeae4b073aa61118561122c565b604080516001600160a01b039092168252519081900360200190a1565b600054600160a01b900460ff16156111f4576040805162461bcd60e51b815260206004820152601060248201526f14185d5cd8589b194e881c185d5cd95960821b604482015290519081900360640190fd5b6000805460ff60a01b1916600160a01b1790557f62e78cea01bee320cd4e420270b5ea74000d11b0c9f74754ebdbfc544b05a2586111855b3390565b6001600160a01b0381166112755760405162461bcd60e51b81526004018080602001828103825260268152602001806113696026913960400191505060405180910390fd5b600080546040516001600160a01b03808516939216917f8be0079c531659141344cd1fd0a4f28419497f9722a3daafe3b4186f6b6457e091a3600080546001600160a01b0319166001600160a01b0392909216919091179055565b828054600181600116156101000203166002900490600052602060002090601f016020900481019282601f1061131157805160ff191683800117855561133e565b8280016001018555821561133e579182015b8281111561133e578251825591602001919060010190611323565b5061134a92915061134e565b5090565b61097b91905b8082111561134a576000815560010161135456fe4f776e61626c653a206e6577206f776e657220697320746865207a65726f20616464726573734f776e61626c653a2063616c6c6572206973206e6f7420746865206f776e6572a265627a7a723158206311c1a86deece0368a7a804e0a4a33e1e4f1bdb6cd5ad63ceb55bf8cb4fb6b164736f6c63430005110032",
    "linkReferences": {}
  },
  "methodIdentifiers": {
    "CurEpochEndHeight()": "ab9844ab",
    "CurEpochId()": "fd4b67cf",
    "CurEpochStartHeight()": "67e31a74",
    "CurValidatorPkBytes()": "06bfb1b6",
    "EthToPolyTxHashIndex()": "00c5fff8",
    "EthToPolyTxHashMap(uint256)": "529caad8",
    "ExtraData(bytes32,bytes32)": "20bbde38",
    "checkIfFromChainTxExist(uint64,bytes32)": "0586763c",
    "getCurEpochEndHeight()": "4e4af8ce",
    "getCurEpochId()": "f881afd2",
    "getCurEpochStartHeight()": "5ac40790",
    "getCurEpochValidatorPkBytes()": "cd62908f",
    "getEthTxHash(uint256)": "29927875",
    "getEthTxHashIndex()": "ff3d24a1",
    "getExtraData(bytes32,bytes32)": "40602bb5",
    "isOwner()": "8f32d59b",
    "markFromChainTxExist(uint64,bytes32)": "e90bfdcf",
    "owner()": "8da5cb5b",
    "pause()": "8456cb59",
    "paused()": "5c975abb",
    "putCurEpochEndHeight(uint64)": "6a773962",
    "putCurEpochId(uint64)": "738b5ae4",
    "putCurEpochStartHeight(uint64)": "512feecc",
    "putCurEpochValidatorPkBytes(bytes)": "1dc544bf",
    "putEthTxHash(bytes32)": "4c3ccf64",
    "putExtraData(bytes32,bytes32,bytes)": "1afe374e",
    "renounceOwnership()": "715018a6",
    "transferOwnership(address)": "f2fde38b",
    "unpause()": "3f4ba83a"
  },
  "id": 3
}