{
  "abi": [
    {
      "anonymous": false,
      "inputs": [
        {
          "indexed": false,
          "internalType": "uint64",
          "name": "toPoolId",
          "type": "uint64"
        },
        {
          "indexed": false,
          "internalType": "address",
          "name": "inAssetAddress",
          "type": "address"
        },
        {
          "indexed": false,
          "internalType": "uint256",
          "name": "inAmount",
          "type": "uint256"
        },
        {
          "indexed": false,
          "internalType": "address",
          "name": "poolTokenAddress",
          "type": "address"
        },
        {
          "indexed": false,
          "internalType": "uint256",
          "name": "outLPAmount",
          "type": "uint256"
        },
        {
          "indexed": false,
          "internalType": "uint64",
          "name": "toChainId",
          "type": "uint64"
        },
        {
          "indexed": false,
          "internalType": "bytes",
          "name": "toAssetHash",
          "type": "bytes"
        },
        {
          "indexed": false,
          "internalType": "bytes",
          "name": "toAddress",
          "type": "bytes"
        }
      ],
      "name": "AddLiquidityEvent",
      "type": "event"
    },
    {
      "anonymous": false,
      "inputs": [
        {
          "indexed": false,
          "internalType": "address",
          "name": "fromAssetHash",
          "type": "address"
        },
        {
          "indexed": false,
          "internalType": "address",
          "name": "fromAddress",
          "type": "address"
        },
        {
          "indexed": false,
          "internalType": "uint64",
          "name": "toChainId",
          "type": "uint64"
        },
        {
          "indexed": false,
          "internalType": "bytes",
          "name": "toAssetHash",
          "type": "bytes"
        },
        {
          "indexed": false,
          "internalType": "bytes",
          "name": "toAddress",
          "type": "bytes"
        },
        {
          "indexed": false,
          "internalType": "uint256",
          "name": "amount",
          "type": "uint256"
        }
      ],
      "name": "LockEvent",
      "type": "event"
    },
    {
      "anonymous": false,
      "inputs": [
        {
          "indexed": true,
          "internalType": "address",
          "name": "previousOwner",
          "type": "address"
        },
        {
          "indexed": true,
          "internalType": "address",
          "name": "newOwner",
          "type": "address"
        }
      ],
      "name": "OwnershipTransferred",
      "type": "event"
    },
    {
      "anonymous": false,
      "inputs": [
        {
          "indexed": false,
          "internalType": "uint64",
          "name": "toPoolId",
          "type": "uint64"
        },
        {
          "indexed": false,
          "internalType": "address",
          "name": "poolTokenAddress",
          "type": "address"
        },
        {
          "indexed": false,
          "internalType": "uint256",
          "name": "inLPAmount",
          "type": "uint256"
        },
        {
          "indexed": false,
          "internalType": "address",
          "name": "outAssetAddress",
          "type": "address"
        },
        {
          "indexed": false,
          "internalType": "uint256",
          "name": "outAmount",
          "type": "uint256"
        },
        {
          "indexed": false,
          "internalType": "uint64",
          "name": "toChainId",
          "type": "uint64"
        },
        {
          "indexed": false,
          "internalType": "bytes",
          "name": "toAssetHash",
          "type": "bytes"
        },
        {
          "indexed": false,
          "internalType": "bytes",
          "name": "toAddress",
          "type": "bytes"
        }
      ],
      "name": "RemoveLiquidityEvent",
      "type": "event"
    },
    {
      "anonymous": false,
      "inputs": [
        {
          "indexed": false,
          "internalType": "uint64",
          "name": "backChainId",
          "type": "uint64"
        },
        {
          "indexed": false,
          "internalType": "bytes",
          "name": "backAssetHash",
          "type": "bytes"
        },
        {
          "indexed": false,
          "internalType": "bytes",
          "name": "backAddress",
          "type": "bytes"
        },
        {
          "indexed": false,
          "internalType": "uint256",
          "name": "amount",
          "type": "uint256"
        }
      ],
      "name": "RollBackEvent",
      "type": "event"
    },
    {
      "anonymous": false,
      "inputs": [
        {
          "indexed": false,
          "internalType": "uint64",
          "name": "toPoolId",
          "type": "uint64"
        },
        {
          "indexed": false,
          "internalType": "address",
          "name": "inAssetAddress",
          "type": "address"
        },
        {
          "indexed": false,
          "internalType": "uint256",
          "name": "inAmount",
          "type": "uint256"
        },
        {
          "indexed": false,
          "internalType": "address",
          "name": "outAssetAddress",
          "type": "address"
        },
        {
          "indexed": false,
          "internalType": "uint256",
          "name": "outAmount",
          "type": "uint256"
        },
        {
          "indexed": false,
          "internalType": "uint64",
          "name": "toChainId",
          "type": "uint64"
        },
        {
          "indexed": false,
          "internalType": "bytes",
          "name": "toAssetHash",
          "type": "bytes"
        },
        {
          "indexed": false,
          "internalType": "bytes",
          "name": "toAddress",
          "type": "bytes"
        }
      ],
      "name": "SwapEvent",
      "type": "event"
    },
    {
      "anonymous": false,
      "inputs": [
        {
          "indexed": false,
          "internalType": "address",
          "name": "toAssetHash",
          "type": "address"
        },
        {
          "indexed": false,
          "internalType": "address",
          "name": "toAddress",
          "type": "address"
        },
        {
          "indexed": false,
          "internalType": "uint256",
          "name": "amount",
          "type": "uint256"
        }
      ],
      "name": "UnlockEvent",
      "type": "event"
    },
    {
      "constant": false,
      "inputs": [
        {
          "internalType": "bytes",
          "name": "argsBs",
          "type": "bytes"
        },
        {
          "internalType": "bytes",
          "name": "fromContractAddr",
          "type": "bytes"
        },
        {
          "internalType": "uint64",
          "name": "fromChainId",
          "type": "uint64"
        }
      ],
      "name": "add",
      "outputs": [
        {
          "internalType": "bool",
          "name": "",
          "type": "bool"
        }
      ],
      "payable": false,
      "stateMutability": "nonpayable",
      "type": "function"
    },
    {
      "constant": false,
      "inputs": [
        {
          "internalType": "bytes",
          "name": "argsBs",
          "type": "bytes"
        },
        {
          "internalType": "bytes",
          "name": "fromContractAddr",
          "type": "bytes"
        },
        {
          "internalType": "uint64",
          "name": "fromChainId",
          "type": "uint64"
        }
      ],
      "name": "addUnderlying",
      "outputs": [
        {
          "internalType": "bool",
          "name": "",
          "type": "bool"
        }
      ],
      "payable": false,
      "stateMutability": "nonpayable",
      "type": "function"
    },
    {
      "constant": true,
      "inputs": [
        {
          "internalType": "address",
          "name": "",
          "type": "address"
        },
        {
          "internalType": "uint64",
          "name": "",
          "type": "uint64"
        }
      ],
      "name": "assetHashMap",
      "outputs": [
        {
          "internalType": "bytes",
          "name": "",
          "type": "bytes"
        }
      ],
      "payable": false,
      "stateMutability": "view",
      "type": "function"
    },
    {
      "constant": true,
      "inputs": [
        {
          "internalType": "uint64",
          "name": "",
          "type": "uint64"
        },
        {
          "internalType": "uint64",
          "name": "",
          "type": "uint64"
        },
        {
          "internalType": "bytes",
          "name": "",
          "type": "bytes"
        }
      ],
      "name": "assetPoolMap",
      "outputs": [
        {
          "internalType": "address",
          "name": "",
          "type": "address"
        }
      ],
      "payable": false,
      "stateMutability": "view",
      "type": "function"
    },
    {
      "constant": false,
      "inputs": [
        {
          "internalType": "address",
          "name": "fromAssetHash",
          "type": "address"
        },
        {
          "internalType": "uint64",
          "name": "toChainId",
          "type": "uint64"
        },
        {
          "internalType": "bytes",
          "name": "toAssetHash",
          "type": "bytes"
        }
      ],
      "name": "bindAssetHash",
      "outputs": [
        {
          "internalType": "bool",
          "name": "",
          "type": "bool"
        }
      ],
      "payable": false,
      "stateMutability": "nonpayable",
      "type": "function"
    },
    {
      "constant": false,
      "inputs": [
        {
          "internalType": "uint64",
          "name": "poolId",
          "type": "uint64"
        },
        {
          "internalType": "address",
          "name": "poolAddress",
          "type": "address"
        }
      ],
      "name": "bindPoolAddress",
      "outputs": [
        {
          "internalType": "bool",
          "name": "",
          "type": "bool"
        }
      ],
      "payable": false,
      "stateMutability": "nonpayable",
      "type": "function"
    },
    {
      "constant": false,
      "inputs": [
        {
          "internalType": "uint64",
          "name": "poolId",
          "type": "uint64"
        },
        {
          "internalType": "uint64",
          "name": "chainId",
          "type": "uint64"
        },
        {
          "internalType": "address",
          "name": "assetAddress",
          "type": "address"
        },
        {
          "internalType": "bytes",
          "name": "rawAssetHash",
          "type": "bytes"
        }
      ],
      "name": "bindPoolAssetAddress",
      "outputs": [
        {
          "internalType": "bool",
          "name": "",
          "type": "bool"
        }
      ],
      "payable": false,
      "stateMutability": "nonpayable",
      "type": "function"
    },
    {
      "constant": false,
      "inputs": [
        {
          "internalType": "uint64",
          "name": "toChainId",
          "type": "uint64"
        },
        {
          "internalType": "bytes",
          "name": "targetProxyHash",
          "type": "bytes"
        }
      ],
      "name": "bindProxyHash",
      "outputs": [
        {
          "internalType": "bool",
          "name": "",
          "type": "bool"
        }
      ],
      "payable": false,
      "stateMutability": "nonpayable",
      "type": "function"
    },
    {
      "constant": false,
      "inputs": [
        {
          "internalType": "uint64",
          "name": "toChainId",
          "type": "uint64"
        },
        {
          "internalType": "bytes",
          "name": "targetSwapperHash",
          "type": "bytes"
        }
      ],
      "name": "bindSwapperHash",
      "outputs": [
        {
          "internalType": "bool",
          "name": "",
          "type": "bool"
        }
      ],
      "payable": false,
      "stateMutability": "nonpayable",
      "type": "function"
    },
    {
      "constant": true,
      "inputs": [
        {
          "internalType": "address",
          "name": "fromAssetHash",
          "type": "address"
        }
      ],
      "name": "getBalanceFor",
      "outputs": [
        {
          "internalType": "uint256",
          "name": "",
          "type": "uint256"
        }
      ],
      "payable": false,
      "stateMutability": "view",
      "type": "function"
    },
    {
      "constant": true,
      "inputs": [],
      "name": "isOwner",
      "outputs": [
        {
          "internalType": "bool",
          "name": "",
          "type": "bool"
        }
      ],
      "payable": false,
      "stateMutability": "view",
      "type": "function"
    },
    {
      "constant": false,
      "inputs": [
        {
          "internalType": "address",
          "name": "fromAssetHash",
          "type": "address"
        },
        {
          "internalType": "uint64",
          "name": "toChainId",
          "type": "uint64"
        },
        {
          "internalType": "bytes",
          "name": "toAddress",
          "type": "bytes"
        },
        {
          "internalType": "uint256",
          "name": "amount",
          "type": "uint256"
        }
      ],
      "name": "lock",
      "outputs": [
        {
          "internalType": "bool",
          "name": "",
          "type": "bool"
        }
      ],
      "payable": true,
      "stateMutability": "payable",
      "type": "function"
    },
    {
      "constant": true,
      "inputs": [],
      "name": "managerProxyContract",
      "outputs": [
        {
          "internalType": "address",
          "name": "",
          "type": "address"
        }
      ],
      "payable": false,
      "stateMutability": "view",
      "type": "function"
    },
    {
      "constant": true,
      "inputs": [],
      "name": "owner",
      "outputs": [
        {
          "internalType": "address",
          "name": "",
          "type": "address"
        }
      ],
      "payable": false,
      "stateMutability": "view",
      "type": "function"
    },
    {
      "constant": true,
      "inputs": [
        {
          "internalType": "uint64",
          "name": "",
          "type": "uint64"
        }
      ],
      "name": "poolAddressMap",
      "outputs": [
        {
          "internalType": "address",
          "name": "",
          "type": "address"
        }
      ],
      "payable": false,
      "stateMutability": "view",
      "type": "function"
    },
    {
      "constant": true,
      "inputs": [
        {
          "internalType": "uint64",
          "name": "",
          "type": "uint64"
        }
      ],
      "name": "proxyHashMap",
      "outputs": [
        {
          "internalType": "bytes",
          "name": "",
          "type": "bytes"
        }
      ],
      "payable": false,
      "stateMutability": "view",
      "type": "function"
    },
    {
      "constant": false,
      "inputs": [
        {
          "internalType": "bytes",
          "name": "argsBs",
          "type": "bytes"
        },
        {
          "internalType": "bytes",
          "name": "fromContractAddr",
          "type": "bytes"
        },
        {
          "internalType": "uint64",
          "name": "fromChainId",
          "type": "uint64"
        }
      ],
      "name": "remove",
      "outputs": [
        {
          "internalType": "bool",
          "name": "",
          "type": "bool"
        }
      ],
      "payable": false,
      "stateMutability": "nonpayable",
      "type": "function"
    },
    {
      "constant": false,
      "inputs": [
        {
          "internalType": "bytes",
          "name": "argsBs",
          "type": "bytes"
        },
        {
          "internalType": "bytes",
          "name": "fromContractAddr",
          "type": "bytes"
        },
        {
          "internalType": "uint64",
          "name": "fromChainId",
          "type": "uint64"
        }
      ],
      "name": "removeUnderlying",
      "outputs": [
        {
          "internalType": "bool",
          "name": "",
          "type": "bool"
        }
      ],
      "payable": false,
      "stateMutability": "nonpayable",
      "type": "function"
    },
    {
      "constant": false,
      "inputs": [],
      "name": "renounceOwnership",
      "outputs": [],
      "payable": false,
      "stateMutability": "nonpayable",
      "type": "function"
    },
    {
      "constant": false,
      "inputs": [
        {
          "internalType": "address",
          "name": "ethCCMProxyAddr",
          "type": "address"
        }
      ],
      "name": "setManagerProxy",
      "outputs": [],
      "payable": false,
      "stateMutability": "nonpayable",
      "type": "function"
    },
    {
      "constant": false,
      "inputs": [
        {
          "internalType": "bytes",
          "name": "argsBs",
          "type": "bytes"
        },
        {
          "internalType": "bytes",
          "name": "fromContractAddr",
          "type": "bytes"
        },
        {
          "internalType": "uint64",
          "name": "fromChainId",
          "type": "uint64"
        }
      ],
      "name": "swap",
      "outputs": [
        {
          "internalType": "bool",
          "name": "",
          "type": "bool"
        }
      ],
      "payable": false,
      "stateMutability": "nonpayable",
      "type": "function"
    },
    {
      "constant": false,
      "inputs": [
        {
          "internalType": "bytes",
          "name": "argsBs",
          "type": "bytes"
        },
        {
          "internalType": "bytes",
          "name": "fromContractAddr",
          "type": "bytes"
        },
        {
          "internalType": "uint64",
          "name": "fromChainId",
          "type": "uint64"
        }
      ],
      "name": "swapUnderlying",
      "outputs": [
        {
          "internalType": "bool",
          "name": "",
          "type": "bool"
        }
      ],
      "payable": false,
      "stateMutability": "nonpayable",
      "type": "function"
    },
    {
      "constant": true,
      "inputs": [
        {
          "internalType": "uint64",
          "name": "",
          "type": "uint64"
        }
      ],
      "name": "swapperHashMap",
      "outputs": [
        {
          "internalType": "bytes",
          "name": "",
          "type": "bytes"
        }
      ],
      "payable": false,
      "stateMutability": "view",
      "type": "function"
    },
    {
      "constant": false,
      "inputs": [
        {
          "internalType": "address",
          "name": "newOwner",
          "type": "address"
        }
      ],
      "name": "transferOwnership",
      "outputs": [],
      "payable": false,
      "stateMutability": "nonpayable",
      "type": "function"
    },
    {
      "constant": false,
      "inputs": [
        {
          "internalType": "bytes",
          "name": "argsBs",
          "type": "bytes"
        },
        {
          "internalType": "bytes",
          "name": "fromContractAddr",
          "type": "bytes"
        },
        {
          "internalType": "uint64",
          "name": "fromChainId",
          "type": "uint64"
        }
      ],
      "name": "unlock",
      "outputs": [
        {
          "internalType": "bool",
          "name": "",
          "type": "bool"
        }
      ],
      "payable": false,
      "stateMutability": "nonpayable",
      "type": "function"
    },
    {
      "constant": false,
      "inputs": [
        {
          "internalType": "address[]",
          "name": "tokens",
          "type": "address[]"
        },
        {
          "internalType": "address",
          "name": "newContract",
          "type": "address"
        }
      ],
      "name": "update",
      "outputs": [],
      "payable": false,
      "stateMutability": "nonpayable",
      "type": "function"
    }
  ],
  "bytecode": {
    "object": "0x60806040526000620000196001600160e01b036200006916565b600080546001600160a01b0319166001600160a01b0383169081178255604051929350917f8be0079c531659141344cd1fd0a4f28419497f9722a3daafe3b4186f6b6457e0908290a3506200006d565b3390565b615f2b806200007d6000396000f3fe6080604052600436106101815760003560e01c80638f32d59b116100d1578063d798f8811161008a578063f03e2fad11610064578063f03e2fad14610f14578063f072f52014611055578063f2fde38b14611196578063fc56058e146111c957610181565b8063d798f88114610d8b578063db3e29f114610da0578063ece088b314610dd357610181565b80638f32d59b14610bda5780639866947414610bef5780639a1231c814610c225780639ad24ba514610c645780639e5767aa14610d25578063af9980f014610d5857610181565b8063715018a61161013e5780637890179611610118578063789017961461094157806384a6d05514610a1b57806385dbc86614610adf5780638da5cb5b14610bc557610181565b8063715018a6146106a857806372abb8a5146106bf57806372c345ec1461080057610181565b806306af4b9f146101865780633348f63b146102db578063379b98f6146103aa5780633b2ae6471461046b5780634f7d9808146105ac57806359c589a114610663575b600080fd5b34801561019257600080fd5b506102c7600480360360608110156101a957600080fd5b810190602081018135600160201b8111156101c357600080fd5b8201836020820111156101d557600080fd5b803590602001918460018302840111600160201b831117156101f657600080fd5b91908080601f0160208091040260200160405190810160405280939291908181526020018383808284376000920191909152509295949360208101935035915050600160201b81111561024857600080fd5b82018360208201111561025a57600080fd5b803590602001918460018302840111600160201b8311171561027b57600080fd5b91908080601f016020809104026020016040519081016040528093929190818152602001838380828437600092019190915250929550505090356001600160401b031691506112829050565b604080519115158252519081900360200190f35b3480156102e757600080fd5b506102c7600480360360608110156102fe57600080fd5b6001600160a01b03823516916001600160401b0360208201351691810190606081016040820135600160201b81111561033657600080fd5b82018360208201111561034857600080fd5b803590602001918460018302840111600160201b8311171561036957600080fd5b91908080601f01602080910402602001604051908101604052809392919081815260200183838082843760009201919091525092955061155f945050505050565b3480156103b657600080fd5b506102c7600480360360408110156103cd57600080fd5b6001600160401b038235169190810190604081016020820135600160201b8111156103f757600080fd5b82018360208201111561040957600080fd5b803590602001918460018302840111600160201b8311171561042a57600080fd5b91908080601f0160208091040260200160405190810160405280939291908181526020018383808284376000920191909152509295506115ed945050505050565b34801561047757600080fd5b506102c76004803603606081101561048e57600080fd5b810190602081018135600160201b8111156104a857600080fd5b8201836020820111156104ba57600080fd5b803590602001918460018302840111600160201b831117156104db57600080fd5b91908080601f0160208091040260200160405190810160405280939291908181526020018383808284376000920191909152509295949360208101935035915050600160201b81111561052d57600080fd5b82018360208201111561053f57600080fd5b803590602001918460018302840111600160201b8311171561056057600080fd5b91908080601f016020809104026020016040519081016040528093929190818152602001838380828437600092019190915250929550505090356001600160401b031691506116699050565b3480156105b857600080fd5b506105ee600480360360408110156105cf57600080fd5b5080356001600160a01b031690602001356001600160401b0316611921565b6040805160208082528351818301528351919283929083019185019080838360005b83811015610628578181015183820152602001610610565b50505050905090810190601f1680156106555780820380516001836020036101000a031916815260200191505b509250505060405180910390f35b34801561066f57600080fd5b506106966004803603602081101561068657600080fd5b50356001600160a01b03166119c5565b60408051918252519081900360200190f35b3480156106b457600080fd5b506106bd611a60565b005b3480156106cb57600080fd5b506102c7600480360360608110156106e257600080fd5b810190602081018135600160201b8111156106fc57600080fd5b82018360208201111561070e57600080fd5b803590602001918460018302840111600160201b8311171561072f57600080fd5b91908080601f0160208091040260200160405190810160405280939291908181526020018383808284376000920191909152509295949360208101935035915050600160201b81111561078157600080fd5b82018360208201111561079357600080fd5b803590602001918460018302840111600160201b831117156107b457600080fd5b91908080601f016020809104026020016040519081016040528093929190818152602001838380828437600092019190915250929550505090356001600160401b03169150611af19050565b34801561080c57600080fd5b506102c76004803603606081101561082357600080fd5b810190602081018135600160201b81111561083d57600080fd5b82018360208201111561084f57600080fd5b803590602001918460018302840111600160201b8311171561087057600080fd5b91908080601f0160208091040260200160405190810160405280939291908181526020018383808284376000920191909152509295949360208101935035915050600160201b8111156108c257600080fd5b8201836020820111156108d457600080fd5b803590602001918460018302840111600160201b831117156108f557600080fd5b91908080601f016020809104026020016040519081016040528093929190818152602001838380828437600092019190915250929550505090356001600160401b031691506122d29050565b34801561094d57600080fd5b506102c76004803603608081101561096457600080fd5b6001600160401b0382358116926020810135909116916001600160a01b036040830135169190810190608081016060820135600160201b8111156109a757600080fd5b8201836020820111156109b957600080fd5b803590602001918460018302840111600160201b831117156109da57600080fd5b91908080601f016020809104026020016040519081016040528093929190818152602001838380828437600092019190915250929550612400945050505050565b6102c760048036036080811015610a3157600080fd5b6001600160a01b03823516916001600160401b0360208201351691810190606081016040820135600160201b811115610a6957600080fd5b820183602082011115610a7b57600080fd5b803590602001918460018302840111600160201b83111715610a9c57600080fd5b91908080601f0160208091040260200160405190810160405280939291908181526020018383808284376000920191909152509295505091359250612581915050565b348015610aeb57600080fd5b50610ba960048036036060811015610b0257600080fd5b6001600160401b038235811692602081013590911691810190606081016040820135600160201b811115610b3557600080fd5b820183602082011115610b4757600080fd5b803590602001918460018302840111600160201b83111715610b6857600080fd5b91908080601f016020809104026020016040519081016040528093929190818152602001838380828437600092019190915250929550612889945050505050565b604080516001600160a01b039092168252519081900360200190f35b348015610bd157600080fd5b50610ba96128ca565b348015610be657600080fd5b506102c76128da565b348015610bfb57600080fd5b50610ba960048036036020811015610c1257600080fd5b50356001600160401b03166128fe565b348015610c2e57600080fd5b506102c760048036036040811015610c4557600080fd5b5080356001600160401b031690602001356001600160a01b0316612919565b348015610c7057600080fd5b506102c760048036036040811015610c8757600080fd5b6001600160401b038235169190810190604081016020820135600160201b811115610cb157600080fd5b820183602082011115610cc357600080fd5b803590602001918460018302840111600160201b83111715610ce457600080fd5b91908080601f01602080910402602001604051908101604052809392919081815260200183838082843760009201919091525092955061299e945050505050565b348015610d3157600080fd5b506105ee60048036036020811015610d4857600080fd5b50356001600160401b0316612a10565b348015610d6457600080fd5b506106bd60048036036020811015610d7b57600080fd5b50356001600160a01b0316612a76565b348015610d9757600080fd5b50610ba9612adf565b348015610dac57600080fd5b506105ee60048036036020811015610dc357600080fd5b50356001600160401b0316612aee565b348015610ddf57600080fd5b506102c760048036036060811015610df657600080fd5b810190602081018135600160201b811115610e1057600080fd5b820183602082011115610e2257600080fd5b803590602001918460018302840111600160201b83111715610e4357600080fd5b91908080601f0160208091040260200160405190810160405280939291908181526020018383808284376000920191909152509295949360208101935035915050600160201b811115610e9557600080fd5b820183602082011115610ea757600080fd5b803590602001918460018302840111600160201b83111715610ec857600080fd5b91908080601f016020809104026020016040519081016040528093929190818152602001838380828437600092019190915250929550505090356001600160401b03169150612b569050565b348015610f2057600080fd5b506102c760048036036060811015610f3757600080fd5b810190602081018135600160201b811115610f5157600080fd5b820183602082011115610f6357600080fd5b803590602001918460018302840111600160201b83111715610f8457600080fd5b91908080601f0160208091040260200160405190810160405280939291908181526020018383808284376000920191909152509295949360208101935035915050600160201b811115610fd657600080fd5b820183602082011115610fe857600080fd5b803590602001918460018302840111600160201b8311171561100957600080fd5b91908080601f016020809104026020016040519081016040528093929190818152602001838380828437600092019190915250929550505090356001600160401b031691506132e29050565b34801561106157600080fd5b506102c76004803603606081101561107857600080fd5b810190602081018135600160201b81111561109257600080fd5b8201836020820111156110a457600080fd5b803590602001918460018302840111600160201b831117156110c557600080fd5b91908080601f0160208091040260200160405190810160405280939291908181526020018383808284376000920191909152509295949360208101935035915050600160201b81111561111757600080fd5b82018360208201111561112957600080fd5b803590602001918460018302840111600160201b8311171561114a57600080fd5b91908080601f016020809104026020016040519081016040528093929190818152602001838380828437600092019190915250929550505090356001600160401b03169150613a509050565b3480156111a257600080fd5b506106bd600480360360208110156111b957600080fd5b50356001600160a01b0316613b7e565b3480156111d557600080fd5b506106bd600480360360408110156111ec57600080fd5b810190602081018135600160201b81111561120657600080fd5b82018360208201111561121857600080fd5b803590602001918460208302840111600160201b8311171561123957600080fd5b919080806020026020016040519081016040528093929190818152602001838360200280828437600092019190915250929550505090356001600160a01b03169150613bd19050565b600154604080516387939a7f60e01b815290516000926001600160a01b03169182916387939a7f91600480820192602092909190829003018186803b1580156112ca57600080fd5b505afa1580156112de573d6000803e3d6000fd5b505050506040513d60208110156112f457600080fd5b50516001600160a01b0316611307613d1e565b6001600160a01b03161461134c5760405162461bcd60e51b815260040180806020018281038252602d815260200180615be4602d913960400191505060405180910390fd5b61135461598a565b61135d86613d22565b90508451600014156113a05760405162461bcd60e51b815260040180806020018281038252602b815260200180615c11602b913960400191505060405180910390fd5b6001600160401b03841660009081526002602052604090206113c29086613d6e565b6113fd5760405162461bcd60e51b8152600401808060200182810382526022815260200180615e8f6022913960400191505060405180910390fd5b805151611451576040805162461bcd60e51b815260206004820152601b60248201527f746f4173736574486173682063616e6e6f7420626520656d7074790000000000604482015290519081900360640190fd5b60006114608260000151613e22565b9050816020015151600014156114b9576040805162461bcd60e51b8152602060048201526019602482015278746f416464726573732063616e6e6f7420626520656d70747960381b604482015290519081900360640190fd5b60006114c88360200151613e22565b90506114d982828560400151613e6c565b6115145760405162461bcd60e51b815260040180806020018281038252603c815260200180615b7e603c913960400191505060405180910390fd5b60408084015181516001600160a01b03808616825284166020820152808301919091529051600080516020615a9b8339815191529181900360600190a1506001979650505050505050565b60006115696128da565b6115a8576040805162461bcd60e51b81526020600482018190526024820152600080516020615c5e833981519152604482015290519081900360640190fd5b6001600160a01b03841660009081526006602090815260408083206001600160401b0387168452825290912083516115e2928501906159ab565b506001949350505050565b60006115f76128da565b611636576040805162461bcd60e51b81526020600482018190526024820152600080516020615c5e833981519152604482015290519081900360640190fd5b6001600160401b0383166000908152600260209081526040909120835161165f928501906159ab565b5060019392505050565b600154604080516387939a7f60e01b815290516000926001600160a01b03169182916387939a7f91600480820192602092909190829003018186803b1580156116b157600080fd5b505afa1580156116c5573d6000803e3d6000fd5b505050506040513d60208110156116db57600080fd5b50516001600160a01b03166116ee613d1e565b6001600160a01b0316146117335760405162461bcd60e51b815260040180806020018281038252602d815260200180615be4602d913960400191505060405180910390fd5b6000306001600160a01b03166372abb8a560e01b878787604051602401808060200180602001846001600160401b03166001600160401b03168152602001838103835286818151815260200191508051906020019080838360005b838110156117a657818101518382015260200161178e565b50505050905090810190601f1680156117d35780820380516001836020036101000a031916815260200191505b50838103825285518152855160209182019187019080838360005b838110156118065781810151838201526020016117ee565b50505050905090810190601f1680156118335780820380516001836020036101000a031916815260200191505b5060408051601f198184030181529181526020820180516001600160e01b03166001600160e01b0319909a16999099178952518151919890975087965094509250829150849050835b6020831061189b5780518252601f19909201916020918201910161187c565b6001836020036101000a0380198251168184511680821785525050505050509050019150506000604051808303816000865af19150503d80600081146118fd576040519150601f19603f3d011682016040523d82523d6000602084013e611902565b606091505b5050905080611915576119158685613efe565b50600195945050505050565b60066020908152600092835260408084208252918352918190208054825160026001831615610100026000190190921691909104601f8101859004850282018501909352828152929091908301828280156119bd5780601f10611992576101008083540402835291602001916119bd565b820191906000526020600020905b8154815290600101906020018083116119a057829003601f168201915b505050505081565b60006001600160a01b0382166119dd57503031611a5b565b604080516370a0823160e01b8152306004820152905183916001600160a01b038316916370a0823191602480820192602092909190829003018186803b158015611a2657600080fd5b505afa158015611a3a573d6000803e3d6000fd5b505050506040513d6020811015611a5057600080fd5b50519150611a5b9050565b919050565b611a686128da565b611aa7576040805162461bcd60e51b81526020600482018190526024820152600080516020615c5e833981519152604482015290519081900360640190fd5b600080546040516001600160a01b03909116907f8be0079c531659141344cd1fd0a4f28419497f9722a3daafe3b4186f6b6457e0908390a3600080546001600160a01b0319169055565b600030611afc613d1e565b6001600160a01b031614611b415760405162461bcd60e51b815260040180806020018281038252604b815260200180615d7c604b913960600191505060405180910390fd5b611b49615a29565b611b52856141e4565b9050835160001415611b955760405162461bcd60e51b8152600401808060200182810382526025815260200180615cec6025913960400191505060405180910390fd5b6001600160401b0383166000908152600360205260409020611bb79085613d6e565b611bf25760405162461bcd60e51b8152600401808060200182810382526024815260200180615b5a6024913960400191505060405180910390fd5b6040808201516001600160401b03166000908152600460205220546001600160a01b031680611c5c576040805162461bcd60e51b81526020600482015260116024820152701c1bdbdb08191bc81b9bdd08195e1cda5d607a1b604482015290519081900360640190fd5b60006005600084604001516001600160401b03166001600160401b031681526020019081526020016000206000866001600160401b03166001600160401b0316815260200190815260200160002083608001516040518082805190602001908083835b60208310611cde5780518252601f199092019160209182019101611cbf565b51815160001960209485036101000a019081169019919091161790529201948552506040519384900301909220546001600160a01b03169250505080611d6b576040805162461bcd60e51b815260206004820152601b60248201527f696e4173736574486173682063616e6e6f7420626520656d7074790000000000604482015290519081900360640190fd5b6000826001600160a01b03166382c630666040518163ffffffff1660e01b815260040160206040518083038186803b158015611da657600080fd5b505afa158015611dba573d6000803e3d6000fd5b505050506040513d6020811015611dd057600080fd5b505160e085015151909150611e28576040805162461bcd60e51b8152602060048201526019602482015278746f416464726573732063616e6e6f7420626520656d70747960381b604482015290519081900360640190fd5b6001600160a01b03811660009081526006602090815260408083206060888101516001600160401b03168552908352928190208054825160026001831615610100026000190190921691909104601f810185900485028201850190935282815292909190830182828015611edd5780601f10611eb257610100808354040283529160200191611edd565b820191906000526020600020905b815481529060010190602001808311611ec057829003601f168201915b50505050509050805160001415611f37576040805162461bcd60e51b81526020600482015260196024820152780cadae0e8f240d2d8d8cacec2d840e8de82e6e6cae890c2e6d603b1b604482015290519081900360640190fd5b6000611f4d8585886000015189602001516142a4565b9050611f6386606001518760e00151848461436c565b611f6c57600080fd5b8551604080516001600160a01b03871681523060208201528082019290925251600080516020615a9b8339815191529181900360600190a17fa184af1adb02eb56c0f9fbbed6a596b24a1f909dc75a1a3371ce1da92ee851a0866040015185886000015188858b60600151888d60e0015160405180896001600160401b03166001600160401b03168152602001886001600160a01b03166001600160a01b03168152602001878152602001866001600160a01b03166001600160a01b03168152602001858152602001846001600160401b03166001600160401b031681526020018060200180602001838103835285818151815260200191508051906020019080838360005b8381101561208a578181015183820152602001612072565b50505050905090810190601f1680156120b75780820380516001836020036101000a031916815260200191505b50838103825284518152845160209182019186019080838360005b838110156120ea5781810151838201526020016120d2565b50505050905090810190601f1680156121175780820380516001836020036101000a031916815260200191505b509a505050505050505050505060405180910390a1600080516020615d3a833981519152856001600160a01b03166382c630666040518163ffffffff1660e01b815260040160206040518083038186803b15801561217457600080fd5b505afa158015612188573d6000803e3d6000fd5b505050506040513d602081101561219e57600080fd5b505160608089015160e0808b0151604080516001600160a01b03871681523060208281018290526001600160401b0387169383019390935260a082018a905260c09682018781528b51978301979097528a5190968b958b94919260808501929185019188019080838360005b8381101561222257818101518382015260200161220a565b50505050905090810190601f16801561224f5780820380516001836020036101000a031916815260200191505b50838103825285518152855160209182019187019080838360005b8381101561228257818101518382015260200161226a565b50505050905090810190601f1680156122af5780820380516001836020036101000a031916815260200191505b509850505050505050505060405180910390a15060019998505050505050505050565b600154604080516387939a7f60e01b815290516000926001600160a01b03169182916387939a7f91600480820192602092909190829003018186803b15801561231a57600080fd5b505afa15801561232e573d6000803e3d6000fd5b505050506040513d602081101561234457600080fd5b50516001600160a01b0316612357613d1e565b6001600160a01b03161461239c5760405162461bcd60e51b815260040180806020018281038252602d815260200180615be4602d913960400191505060405180910390fd5b6040516001600160401b0384166064820152606060248201908152865160848301528651600092309263ece088b360e01b928a928a928a9290918291604482019160a4019060208801908083838e83156117a657818101518382015260200161178e565b600061240a6128da565b612449576040805162461bcd60e51b81526020600482018190526024820152600080516020615c5e833981519152604482015290519081900360640190fd5b6001600160a01b03831660009081526006602090815260408083206001600160401b0388168452909152902061247f9083613d6e565b6124d0576040805162461bcd60e51b815260206004820152601860248201527f696e76616c696420636861696e2d617373657420706169720000000000000000604482015290519081900360640190fd5b6001600160401b0380861660009081526005602090815260408083209388168352928152908290209151845186939286929182918401908083835b6020831061252a5780518252601f19909201916020918201910161250b565b51815160209384036101000a6000190180199092169116179052920194855250604051938490030190922080546001600160a01b0319166001600160a01b0394909416939093179092555060019695505050505050565b6000816125ce576040805162461bcd60e51b8152602060048201526016602482015275616d6f756e742063616e6e6f74206265207a65726f2160501b604482015290519081900360640190fd5b6125d885836146db565b6126135760405162461bcd60e51b815260040180806020018281038252603f815260200180615cad603f913960400191505060405180910390fd5b6001600160a01b03851660009081526006602090815260408083206001600160401b038816845282529182902080548351601f60026000196101006001861615020190931692909204918201849004840281018401909452808452606093928301828280156126c35780601f10612698576101008083540402835291602001916126c3565b820191906000526020600020905b8154815290600101906020018083116126a657829003601f168201915b5050505050905080516000141561271d576040805162461bcd60e51b81526020600482015260196024820152780cadae0e8f240d2d8d8cacec2d840e8de82e6e6cae890c2e6d603b1b604482015290519081900360640190fd5b6127298585838661436c565b61273257600080fd5b600080516020615d3a8339815191528661274a613d1e565b8784888860405180876001600160a01b03166001600160a01b03168152602001866001600160a01b03166001600160a01b03168152602001856001600160401b03166001600160401b031681526020018060200180602001848152602001838103835286818151815260200191508051906020019080838360005b838110156127dd5781810151838201526020016127c5565b50505050905090810190601f16801561280a5780820380516001836020036101000a031916815260200191505b50838103825285518152855160209182019187019080838360005b8381101561283d578181015183820152602001612825565b50505050905090810190601f16801561286a5780820380516001836020036101000a031916815260200191505b509850505050505050505060405180910390a150600195945050505050565b60056020908152600093845260408085208252928452919092208251808401830180519281529083019390920192909220919052546001600160a01b031681565b6000546001600160a01b03165b90565b600080546001600160a01b03166128ef613d1e565b6001600160a01b031614905090565b6004602052600090815260409020546001600160a01b031681565b60006129236128da565b612962576040805162461bcd60e51b81526020600482018190526024820152600080516020615c5e833981519152604482015290519081900360640190fd5b506001600160401b038216600090815260046020526040902080546001600160a01b0383166001600160a01b0319909116179055600192915050565b60006129a86128da565b6129e7576040805162461bcd60e51b81526020600482018190526024820152600080516020615c5e833981519152604482015290519081900360640190fd5b6001600160401b0383166000908152600360209081526040909120835161165f928501906159ab565b600260208181526000928352604092839020805484516001821615610100026000190190911693909304601f81018390048302840183019094528383529192908301828280156119bd5780601f10611992576101008083540402835291602001916119bd565b612a7e6128da565b612abd576040805162461bcd60e51b81526020600482018190526024820152600080516020615c5e833981519152604482015290519081900360640190fd5b600180546001600160a01b0319166001600160a01b0392909216919091179055565b6001546001600160a01b031681565b60036020908152600091825260409182902080548351601f6002600019610100600186161502019093169290920491820184900484028101840190945280845290918301828280156119bd5780601f10611992576101008083540402835291602001916119bd565b600030612b61613d1e565b6001600160a01b031614612ba65760405162461bcd60e51b815260040180806020018281038252604b815260200180615d7c604b913960600191505060405180910390fd5b612bae615a29565b612bb7856141e4565b9050835160001415612bfa5760405162461bcd60e51b8152600401808060200182810382526025815260200180615cec6025913960400191505060405180910390fd5b6001600160401b0383166000908152600360205260409020612c1c9085613d6e565b612c575760405162461bcd60e51b8152600401808060200182810382526024815260200180615b5a6024913960400191505060405180910390fd5b6040808201516001600160401b03166000908152600460205220546001600160a01b031680612cc1576040805162461bcd60e51b81526020600482015260116024820152701c1bdbdb08191bc81b9bdd08195e1cda5d607a1b604482015290519081900360640190fd5b60006005600084604001516001600160401b03166001600160401b031681526020019081526020016000206000866001600160401b03166001600160401b0316815260200190815260200160002083608001516040518082805190602001908083835b60208310612d435780518252601f199092019160209182019101612d24565b51815160001960209485036101000a019081169019919091161790529201948552506040519384900301909220546001600160a01b03169250505080612dd0576040805162461bcd60e51b815260206004820152601b60248201527f696e4173736574486173682063616e6e6f7420626520656d7074790000000000604482015290519081900360640190fd5b60006005600085604001516001600160401b03166001600160401b03168152602001908152602001600020600085606001516001600160401b03166001600160401b031681526020019081526020016000208460c001516040518082805190602001908083835b60208310612e565780518252601f199092019160209182019101612e37565b51815160001960209485036101000a019081169019919091161790529201948552506040519384900301909220546001600160a01b03169250505080612edf576040805162461bcd60e51b81526020600482015260196024820152781d185c99d95d08185cdcd95d08191bc81b9bdd08195e1cda5d603a1b604482015290519081900360640190fd5b60e084015151612f32576040805162461bcd60e51b8152602060048201526019602482015278746f416464726573732063616e6e6f7420626520656d70747960381b604482015290519081900360640190fd5b60c084015151612f85576040805162461bcd60e51b81526020600482015260196024820152780cadae0e8f240d2d8d8cacec2d840e8de82e6e6cae890c2e6d603b1b604482015290519081900360640190fd5b6000612f9c848487600001518589602001516147fe565b9050612fb685606001518660e001518760c001518461436c565b612fbf57600080fd5b8451604080516001600160a01b03861681523060208201528082019290925251600080516020615a9b8339815191529181900360600190a17f8cad61375db78f5b40b47b2bced1c95123d2b8e29bf6cefdb314b83d20af9dbb856040015184876000015185858a606001518b60c001518c60e0015160405180896001600160401b03166001600160401b03168152602001886001600160a01b03166001600160a01b03168152602001878152602001866001600160a01b03166001600160a01b03168152602001858152602001846001600160401b03166001600160401b031681526020018060200180602001838103835285818151815260200191508051906020019080838360005b838110156130e15781810151838201526020016130c9565b50505050905090810190601f16801561310e5780820380516001836020036101000a031916815260200191505b50838103825284518152845160209182019186019080838360005b83811015613141578181015183820152602001613129565b50505050905090810190601f16801561316e5780820380516001836020036101000a031916815260200191505b509a505050505050505050505060405180910390a1600080516020615d3a833981519152823087606001518860c001518960e001518660405180876001600160a01b03166001600160a01b03168152602001866001600160a01b03166001600160a01b03168152602001856001600160401b03166001600160401b031681526020018060200180602001848152602001838103835286818151815260200191508051906020019080838360005b8381101561323357818101518382015260200161321b565b50505050905090810190601f1680156132605780820380516001836020036101000a031916815260200191505b50838103825285518152855160209182019187019080838360005b8381101561329357818101518382015260200161327b565b50505050905090810190601f1680156132c05780820380516001836020036101000a031916815260200191505b509850505050505050505060405180910390a150600198975050505050505050565b6000306132ed613d1e565b6001600160a01b0316146133325760405162461bcd60e51b815260040180806020018281038252604b815260200180615d7c604b913960600191505060405180910390fd5b61333a615a29565b613343856141e4565b90508351600014156133865760405162461bcd60e51b8152600401808060200182810382526025815260200180615cec6025913960400191505060405180910390fd5b6001600160401b03831660009081526003602052604090206133a89085613d6e565b6133e35760405162461bcd60e51b8152600401808060200182810382526024815260200180615b5a6024913960400191505060405180910390fd5b6040808201516001600160401b03166000908152600460205220546001600160a01b03168061344d576040805162461bcd60e51b81526020600482015260116024820152701c1bdbdb08191bc81b9bdd08195e1cda5d607a1b604482015290519081900360640190fd5b6134f260066000836001600160a01b03166382c630666040518163ffffffff1660e01b815260040160206040518083038186803b15801561348d57600080fd5b505afa1580156134a1573d6000803e3d6000fd5b505050506040513d60208110156134b757600080fd5b50516001600160a01b03168152602081810192909252604090810160009081206001600160401b038916825290925290206080840151613d6e565b61352d5760405162461bcd60e51b815260040180806020018281038252602a815260200180615bba602a913960400191505060405180910390fd5b60006005600084604001516001600160401b03166001600160401b03168152602001908152602001600020600084606001516001600160401b03166001600160401b031681526020019081526020016000208360c001516040518082805190602001908083835b602083106135b35780518252601f199092019160209182019101613594565b51815160001960209485036101000a019081169019919091161790529201948552506040519384900301909220546001600160a01b0316925050508061363c576040805162461bcd60e51b81526020600482015260196024820152781d185c99d95d08185cdcd95d08191bc81b9bdd08195e1cda5d603a1b604482015290519081900360640190fd5b60e08301515161368f576040805162461bcd60e51b8152602060048201526019602482015278746f416464726573732063616e6e6f7420626520656d70747960381b604482015290519081900360640190fd5b60006136a58385600001518487602001516148cf565b90506136bf84606001518560e001518660c001518461436c565b6136c857600080fd5b600080516020615a9b833981519152836001600160a01b03166382c630666040518163ffffffff1660e01b815260040160206040518083038186803b15801561371057600080fd5b505afa158015613724573d6000803e3d6000fd5b505050506040513d602081101561373a57600080fd5b50518551604080516001600160a01b03909316835230602084015282810191909152519081900360600190a17febe708b5c4cf4393d89ea503656ecc48372f1a5deeb302d22b4e219fb64fe40d8460400151848660000151858589606001518a60c001518b60e0015160405180896001600160401b03166001600160401b03168152602001886001600160a01b03166001600160a01b03168152602001878152602001866001600160a01b03166001600160a01b03168152602001858152602001846001600160401b03166001600160401b031681526020018060200180602001838103835285818151815260200191508051906020019080838360005b83811015613850578181015183820152602001613838565b50505050905090810190601f16801561387d5780820380516001836020036101000a031916815260200191505b50838103825284518152845160209182019186019080838360005b838110156138b0578181015183820152602001613898565b50505050905090810190601f1680156138dd5780820380516001836020036101000a031916815260200191505b509a505050505050505050505060405180910390a1600080516020615d3a833981519152823086606001518760c001518860e001518660405180876001600160a01b03166001600160a01b03168152602001866001600160a01b03166001600160a01b03168152602001856001600160401b03166001600160401b031681526020018060200180602001848152602001838103835286818151815260200191508051906020019080838360005b838110156139a257818101518382015260200161398a565b50505050905090810190601f1680156139cf5780820380516001836020036101000a031916815260200191505b50838103825285518152855160209182019187019080838360005b83811015613a025781810151838201526020016139ea565b50505050905090810190601f168015613a2f5780820380516001836020036101000a031916815260200191505b509850505050505050505060405180910390a1506001979650505050505050565b600154604080516387939a7f60e01b815290516000926001600160a01b03169182916387939a7f91600480820192602092909190829003018186803b158015613a9857600080fd5b505afa158015613aac573d6000803e3d6000fd5b505050506040513d6020811015613ac257600080fd5b50516001600160a01b0316613ad5613d1e565b6001600160a01b031614613b1a5760405162461bcd60e51b815260040180806020018281038252602d815260200180615be4602d913960400191505060405180910390fd5b6040516001600160401b0384166064820152606060248201908152865160848301528651600092309263f03e2fad60e01b928a928a928a9290918291604482019160a4019060208801908083838e83156117a657818101518382015260200161178e565b613b866128da565b613bc5576040805162461bcd60e51b81526020600482018190526024820152600080516020615c5e833981519152604482015290519081900360640190fd5b613bce816149ee565b50565b613bd96128da565b613c18576040805162461bcd60e51b81526020600482018190526024820152600080516020615c5e833981519152604482015290519081900360640190fd5b60005b8251811015613d1957613cd6838281518110613c3357fe5b602002602001015183858481518110613c4857fe5b60200260200101516001600160a01b03166370a08231306040518263ffffffff1660e01b815260040180826001600160a01b03166001600160a01b0316815260200191505060206040518083038186803b158015613ca557600080fd5b505afa158015613cb9573d6000803e3d6000fd5b505050506040513d6020811015613ccf57600080fd5b5051614a8e565b613d115760405162461bcd60e51b8152600401808060200182810382526025815260200180615eb16025913960400191505060405180910390fd5b600101613c1b565b505050565b3390565b613d2a61598a565b613d3261598a565b6000613d3e8482614aab565b9083529050613d4d8482614aab565b60208401919091529050613d618482614b84565b5060408301525092915050565b60008060019050835460026001808316156101000203821604845180821460018114613d9d5760009450613e16565b8215613e16576020831060018114613dfb57600189600052602060002060208a018581015b600284828410011415613df2578151835414613de15760009950600093505b600183019250602082019150613dc2565b50505050613e14565b61010080860402945060208801518514613e1457600095505b505b50929695505050505050565b60008151601414613e645760405162461bcd60e51b8152600401808060200182810382526023815260200180615ade6023913960400191505060405180910390fd5b506014015190565b60006001600160a01b038416613eb8576040516001600160a01b0384169083156108fc029084906000818181858888f19350505050158015613eb2573d6000803e3d6000fd5b5061165f565b613ec3848484614a8e565b61165f5760405162461bcd60e51b8152600401808060200182810382526033815260200180615b016033913960400191505060405180910390fd5b613f06615a29565b613f0f836141e4565b9050613f29828260a001518360800151846000015161436c565b613f3257600080fd5b60408051600080825260208201819052818301529051600080516020615a9b8339815191529181900360600190a17f53de6b58a6f10eb6b1843d46446580da5e21622a57709f7b4576c4973229af298282608001518360a00151846000015160405180856001600160401b03166001600160401b031681526020018060200180602001848152602001838103835286818151815260200191508051906020019080838360005b83811015613ff0578181015183820152602001613fd8565b50505050905090810190601f16801561401d5780820380516001836020036101000a031916815260200191505b50838103825285518152855160209182019187019080838360005b83811015614050578181015183820152602001614038565b50505050905090810190601f16801561407d5780820380516001836020036101000a031916815260200191505b50965050505050505060405180910390a1600080516020615d3a8339815191526000808484608001518560a00151866000015160405180876001600160a01b03166001600160a01b03168152602001866001600160a01b03166001600160a01b03168152602001856001600160401b03166001600160401b031681526020018060200180602001848152602001838103835286818151815260200191508051906020019080838360005b8381101561413f578181015183820152602001614127565b50505050905090810190601f16801561416c5780820380516001836020036101000a031916815260200191505b50838103825285518152855160209182019187019080838360005b8381101561419f578181015183820152602001614187565b50505050905090810190601f1680156141cc5780820380516001836020036101000a031916815260200191505b509850505050505050505060405180910390a1505050565b6141ec615a29565b6141f4615a29565b60006142008482614b84565b908352905061420f8482614b84565b602084019190915290506142238482614c81565b6001600160401b039091166040840152905061423f8482614c81565b6001600160401b039091166060840152905061425b8482614aab565b6080840191909152905061426f8482614aab565b60a084019190915290506142838482614aab565b60c084019190915290506142978482614aab565b5060e08301525092915050565b6000846142c16001600160a01b038616828463ffffffff614d2716565b6142db6001600160a01b038616878663ffffffff614d2716565b6040805163503a1fc560e01b8152600481018690526001600160a01b03878116602483015260448201869052915160009284169163503a1fc591606480830192602092919082900301818787803b15801561433557600080fd5b505af1158015614349573d6000803e3d6000fd5b505050506040513d602081101561435f57600080fd5b5051979650505050505050565b600061437661598a565b6040518060600160405280858152602001868152602001848152509050606061439e82614e3a565b90506000600160009054906101000a90046001600160a01b03166001600160a01b03166387939a7f6040518163ffffffff1660e01b815260040160206040518083038186803b1580156143f057600080fd5b505afa158015614404573d6000803e3d6000fd5b505050506040513d602081101561441a57600080fd5b50516001600160401b038916600090815260026020818152604092839020805484516001821615610100026000190190911693909304601f8101839004830284018301909452838352939450849360609390918301828280156144be5780601f10614493576101008083540402835291602001916144be565b820191906000526020600020905b8154815290600101906020018083116144a157829003601f168201915b5050505050905080516000141561451c576040805162461bcd60e51b815260206004820152601960248201527f656d70747920696c6c6567616c20746f50726f78794861736800000000000000604482015290519081900360640190fd5b60405163bd5cf62560e01b81526001600160401b038b16600482019081526080602483019081528351608484015283516001600160a01b0386169363bd5cf625938f9387938b936044810191606482019160a40190602088019080838360005b8381101561459457818101518382015260200161457c565b50505050905090810190601f1680156145c15780820380516001836020036101000a031916815260200191505b508481038352600681526020018065756e6c6f636b60d01b815250602001848103825285818151815260200191508051906020019080838360005b838110156146145781810151838201526020016145fc565b50505050905090810190601f1680156146415780820380516001836020036101000a031916815260200191505b509650505050505050602060405180830381600087803b15801561466457600080fd5b505af1158015614678573d6000803e3d6000fd5b505050506040513d602081101561468e57600080fd5b50516146cb5760405162461bcd60e51b815260040180806020018281038252602f815260200180615c7e602f913960400191505060405180910390fd5b5060019998505050505050505050565b60006001600160a01b03831661476a57346147275760405162461bcd60e51b8152600401808060200182810382526021815260200180615ed66021913960400191505060405180910390fd5b8134146147655760405162461bcd60e51b8152600401808060200182810382526029815260200180615d116029913960400191505060405180910390fd5b6147f5565b34156147a75760405162461bcd60e51b8152600401808060200182810382526022815260200180615c3c6022913960400191505060405180910390fd5b6147ba836147b3613d1e565b3085614f67565b6147f55760405162461bcd60e51b8152600401808060200182810382526033815260200180615b016033913960400191505060405180910390fd5b50600192915050565b60008561481b6001600160a01b038716828463ffffffff614d2716565b6148356001600160a01b038716888763ffffffff614d2716565b60408051630ed2fc9560e01b81526001600160a01b038881166004830152868116602483015260448201889052606482018690529151600092841691630ed2fc9591608480830192602092919082900301818787803b15801561489757600080fd5b505af11580156148ab573d6000803e3d6000fd5b505050506040513d60208110156148c157600080fd5b505198975050505050505050565b600080859050614956866000836001600160a01b03166382c630666040518163ffffffff1660e01b815260040160206040518083038186803b15801561491457600080fd5b505afa158015614928573d6000803e3d6000fd5b505050506040513d602081101561493e57600080fd5b50516001600160a01b0316919063ffffffff614d2716565b6149948686836001600160a01b03166382c630666040518163ffffffff1660e01b815260040160206040518083038186803b15801561491457600080fd5b604080516314e0d0c160e21b8152600481018790526001600160a01b038681166024830152604482018690529151600092841691635383430491606480830192602092919082900301818787803b15801561433557600080fd5b6001600160a01b038116614a335760405162461bcd60e51b8152600401808060200182810382526026815260200180615b346026913960400191505060405180910390fd5b600080546040516001600160a01b03808516939216917f8be0079c531659141344cd1fd0a4f28419497f9722a3daafe3b4186f6b6457e091a3600080546001600160a01b0319166001600160a01b0392909216919091179055565b6000836115e26001600160a01b038216858563ffffffff614f8516565b6060600080614aba8585614fd7565b865190955090915081850111801590614ad557508084018411155b614b105760405162461bcd60e51b8152600401808060200182810382526024815260200180615e356024913960400191505060405180910390fd5b606081158015614b2b57604051915060208201604052614b75565b6040519150601f8316801560200281840101848101888315602002848c0101015b81831015614b64578051835260209283019201614b4c565b5050848452601f01601f1916604052505b509250830190505b9250929050565b60008083518360200111158015614b9d57508260200183105b614bd85760405162461bcd60e51b8152600401808060200182810382526023815260200180615abb6023913960400191505060405180910390fd5b600060405160206000600182038760208a0101515b83831015614c0d5780821a83860153600183019250600182039150614bed565b50505081016040525190506001600160ff1b03811115614c74576040805162461bcd60e51b815260206004820152601760248201527f56616c75652065786365656473207468652072616e6765000000000000000000604482015290519081900360640190fd5b9460209390930193505050565b60008083518360080111158015614c9a57508260080183105b614cd55760405162461bcd60e51b8152600401808060200182810382526022815260200180615df16022913960400191505060405180910390fd5b600060405160086000600182038760208a0101515b83831015614d0a5780821a83860153600183019250600182039150614cea565b505050808201604052602003900351956008949094019450505050565b801580614dad575060408051636eb1769f60e11b81523060048201526001600160a01b03848116602483015291519185169163dd62ed3e91604480820192602092909190829003018186803b158015614d7f57600080fd5b505afa158015614d93573d6000803e3d6000fd5b505050506040513d6020811015614da957600080fd5b5051155b614de85760405162461bcd60e51b8152600401808060200182810382526036815260200180615e596036913960400191505060405180910390fd5b604080516001600160a01b038416602482015260448082018490528251808303909101815260649091019091526020810180516001600160e01b031663095ea7b360e01b179052613d199084906151f0565b606080614e4a83600001516153a5565b614e5784602001516153a5565b614e64856040015161546b565b6040516020018084805190602001908083835b60208310614e965780518252601f199092019160209182019101614e77565b51815160209384036101000a600019018019909216911617905286519190930192860191508083835b60208310614ede5780518252601f199092019160209182019101614ebf565b51815160209384036101000a600019018019909216911617905285519190930192850191508083835b60208310614f265780518252601f199092019160209182019101614f07565b6001836020036101000a0380198251168184511680821785525050505050509050019350505050604051602081830303815290604052905080915050919050565b6000846119156001600160a01b03821686868663ffffffff61550816565b604080516001600160a01b038416602482015260448082018490528251808303909101815260649091019091526020810180516001600160e01b031663a9059cbb60e01b179052613d199084906151f0565b6000806000614fe68585615562565b94509050600060fd60f81b6001600160f81b0319831614156150845761500c86866155e0565b955061ffff16905060fd8110801590615027575061ffff8111155b615078576040805162461bcd60e51b815260206004820152601f60248201527f4e65787455696e7431362c2076616c7565206f7574736964652072616e676500604482015290519081900360640190fd5b9250839150614b7d9050565b607f60f91b6001600160f81b031983161415615114576150a48686615669565b955063ffffffff16905061ffff811180156150c3575063ffffffff8111155b615078576040805162461bcd60e51b815260206004820181905260248201527f4e65787456617255696e742c2076616c7565206f7574736964652072616e6765604482015290519081900360640190fd5b6001600160f81b03198083161415615195576151308686614c81565b95506001600160401b0316905063ffffffff8111615078576040805162461bcd60e51b815260206004820181905260248201527f4e65787456617255696e742c2076616c7565206f7574736964652072616e6765604482015290519081900360640190fd5b5060f881901c60fd8110615078576040805162461bcd60e51b815260206004820181905260248201527f4e65787456617255696e742c2076616c7565206f7574736964652072616e6765604482015290519081900360640190fd5b6151f98261570f565b61524a576040805162461bcd60e51b815260206004820152601f60248201527f5361666545524332303a2063616c6c20746f206e6f6e2d636f6e747261637400604482015290519081900360640190fd5b60006060836001600160a01b0316836040518082805190602001908083835b602083106152885780518252601f199092019160209182019101615269565b6001836020036101000a0380198251168184511680821785525050505050509050019150506000604051808303816000865af19150503d80600081146152ea576040519150601f19603f3d011682016040523d82523d6000602084013e6152ef565b606091505b509150915081615346576040805162461bcd60e51b815260206004820181905260248201527f5361666545524332303a206c6f772d6c6576656c2063616c6c206661696c6564604482015290519081900360640190fd5b80511561539f5780806020019051602081101561536257600080fd5b505161539f5760405162461bcd60e51b815260040180806020018281038252602a815260200180615dc7602a913960400191505060405180910390fd5b50505050565b80516060906153b38161574b565b836040516020018083805190602001908083835b602083106153e65780518252601f1990920191602091820191016153c7565b51815160209384036101000a600019018019909216911617905285519190930192850191508083835b6020831061542e5780518252601f19909201916020918201910161540f565b6001836020036101000a03801982511681845116808217855250505050505090500192505050604051602081830303815290604052915050919050565b60606001600160ff1b038211156154c9576040805162461bcd60e51b815260206004820152601b60248201527f56616c756520657863656564732075696e743235352072616e67650000000000604482015290519081900360640190fd5b60405160208082526000601f5b828210156154f85785811a8260208601015360019190910190600019016154d6565b5050506040818101905292915050565b604080516001600160a01b0385811660248301528416604482015260648082018490528251808303909101815260849091019091526020810180516001600160e01b03166323b872dd60e01b17905261539f9085906151f0565b6000808351836001011115801561557b57508260010183105b6155cc576040805162461bcd60e51b815260206004820181905260248201527f4e657874427974652c204f66667365742065786365656473206d6178696d756d604482015290519081900360640190fd5b505081810160200151600182019250929050565b600080835183600201111580156155f957508260020183105b6156345760405162461bcd60e51b8152600401808060200182810382526022815260200180615d5a6022913960400191505060405180910390fd5b6000604051846020870101518060011a82538060001a6001830153506002818101604052601d19909101519694019450505050565b6000808351836004011115801561568257508260040183105b6156bd5760405162461bcd60e51b8152600401808060200182810382526022815260200180615e136022913960400191505060405180910390fd5b600060405160046000600182038760208a0101515b838310156156f25780821a838601536001830192506001820391506156d2565b505050808201604052602003900351956004949094019450505050565b6000813f7fc5d2460186f7233c927e7db2dcc703c0e500b653ca82273b7bfad8045d85a47081158015906157435750808214155b949350505050565b606060fd826001600160401b0316101561576f5761576882615891565b9050611a5b565b61ffff826001600160401b03161161584d5761578e60fd60f81b6158ad565b615797836158c1565b6040516020018083805190602001908083835b602083106157c95780518252601f1990920191602091820191016157aa565b51815160209384036101000a600019018019909216911617905285519190930192850191508083835b602083106158115780518252601f1990920191602091820191016157f2565b6001836020036101000a038019825116818451168082178552505050505050905001925050506040516020818303038152906040529050611a5b565b63ffffffff826001600160401b0316116158775761586e607f60f91b6158ad565b61579783615904565b6158886001600160f81b03196158ad565b61579783615947565b604080516001815260f89290921b602083015260218201905290565b60606158bb8260f81c615891565b92915050565b6040516002808252606091906000601f5b828210156158f45785811a8260208601015360019190910190600019016158d2565b5050506022810160405292915050565b6040516004808252606091906000601f5b828210156159375785811a826020860101536001919091019060001901615915565b5050506024810160405292915050565b6040516008808252606091906000601f5b8282101561597a5785811a826020860101536001919091019060001901615958565b5050506028810160405292915050565b60405180606001604052806060815260200160608152602001600081525090565b828054600181600116156101000203166002900490600052602060002090601f016020900481019282601f106159ec57805160ff1916838001178555615a19565b82800160010185558215615a19579182015b82811115615a195782518255916020019190600101906159fe565b50615a25929150615a80565b5090565b604051806101000160405280600081526020016000815260200160006001600160401b0316815260200160006001600160401b03168152602001606081526020016060815260200160608152602001606081525090565b6128d791905b80821115615a255760008155600101615a8656fed90288730b87c2b8e0c45bd82260fd22478aba30ae1c4d578b8daba9261604df4e65787455696e743235352c206f66667365742065786365656473206d6178696d756d6279746573206c656e67746820646f6573206e6f74206d6174636820616464726573737472616e7366657220657263323020617373657420746f206c6f636b5f70726f787920636f6e7472616374206661696c6564214f776e61626c653a206e6577206f776e657220697320746865207a65726f206164647265737366726f6d207377617070657220636f6e74726163742061646472657373206572726f72217472616e736665722061737365742066726f6d206c6f636b5f70726f787920636f6e747261637420746f20746f41646472657373206661696c65642166726f6d20417373657420646f206e6f74206d6174636820706f6f6c20746f6b656e20616464726573736d736753656e646572206973206e6f742045746843726f7373436861696e4d616e61676572436f6e747261637466726f6d2070726f787920636f6e747261637420616464726573732063616e6e6f7420626520656d70747974686572652073686f756c64206265206e6f206574686572207472616e73666572214f776e61626c653a2063616c6c6572206973206e6f7420746865206f776e657245746843726f7373436861696e4d616e616765722063726f7373436861696e206578656375746564206572726f72217472616e736665722061737365742066726f6d2066726f6d4164647265737320746f206c6f636b5f70726f787920636f6e747261637420206661696c65642166726f6d20636f6e747261637420616464726573732063616e6e6f7420626520656d7074797472616e73666572726564206574686572206973206e6f7420657175616c20746f20616d6f756e74218636abd6d0e464fe725a13346c7ac779b73561c705506044a2e6b2cdb1295ea54e65787455696e7431362c206f66667365742065786365656473206d6178696d756d7468697320697320616e20696e7465726e616c5f66756e6374696f6e20696e2074686520666f726d206f66207075626c69635f66756e6374696f6e20666f72206361746368206572726f725361666545524332303a204552433230206f7065726174696f6e20646964206e6f7420737563636565644e65787455696e7436342c206f66667365742065786365656473206d6178696d756d4e65787455696e7433322c206f66667365742065786365656473206d6178696d756d4e65787456617242797465732c206f66667365742065786365656473206d6178696d756d5361666545524332303a20617070726f76652066726f6d206e6f6e2d7a65726f20746f206e6f6e2d7a65726f20616c6c6f77616e636546726f6d2050726f787920636f6e74726163742061646472657373206572726f72217472616e7366657220617373657420746f206e6577436f6e7472616374206661696c6564217472616e736665727265642065746865722063616e6e6f74206265207a65726f21a265627a7a7231582023a0af57d012668f39bef3ff7062c90df17e05d34cb36689e5e282f92971034b64736f6c63430005110032",
    "linkReferences": {}
  },
  "methodIdentifiers": {
    "add(bytes,bytes,uint64)": "3b2ae647",
    "addUnderlying(bytes,bytes,uint64)": "72abb8a5",
    "assetHashMap(address,uint64)": "4f7d9808",
    "assetPoolMap(uint64,uint64,bytes)": "85dbc866",
    "bindAssetHash(address,uint64,bytes)": "3348f63b",
    "bindPoolAddress(uint64,address)": "9a1231c8",
    "bindPoolAssetAddress(uint64,uint64,address,bytes)": "78901796",
    "bindProxyHash(uint64,bytes)": "379b98f6",
    "bindSwapperHash(uint64,bytes)": "9ad24ba5",
    "getBalanceFor(address)": "59c589a1",
    "isOwner()": "8f32d59b",
    "lock(address,uint64,bytes,uint256)": "84a6d055",
    "managerProxyContract()": "d798f881",
    "owner()": "8da5cb5b",
    "poolAddressMap(uint64)": "98669474",
    "proxyHashMap(uint64)": "9e5767aa",
    "remove(bytes,bytes,uint64)": "f072f520",
    "removeUnderlying(bytes,bytes,uint64)": "f03e2fad",
    "renounceOwnership()": "715018a6",
    "setManagerProxy(address)": "af9980f0",
    "swap(bytes,bytes,uint64)": "72c345ec",
    "swapUnderlying(bytes,bytes,uint64)": "ece088b3",
    "swapperHashMap(uint64)": "db3e29f1",
    "transferOwnership(address)": "f2fde38b",
    "unlock(bytes,bytes,uint64)": "06af4b9f",
    "update(address[],address)": "fc56058e"
  },
  "id": 30
}