{
  "abi": [
    {
      "constant": true,
      "inputs": [],
      "name": "_fromChainId",
      "outputs": [
        {
          "internalType": "uint64",
          "name": "",
          "type": "uint64"
        }
      ],
      "payable": false,
      "stateMutability": "view",
      "type": "function"
    },
    {
      "constant": true,
      "inputs": [],
      "name": "_fromContract",
      "outputs": [
        {
          "internalType": "bytes",
          "name": "",
          "type": "bytes"
        }
      ],
      "payable": false,
      "stateMutability": "view",
      "type": "function"
    },
    {
      "constant": true,
      "inputs": [],
      "name": "_method",
      "outputs": [
        {
          "internalType": "bytes",
          "name": "",
          "type": "bytes"
        }
      ],
      "payable": false,
      "stateMutability": "view",
      "type": "function"
    },
    {
      "constant": true,
      "inputs": [],
      "name": "_toChainId",
      "outputs": [
        {
          "internalType": "uint64",
          "name": "",
          "type": "uint64"
        }
      ],
      "payable": false,
      "stateMutability": "view",
      "type": "function"
    },
    {
      "constant": true,
      "inputs": [],
      "name": "_toContract",
      "outputs": [
        {
          "internalType": "bytes",
          "name": "",
          "type": "bytes"
        }
      ],
      "payable": false,
      "stateMutability": "view",
      "type": "function"
    },
    {
      "constant": true,
      "inputs": [],
      "name": "_txData",
      "outputs": [
        {
          "internalType": "bytes",
          "name": "",
          "type": "bytes"
        }
      ],
      "payable": false,
      "stateMutability": "view",
      "type": "function"
    },
    {
      "constant": false,
      "inputs": [],
      "name": "clearStorage",
      "outputs": [],
      "payable": false,
      "stateMutability": "nonpayable",
      "type": "function"
    },
    {
      "constant": false,
      "inputs": [
        {
          "internalType": "uint64",
          "name": "toChainId",
          "type": "uint64"
        },
        {
          "internalType": "bytes",
          "name": "toContract",
          "type": "bytes"
        },
        {
          "internalType": "bytes",
          "name": "method",
          "type": "bytes"
        },
        {
          "internalType": "bytes",
          "name": "txData",
          "type": "bytes"
        }
      ],
      "name": "crossChain",
      "outputs": [
        {
          "internalType": "bool",
          "name": "",
          "type": "bool"
        }
      ],
      "payable": false,
      "stateMutability": "nonpayable",
      "type": "function"
    },
    {
      "constant": true,
      "inputs": [],
      "name": "iAmMock",
      "outputs": [
        {
          "internalType": "bool",
          "name": "",
          "type": "bool"
        }
      ],
      "payable": false,
      "stateMutability": "pure",
      "type": "function"
    },
    {
      "constant": false,
      "inputs": [
        {
          "internalType": "bytes",
          "name": "toContract",
          "type": "bytes"
        },
        {
          "internalType": "bytes",
          "name": "method",
          "type": "bytes"
        },
        {
          "internalType": "bytes",
          "name": "args",
          "type": "bytes"
        },
        {
          "internalType": "bytes",
          "name": "fromContract",
          "type": "bytes"
        },
        {
          "internalType": "uint64",
          "name": "fromChainId",
          "type": "uint64"
        }
      ],
      "name": "verifyHeaderAndExecuteTx",
      "outputs": [
        {
          "internalType": "bool",
          "name": "",
          "type": "bool"
        }
      ],
      "payable": false,
      "stateMutability": "nonpayable",
      "type": "function"
    }
  ],
  "bytecode": {
    "object": "0x608060405234801561001057600080fd5b50610dc4806100206000396000f3fe608060405234801561001057600080fd5b506004361061009e5760003560e01c8063859c7af811610066578063859c7af814610173578063acbecacf1461017b578063bd5cf62514610183578063d6b911be146102a2578063e73d5c6a146104e15761009e565b80630ffca017146100a357806326df3b19146101205780633327090c146101455780634a8a1bfc1461014d57806369bd38a014610169575b600080fd5b6100ab6104e9565b6040805160208082528351818301528351919283929083019185019080838360005b838110156100e55781810151838201526020016100cd565b50505050905090810190601f1680156101125780820380516001836020036101000a031916815260200191505b509250505060405180910390f35b610128610577565b6040805167ffffffffffffffff9092168252519081900360200190f35b6100ab610587565b6101556105e1565b604080519115158252519081900360200190f35b6101716105e7565b005b6100ab61063b565b6100ab610693565b6101556004803603608081101561019957600080fd5b67ffffffffffffffff8235169190810190604081016020820135600160201b8111156101c457600080fd5b8201836020820111156101d657600080fd5b803590602001918460018302840111600160201b831117156101f757600080fd5b919390929091602081019035600160201b81111561021457600080fd5b82018360208201111561022657600080fd5b803590602001918460018302840111600160201b8311171561024757600080fd5b919390929091602081019035600160201b81111561026457600080fd5b82018360208201111561027657600080fd5b803590602001918460018302840111600160201b8311171561029757600080fd5b5090925090506106ee565b610155600480360360a08110156102b857600080fd5b810190602081018135600160201b8111156102d257600080fd5b8201836020820111156102e457600080fd5b803590602001918460018302840111600160201b8311171561030557600080fd5b91908080601f0160208091040260200160405190810160405280939291908181526020018383808284376000920191909152509295949360208101935035915050600160201b81111561035757600080fd5b82018360208201111561036957600080fd5b803590602001918460018302840111600160201b8311171561038a57600080fd5b91908080601f0160208091040260200160405190810160405280939291908181526020018383808284376000920191909152509295949360208101935035915050600160201b8111156103dc57600080fd5b8201836020820111156103ee57600080fd5b803590602001918460018302840111600160201b8311171561040f57600080fd5b91908080601f0160208091040260200160405190810160405280939291908181526020018383808284376000920191909152509295949360208101935035915050600160201b81111561046157600080fd5b82018360208201111561047357600080fd5b803590602001918460018302840111600160201b8311171561049457600080fd5b91908080601f0160208091040260200160405190810160405280939291908181526020018383808284376000920191909152509295505050903567ffffffffffffffff16915061077d9050565b610128610b21565b6004805460408051602060026001851615610100026000190190941693909304601f8101849004840282018401909252818152929183018282801561056f5780601f106105445761010080835404028352916020019161056f565b820191906000526020600020905b81548152906001019060200180831161055257829003601f168201915b505050505081565b60005467ffffffffffffffff1681565b60018054604080516020600284861615610100026000190190941693909304601f8101849004840282018401909252818152929183018282801561056f5780601f106105445761010080835404028352916020019161056f565b60015b90565b6000805467ffffffffffffffff1916815561060490600190610b96565b61061060026000610b96565b61061c60036000610b96565b61062860046000610b96565b6005805467ffffffffffffffff19169055565b6002805460408051602060018416156101000260001901909316849004601f8101849004840282018401909252818152929183018282801561056f5780601f106105445761010080835404028352916020019161056f565b6003805460408051602060026001851615610100026000190190941693909304601f8101849004840282018401909252818152929183018282801561056f5780601f106105445761010080835404028352916020019161056f565b6000805467ffffffffffffffff191667ffffffffffffffff891617815561071760018888610bdd565b5061072460028686610bdd565b5061073160038484610bdd565b5061073b33610b31565b805161074f91600491602090910190610c5b565b50506005805467ffffffffffffffff891667ffffffffffffffff199091161790556001979650505050505050565b600080606061078b88610b4c565b6001600160a01b0316876040516020018082805190602001908083835b602083106107c75780518252601f1990920191602091820191016107a8565b51815160001960209485036101000a01908116901991909116179052732862797465732c62797465732c75696e7436342960601b9390910192835260408051600b198186030181526014850190915280519082012067ffffffffffffffff8b1660748501526060603485019081528d5160948601528d519196508d95508c948c945090928392605483019260b4019188019080838360005b8381101561087757818101518382015260200161085f565b50505050905090810190601f1680156108a45780820380516001836020036101000a031916815260200191505b50838103825285518152855160209182019187019080838360005b838110156108d75781810151838201526020016108bf565b50505050905090810190601f1680156109045780820380516001836020036101000a031916815260200191505b509550505050505060405160208183030381529060405260405160200180836001600160e01b0319166001600160e01b031916815260040182805190602001908083835b602083106109675780518252601f199092019160209182019101610948565b6001836020036101000a038019825116818451168082178552505050505050905001925050506040516020818303038152906040526040518082805190602001908083835b602083106109cb5780518252601f1990920191602091820191016109ac565b6001836020036101000a0380198251168184511680821785525050505050509050019150506000604051808303816000865af19150503d8060008114610a2d576040519150601f19603f3d011682016040523d82523d6000602084013e610a32565b606091505b509092509050600182151514610a795760405162461bcd60e51b815260040180806020018281038252602b815260200180610d07602b913960400191505060405180910390fd5b8051610ab65760405162461bcd60e51b8152600401808060200182810382526027815260200180610d326027913960400191505060405180910390fd5b6000818060200190516020811015610acd57600080fd5b50519050600181151514610b125760405162461bcd60e51b8152600401808060200182810382526037815260200180610d596037913960400191505060405180910390fd5b50600198975050505050505050565b60055467ffffffffffffffff1681565b604080516014815260609290921b6020830152818101905290565b60008151601414610b8e5760405162461bcd60e51b8152600401808060200182810382526023815260200180610ce46023913960400191505060405180910390fd5b506014015190565b50805460018160011615610100020316600290046000825580601f10610bbc5750610bda565b601f016020900490600052602060002090810190610bda9190610cc9565b50565b828054600181600116156101000203166002900490600052602060002090601f016020900481019282601f10610c1e5782800160ff19823516178555610c4b565b82800160010185558215610c4b579182015b82811115610c4b578235825591602001919060010190610c30565b50610c57929150610cc9565b5090565b828054600181600116156101000203166002900490600052602060002090601f016020900481019282601f10610c9c57805160ff1916838001178555610c4b565b82800160010185558215610c4b579182015b82811115610c4b578251825591602001919060010190610cae565b6105e491905b80821115610c575760008155600101610ccf56fe6279746573206c656e67746820646f6573206e6f74206d61746368206164647265737345746843726f7373436861696e2063616c6c20627573696e65737320636f6e7472616374206661696c65644e6f2072657475726e2076616c75652066726f6d20627573696e65737320636f6e74726163742145746843726f7373436861696e2063616c6c20627573696e65737320636f6e74726163742072657475726e206973206e6f742074727565a265627a7a72315820c48d264eb2ef6151be14d2146ed2885fb98789771aaed2244bd072470babf22a64736f6c63430005110032",
    "linkReferences": {}
  },
  "methodIdentifiers": {
    "_fromChainId()": "e73d5c6a",
    "_fromContract()": "0ffca017",
    "_method()": "859c7af8",
    "_toChainId()": "26df3b19",
    "_toContract()": "3327090c",
    "_txData()": "acbecacf",
    "clearStorage()": "69bd38a0",
    "crossChain(uint64,bytes,bytes,bytes)": "bd5cf625",
    "iAmMock()": "4a8a1bfc",
    "verifyHeaderAndExecuteTx(bytes,bytes,bytes,bytes,uint64)": "d6b911be"
  },
  "id": 56
}