{
  "abi": [
    {
      "anonymous": false,
      "inputs": [
        {
          "indexed": false,
          "internalType": "address",
          "name": "fromAssetHash",
          "type": "address"
        },
        {
          "indexed": false,
          "internalType": "uint64",
          "name": "toChainId",
          "type": "uint64"
        },
        {
          "indexed": false,
          "internalType": "bytes",
          "name": "targetProxyHash",
          "type": "bytes"
        },
        {
          "indexed": false,
          "internalType": "uint256",
          "name": "initialAmount",
          "type": "uint256"
        }
      ],
      "name": "BindAssetEvent",
      "type": "event"
    },
    {
      "anonymous": false,
      "inputs": [
        {
          "indexed": false,
          "internalType": "uint64",
          "name": "toChainId",
          "type": "uint64"
        },
        {
          "indexed": false,
          "internalType": "bytes",
          "name": "targetProxyHash",
          "type": "bytes"
        }
      ],
      "name": "BindProxyEvent",
      "type": "event"
    },
    {
      "anonymous": false,
      "inputs": [
        {
          "indexed": false,
          "internalType": "address",
          "name": "fromAssetHash",
          "type": "address"
        },
        {
          "indexed": false,
          "internalType": "address",
          "name": "fromAddress",
          "type": "address"
        },
        {
          "indexed": false,
          "internalType": "uint64",
          "name": "toChainId",
          "type": "uint64"
        },
        {
          "indexed": false,
          "internalType": "bytes",
          "name": "toAssetHash",
          "type": "bytes"
        },
        {
          "indexed": false,
          "internalType": "bytes",
          "name": "toAddress",
          "type": "bytes"
        },
        {
          "indexed": false,
          "internalType": "uint256",
          "name": "amount",
          "type": "uint256"
        }
      ],
      "name": "LockEvent",
      "type": "event"
    },
    {
      "anonymous": false,
      "inputs": [
        {
          "indexed": true,
          "internalType": "address",
          "name": "previousOwner",
          "type": "address"
        },
        {
          "indexed": true,
          "internalType": "address",
          "name": "newOwner",
          "type": "address"
        }
      ],
      "name": "OwnershipTransferred",
      "type": "event"
    },
    {
      "anonymous": false,
      "inputs": [
        {
          "indexed": false,
          "internalType": "address",
          "name": "manager",
          "type": "address"
        }
      ],
      "name": "SetManagerProxyEvent",
      "type": "event"
    },
    {
      "anonymous": false,
      "inputs": [
        {
          "indexed": false,
          "internalType": "address",
          "name": "toAssetHash",
          "type": "address"
        },
        {
          "indexed": false,
          "internalType": "address",
          "name": "toAddress",
          "type": "address"
        },
        {
          "indexed": false,
          "internalType": "uint256",
          "name": "amount",
          "type": "uint256"
        }
      ],
      "name": "UnlockEvent",
      "type": "event"
    },
    {
      "constant": true,
      "inputs": [
        {
          "internalType": "address",
          "name": "",
          "type": "address"
        },
        {
          "internalType": "uint64",
          "name": "",
          "type": "uint64"
        }
      ],
      "name": "assetHashMap",
      "outputs": [
        {
          "internalType": "bytes",
          "name": "",
          "type": "bytes"
        }
      ],
      "payable": false,
      "stateMutability": "view",
      "type": "function"
    },
    {
      "constant": false,
      "inputs": [
        {
          "internalType": "address",
          "name": "fromAssetHash",
          "type": "address"
        },
        {
          "internalType": "uint64",
          "name": "toChainId",
          "type": "uint64"
        },
        {
          "internalType": "bytes",
          "name": "toAssetHash",
          "type": "bytes"
        }
      ],
      "name": "bindAssetHash",
      "outputs": [
        {
          "internalType": "bool",
          "name": "",
          "type": "bool"
        }
      ],
      "payable": false,
      "stateMutability": "nonpayable",
      "type": "function"
    },
    {
      "constant": false,
      "inputs": [
        {
          "internalType": "uint64",
          "name": "toChainId",
          "type": "uint64"
        },
        {
          "internalType": "bytes",
          "name": "targetProxyHash",
          "type": "bytes"
        }
      ],
      "name": "bindProxyHash",
      "outputs": [
        {
          "internalType": "bool",
          "name": "",
          "type": "bool"
        }
      ],
      "payable": false,
      "stateMutability": "nonpayable",
      "type": "function"
    },
    {
      "constant": true,
      "inputs": [
        {
          "internalType": "address",
          "name": "fromAssetHash",
          "type": "address"
        }
      ],
      "name": "getBalanceFor",
      "outputs": [
        {
          "internalType": "uint256",
          "name": "",
          "type": "uint256"
        }
      ],
      "payable": false,
      "stateMutability": "view",
      "type": "function"
    },
    {
      "constant": true,
      "inputs": [],
      "name": "isOwner",
      "outputs": [
        {
          "internalType": "bool",
          "name": "",
          "type": "bool"
        }
      ],
      "payable": false,
      "stateMutability": "view",
      "type": "function"
    },
    {
      "constant": false,
      "inputs": [
        {
          "internalType": "address",
          "name": "fromAssetHash",
          "type": "address"
        },
        {
          "internalType": "uint64",
          "name": "toChainId",
          "type": "uint64"
        },
        {
          "internalType": "bytes",
          "name": "toAddress",
          "type": "bytes"
        },
        {
          "internalType": "uint256",
          "name": "amount",
          "type": "uint256"
        }
      ],
      "name": "lock",
      "outputs": [
        {
          "internalType": "bool",
          "name": "",
          "type": "bool"
        }
      ],
      "payable": true,
      "stateMutability": "payable",
      "type": "function"
    },
    {
      "constant": true,
      "inputs": [],
      "name": "managerProxyContract",
      "outputs": [
        {
          "internalType": "address",
          "name": "",
          "type": "address"
        }
      ],
      "payable": false,
      "stateMutability": "view",
      "type": "function"
    },
    {
      "constant": true,
      "inputs": [],
      "name": "owner",
      "outputs": [
        {
          "internalType": "address",
          "name": "",
          "type": "address"
        }
      ],
      "payable": false,
      "stateMutability": "view",
      "type": "function"
    },
    {
      "constant": true,
      "inputs": [
        {
          "internalType": "uint64",
          "name": "",
          "type": "uint64"
        }
      ],
      "name": "proxyHashMap",
      "outputs": [
        {
          "internalType": "bytes",
          "name": "",
          "type": "bytes"
        }
      ],
      "payable": false,
      "stateMutability": "view",
      "type": "function"
    },
    {
      "constant": false,
      "inputs": [],
      "name": "renounceOwnership",
      "outputs": [],
      "payable": false,
      "stateMutability": "nonpayable",
      "type": "function"
    },
    {
      "constant": false,
      "inputs": [
        {
          "internalType": "address",
          "name": "ethCCMProxyAddr",
          "type": "address"
        }
      ],
      "name": "setManagerProxy",
      "outputs": [],
      "payable": false,
      "stateMutability": "nonpayable",
      "type": "function"
    },
    {
      "constant": false,
      "inputs": [
        {
          "internalType": "address",
          "name": "newOwner",
          "type": "address"
        }
      ],
      "name": "transferOwnership",
      "outputs": [],
      "payable": false,
      "stateMutability": "nonpayable",
      "type": "function"
    },
    {
      "constant": false,
      "inputs": [
        {
          "internalType": "bytes",
          "name": "argsBs",
          "type": "bytes"
        },
        {
          "internalType": "bytes",
          "name": "fromContractAddr",
          "type": "bytes"
        },
        {
          "internalType": "uint64",
          "name": "fromChainId",
          "type": "uint64"
        }
      ],
      "name": "unlock",
      "outputs": [
        {
          "internalType": "bool",
          "name": "",
          "type": "bool"
        }
      ],
      "payable": false,
      "stateMutability": "nonpayable",
      "type": "function"
    }
  ],
  "bytecode": {
    "object": "0x608060405260006100176001600160e01b0361006616565b600080546001600160a01b0319166001600160a01b0383169081178255604051929350917f8be0079c531659141344cd1fd0a4f28419497f9722a3daafe3b4186f6b6457e0908290a35061006a565b3390565b612b8b806100796000396000f3fe6080604052600436106100c25760003560e01c806384a6d0551161007f5780639e5767aa116100595780639e5767aa146105c9578063af9980f0146105fc578063d798f8811461062f578063f2fde38b14610644576100c2565b806384a6d055146104bf5780638da5cb5b146105835780638f32d59b146105b4576100c2565b806306af4b9f146100c75780633348f63b1461021c578063379b98f6146102eb5780634f7d9808146103ac57806359c589a114610463578063715018a6146104a8575b600080fd5b3480156100d357600080fd5b50610208600480360360608110156100ea57600080fd5b810190602081018135600160201b81111561010457600080fd5b82018360208201111561011657600080fd5b803590602001918460018302840111600160201b8311171561013757600080fd5b91908080601f0160208091040260200160405190810160405280939291908181526020018383808284376000920191909152509295949360208101935035915050600160201b81111561018957600080fd5b82018360208201111561019b57600080fd5b803590602001918460018302840111600160201b831117156101bc57600080fd5b91908080601f016020809104026020016040519081016040528093929190818152602001838380828437600092019190915250929550505090356001600160401b031691506106779050565b604080519115158252519081900360200190f35b34801561022857600080fd5b506102086004803603606081101561023f57600080fd5b6001600160a01b03823516916001600160401b0360208201351691810190606081016040820135600160201b81111561027757600080fd5b82018360208201111561028957600080fd5b803590602001918460018302840111600160201b831117156102aa57600080fd5b91908080601f01602080910402602001604051908101604052809392919081815260200183838082843760009201919091525092955061096a945050505050565b3480156102f757600080fd5b506102086004803603604081101561030e57600080fd5b6001600160401b038235169190810190604081016020820135600160201b81111561033857600080fd5b82018360208201111561034a57600080fd5b803590602001918460018302840111600160201b8311171561036b57600080fd5b91908080601f016020809104026020016040519081016040528093929190818152602001838380828437600092019190915250929550610ad5945050505050565b3480156103b857600080fd5b506103ee600480360360408110156103cf57600080fd5b5080356001600160a01b031690602001356001600160401b0316610c04565b6040805160208082528351818301528351919283929083019185019080838360005b83811015610428578181015183820152602001610410565b50505050905090810190601f1680156104555780820380516001836020036101000a031916815260200191505b509250505060405180910390f35b34801561046f57600080fd5b506104966004803603602081101561048657600080fd5b50356001600160a01b0316610ca8565b60408051918252519081900360200190f35b3480156104b457600080fd5b506104bd610d43565b005b610208600480360360808110156104d557600080fd5b6001600160a01b03823516916001600160401b0360208201351691810190606081016040820135600160201b81111561050d57600080fd5b82018360208201111561051f57600080fd5b803590602001918460018302840111600160201b8311171561054057600080fd5b91908080601f0160208091040260200160405190810160405280939291908181526020018383808284376000920191909152509295505091359250610dd4915050565b34801561058f57600080fd5b5061059861144b565b604080516001600160a01b039092168252519081900360200190f35b3480156105c057600080fd5b5061020861145b565b3480156105d557600080fd5b506103ee600480360360208110156105ec57600080fd5b50356001600160401b031661147f565b34801561060857600080fd5b506104bd6004803603602081101561061f57600080fd5b50356001600160a01b03166114e5565b34801561063b57600080fd5b50610598611586565b34801561065057600080fd5b506104bd6004803603602081101561066757600080fd5b50356001600160a01b0316611595565b600154604080516387939a7f60e01b815290516000926001600160a01b03169182916387939a7f91600480820192602092909190829003018186803b1580156106bf57600080fd5b505afa1580156106d3573d6000803e3d6000fd5b505050506040513d60208110156106e957600080fd5b50516001600160a01b03166106fc6115e8565b6001600160a01b0316146107415760405162461bcd60e51b815260040180806020018281038252602d81526020018061292f602d913960400191505060405180910390fd5b61074961279a565b610752866115ec565b90508451600014156107955760405162461bcd60e51b815260040180806020018281038252602b81526020018061295c602b913960400191505060405180910390fd5b6001600160401b03841660009081526002602052604090206107b79086611638565b6107f25760405162461bcd60e51b8152600401808060200182810382526022815260200180612b146022913960400191505060405180910390fd5b805151610846576040805162461bcd60e51b815260206004820152601b60248201527f746f4173736574486173682063616e6e6f7420626520656d7074790000000000604482015290519081900360640190fd5b600061085582600001516116ec565b9050816020015151600014156108b2576040805162461bcd60e51b815260206004820152601960248201527f746f416464726573732063616e6e6f7420626520656d70747900000000000000604482015290519081900360640190fd5b60006108c183602001516116ec565b90506108d282828560400151611736565b61090d5760405162461bcd60e51b815260040180806020018281038252603c8152602001806128f3603c913960400191505060405180910390fd5b60408084015181516001600160a01b038086168252841660208201528083019190915290517fd90288730b87c2b8e0c45bd82260fd22478aba30ae1c4d578b8daba9261604df9181900360600190a1506001979650505050505050565b600061097461145b565b6109b3576040805162461bcd60e51b815260206004820181905260248201526000805160206129a9833981519152604482015290519081900360640190fd5b6001600160a01b03841660009081526003602090815260408083206001600160401b0387168452825290912083516109ed928501906127bb565b507f1628c8374c1bdfeb2275fd9f4c90562fd3fae974783dc522c8234e36abcfc58e848484610a1b88610ca8565b60405180856001600160a01b03166001600160a01b03168152602001846001600160401b03166001600160401b0316815260200180602001838152602001828103825284818151815260200191508051906020019080838360005b83811015610a8e578181015183820152602001610a76565b50505050905090810190601f168015610abb5780820380516001836020036101000a031916815260200191505b509550505050505060405180910390a15060019392505050565b6000610adf61145b565b610b1e576040805162461bcd60e51b815260206004820181905260248201526000805160206129a9833981519152604482015290519081900360640190fd5b6001600160401b03831660009081526002602090815260409091208351610b47928501906127bb565b507fdacd7d303272a3b58aec6620d6d1fb588f4996a5b46858ed437f1c34348f2d0f838360405180836001600160401b03166001600160401b0316815260200180602001828103825283818151815260200191508051906020019080838360005b83811015610bc0578181015183820152602001610ba8565b50505050905090810190601f168015610bed5780820380516001836020036101000a031916815260200191505b50935050505060405180910390a150600192915050565b60036020908152600092835260408084208252918352918190208054825160026001831615610100026000190190921691909104601f810185900485028201850190935282815292909190830182828015610ca05780601f10610c7557610100808354040283529160200191610ca0565b820191906000526020600020905b815481529060010190602001808311610c8357829003601f168201915b505050505081565b60006001600160a01b038216610cc057503031610d3e565b604080516370a0823160e01b8152306004820152905183916001600160a01b038316916370a0823191602480820192602092909190829003018186803b158015610d0957600080fd5b505afa158015610d1d573d6000803e3d6000fd5b505050506040513d6020811015610d3357600080fd5b50519150610d3e9050565b919050565b610d4b61145b565b610d8a576040805162461bcd60e51b815260206004820181905260248201526000805160206129a9833981519152604482015290519081900360640190fd5b600080546040516001600160a01b03909116907f8be0079c531659141344cd1fd0a4f28419497f9722a3daafe3b4186f6b6457e0908390a3600080546001600160a01b0319169055565b600081610e21576040805162461bcd60e51b8152602060048201526016602482015275616d6f756e742063616e6e6f74206265207a65726f2160501b604482015290519081900360640190fd5b610e2b85836117d2565b610e665760405162461bcd60e51b815260040180806020018281038252603f8152602001806129f8603f913960400191505060405180910390fd5b6001600160a01b03851660009081526003602090815260408083206001600160401b038816845282529182902080548351601f6002600019610100600186161502019093169290920491820184900484028101840190945280845260609392830182828015610f165780601f10610eeb57610100808354040283529160200191610f16565b820191906000526020600020905b815481529060010190602001808311610ef957829003601f168201915b50505050509050805160001415610f74576040805162461bcd60e51b815260206004820152601960248201527f656d70747920696c6c6567616c20746f41737365744861736800000000000000604482015290519081900360640190fd5b610f7c61279a565b60405180606001604052808381526020018681526020018581525090506060610fa4826118f5565b90506000600160009054906101000a90046001600160a01b031690506000816001600160a01b03166387939a7f6040518163ffffffff1660e01b815260040160206040518083038186803b158015610ffb57600080fd5b505afa15801561100f573d6000803e3d6000fd5b505050506040513d602081101561102557600080fd5b50516001600160401b038a16600090815260026020818152604092839020805484516001821615610100026000190190911693909304601f8101839004830284018301909452838352939450849360609390918301828280156110c95780601f1061109e576101008083540402835291602001916110c9565b820191906000526020600020905b8154815290600101906020018083116110ac57829003601f168201915b50505050509050805160001415611127576040805162461bcd60e51b815260206004820152601960248201527f656d70747920696c6c6567616c20746f50726f78794861736800000000000000604482015290519081900360640190fd5b816001600160a01b031663bd5cf6258c83886040518463ffffffff1660e01b815260040180846001600160401b03166001600160401b03168152602001806020018060200180602001848103845286818151815260200191508051906020019080838360005b838110156111a557818101518382015260200161118d565b50505050905090810190601f1680156111d25780820380516001836020036101000a031916815260200191505b508481038352600681526020018065756e6c6f636b60d01b815250602001848103825285818151815260200191508051906020019080838360005b8381101561122557818101518382015260200161120d565b50505050905090810190601f1680156112525780820380516001836020036101000a031916815260200191505b509650505050505050602060405180830381600087803b15801561127557600080fd5b505af1158015611289573d6000803e3d6000fd5b505050506040513d602081101561129f57600080fd5b50516112dc5760405162461bcd60e51b815260040180806020018281038252602f8152602001806129c9602f913960400191505060405180910390fd5b7f8636abd6d0e464fe725a13346c7ac779b73561c705506044a2e6b2cdb1295ea58c6113066115e8565b8d8a8e8e60405180876001600160a01b03166001600160a01b03168152602001866001600160a01b03166001600160a01b03168152602001856001600160401b03166001600160401b031681526020018060200180602001848152602001838103835286818151815260200191508051906020019080838360005b83811015611399578181015183820152602001611381565b50505050905090810190601f1680156113c65780820380516001836020036101000a031916815260200191505b50838103825285518152855160209182019187019080838360005b838110156113f95781810151838201526020016113e1565b50505050905090810190601f1680156114265780820380516001836020036101000a031916815260200191505b509850505050505050505060405180910390a15060019b9a5050505050505050505050565b6000546001600160a01b03165b90565b600080546001600160a01b03166114706115e8565b6001600160a01b031614905090565b600260208181526000928352604092839020805484516001821615610100026000190190911693909304601f8101839004830284018301909452838352919290830182828015610ca05780601f10610c7557610100808354040283529160200191610ca0565b6114ed61145b565b61152c576040805162461bcd60e51b815260206004820181905260248201526000805160206129a9833981519152604482015290519081900360640190fd5b600180546001600160a01b0319166001600160a01b03838116919091179182905560408051929091168252517f43b1a8ec337adb61e8311ed025d99c80db65c02fe5c5027c1b6a93b40970cec4916020908290030190a150565b6001546001600160a01b031681565b61159d61145b565b6115dc576040805162461bcd60e51b815260206004820181905260248201526000805160206129a9833981519152604482015290519081900360640190fd5b6115e581611a22565b50565b3390565b6115f461279a565b6115fc61279a565b60006116088482611ac2565b90835290506116178482611ac2565b6020840191909152905061162b8482611b9b565b5060408301525092915050565b6000806001905083546002600180831615610100020382160484518082146001811461166757600094506116e0565b82156116e05760208310600181146116c557600189600052602060002060208a018581015b6002848284100114156116bc5781518354146116ab5760009950600093505b60018301925060208201915061168c565b505050506116de565b610100808604029450602088015185146116de57600095505b505b50929695505050505050565b6000815160141461172e5760405162461bcd60e51b81526004018080602001828103825260238152602001806128776023913960400191505060405180910390fd5b506014015190565b60006001600160a01b038416611782576040516001600160a01b0384169083156108fc029084906000818181858888f1935050505015801561177c573d6000803e3d6000fd5b506117c8565b61178d848484611c98565b6117c85760405162461bcd60e51b815260040180806020018281038252603381526020018061289a6033913960400191505060405180910390fd5b5060019392505050565b60006001600160a01b038316611861573461181e5760405162461bcd60e51b8152600401808060200182810382526021815260200180612b366021913960400191505060405180910390fd5b81341461185c5760405162461bcd60e51b8152600401808060200182810382526029815260200180612a376029913960400191505060405180910390fd5b6118ec565b341561189e5760405162461bcd60e51b81526004018080602001828103825260228152602001806129876022913960400191505060405180910390fd5b6118b1836118aa6115e8565b3085611cc0565b6118ec5760405162461bcd60e51b815260040180806020018281038252603381526020018061289a6033913960400191505060405180910390fd5b50600192915050565b6060806119058360000151611cea565b6119128460200151611cea565b61191f8560400151611db0565b6040516020018084805190602001908083835b602083106119515780518252601f199092019160209182019101611932565b51815160209384036101000a600019018019909216911617905286519190930192860191508083835b602083106119995780518252601f19909201916020918201910161197a565b51815160209384036101000a600019018019909216911617905285519190930192850191508083835b602083106119e15780518252601f1990920191602091820191016119c2565b6001836020036101000a0380198251168184511680821785525050505050509050019350505050604051602081830303815290604052905080915050919050565b6001600160a01b038116611a675760405162461bcd60e51b81526004018080602001828103825260268152602001806128cd6026913960400191505060405180910390fd5b600080546040516001600160a01b03808516939216917f8be0079c531659141344cd1fd0a4f28419497f9722a3daafe3b4186f6b6457e091a3600080546001600160a01b0319166001600160a01b0392909216919091179055565b6060600080611ad18585611e4d565b865190955090915081850111801590611aec57508084018411155b611b275760405162461bcd60e51b8152600401808060200182810382526024815260200180612af06024913960400191505060405180910390fd5b606081158015611b4257604051915060208201604052611b8c565b6040519150601f8316801560200281840101848101888315602002848c0101015b81831015611b7b578051835260209283019201611b63565b5050848452601f01601f1916604052505b509250830190505b9250929050565b60008083518360200111158015611bb457508260200183105b611bef5760405162461bcd60e51b81526004018080602001828103825260238152602001806128546023913960400191505060405180910390fd5b600060405160206000600182038760208a0101515b83831015611c245780821a83860153600183019250600182039150611c04565b50505081016040525190506001600160ff1b03811115611c8b576040805162461bcd60e51b815260206004820152601760248201527f56616c75652065786365656473207468652072616e6765000000000000000000604482015290519081900360640190fd5b9460209390930193505050565b600083611cb56001600160a01b038216858563ffffffff61206616565b506001949350505050565b600084611cde6001600160a01b03821686868663ffffffff6120bd16565b50600195945050505050565b8051606090611cf88161211d565b836040516020018083805190602001908083835b60208310611d2b5780518252601f199092019160209182019101611d0c565b51815160209384036101000a600019018019909216911617905285519190930192850191508083835b60208310611d735780518252601f199092019160209182019101611d54565b6001836020036101000a03801982511681845116808217855250505050505090500192505050604051602081830303815290604052915050919050565b60606001600160ff1b03821115611e0e576040805162461bcd60e51b815260206004820152601b60248201527f56616c756520657863656564732075696e743235352072616e67650000000000604482015290519081900360640190fd5b60405160208082526000601f5b82821015611e3d5785811a826020860101536001919091019060001901611e1b565b5050506040818101905292915050565b6000806000611e5c8585612263565b94509050600060fd60f81b6001600160f81b031983161415611efa57611e8286866122e1565b955061ffff16905060fd8110801590611e9d575061ffff8111155b611eee576040805162461bcd60e51b815260206004820152601f60248201527f4e65787455696e7431362c2076616c7565206f7574736964652072616e676500604482015290519081900360640190fd5b9250839150611b949050565b607f60f91b6001600160f81b031983161415611f8a57611f1a868661236a565b955063ffffffff16905061ffff81118015611f39575063ffffffff8111155b611eee576040805162461bcd60e51b815260206004820181905260248201527f4e65787456617255696e742c2076616c7565206f7574736964652072616e6765604482015290519081900360640190fd5b6001600160f81b0319808316141561200b57611fa68686612410565b95506001600160401b0316905063ffffffff8111611eee576040805162461bcd60e51b815260206004820181905260248201527f4e65787456617255696e742c2076616c7565206f7574736964652072616e6765604482015290519081900360640190fd5b5060f881901c60fd8110611eee576040805162461bcd60e51b815260206004820181905260248201527f4e65787456617255696e742c2076616c7565206f7574736964652072616e6765604482015290519081900360640190fd5b604080516001600160a01b038416602482015260448082018490528251808303909101815260649091019091526020810180516001600160e01b031663a9059cbb60e01b1790526120b89084906124b6565b505050565b604080516001600160a01b0385811660248301528416604482015260648082018490528251808303909101815260849091019091526020810180516001600160e01b03166323b872dd60e01b1790526121179085906124b6565b50505050565b606060fd826001600160401b031610156121415761213a82612665565b9050610d3e565b61ffff826001600160401b03161161221f5761216060fd60f81b612681565b61216983612695565b6040516020018083805190602001908083835b6020831061219b5780518252601f19909201916020918201910161217c565b51815160209384036101000a600019018019909216911617905285519190930192850191508083835b602083106121e35780518252601f1990920191602091820191016121c4565b6001836020036101000a038019825116818451168082178552505050505050905001925050506040516020818303038152906040529050610d3e565b63ffffffff826001600160401b03161161224957612240607f60f91b612681565b612169836126d8565b61225a6001600160f81b0319612681565b6121698361271b565b6000808351836001011115801561227c57508260010183105b6122cd576040805162461bcd60e51b815260206004820181905260248201527f4e657874427974652c204f66667365742065786365656473206d6178696d756d604482015290519081900360640190fd5b505081810160200151600182019250929050565b600080835183600201111580156122fa57508260020183105b6123355760405162461bcd60e51b8152600401808060200182810382526022815260200180612a606022913960400191505060405180910390fd5b6000604051846020870101518060011a82538060001a6001830153506002818101604052601d19909101519694019450505050565b6000808351836004011115801561238357508260040183105b6123be5760405162461bcd60e51b8152600401808060200182810382526022815260200180612ace6022913960400191505060405180910390fd5b600060405160046000600182038760208a0101515b838310156123f35780821a838601536001830192506001820391506123d3565b505050808201604052602003900351956004949094019450505050565b6000808351836008011115801561242957508260080183105b6124645760405162461bcd60e51b8152600401808060200182810382526022815260200180612aac6022913960400191505060405180910390fd5b600060405160086000600182038760208a0101515b838310156124995780821a83860153600183019250600182039150612479565b505050808201604052602003900351956008949094019450505050565b6124bf8261275e565b612510576040805162461bcd60e51b815260206004820152601f60248201527f5361666545524332303a2063616c6c20746f206e6f6e2d636f6e747261637400604482015290519081900360640190fd5b60006060836001600160a01b0316836040518082805190602001908083835b6020831061254e5780518252601f19909201916020918201910161252f565b6001836020036101000a0380198251168184511680821785525050505050509050019150506000604051808303816000865af19150503d80600081146125b0576040519150601f19603f3d011682016040523d82523d6000602084013e6125b5565b606091505b50915091508161260c576040805162461bcd60e51b815260206004820181905260248201527f5361666545524332303a206c6f772d6c6576656c2063616c6c206661696c6564604482015290519081900360640190fd5b8051156121175780806020019051602081101561262857600080fd5b50516121175760405162461bcd60e51b815260040180806020018281038252602a815260200180612a82602a913960400191505060405180910390fd5b604080516001815260f89290921b602083015260218201905290565b606061268f8260f81c612665565b92915050565b6040516002808252606091906000601f5b828210156126c85785811a8260208601015360019190910190600019016126a6565b5050506022810160405292915050565b6040516004808252606091906000601f5b8282101561270b5785811a8260208601015360019190910190600019016126e9565b5050506024810160405292915050565b6040516008808252606091906000601f5b8282101561274e5785811a82602086010153600191909101906000190161272c565b5050506028810160405292915050565b6000813f7fc5d2460186f7233c927e7db2dcc703c0e500b653ca82273b7bfad8045d85a47081158015906127925750808214155b949350505050565b60405180606001604052806060815260200160608152602001600081525090565b828054600181600116156101000203166002900490600052602060002090601f016020900481019282601f106127fc57805160ff1916838001178555612829565b82800160010185558215612829579182015b8281111561282957825182559160200191906001019061280e565b50612835929150612839565b5090565b61145891905b80821115612835576000815560010161283f56fe4e65787455696e743235352c206f66667365742065786365656473206d6178696d756d6279746573206c656e67746820646f6573206e6f74206d6174636820616464726573737472616e7366657220657263323020617373657420746f206c6f636b5f70726f787920636f6e7472616374206661696c6564214f776e61626c653a206e6577206f776e657220697320746865207a65726f20616464726573737472616e736665722061737365742066726f6d206c6f636b5f70726f787920636f6e747261637420746f20746f41646472657373206661696c6564216d736753656e646572206973206e6f742045746843726f7373436861696e4d616e61676572436f6e747261637466726f6d2070726f787920636f6e747261637420616464726573732063616e6e6f7420626520656d70747974686572652073686f756c64206265206e6f206574686572207472616e73666572214f776e61626c653a2063616c6c6572206973206e6f7420746865206f776e657245746843726f7373436861696e4d616e616765722063726f7373436861696e206578656375746564206572726f72217472616e736665722061737365742066726f6d2066726f6d4164647265737320746f206c6f636b5f70726f787920636f6e747261637420206661696c6564217472616e73666572726564206574686572206973206e6f7420657175616c20746f20616d6f756e74214e65787455696e7431362c206f66667365742065786365656473206d6178696d756d5361666545524332303a204552433230206f7065726174696f6e20646964206e6f7420737563636565644e65787455696e7436342c206f66667365742065786365656473206d6178696d756d4e65787455696e7433322c206f66667365742065786365656473206d6178696d756d4e65787456617242797465732c206f66667365742065786365656473206d6178696d756d46726f6d2050726f787920636f6e74726163742061646472657373206572726f72217472616e736665727265642065746865722063616e6e6f74206265207a65726f21a265627a7a72315820579cfa8682036fc74a6439e7d1b3360a397611203c6720e8eafd9af3e3b3942164736f6c63430005110032",
    "linkReferences": {}
  },
  "methodIdentifiers": {
    "assetHashMap(address,uint64)": "4f7d9808",
    "bindAssetHash(address,uint64,bytes)": "3348f63b",
    "bindProxyHash(uint64,bytes)": "379b98f6",
    "getBalanceFor(address)": "59c589a1",
    "isOwner()": "8f32d59b",
    "lock(address,uint64,bytes,uint256)": "84a6d055",
    "managerProxyContract()": "d798f881",
    "owner()": "8da5cb5b",
    "proxyHashMap(uint64)": "9e5767aa",
    "renounceOwnership()": "715018a6",
    "setManagerProxy(address)": "af9980f0",
    "transferOwnership(address)": "f2fde38b",
    "unlock(bytes,bytes,uint64)": "06af4b9f"
  },
  "id": 24
}