{
  "abi": [
    {
      "anonymous": false,
      "inputs": [
        {
          "indexed": true,
          "internalType": "address",
          "name": "implementation",
          "type": "address"
        }
      ],
      "name": "Upgraded",
      "type": "event"
    },
    {
      "payable": true,
      "stateMutability": "payable",
      "type": "fallback"
    },
    {
      "constant": false,
      "inputs": [
        {
          "internalType": "address",
          "name": "_logic",
          "type": "address"
        },
        {
          "internalType": "bytes",
          "name": "_data",
          "type": "bytes"
        }
      ],
      "name": "initialize",
      "outputs": [],
      "payable": true,
      "stateMutability": "payable",
      "type": "function"
    }
  ],
  "bytecode": {
    "object": "0x608060405234801561001057600080fd5b50610361806100206000396000f3fe60806040526004361061001e5760003560e01c8063d1f5789414610028575b6100266100de565b005b6100266004803603604081101561003e57600080fd5b6001600160a01b03823516919081019060408101602082013564010000000081111561006957600080fd5b82018360208201111561007b57600080fd5b8035906020019184600183028401116401000000008311171561009d57600080fd5b91908080601f0160208091040260200160405190810160405280939291908181526020018383808284376000920191909152509295506100f8945050505050565b6100e66100f6565b6100f66100f161023a565b61025f565b565b600061010261023a565b6001600160a01b03161461011557600080fd5b604080517f656970313936372e70726f78792e696d706c656d656e746174696f6e000000008152905190819003601c0190207f360894a13ba1a3210667c828492db98dca3e2076cc3735a920a3ca505d382bbc6000199091011461017557fe5b61017e82610283565b805115610236576000826001600160a01b0316826040518082805190602001908083835b602083106101c15780518252601f1990920191602091820191016101a2565b6001836020036101000a038019825116818451168082178552505050505050905001915050600060405180830381855af49150503d8060008114610221576040519150601f19603f3d011682016040523d82523d6000602084013e610226565b606091505b505090508061023457600080fd5b505b5050565b7f360894a13ba1a3210667c828492db98dca3e2076cc3735a920a3ca505d382bbc5490565b3660008037600080366000845af43d6000803e80801561027e573d6000f35b3d6000fd5b61028c816102eb565b6102c75760405162461bcd60e51b815260040180806020018281038252603b8152602001806102f2603b913960400191505060405180910390fd5b7f360894a13ba1a3210667c828492db98dca3e2076cc3735a920a3ca505d382bbc55565b3b15159056fe43616e6e6f742073657420612070726f787920696d706c656d656e746174696f6e20746f2061206e6f6e2d636f6e74726163742061646472657373a265627a7a72315820a2d46daedf679bd3a5ce9329d7f7993000cc8b087f7c678bb9647dc45eff801b64736f6c63430005110032",
    "linkReferences": {}
  },
  "methodIdentifiers": {
    "initialize(address,bytes)": "d1f57894"
  },
  "id": 13
}