{
  "abi": [
    {
      "inputs": [
        {
          "internalType": "address",
          "name": "_owner",
          "type": "address"
        },
        {
          "internalType": "uint256",
          "name": "_chainId",
          "type": "uint256"
        }
      ],
      "payable": false,
      "stateMutability": "nonpayable",
      "type": "constructor"
    },
    {
      "anonymous": false,
      "inputs": [
        {
          "indexed": true,
          "internalType": "address",
          "name": "previousOwner",
          "type": "address"
        },
        {
          "indexed": true,
          "internalType": "address",
          "name": "newOwner",
          "type": "address"
        }
      ],
      "name": "OwnershipTransferred",
      "type": "event"
    },
    {
      "anonymous": false,
      "inputs": [
        {
          "indexed": false,
          "internalType": "address",
          "name": "account",
          "type": "address"
        }
      ],
      "name": "Paused",
      "type": "event"
    },
    {
      "anonymous": false,
      "inputs": [
        {
          "indexed": true,
          "internalType": "address",
          "name": "fromAsset",
          "type": "address"
        },
        {
          "indexed": true,
          "internalType": "address",
          "name": "sender",
          "type": "address"
        },
        {
          "indexed": false,
          "internalType": "uint64",
          "name": "toChainId",
          "type": "uint64"
        },
        {
          "indexed": false,
          "internalType": "bytes",
          "name": "toAddress",
          "type": "bytes"
        },
        {
          "indexed": false,
          "internalType": "uint256",
          "name": "net",
          "type": "uint256"
        },
        {
          "indexed": false,
          "internalType": "uint256",
          "name": "fee",
          "type": "uint256"
        },
        {
          "indexed": false,
          "internalType": "uint256",
          "name": "id",
          "type": "uint256"
        }
      ],
      "name": "PolyWrapperLock",
      "type": "event"
    },
    {
      "anonymous": false,
      "inputs": [
        {
          "indexed": true,
          "internalType": "address",
          "name": "fromAsset",
          "type": "address"
        },
        {
          "indexed": true,
          "internalType": "bytes",
          "name": "txHash",
          "type": "bytes"
        },
        {
          "indexed": true,
          "internalType": "address",
          "name": "sender",
          "type": "address"
        },
        {
          "indexed": false,
          "internalType": "uint256",
          "name": "efee",
          "type": "uint256"
        }
      ],
      "name": "PolyWrapperSpeedUp",
      "type": "event"
    },
    {
      "anonymous": false,
      "inputs": [
        {
          "indexed": false,
          "internalType": "address",
          "name": "account",
          "type": "address"
        }
      ],
      "name": "Unpaused",
      "type": "event"
    },
    {
      "constant": false,
      "inputs": [
        {
          "internalType": "address",
          "name": "_lockProxy",
          "type": "address"
        }
      ],
      "name": "addLockProxy",
      "outputs": [],
      "payable": false,
      "stateMutability": "nonpayable",
      "type": "function"
    },
    {
      "constant": true,
      "inputs": [],
      "name": "chainId",
      "outputs": [
        {
          "internalType": "uint256",
          "name": "",
          "type": "uint256"
        }
      ],
      "payable": false,
      "stateMutability": "view",
      "type": "function"
    },
    {
      "constant": false,
      "inputs": [
        {
          "internalType": "address",
          "name": "token",
          "type": "address"
        }
      ],
      "name": "extractFee",
      "outputs": [],
      "payable": false,
      "stateMutability": "nonpayable",
      "type": "function"
    },
    {
      "constant": true,
      "inputs": [],
      "name": "feeCollector",
      "outputs": [
        {
          "internalType": "address",
          "name": "",
          "type": "address"
        }
      ],
      "payable": false,
      "stateMutability": "view",
      "type": "function"
    },
    {
      "constant": true,
      "inputs": [
        {
          "internalType": "address[]",
          "name": "assets",
          "type": "address[]"
        },
        {
          "internalType": "address",
          "name": "richGuy",
          "type": "address"
        }
      ],
      "name": "getBalanceBatch",
      "outputs": [
        {
          "internalType": "uint256[]",
          "name": "",
          "type": "uint256[]"
        }
      ],
      "payable": false,
      "stateMutability": "view",
      "type": "function"
    },
    {
      "constant": true,
      "inputs": [],
      "name": "isOwner",
      "outputs": [
        {
          "internalType": "bool",
          "name": "",
          "type": "bool"
        }
      ],
      "payable": false,
      "stateMutability": "view",
      "type": "function"
    },
    {
      "constant": true,
      "inputs": [
        {
          "internalType": "address",
          "name": "lockProxy",
          "type": "address"
        }
      ],
      "name": "isValidLockProxy",
      "outputs": [
        {
          "internalType": "bool",
          "name": "",
          "type": "bool"
        }
      ],
      "payable": false,
      "stateMutability": "view",
      "type": "function"
    },
    {
      "constant": false,
      "inputs": [
        {
          "internalType": "address",
          "name": "fromAsset",
          "type": "address"
        },
        {
          "internalType": "uint64",
          "name": "toChainId",
          "type": "uint64"
        },
        {
          "internalType": "bytes",
          "name": "toAddress",
          "type": "bytes"
        },
        {
          "internalType": "uint256",
          "name": "amount",
          "type": "uint256"
        },
        {
          "internalType": "uint256",
          "name": "fee",
          "type": "uint256"
        },
        {
          "internalType": "uint256",
          "name": "id",
          "type": "uint256"
        }
      ],
      "name": "lock",
      "outputs": [],
      "payable": true,
      "stateMutability": "payable",
      "type": "function"
    },
    {
      "constant": true,
      "inputs": [
        {
          "internalType": "uint256",
          "name": "",
          "type": "uint256"
        }
      ],
      "name": "lockProxyIndexMap",
      "outputs": [
        {
          "internalType": "address",
          "name": "",
          "type": "address"
        }
      ],
      "payable": false,
      "stateMutability": "view",
      "type": "function"
    },
    {
      "constant": true,
      "inputs": [],
      "name": "maxLockProxyIndex",
      "outputs": [
        {
          "internalType": "uint256",
          "name": "",
          "type": "uint256"
        }
      ],
      "payable": false,
      "stateMutability": "view",
      "type": "function"
    },
    {
      "constant": true,
      "inputs": [],
      "name": "owner",
      "outputs": [
        {
          "internalType": "address",
          "name": "",
          "type": "address"
        }
      ],
      "payable": false,
      "stateMutability": "view",
      "type": "function"
    },
    {
      "constant": false,
      "inputs": [],
      "name": "pause",
      "outputs": [],
      "payable": false,
      "stateMutability": "nonpayable",
      "type": "function"
    },
    {
      "constant": true,
      "inputs": [],
      "name": "paused",
      "outputs": [
        {
          "internalType": "bool",
          "name": "",
          "type": "bool"
        }
      ],
      "payable": false,
      "stateMutability": "view",
      "type": "function"
    },
    {
      "constant": false,
      "inputs": [],
      "name": "renounceOwnership",
      "outputs": [],
      "payable": false,
      "stateMutability": "nonpayable",
      "type": "function"
    },
    {
      "constant": false,
      "inputs": [
        {
          "internalType": "uint256",
          "name": "index",
          "type": "uint256"
        },
        {
          "internalType": "address",
          "name": "_lockProxy",
          "type": "address"
        }
      ],
      "name": "resetLockProxy",
      "outputs": [],
      "payable": false,
      "stateMutability": "nonpayable",
      "type": "function"
    },
    {
      "constant": false,
      "inputs": [
        {
          "internalType": "address",
          "name": "collector",
          "type": "address"
        }
      ],
      "name": "setFeeCollector",
      "outputs": [],
      "payable": false,
      "stateMutability": "nonpayable",
      "type": "function"
    },
    {
      "constant": false,
      "inputs": [
        {
          "internalType": "address",
          "name": "fromAsset",
          "type": "address"
        },
        {
          "internalType": "uint64",
          "name": "toChainId",
          "type": "uint64"
        },
        {
          "internalType": "bytes",
          "name": "toAddress",
          "type": "bytes"
        },
        {
          "internalType": "uint256",
          "name": "amount",
          "type": "uint256"
        },
        {
          "internalType": "uint256",
          "name": "fee",
          "type": "uint256"
        },
        {
          "internalType": "uint256",
          "name": "id",
          "type": "uint256"
        },
        {
          "internalType": "address",
          "name": "lockProxy",
          "type": "address"
        }
      ],
      "name": "specifiedLock",
      "outputs": [],
      "payable": true,
      "stateMutability": "payable",
      "type": "function"
    },
    {
      "constant": false,
      "inputs": [
        {
          "internalType": "address",
          "name": "fromAsset",
          "type": "address"
        },
        {
          "internalType": "bytes",
          "name": "txHash",
          "type": "bytes"
        },
        {
          "internalType": "uint256",
          "name": "fee",
          "type": "uint256"
        }
      ],
      "name": "speedUp",
      "outputs": [],
      "payable": true,
      "stateMutability": "payable",
      "type": "function"
    },
    {
      "constant": false,
      "inputs": [
        {
          "internalType": "address",
          "name": "newOwner",
          "type": "address"
        }
      ],
      "name": "transferOwnership",
      "outputs": [],
      "payable": false,
      "stateMutability": "nonpayable",
      "type": "function"
    },
    {
      "constant": false,
      "inputs": [],
      "name": "unpause",
      "outputs": [],
      "payable": false,
      "stateMutability": "nonpayable",
      "type": "function"
    }
  ],
  "bytecode": {
    "object": "0x608060405260006001553480156200001657600080fd5b50604051620025f3380380620025f3833981810160405260408110156200003c57600080fd5b50805160209091015160006200005a6001600160e01b036200010116565b600080546001600160a01b0319166001600160a01b038316908117825560405192935091600080516020620025d3833981519152908290a3506000805461ffff60a01b1916600160a81b17905580620000e3576040805162461bcd60e51b8152602060048201526006602482015265085b1959d85b60d21b604482015290519081900360640190fd5b620000f7826001600160e01b036200010516565b6002555062000241565b3390565b620001186001600160e01b036200018116565b6200016a576040805162461bcd60e51b815260206004820181905260248201527f4f776e61626c653a2063616c6c6572206973206e6f7420746865206f776e6572604482015290519081900360640190fd5b6200017e816001600160e01b03620001b016565b50565b600080546001600160a01b0316620001a16001600160e01b036200010116565b6001600160a01b031614905090565b6001600160a01b038116620001f75760405162461bcd60e51b8152600401808060200182810382526026815260200180620025ad6026913960400191505060405180910390fd5b600080546040516001600160a01b0380851693921691600080516020620025d383398151915291a3600080546001600160a01b0319166001600160a01b0392909216919091179055565b61235c80620002516000396000f3fe60806040526004361061011f5760003560e01c80638b41cad3116100a0578063a42dce8011610064578063a42dce80146104e3578063b2fe4ed614610516578063c415b95c146105f3578063d3ed7c7614610608578063f2fde38b146106be5761011f565b80638b41cad31461044a5780638da5cb5b146104715780638f32d59b146104865780639a8a05921461049b5780639d8c0ce2146104b05761011f565b806360de1a9b116100e757806360de1a9b146102e6578063665fd2bd146103b4578063715018a6146103e75780638456cb59146103fc57806387aafc94146104115761011f565b80630df9cfc51461012457806313f0b82b1461016a5780631745399d146102735780633f4ba83a146102a85780635c975abb146102bd575b600080fd5b34801561013057600080fd5b5061014e6004803603602081101561014757600080fd5b50356106f1565b604080516001600160a01b039092168252519081900360200190f35b34801561017657600080fd5b506102236004803603604081101561018d57600080fd5b810190602081018135600160201b8111156101a757600080fd5b8201836020820111156101b957600080fd5b803590602001918460208302840111600160201b831117156101da57600080fd5b919080806020026020016040519081016040528093929190818152602001838360200280828437600092019190915250929550505090356001600160a01b0316915061070c9050565b60408051602080825283518183015283519192839290830191858101910280838360005b8381101561025f578181015183820152602001610247565b505050509050019250505060405180910390f35b34801561027f57600080fd5b506102a66004803603602081101561029657600080fd5b50356001600160a01b0316610861565b005b3480156102b457600080fd5b506102a6610989565b3480156102c957600080fd5b506102d26109da565b604080519115158252519081900360200190f35b6102a6600480360360c08110156102fc57600080fd5b6001600160a01b038235169167ffffffffffffffff60208201351691810190606081016040820135600160201b81111561033557600080fd5b82018360208201111561034757600080fd5b803590602001918460018302840111600160201b8311171561036857600080fd5b91908080601f01602080910402602001604051908101604052809392919081815260200183838082843760009201919091525092955050823593505050602081013590604001356109ea565b3480156103c057600080fd5b506102d2600480360360208110156103d757600080fd5b50356001600160a01b0316610ccf565b3480156103f357600080fd5b506102a6610d1c565b34801561040857600080fd5b506102a6610dad565b34801561041d57600080fd5b506102a66004803603604081101561043457600080fd5b50803590602001356001600160a01b0316610dfc565b34801561045657600080fd5b5061045f610f84565b60408051918252519081900360200190f35b34801561047d57600080fd5b5061014e610f8a565b34801561049257600080fd5b506102d2610f99565b3480156104a757600080fd5b5061045f610fbd565b3480156104bc57600080fd5b506102a6600480360360208110156104d357600080fd5b50356001600160a01b0316610fc3565b3480156104ef57600080fd5b506102a66004803603602081101561050657600080fd5b50356001600160a01b03166110fe565b6102a6600480360360e081101561052c57600080fd5b6001600160a01b038235169167ffffffffffffffff60208201351691810190606081016040820135600160201b81111561056557600080fd5b82018360208201111561057757600080fd5b803590602001918460018302840111600160201b8311171561059857600080fd5b91908080601f01602080910402602001604051908101604052809392919081815260200183838082843760009201919091525092955050823593505050602081013590604081013590606001356001600160a01b03166111b2565b3480156105ff57600080fd5b5061014e6113d9565b6102a66004803603606081101561061e57600080fd5b6001600160a01b038235169190810190604081016020820135600160201b81111561064857600080fd5b82018360208201111561065a57600080fd5b803590602001918460018302840111600160201b8311171561067b57600080fd5b91908080601f01602080910402602001604051908101604052809392919081815260200183838082843760009201919091525092955050913592506113e8915050565b3480156106ca57600080fd5b506102a6600480360360208110156106e157600080fd5b50356001600160a01b0316611565565b6004602052600090815260409020546001600160a01b031681565b606080835160405190808252806020026020018201604052801561073a578160200160208202803883390190505b50905060005b84518110156108575760006001600160a01b031685828151811061076057fe5b60200260200101516001600160a01b0316141561079f57836001600160a01b03163182828151811061078e57fe5b60200260200101818152505061084f565b8481815181106107ab57fe5b60200260200101516001600160a01b03166370a08231856040518263ffffffff1660e01b815260040180826001600160a01b03166001600160a01b0316815260200191505060206040518083038186803b15801561080857600080fd5b505afa15801561081c573d6000803e3d6000fd5b505050506040513d602081101561083257600080fd5b5051825183908390811061084257fe5b6020026020010181815250505b600101610740565b5090505b92915050565b6003546001600160a01b031633146108b0576040805162461bcd60e51b815260206004820152600d60248201526c10b332b2a1b7b63632b1ba37b960991b604482015290519081900360640190fd5b6001600160a01b0381166108f05760405133904780156108fc02916000818181858888f193505050501580156108ea573d6000803e3d6000fd5b50610986565b600354604080516370a0823160e01b81523060048201529051610986926001600160a01b0390811692908516916370a0823191602480820192602092909190829003018186803b15801561094357600080fd5b505afa158015610957573d6000803e3d6000fd5b505050506040513d602081101561096d57600080fd5b50516001600160a01b038416919063ffffffff6115b516565b50565b610991610f99565b6109d0576040805162461bcd60e51b81526020600482018190526024820152600080516020612285833981519152604482015290519081900360640190fd5b6109d861160c565b565b600054600160a01b900460ff1690565b600054600160a81b900460ff16610a48576040805162461bcd60e51b815260206004820152601f60248201527f5265656e7472616e637947756172643a207265656e7472616e742063616c6c00604482015290519081900360640190fd5b6000805460ff60a81b191690819055600160a01b900460ff1615610aa6576040805162461bcd60e51b815260206004820152601060248201526f14185d5cd8589b194e881c185d5cd95960821b604482015290519081900360640190fd5b6002548567ffffffffffffffff1614158015610acb575067ffffffffffffffff851615155b610b09576040805162461bcd60e51b815260206004820152600a602482015269085d1bd0da185a5b925960b21b604482015290519081900360640190fd5b8351610b4e576040805162461bcd60e51b815260206004820152600f60248201526e656d70747920746f4164647265737360881b604482015290519081900360640190fd5b60148401516001600160a01b038116610b9f576040805162461bcd60e51b815260206004820152600e60248201526d7a65726f20746f4164647265737360901b604482015290519081900360640190fd5b610ba987856116b4565b610bb487858561172b565b93506000610bc2888861183b565b9050610bd188888888856119ef565b336001600160a01b0316886001600160a01b03167f2b0591052cc6602e870d3994f0a1b173fdac98c215cb3b0baf84eaca5a0aa81e8989898989604051808667ffffffffffffffff1667ffffffffffffffff16815260200180602001858152602001848152602001838152602001828103825286818151815260200191508051906020019080838360005b83811015610c74578181015183820152602001610c5c565b50505050905090810190601f168015610ca15780820380516001836020036101000a031916815260200191505b50965050505050505060405180910390a350506000805460ff60a81b1916600160a81b179055505050505050565b6000805b600154811015610d11576000818152600460205260409020546001600160a01b0384811691161415610d09576001915050610d17565b600101610cd3565b50600090505b919050565b610d24610f99565b610d63576040805162461bcd60e51b81526020600482018190526024820152600080516020612285833981519152604482015290519081900360640190fd5b600080546040516001600160a01b03909116907f8be0079c531659141344cd1fd0a4f28419497f9722a3daafe3b4186f6b6457e0908390a3600080546001600160a01b0319169055565b610db5610f99565b610df4576040805162461bcd60e51b81526020600482018190526024820152600080516020612285833981519152604482015290519081900360640190fd5b6109d8611cd7565b610e04610f99565b610e43576040805162461bcd60e51b81526020600482018190526024820152600080516020612285833981519152604482015290519081900360640190fd5b6001600160a01b038116610e5657600080fd5b6000828152600460205260409020546001600160a01b0316610ea95760405162461bcd60e51b81526004018080602001828103825260228152602001806122636022913960400191505060405180910390fd5b600082815260046020818152604080842080546001600160a01b0319166001600160a01b038716908117909155815163d798f88160e01b81529151909363d798f881938382019390929190829003018186803b158015610f0857600080fd5b505afa158015610f1c573d6000803e3d6000fd5b505050506040513d6020811015610f3257600080fd5b50516001600160a01b03161415610f80576040805162461bcd60e51b815260206004820152600d60248201526c6e6f74206c6f636b70726f787960981b604482015290519081900360640190fd5b5050565b60015481565b6000546001600160a01b031690565b600080546001600160a01b0316610fae611d61565b6001600160a01b031614905090565b60025481565b610fcb610f99565b61100a576040805162461bcd60e51b81526020600482018190526024820152600080516020612285833981519152604482015290519081900360640190fd5b6001600160a01b03811661101d57600080fd5b60018054808201909155600090815260046020818152604080842080546001600160a01b0319166001600160a01b038716908117909155815163d798f88160e01b81529151909363d798f881938382019390929190829003018186803b15801561108657600080fd5b505afa15801561109a573d6000803e3d6000fd5b505050506040513d60208110156110b057600080fd5b50516001600160a01b03161415610986576040805162461bcd60e51b815260206004820152600d60248201526c6e6f74206c6f636b70726f787960981b604482015290519081900360640190fd5b611106610f99565b611145576040805162461bcd60e51b81526020600482018190526024820152600080516020612285833981519152604482015290519081900360640190fd5b6001600160a01b038116611190576040805162461bcd60e51b815260206004820152600d60248201526c656d747079206164647265737360981b604482015290519081900360640190fd5b600380546001600160a01b0319166001600160a01b0392909216919091179055565b600054600160a81b900460ff16611210576040805162461bcd60e51b815260206004820152601f60248201527f5265656e7472616e637947756172643a207265656e7472616e742063616c6c00604482015290519081900360640190fd5b6000805460ff60a81b191690819055600160a01b900460ff161561126e576040805162461bcd60e51b815260206004820152601060248201526f14185d5cd8589b194e881c185d5cd95960821b604482015290519081900360640190fd5b6002548667ffffffffffffffff1614158015611293575067ffffffffffffffff861615155b6112d1576040805162461bcd60e51b815260206004820152600a602482015269085d1bd0da185a5b925960b21b604482015290519081900360640190fd5b8451611316576040805162461bcd60e51b815260206004820152600f60248201526e656d70747920746f4164647265737360881b604482015290519081900360640190fd5b60148501516001600160a01b038116611367576040805162461bcd60e51b815260206004820152600e60248201526d7a65726f20746f4164647265737360901b604482015290519081900360640190fd5b61137188866116b4565b61137c88868661172b565b945061138782610ccf565b6113cc576040805162461bcd60e51b8152602060048201526011602482015270696e76616c6964206c6f636b50726f787960781b604482015290519081900360640190fd5b610bd188888888866119ef565b6003546001600160a01b031681565b600054600160a81b900460ff16611446576040805162461bcd60e51b815260206004820152601f60248201527f5265656e7472616e637947756172643a207265656e7472616e742063616c6c00604482015290519081900360640190fd5b6000805460ff60a81b191690819055600160a01b900460ff16156114a4576040805162461bcd60e51b815260206004820152601060248201526f14185d5cd8589b194e881c185d5cd95960821b604482015290519081900360640190fd5b6114ae83826116b4565b336001600160a01b0316826040518082805190602001908083835b602083106114e85780518252601f1990920191602091820191016114c9565b51815160209384036101000a60001901801990921691161790526040805192909401829003822088835293519395506001600160a01b038a1694507ff6579aef3e0d086d986c5d6972659f8a0d8602ef7945b054be1b88e088773ef69391829003019150a450506000805460ff60a81b1916600160a81b17905550565b61156d610f99565b6115ac576040805162461bcd60e51b81526020600482018190526024820152600080516020612285833981519152604482015290519081900360640190fd5b61098681611d65565b604080516001600160a01b038416602482015260448082018490528251808303909101815260649091019091526020810180516001600160e01b031663a9059cbb60e01b179052611607908490611e05565b505050565b600054600160a01b900460ff16611661576040805162461bcd60e51b815260206004820152601460248201527314185d5cd8589b194e881b9bdd081c185d5cd95960621b604482015290519081900360640190fd5b6000805460ff60a01b191690557f5db9ee0a495bf2e6ff9c91a7834c1ba4fdd244a5e8aa4e537bd38aeae4b073aa611697611d61565b604080516001600160a01b039092168252519081900360200190a1565b6001600160a01b0382166117105780341461170b576040805162461bcd60e51b815260206004820152601260248201527134b739bab33334b1b4b2b73a1032ba3432b960711b604482015290519081900360640190fd5b610f80565b610f806001600160a01b03831633308463ffffffff611fba16565b60006001600160a01b0384166117e75782341015611785576040805162461bcd60e51b815260206004820152601260248201527134b739bab33334b1b4b2b73a1032ba3432b960711b604482015290519081900360640190fd5b8183116117d0576040805162461bcd60e51b8152602060048201526014602482015273616d6f756e74206c657373207468616e2066656560601b604482015290519081900360640190fd5b6117e0838363ffffffff61201416565b9050611834565b81341015611831576040805162461bcd60e51b815260206004820152601260248201527134b739bab33334b1b4b2b73a1032ba3432b960711b604482015290519081900360640190fd5b50815b9392505050565b6000805b6001548110156119b75760008181526004602081905260408083205481516309efb30160e31b81526001600160a01b038981169482019490945267ffffffffffffffff8816602482015291519216928392634f7d9808926044808201939291829003018186803b1580156118b257600080fd5b505afa1580156118c6573d6000803e3d6000fd5b505050506040513d6000823e601f3d908101601f1916820160405260208110156118ef57600080fd5b8101908080516040519392919084600160201b82111561190e57600080fd5b90830190602082018581111561192357600080fd5b8251600160201b81118282018810171561193c57600080fd5b82525081516020918201929091019080838360005b83811015611969578181015183820152602001611951565b50505050905090810190601f1680156119965780820380516001836020036101000a031916815260200191505b50604052505050516000146119ae57915061085b9050565b5060010161183f565b5060405162461bcd60e51b81526004018080602001828103825260238152602001806123056023913960400191505060405180910390fd5b806001600160a01b038616611b5957806001600160a01b03166384a6d05584888888886040518663ffffffff1660e01b815260040180856001600160a01b03166001600160a01b031681526020018467ffffffffffffffff1667ffffffffffffffff16815260200180602001838152602001828103825284818151815260200191508051906020019080838360005b83811015611a96578181015183820152602001611a7e565b50505050905090810190601f168015611ac35780820380516001836020036101000a031916815260200191505b50955050505050506020604051808303818588803b158015611ae457600080fd5b505af1158015611af8573d6000803e3d6000fd5b50505050506040513d6020811015611b0f57600080fd5b5051611b54576040805162461bcd60e51b815260206004820152600f60248201526e1b1bd8dac8195d1a195c8819985a5b608a1b604482015290519081900360640190fd5b611ccf565b611b746001600160a01b03871682600063ffffffff61205616565b611b8e6001600160a01b038716828563ffffffff61205616565b6040516384a6d05560e01b81526001600160a01b038781166004830190815267ffffffffffffffff8816602484015260648301869052608060448401908152875160848501528751928516936384a6d055938b938b938b938b9360a490910190602086019080838360005b83811015611c11578181015183820152602001611bf9565b50505050905090810190601f168015611c3e5780820380516001836020036101000a031916815260200191505b5095505050505050602060405180830381600087803b158015611c6057600080fd5b505af1158015611c74573d6000803e3d6000fd5b505050506040513d6020811015611c8a57600080fd5b5051611ccf576040805162461bcd60e51b815260206004820152600f60248201526e1b1bd8dac8195c98cc8c0819985a5b608a1b604482015290519081900360640190fd5b505050505050565b600054600160a01b900460ff1615611d29576040805162461bcd60e51b815260206004820152601060248201526f14185d5cd8589b194e881c185d5cd95960821b604482015290519081900360640190fd5b6000805460ff60a01b1916600160a01b1790557f62e78cea01bee320cd4e420270b5ea74000d11b0c9f74754ebdbfc544b05a2586116975b3390565b6001600160a01b038116611daa5760405162461bcd60e51b815260040180806020018281038252602681526020018061223d6026913960400191505060405180910390fd5b600080546040516001600160a01b03808516939216917f8be0079c531659141344cd1fd0a4f28419497f9722a3daafe3b4186f6b6457e091a3600080546001600160a01b0319166001600160a01b0392909216919091179055565b611e0e82612169565b611e5f576040805162461bcd60e51b815260206004820152601f60248201527f5361666545524332303a2063616c6c20746f206e6f6e2d636f6e747261637400604482015290519081900360640190fd5b60006060836001600160a01b0316836040518082805190602001908083835b60208310611e9d5780518252601f199092019160209182019101611e7e565b6001836020036101000a0380198251168184511680821785525050505050509050019150506000604051808303816000865af19150503d8060008114611eff576040519150601f19603f3d011682016040523d82523d6000602084013e611f04565b606091505b509150915081611f5b576040805162461bcd60e51b815260206004820181905260248201527f5361666545524332303a206c6f772d6c6576656c2063616c6c206661696c6564604482015290519081900360640190fd5b805115611fb457808060200190516020811015611f7757600080fd5b5051611fb45760405162461bcd60e51b815260040180806020018281038252602a8152602001806122a5602a913960400191505060405180910390fd5b50505050565b604080516001600160a01b0385811660248301528416604482015260648082018490528251808303909101815260849091019091526020810180516001600160e01b03166323b872dd60e01b179052611fb4908590611e05565b600061183483836040518060400160405280601e81526020017f536166654d6174683a207375627472616374696f6e206f766572666c6f7700008152506121a5565b8015806120dc575060408051636eb1769f60e11b81523060048201526001600160a01b03848116602483015291519185169163dd62ed3e91604480820192602092909190829003018186803b1580156120ae57600080fd5b505afa1580156120c2573d6000803e3d6000fd5b505050506040513d60208110156120d857600080fd5b5051155b6121175760405162461bcd60e51b81526004018080602001828103825260368152602001806122cf6036913960400191505060405180910390fd5b604080516001600160a01b038416602482015260448082018490528251808303909101815260649091019091526020810180516001600160e01b031663095ea7b360e01b179052611607908490611e05565b6000813f7fc5d2460186f7233c927e7db2dcc703c0e500b653ca82273b7bfad8045d85a470811580159061219d5750808214155b949350505050565b600081848411156122345760405162461bcd60e51b81526004018080602001828103825283818151815260200191508051906020019080838360005b838110156121f95781810151838201526020016121e1565b50505050905090810190601f1680156122265780820380516001836020036101000a031916815260200191505b509250505060405180910390fd5b50505090039056fe4f776e61626c653a206e6577206f776e657220697320746865207a65726f20616464726573736e6f206c6f636b70726f78792065787369737420696e20676976656e20696e6465784f776e61626c653a2063616c6c6572206973206e6f7420746865206f776e65725361666545524332303a204552433230206f7065726174696f6e20646964206e6f7420737563636565645361666545524332303a20617070726f76652066726f6d206e6f6e2d7a65726f20746f206e6f6e2d7a65726f20616c6c6f77616e63654e6f204c6f636b50726f787920537570706f727420746869732063726f73732074786ea265627a7a7231582093e1fe05a39d98debb0a4aaa6fef5990ad69ec5bbf8e54498da53f8917a2464464736f6c634300051100324f776e61626c653a206e6577206f776e657220697320746865207a65726f20616464726573738be0079c531659141344cd1fd0a4f28419497f9722a3daafe3b4186f6b6457e0",
    "linkReferences": {}
  },
  "methodIdentifiers": {
    "addLockProxy(address)": "9d8c0ce2",
    "chainId()": "9a8a0592",
    "extractFee(address)": "1745399d",
    "feeCollector()": "c415b95c",
    "getBalanceBatch(address[],address)": "13f0b82b",
    "isOwner()": "8f32d59b",
    "isValidLockProxy(address)": "665fd2bd",
    "lock(address,uint64,bytes,uint256,uint256,uint256)": "60de1a9b",
    "lockProxyIndexMap(uint256)": "0df9cfc5",
    "maxLockProxyIndex()": "8b41cad3",
    "owner()": "8da5cb5b",
    "pause()": "8456cb59",
    "paused()": "5c975abb",
    "renounceOwnership()": "715018a6",
    "resetLockProxy(uint256,address)": "87aafc94",
    "setFeeCollector(address)": "a42dce80",
    "specifiedLock(address,uint64,bytes,uint256,uint256,uint256,address)": "b2fe4ed6",
    "speedUp(address,bytes,uint256)": "d3ed7c76",
    "transferOwnership(address)": "f2fde38b",
    "unpause()": "3f4ba83a"
  },
  "id": 41
}